{
  "_format": "hh-sol-artifact-1",
  "contractName": "VRFCoordinatorMock",
  "sourceName": "@chainlink/contracts/src/v0.8/vrf/mocks/VRFCoordinatorMock.sol",
  "abi": [
    {
      "inputs": [
        {
          "internalType": "address",
          "name": "linkAddress",
          "type": "address"
        }
      ],
      "stateMutability": "nonpayable",
      "type": "constructor"
    },
    {
      "anonymous": false,
      "inputs": [
        {
          "indexed": true,
          "internalType": "address",
          "name": "sender",
          "type": "address"
        },
        {
          "indexed": true,
          "internalType": "bytes32",
          "name": "keyHash",
          "type": "bytes32"
        },
        {
          "indexed": true,
          "internalType": "uint256",
          "name": "seed",
          "type": "uint256"
        },
        {
          "indexed": false,
          "internalType": "uint256",
          "name": "fee",
          "type": "uint256"
        }
      ],
      "name": "RandomnessRequest",
      "type": "event"
    },
    {
      "inputs": [],
      "name": "LINK",
      "outputs": [
        {
          "internalType": "contract LinkTokenInterface",
          "name": "",
          "type": "address"
        }
      ],
      "stateMutability": "view",
      "type": "function"
    },
    {
      "inputs": [
        {
          "internalType": "bytes32",
          "name": "requestId",
          "type": "bytes32"
        },
        {
          "internalType": "uint256",
          "name": "randomness",
          "type": "uint256"
        },
        {
          "internalType": "address",
          "name": "consumerContract",
          "type": "address"
        }
      ],
      "name": "callBackWithRandomness",
      "outputs": [],
      "stateMutability": "nonpayable",
      "type": "function"
    },
    {
      "inputs": [
        {
          "internalType": "address",
          "name": "sender",
          "type": "address"
        },
        {
          "internalType": "uint256",
          "name": "fee",
          "type": "uint256"
        },
        {
          "internalType": "bytes",
          "name": "_data",
          "type": "bytes"
        }
      ],
      "name": "onTokenTransfer",
      "outputs": [],
      "stateMutability": "nonpayable",
      "type": "function"
    }
  ],
  "bytecode": "0x608060405234801561001057600080fd5b506040516109c53803806109c58339818101604052810190610032919061008d565b806000806101000a81548173ffffffffffffffffffffffffffffffffffffffff021916908373ffffffffffffffffffffffffffffffffffffffff16021790555050610108565b600081519050610087816100f1565b92915050565b6000602082840312156100a3576100a26100ec565b5b60006100b184828501610078565b91505092915050565b60006100c5826100cc565b9050919050565b600073ffffffffffffffffffffffffffffffffffffffff82169050919050565b600080fd5b6100fa816100ba565b811461010557600080fd5b50565b6108ae806101176000396000f3fe608060405234801561001057600080fd5b50600436106100415760003560e01c80631b6b6d2314610046578063a4c0ed3614610064578063cf55fe9714610080575b600080fd5b61004e61009c565b60405161005b91906105bd565b60405180910390f35b61007e600480360381019061007991906103d7565b6100c0565b005b61009a60048036038101906100959190610486565b6101c0565b005b60008054906101000a900473ffffffffffffffffffffffffffffffffffffffff1681565b60008054906101000a900473ffffffffffffffffffffffffffffffffffffffff1673ffffffffffffffffffffffffffffffffffffffff163373ffffffffffffffffffffffffffffffffffffffff161461014e576040517f08c379a0000000000000000000000000000000000000000000000000000000008152600401610145906105f8565b60405180910390fd5b600080828060200190518101906101659190610446565b9150915080828673ffffffffffffffffffffffffffffffffffffffff167fb6a11357fce9fae0b59dcc6e5e4bf50803daf2b17d3b80739767e0c4fdacb444876040516101b19190610618565b60405180910390a45050505050565b6000806394985ddd60e01b85856040516024016101de929190610594565b604051602081830303815290604052907bffffffffffffffffffffffffffffffffffffffffffffffffffffffff19166020820180517bffffffffffffffffffffffffffffffffffffffffffffffffffffffff838183161783525050505090506000620324b09050805a1015610288576040517f08c379a000000000000000000000000000000000000000000000000000000000815260040161027f906105d8565b60405180910390fd5b60008473ffffffffffffffffffffffffffffffffffffffff16836040516102af919061057d565b6000604051808303816000865af19150503d80600081146102ec576040519150601f19603f3d011682016040523d82523d6000602084013e6102f1565b606091505b5050905050505050505050565b600061031161030c84610658565b610633565b90508281526020810184848401111561032d5761032c6107c1565b5b61033884828561071a565b509392505050565b60008135905061034f81610833565b92915050565b6000813590506103648161084a565b92915050565b6000815190506103798161084a565b92915050565b600082601f830112610394576103936107bc565b5b81356103a48482602086016102fe565b91505092915050565b6000813590506103bc81610861565b92915050565b6000815190506103d181610861565b92915050565b6000806000606084860312156103f0576103ef6107cb565b5b60006103fe86828701610340565b935050602061040f868287016103ad565b925050604084013567ffffffffffffffff8111156104305761042f6107c6565b5b61043c8682870161037f565b9150509250925092565b6000806040838503121561045d5761045c6107cb565b5b600061046b8582860161036a565b925050602061047c858286016103c2565b9150509250929050565b60008060006060848603121561049f5761049e6107cb565b5b60006104ad86828701610355565b93505060206104be868287016103ad565b92505060406104cf86828701610340565b9150509250925092565b6104e2816106c2565b82525050565b60006104f382610689565b6104fd8185610694565b935061050d818560208601610729565b80840191505092915050565b610522816106f6565b82525050565b6000610535601b8361069f565b9150610540826107e1565b602082019050919050565b600061055860138361069f565b91506105638261080a565b602082019050919050565b610577816106ec565b82525050565b600061058982846104e8565b915081905092915050565b60006040820190506105a960008301856104d9565b6105b6602083018461056e565b9392505050565b60006020820190506105d26000830184610519565b92915050565b600060208201905081810360008301526105f181610528565b9050919050565b600060208201905081810360008301526106118161054b565b9050919050565b600060208201905061062d600083018461056e565b92915050565b600061063d61064e565b9050610649828261075c565b919050565b6000604051905090565b600067ffffffffffffffff8211156106735761067261078d565b5b61067c826107d0565b9050602081019050919050565b600081519050919050565b600081905092915050565b600082825260208201905092915050565b60006106bb826106cc565b9050919050565b6000819050919050565b600073ffffffffffffffffffffffffffffffffffffffff82169050919050565b6000819050919050565b600061070182610708565b9050919050565b6000610713826106cc565b9050919050565b82818337600083830152505050565b60005b8381101561074757808201518184015260208101905061072c565b83811115610756576000848401525b50505050565b610765826107d0565b810181811067ffffffffffffffff821117156107845761078361078d565b5b80604052505050565b7f4e487b7100000000000000000000000000000000000000000000000000000000600052604160045260246000fd5b600080fd5b600080fd5b600080fd5b600080fd5b6000601f19601f8301169050919050565b7f6e6f7420656e6f7567682067617320666f7220636f6e73756d65720000000000600082015250565b7f4d75737420757365204c494e4b20746f6b656e00000000000000000000000000600082015250565b61083c816106b0565b811461084757600080fd5b50565b610853816106c2565b811461085e57600080fd5b50565b61086a816106ec565b811461087557600080fd5b5056fea2646970667358221220f9d4c64da200fc20fe0c79c0482a589a1e41b98a7ecdf0e7583b0503754a152b64736f6c63430008060033",
  "linkReferences": {},
  "deployedLinkReferences": {}
}