{
  "_format": "hh-sol-artifact-1",
  "contractName": "VRFCoordinatorV2",
  "sourceName": "@chainlink/contracts/src/v0.8/vrf/VRFCoordinatorV2.sol",
  "abi": [
    {
      "inputs": [
        {
          "internalType": "address",
          "name": "link",
          "type": "address"
        },
        {
          "internalType": "address",
          "name": "blockhashStore",
          "type": "address"
        },
        {
          "internalType": "address",
          "name": "linkEthFeed",
          "type": "address"
        }
      ],
      "stateMutability": "nonpayable",
      "type": "constructor"
    },
    {
      "inputs": [
        {
          "internalType": "uint256",
          "name": "internalBalance",
          "type": "uint256"
        },
        {
          "internalType": "uint256",
          "name": "externalBalance",
          "type": "uint256"
        }
      ],
      "name": "BalanceInvariantViolated",
      "type": "error"
    },
    {
      "inputs": [
        {
          "internalType": "uint256",
          "name": "blockNum",
          "type": "uint256"
        }
      ],
      "name": "BlockhashNotInStore",
      "type": "error"
    },
    {
      "inputs": [
        {
          "internalType": "uint32",
          "name": "have",
          "type": "uint32"
        },
        {
          "internalType": "uint32",
          "name": "want",
          "type": "uint32"
        }
      ],
      "name": "GasLimitTooBig",
      "type": "error"
    },
    {
      "inputs": [],
      "name": "IncorrectCommitment",
      "type": "error"
    },
    {
      "inputs": [],
      "name": "InsufficientBalance",
      "type": "error"
    },
    {
      "inputs": [
        {
          "internalType": "uint256",
          "name": "have",
          "type": "uint256"
        },
        {
          "internalType": "uint256",
          "name": "want",
          "type": "uint256"
        }
      ],
      "name": "InsufficientGasForConsumer",
      "type": "error"
    },
    {
      "inputs": [],
      "name": "InvalidCalldata",
      "type": "error"
    },
    {
      "inputs": [
        {
          "internalType": "uint64",
          "name": "subId",
          "type": "uint64"
        },
        {
          "internalType": "address",
          "name": "consumer",
          "type": "address"
        }
      ],
      "name": "InvalidConsumer",
      "type": "error"
    },
    {
      "inputs": [
        {
          "internalType": "int256",
          "name": "linkWei",
          "type": "int256"
        }
      ],
      "name": "InvalidLinkWeiPrice",
      "type": "error"
    },
    {
      "inputs": [
        {
          "internalType": "uint16",
          "name": "have",
          "type": "uint16"
        },
        {
          "internalType": "uint16",
          "name": "min",
          "type": "uint16"
        },
        {
          "internalType": "uint16",
          "name": "max",
          "type": "uint16"
        }
      ],
      "name": "InvalidRequestConfirmations",
      "type": "error"
    },
    {
      "inputs": [],
      "name": "InvalidSubscription",
      "type": "error"
    },
    {
      "inputs": [
        {
          "internalType": "address",
          "name": "proposedOwner",
          "type": "address"
        }
      ],
      "name": "MustBeRequestedOwner",
      "type": "error"
    },
    {
      "inputs": [
        {
          "internalType": "address",
          "name": "owner",
          "type": "address"
        }
      ],
      "name": "MustBeSubOwner",
      "type": "error"
    },
    {
      "inputs": [],
      "name": "NoCorrespondingRequest",
      "type": "error"
    },
    {
      "inputs": [
        {
          "internalType": "bytes32",
          "name": "keyHash",
          "type": "bytes32"
        }
      ],
      "name": "NoSuchProvingKey",
      "type": "error"
    },
    {
      "inputs": [
        {
          "internalType": "uint32",
          "name": "have",
          "type": "uint32"
        },
        {
          "internalType": "uint32",
          "name": "want",
          "type": "uint32"
        }
      ],
      "name": "NumWordsTooBig",
      "type": "error"
    },
    {
      "inputs": [],
      "name": "OnlyCallableFromLink",
      "type": "error"
    },
    {
      "inputs": [],
      "name": "PaymentTooLarge",
      "type": "error"
    },
    {
      "inputs": [],
      "name": "PendingRequestExists",
      "type": "error"
    },
    {
      "inputs": [
        {
          "internalType": "bytes32",
          "name": "keyHash",
          "type": "bytes32"
        }
      ],
      "name": "ProvingKeyAlreadyRegistered",
      "type": "error"
    },
    {
      "inputs": [],
      "name": "Reentrant",
      "type": "error"
    },
    {
      "inputs": [],
      "name": "TooManyConsumers",
      "type": "error"
    },
    {
      "anonymous": false,
      "inputs": [
        {
          "indexed": false,
          "internalType": "uint16",
          "name": "minimumRequestConfirmations",
          "type": "uint16"
        },
        {
          "indexed": false,
          "internalType": "uint32",
          "name": "maxGasLimit",
          "type": "uint32"
        },
        {
          "indexed": false,
          "internalType": "uint32",
          "name": "stalenessSeconds",
          "type": "uint32"
        },
        {
          "indexed": false,
          "internalType": "uint32",
          "name": "gasAfterPaymentCalculation",
          "type": "uint32"
        },
        {
          "indexed": false,
          "internalType": "int256",
          "name": "fallbackWeiPerUnitLink",
          "type": "int256"
        },
        {
          "components": [
            {
              "internalType": "uint32",
              "name": "fulfillmentFlatFeeLinkPPMTier1",
              "type": "uint32"
            },
            {
              "internalType": "uint32",
              "name": "fulfillmentFlatFeeLinkPPMTier2",
              "type": "uint32"
            },
            {
              "internalType": "uint32",
              "name": "fulfillmentFlatFeeLinkPPMTier3",
              "type": "uint32"
            },
            {
              "internalType": "uint32",
              "name": "fulfillmentFlatFeeLinkPPMTier4",
              "type": "uint32"
            },
            {
              "internalType": "uint32",
              "name": "fulfillmentFlatFeeLinkPPMTier5",
              "type": "uint32"
            },
            {
              "internalType": "uint24",
              "name": "reqsForTier2",
              "type": "uint24"
            },
            {
              "internalType": "uint24",
              "name": "reqsForTier3",
              "type": "uint24"
            },
            {
              "internalType": "uint24",
              "name": "reqsForTier4",
              "type": "uint24"
            },
            {
              "internalType": "uint24",
              "name": "reqsForTier5",
              "type": "uint24"
            }
          ],
          "indexed": false,
          "internalType": "struct VRFCoordinatorV2.FeeConfig",
          "name": "feeConfig",
          "type": "tuple"
        }
      ],
      "name": "ConfigSet",
      "type": "event"
    },
    {
      "anonymous": false,
      "inputs": [
        {
          "indexed": false,
          "internalType": "address",
          "name": "to",
          "type": "address"
        },
        {
          "indexed": false,
          "internalType": "uint256",
          "name": "amount",
          "type": "uint256"
        }
      ],
      "name": "FundsRecovered",
      "type": "event"
    },
    {
      "anonymous": false,
      "inputs": [
        {
          "indexed": true,
          "internalType": "address",
          "name": "from",
          "type": "address"
        },
        {
          "indexed": true,
          "internalType": "address",
          "name": "to",
          "type": "address"
        }
      ],
      "name": "OwnershipTransferRequested",
      "type": "event"
    },
    {
      "anonymous": false,
      "inputs": [
        {
          "indexed": true,
          "internalType": "address",
          "name": "from",
          "type": "address"
        },
        {
          "indexed": true,
          "internalType": "address",
          "name": "to",
          "type": "address"
        }
      ],
      "name": "OwnershipTransferred",
      "type": "event"
    },
    {
      "anonymous": false,
      "inputs": [
        {
          "indexed": false,
          "internalType": "bytes32",
          "name": "keyHash",
          "type": "bytes32"
        },
        {
          "indexed": true,
          "internalType": "address",
          "name": "oracle",
          "type": "address"
        }
      ],
      "name": "ProvingKeyDeregistered",
      "type": "event"
    },
    {
      "anonymous": false,
      "inputs": [
        {
          "indexed": false,
          "internalType": "bytes32",
          "name": "keyHash",
          "type": "bytes32"
        },
        {
          "indexed": true,
          "internalType": "address",
          "name": "oracle",
          "type": "address"
        }
      ],
      "name": "ProvingKeyRegistered",
      "type": "event"
    },
    {
      "anonymous": false,
      "inputs": [
        {
          "indexed": true,
          "internalType": "uint256",
          "name": "requestId",
          "type": "uint256"
        },
        {
          "indexed": false,
          "internalType": "uint256",
          "name": "outputSeed",
          "type": "uint256"
        },
        {
          "indexed": false,
          "internalType": "uint96",
          "name": "payment",
          "type": "uint96"
        },
        {
          "indexed": false,
          "internalType": "bool",
          "name": "success",
          "type": "bool"
        }
      ],
      "name": "RandomWordsFulfilled",
      "type": "event"
    },
    {
      "anonymous": false,
      "inputs": [
        {
          "indexed": true,
          "internalType": "bytes32",
          "name": "keyHash",
          "type": "bytes32"
        },
        {
          "indexed": false,
          "internalType": "uint256",
          "name": "requestId",
          "type": "uint256"
        },
        {
          "indexed": false,
          "internalType": "uint256",
          "name": "preSeed",
          "type": "uint256"
        },
        {
          "indexed": true,
          "internalType": "uint64",
          "name": "subId",
          "type": "uint64"
        },
        {
          "indexed": false,
          "internalType": "uint16",
          "name": "minimumRequestConfirmations",
          "type": "uint16"
        },
        {
          "indexed": false,
          "internalType": "uint32",
          "name": "callbackGasLimit",
          "type": "uint32"
        },
        {
          "indexed": false,
          "internalType": "uint32",
          "name": "numWords",
          "type": "uint32"
        },
        {
          "indexed": true,
          "internalType": "address",
          "name": "sender",
          "type": "address"
        }
      ],
      "name": "RandomWordsRequested",
      "type": "event"
    },
    {
      "anonymous": false,
      "inputs": [
        {
          "indexed": true,
          "internalType": "uint64",
          "name": "subId",
          "type": "uint64"
        },
        {
          "indexed": false,
          "internalType": "address",
          "name": "to",
          "type": "address"
        },
        {
          "indexed": false,
          "internalType": "uint256",
          "name": "amount",
          "type": "uint256"
        }
      ],
      "name": "SubscriptionCanceled",
      "type": "event"
    },
    {
      "anonymous": false,
      "inputs": [
        {
          "indexed": true,
          "internalType": "uint64",
          "name": "subId",
          "type": "uint64"
        },
        {
          "indexed": false,
          "internalType": "address",
          "name": "consumer",
          "type": "address"
        }
      ],
      "name": "SubscriptionConsumerAdded",
      "type": "event"
    },
    {
      "anonymous": false,
      "inputs": [
        {
          "indexed": true,
          "internalType": "uint64",
          "name": "subId",
          "type": "uint64"
        },
        {
          "indexed": false,
          "internalType": "address",
          "name": "consumer",
          "type": "address"
        }
      ],
      "name": "SubscriptionConsumerRemoved",
      "type": "event"
    },
    {
      "anonymous": false,
      "inputs": [
        {
          "indexed": true,
          "internalType": "uint64",
          "name": "subId",
          "type": "uint64"
        },
        {
          "indexed": false,
          "internalType": "address",
          "name": "owner",
          "type": "address"
        }
      ],
      "name": "SubscriptionCreated",
      "type": "event"
    },
    {
      "anonymous": false,
      "inputs": [
        {
          "indexed": true,
          "internalType": "uint64",
          "name": "subId",
          "type": "uint64"
        },
        {
          "indexed": false,
          "internalType": "uint256",
          "name": "oldBalance",
          "type": "uint256"
        },
        {
          "indexed": false,
          "internalType": "uint256",
          "name": "newBalance",
          "type": "uint256"
        }
      ],
      "name": "SubscriptionFunded",
      "type": "event"
    },
    {
      "anonymous": false,
      "inputs": [
        {
          "indexed": true,
          "internalType": "uint64",
          "name": "subId",
          "type": "uint64"
        },
        {
          "indexed": false,
          "internalType": "address",
          "name": "from",
          "type": "address"
        },
        {
          "indexed": false,
          "internalType": "address",
          "name": "to",
          "type": "address"
        }
      ],
      "name": "SubscriptionOwnerTransferRequested",
      "type": "event"
    },
    {
      "anonymous": false,
      "inputs": [
        {
          "indexed": true,
          "internalType": "uint64",
          "name": "subId",
          "type": "uint64"
        },
        {
          "indexed": false,
          "internalType": "address",
          "name": "from",
          "type": "address"
        },
        {
          "indexed": false,
          "internalType": "address",
          "name": "to",
          "type": "address"
        }
      ],
      "name": "SubscriptionOwnerTransferred",
      "type": "event"
    },
    {
      "inputs": [],
      "name": "BLOCKHASH_STORE",
      "outputs": [
        {
          "internalType": "contract BlockhashStoreInterface",
          "name": "",
          "type": "address"
        }
      ],
      "stateMutability": "view",
      "type": "function"
    },
    {
      "inputs": [],
      "name": "LINK",
      "outputs": [
        {
          "internalType": "contract LinkTokenInterface",
          "name": "",
          "type": "address"
        }
      ],
      "stateMutability": "view",
      "type": "function"
    },
    {
      "inputs": [],
      "name": "LINK_ETH_FEED",
      "outputs": [
        {
          "internalType": "contract AggregatorV3Interface",
          "name": "",
          "type": "address"
        }
      ],
      "stateMutability": "view",
      "type": "function"
    },
    {
      "inputs": [],
      "name": "MAX_CONSUMERS",
      "outputs": [
        {
          "internalType": "uint16",
          "name": "",
          "type": "uint16"
        }
      ],
      "stateMutability": "view",
      "type": "function"
    },
    {
      "inputs": [],
      "name": "MAX_NUM_WORDS",
      "outputs": [
        {
          "internalType": "uint32",
          "name": "",
          "type": "uint32"
        }
      ],
      "stateMutability": "view",
      "type": "function"
    },
    {
      "inputs": [],
      "name": "MAX_REQUEST_CONFIRMATIONS",
      "outputs": [
        {
          "internalType": "uint16",
          "name": "",
          "type": "uint16"
        }
      ],
      "stateMutability": "view",
      "type": "function"
    },
    {
      "inputs": [],
      "name": "acceptOwnership",
      "outputs": [],
      "stateMutability": "nonpayable",
      "type": "function"
    },
    {
      "inputs": [
        {
          "internalType": "uint64",
          "name": "subId",
          "type": "uint64"
        }
      ],
      "name": "acceptSubscriptionOwnerTransfer",
      "outputs": [],
      "stateMutability": "nonpayable",
      "type": "function"
    },
    {
      "inputs": [
        {
          "internalType": "uint64",
          "name": "subId",
          "type": "uint64"
        },
        {
          "internalType": "address",
          "name": "consumer",
          "type": "address"
        }
      ],
      "name": "addConsumer",
      "outputs": [],
      "stateMutability": "nonpayable",
      "type": "function"
    },
    {
      "inputs": [
        {
          "internalType": "uint64",
          "name": "subId",
          "type": "uint64"
        },
        {
          "internalType": "address",
          "name": "to",
          "type": "address"
        }
      ],
      "name": "cancelSubscription",
      "outputs": [],
      "stateMutability": "nonpayable",
      "type": "function"
    },
    {
      "inputs": [],
      "name": "createSubscription",
      "outputs": [
        {
          "internalType": "uint64",
          "name": "",
          "type": "uint64"
        }
      ],
      "stateMutability": "nonpayable",
      "type": "function"
    },
    {
      "inputs": [
        {
          "internalType": "uint256[2]",
          "name": "publicProvingKey",
          "type": "uint256[2]"
        }
      ],
      "name": "deregisterProvingKey",
      "outputs": [],
      "stateMutability": "nonpayable",
      "type": "function"
    },
    {
      "inputs": [
        {
          "components": [
            {
              "internalType": "uint256[2]",
              "name": "pk",
              "type": "uint256[2]"
            },
            {
              "internalType": "uint256[2]",
              "name": "gamma",
              "type": "uint256[2]"
            },
            {
              "internalType": "uint256",
              "name": "c",
              "type": "uint256"
            },
            {
              "internalType": "uint256",
              "name": "s",
              "type": "uint256"
            },
            {
              "internalType": "uint256",
              "name": "seed",
              "type": "uint256"
            },
            {
              "internalType": "address",
              "name": "uWitness",
              "type": "address"
            },
            {
              "internalType": "uint256[2]",
              "name": "cGammaWitness",
              "type": "uint256[2]"
            },
            {
              "internalType": "uint256[2]",
              "name": "sHashWitness",
              "type": "uint256[2]"
            },
            {
              "internalType": "uint256",
              "name": "zInv",
              "type": "uint256"
            }
          ],
          "internalType": "struct VRF.Proof",
          "name": "proof",
          "type": "tuple"
        },
        {
          "components": [
            {
              "internalType": "uint64",
              "name": "blockNum",
              "type": "uint64"
            },
            {
              "internalType": "uint64",
              "name": "subId",
              "type": "uint64"
            },
            {
              "internalType": "uint32",
              "name": "callbackGasLimit",
              "type": "uint32"
            },
            {
              "internalType": "uint32",
              "name": "numWords",
              "type": "uint32"
            },
            {
              "internalType": "address",
              "name": "sender",
              "type": "address"
            }
          ],
          "internalType": "struct VRFCoordinatorV2.RequestCommitment",
          "name": "rc",
          "type": "tuple"
        }
      ],
      "name": "fulfillRandomWords",
      "outputs": [
        {
          "internalType": "uint96",
          "name": "",
          "type": "uint96"
        }
      ],
      "stateMutability": "nonpayable",
      "type": "function"
    },
    {
      "inputs": [
        {
          "internalType": "uint256",
          "name": "requestId",
          "type": "uint256"
        }
      ],
      "name": "getCommitment",
      "outputs": [
        {
          "internalType": "bytes32",
          "name": "",
          "type": "bytes32"
        }
      ],
      "stateMutability": "view",
      "type": "function"
    },
    {
      "inputs": [],
      "name": "getConfig",
      "outputs": [
        {
          "internalType": "uint16",
          "name": "minimumRequestConfirmations",
          "type": "uint16"
        },
        {
          "internalType": "uint32",
          "name": "maxGasLimit",
          "type": "uint32"
        },
        {
          "internalType": "uint32",
          "name": "stalenessSeconds",
          "type": "uint32"
        },
        {
          "internalType": "uint32",
          "name": "gasAfterPaymentCalculation",
          "type": "uint32"
        }
      ],
      "stateMutability": "view",
      "type": "function"
    },
    {
      "inputs": [],
      "name": "getCurrentSubId",
      "outputs": [
        {
          "internalType": "uint64",
          "name": "",
          "type": "uint64"
        }
      ],
      "stateMutability": "view",
      "type": "function"
    },
    {
      "inputs": [],
      "name": "getFallbackWeiPerUnitLink",
      "outputs": [
        {
          "internalType": "int256",
          "name": "",
          "type": "int256"
        }
      ],
      "stateMutability": "view",
      "type": "function"
    },
    {
      "inputs": [],
      "name": "getFeeConfig",
      "outputs": [
        {
          "internalType": "uint32",
          "name": "fulfillmentFlatFeeLinkPPMTier1",
          "type": "uint32"
        },
        {
          "internalType": "uint32",
          "name": "fulfillmentFlatFeeLinkPPMTier2",
          "type": "uint32"
        },
        {
          "internalType": "uint32",
          "name": "fulfillmentFlatFeeLinkPPMTier3",
          "type": "uint32"
        },
        {
          "internalType": "uint32",
          "name": "fulfillmentFlatFeeLinkPPMTier4",
          "type": "uint32"
        },
        {
          "internalType": "uint32",
          "name": "fulfillmentFlatFeeLinkPPMTier5",
          "type": "uint32"
        },
        {
          "internalType": "uint24",
          "name": "reqsForTier2",
          "type": "uint24"
        },
        {
          "internalType": "uint24",
          "name": "reqsForTier3",
          "type": "uint24"
        },
        {
          "internalType": "uint24",
          "name": "reqsForTier4",
          "type": "uint24"
        },
        {
          "internalType": "uint24",
          "name": "reqsForTier5",
          "type": "uint24"
        }
      ],
      "stateMutability": "view",
      "type": "function"
    },
    {
      "inputs": [
        {
          "internalType": "uint64",
          "name": "reqCount",
          "type": "uint64"
        }
      ],
      "name": "getFeeTier",
      "outputs": [
        {
          "internalType": "uint32",
          "name": "",
          "type": "uint32"
        }
      ],
      "stateMutability": "view",
      "type": "function"
    },
    {
      "inputs": [],
      "name": "getRequestConfig",
      "outputs": [
        {
          "internalType": "uint16",
          "name": "",
          "type": "uint16"
        },
        {
          "internalType": "uint32",
          "name": "",
          "type": "uint32"
        },
        {
          "internalType": "bytes32[]",
          "name": "",
          "type": "bytes32[]"
        }
      ],
      "stateMutability": "view",
      "type": "function"
    },
    {
      "inputs": [
        {
          "internalType": "uint64",
          "name": "subId",
          "type": "uint64"
        }
      ],
      "name": "getSubscription",
      "outputs": [
        {
          "internalType": "uint96",
          "name": "balance",
          "type": "uint96"
        },
        {
          "internalType": "uint64",
          "name": "reqCount",
          "type": "uint64"
        },
        {
          "internalType": "address",
          "name": "owner",
          "type": "address"
        },
        {
          "internalType": "address[]",
          "name": "consumers",
          "type": "address[]"
        }
      ],
      "stateMutability": "view",
      "type": "function"
    },
    {
      "inputs": [],
      "name": "getTotalBalance",
      "outputs": [
        {
          "internalType": "uint256",
          "name": "",
          "type": "uint256"
        }
      ],
      "stateMutability": "view",
      "type": "function"
    },
    {
      "inputs": [
        {
          "internalType": "uint256[2]",
          "name": "publicKey",
          "type": "uint256[2]"
        }
      ],
      "name": "hashOfKey",
      "outputs": [
        {
          "internalType": "bytes32",
          "name": "",
          "type": "bytes32"
        }
      ],
      "stateMutability": "pure",
      "type": "function"
    },
    {
      "inputs": [
        {
          "internalType": "address",
          "name": "",
          "type": "address"
        },
        {
          "internalType": "uint256",
          "name": "amount",
          "type": "uint256"
        },
        {
          "internalType": "bytes",
          "name": "data",
          "type": "bytes"
        }
      ],
      "name": "onTokenTransfer",
      "outputs": [],
      "stateMutability": "nonpayable",
      "type": "function"
    },
    {
      "inputs": [
        {
          "internalType": "address",
          "name": "recipient",
          "type": "address"
        },
        {
          "internalType": "uint96",
          "name": "amount",
          "type": "uint96"
        }
      ],
      "name": "oracleWithdraw",
      "outputs": [],
      "stateMutability": "nonpayable",
      "type": "function"
    },
    {
      "inputs": [],
      "name": "owner",
      "outputs": [
        {
          "internalType": "address",
          "name": "",
          "type": "address"
        }
      ],
      "stateMutability": "view",
      "type": "function"
    },
    {
      "inputs": [
        {
          "internalType": "uint64",
          "name": "subId",
          "type": "uint64"
        }
      ],
      "name": "ownerCancelSubscription",
      "outputs": [],
      "stateMutability": "nonpayable",
      "type": "function"
    },
    {
      "inputs": [
        {
          "internalType": "uint64",
          "name": "subId",
          "type": "uint64"
        }
      ],
      "name": "pendingRequestExists",
      "outputs": [
        {
          "internalType": "bool",
          "name": "",
          "type": "bool"
        }
      ],
      "stateMutability": "view",
      "type": "function"
    },
    {
      "inputs": [
        {
          "internalType": "address",
          "name": "to",
          "type": "address"
        }
      ],
      "name": "recoverFunds",
      "outputs": [],
      "stateMutability": "nonpayable",
      "type": "function"
    },
    {
      "inputs": [
        {
          "internalType": "address",
          "name": "oracle",
          "type": "address"
        },
        {
          "internalType": "uint256[2]",
          "name": "publicProvingKey",
          "type": "uint256[2]"
        }
      ],
      "name": "registerProvingKey",
      "outputs": [],
      "stateMutability": "nonpayable",
      "type": "function"
    },
    {
      "inputs": [
        {
          "internalType": "uint64",
          "name": "subId",
          "type": "uint64"
        },
        {
          "internalType": "address",
          "name": "consumer",
          "type": "address"
        }
      ],
      "name": "removeConsumer",
      "outputs": [],
      "stateMutability": "nonpayable",
      "type": "function"
    },
    {
      "inputs": [
        {
          "internalType": "bytes32",
          "name": "keyHash",
          "type": "bytes32"
        },
        {
          "internalType": "uint64",
          "name": "subId",
          "type": "uint64"
        },
        {
          "internalType": "uint16",
          "name": "requestConfirmations",
          "type": "uint16"
        },
        {
          "internalType": "uint32",
          "name": "callbackGasLimit",
          "type": "uint32"
        },
        {
          "internalType": "uint32",
          "name": "numWords",
          "type": "uint32"
        }
      ],
      "name": "requestRandomWords",
      "outputs": [
        {
          "internalType": "uint256",
          "name": "",
          "type": "uint256"
        }
      ],
      "stateMutability": "nonpayable",
      "type": "function"
    },
    {
      "inputs": [
        {
          "internalType": "uint64",
          "name": "subId",
          "type": "uint64"
        },
        {
          "internalType": "address",
          "name": "newOwner",
          "type": "address"
        }
      ],
      "name": "requestSubscriptionOwnerTransfer",
      "outputs": [],
      "stateMutability": "nonpayable",
      "type": "function"
    },
    {
      "inputs": [
        {
          "internalType": "uint16",
          "name": "minimumRequestConfirmations",
          "type": "uint16"
        },
        {
          "internalType": "uint32",
          "name": "maxGasLimit",
          "type": "uint32"
        },
        {
          "internalType": "uint32",
          "name": "stalenessSeconds",
          "type": "uint32"
        },
        {
          "internalType": "uint32",
          "name": "gasAfterPaymentCalculation",
          "type": "uint32"
        },
        {
          "internalType": "int256",
          "name": "fallbackWeiPerUnitLink",
          "type": "int256"
        },
        {
          "components": [
            {
              "internalType": "uint32",
              "name": "fulfillmentFlatFeeLinkPPMTier1",
              "type": "uint32"
            },
            {
              "internalType": "uint32",
              "name": "fulfillmentFlatFeeLinkPPMTier2",
              "type": "uint32"
            },
            {
              "internalType": "uint32",
              "name": "fulfillmentFlatFeeLinkPPMTier3",
              "type": "uint32"
            },
            {
              "internalType": "uint32",
              "name": "fulfillmentFlatFeeLinkPPMTier4",
              "type": "uint32"
            },
            {
              "internalType": "uint32",
              "name": "fulfillmentFlatFeeLinkPPMTier5",
              "type": "uint32"
            },
            {
              "internalType": "uint24",
              "name": "reqsForTier2",
              "type": "uint24"
            },
            {
              "internalType": "uint24",
              "name": "reqsForTier3",
              "type": "uint24"
            },
            {
              "internalType": "uint24",
              "name": "reqsForTier4",
              "type": "uint24"
            },
            {
              "internalType": "uint24",
              "name": "reqsForTier5",
              "type": "uint24"
            }
          ],
          "internalType": "struct VRFCoordinatorV2.FeeConfig",
          "name": "feeConfig",
          "type": "tuple"
        }
      ],
      "name": "setConfig",
      "outputs": [],
      "stateMutability": "nonpayable",
      "type": "function"
    },
    {
      "inputs": [
        {
          "internalType": "address",
          "name": "to",
          "type": "address"
        }
      ],
      "name": "transferOwnership",
      "outputs": [],
      "stateMutability": "nonpayable",
      "type": "function"
    },
    {
      "inputs": [],
      "name": "typeAndVersion",
      "outputs": [
        {
          "internalType": "string",
          "name": "",
          "type": "string"
        }
      ],
      "stateMutability": "pure",
      "type": "function"
    }
  ],
  "bytecode": "0x60e06040523480156200001157600080fd5b506040516200949d3803806200949d83398181016040528101906200003791906200032c565b338060008073ffffffffffffffffffffffffffffffffffffffff168273ffffffffffffffffffffffffffffffffffffffff161415620000ad576040517f08c379a0000000000000000000000000000000000000000000000000000000008152600401620000a490620003d6565b60405180910390fd5b816000806101000a81548173ffffffffffffffffffffffffffffffffffffffff021916908373ffffffffffffffffffffffffffffffffffffffff160217905550600073ffffffffffffffffffffffffffffffffffffffff168173ffffffffffffffffffffffffffffffffffffffff161462000134576200013381620001e560201b60201c565b5b5050508273ffffffffffffffffffffffffffffffffffffffff1660808173ffffffffffffffffffffffffffffffffffffffff1660601b815250508073ffffffffffffffffffffffffffffffffffffffff1660a08173ffffffffffffffffffffffffffffffffffffffff1660601b815250508173ffffffffffffffffffffffffffffffffffffffff1660c08173ffffffffffffffffffffffffffffffffffffffff1660601b81525050505050620004d0565b3373ffffffffffffffffffffffffffffffffffffffff168173ffffffffffffffffffffffffffffffffffffffff16141562000257576040517f08c379a00000000000000000000000000000000000000000000000000000000081526004016200024e90620003f8565b60405180910390fd5b80600160006101000a81548173ffffffffffffffffffffffffffffffffffffffff021916908373ffffffffffffffffffffffffffffffffffffffff1602179055508073ffffffffffffffffffffffffffffffffffffffff1660008054906101000a900473ffffffffffffffffffffffffffffffffffffffff1673ffffffffffffffffffffffffffffffffffffffff167fed8889f560326eb138920d842192f0eb3dd22b4f139c87a2c57538e05bae127860405160405180910390a350565b6000815190506200032681620004b6565b92915050565b6000806000606084860312156200034857620003476200045f565b5b6000620003588682870162000315565b93505060206200036b8682870162000315565b92505060406200037e8682870162000315565b9150509250925092565b6000620003976018836200041a565b9150620003a48262000464565b602082019050919050565b6000620003be6017836200041a565b9150620003cb826200048d565b602082019050919050565b60006020820190508181036000830152620003f18162000388565b9050919050565b600060208201905081810360008301526200041381620003af565b9050919050565b600082825260208201905092915050565b600062000438826200043f565b9050919050565b600073ffffffffffffffffffffffffffffffffffffffff82169050919050565b600080fd5b7f43616e6e6f7420736574206f776e657220746f207a65726f0000000000000000600082015250565b7f43616e6e6f74207472616e7366657220746f2073656c66000000000000000000600082015250565b620004c1816200042b565b8114620004cd57600080fd5b50565b60805160601c60a05160601c60c05160601c618f636200053a600039600081816119aa0152614b690152600081816132e7015261516a015260008181610dd4015281816118c301528181612fdf01528181613d3601528181613e6d015261473a0152618f636000f3fe608060405234801561001057600080fd5b506004361061021b5760003560e01c80636f64f03f11610125578063ad178361116100ad578063d2f9f9a71161007c578063d2f9f9a714610604578063d7ae1d3014610634578063e72f6e3014610650578063e82ad7d41461066c578063f2fde38b1461069c5761021b565b8063ad17836114610565578063af198b9714610583578063c3f909d4146105b3578063caf70c4a146105d45761021b565b80638da5cb5b116100f45780638da5cb5b146104be5780639f87fad7146104dc578063a21a23e4146104f8578063a47c769614610516578063a4c0ed36146105495761021b565b80636f64f03f146104605780637341c10c1461047c57806379ba50971461049857806382359740146104a25761021b565b8063356dac71116101a85780635fbbc0d2116101775780635fbbc0d2146103b257806364d51a2a146103d857806366316d8d146103f6578063689c45171461041257806369bcdb7d146104305761021b565b8063356dac711461032a57806340d6bb82146103485780634cb48a54146103665780635d3b1d30146103825761021b565b806308821d58116101ef57806308821d581461029657806312b58349146102b257806315c48b84146102d0578063181f5a77146102ee5780631b6b6d231461030c5761021b565b80620122911461022057806302bcc5b61461024057806304c357cb1461025c57806306bfa63714610278575b600080fd5b6102286106b8565b60405161023793929190617e13565b60405180910390f35b61025a60048036038101906102559190616f69565b610746565b005b61027660048036038101906102719190616f96565b610856565b005b610280610af8565b60405161028d91906181cd565b60405180910390f35b6102b060048036038101906102ab9190616d10565b610b16565b005b6102ba610d60565b6040516102c79190617ef8565b60405180910390f35b6102d8610d90565b6040516102e59190617dc1565b60405180910390f35b6102f6610d95565b6040516103039190617b5f565b60405180910390f35b610314610dd2565b6040516103219190617b29565b60405180910390f35b610332610df6565b60405161033f9190617b44565b60405180910390f35b610350610e00565b60405161035d91906180e1565b60405180910390f35b610380600480360381019061037b9190616e81565b610e06565b005b61039c60048036038101906103979190616dc4565b611152565b6040516103a99190617ef8565b60405180910390f35b6103ba6115ed565b6040516103cf99989796959493929190618125565b60405180910390f35b6103e06116da565b6040516103ed9190617dc1565b60405180910390f35b610410600480360381019061040b9190616cd0565b6116df565b005b61041a6119a8565b6040516104279190617b0e565b60405180910390f35b61044a60048036038101906104459190616f0f565b6119cc565b6040516104579190617a03565b60405180910390f35b61047a60048036038101906104759190616c1c565b6119e9565b005b61049660048036038101906104919190616f96565b611ba7565b005b6104a0611f73565b005b6104bc60048036038101906104b79190616f69565b612108565b005b6104c6612471565b6040516104d39190617937565b60405180910390f35b6104f660048036038101906104f19190616f96565b61249a565b005b610500612a26565b60405161050d91906181cd565b60405180910390f35b610530600480360381019061052b9190616f69565b612d4d565b604051610540949392919061822c565b60405180910390f35b610563600480360381019061055e9190616c5c565b612f93565b005b61056d6132e5565b60405161057a9190617af3565b60405180910390f35b61059d60048036038101906105989190616e3f565b613309565b6040516105aa9190618211565b60405180910390f35b6105bb61384e565b6040516105cb9493929190617e51565b60405180910390f35b6105ee60048036038101906105e99190616d3d565b6138b8565b6040516105fb9190617a03565b60405180910390f35b61061e60048036038101906106199190616f69565b6138e8565b60405161062b91906180e1565b60405180910390f35b61064e60048036038101906106499190616f96565b613b69565b005b61066a60048036038101906106659190616bef565b613d2a565b005b61068660048036038101906106819190616f69565b613f59565b60405161069391906179e8565b60405180910390f35b6106b660048036038101906106b19190616bef565b61422b565b005b6000806060600b60000160009054906101000a900461ffff16600b60000160029054906101000a900463ffffffff1660078080548060200260200160405190810160405280929190818152602001828054801561073457602002820191906000526020600020905b815481526020019060010190808311610720575b50505050509050925092509250909192565b61074e61423f565b600073ffffffffffffffffffffffffffffffffffffffff16600360008367ffffffffffffffff1667ffffffffffffffff16815260200190815260200160002060000160009054906101000a900473ffffffffffffffffffffffffffffffffffffffff1673ffffffffffffffffffffffffffffffffffffffff1614156107ff576040517f1f6a65b600000000000000000000000000000000000000000000000000000000815260040160405180910390fd5b61085381600360008467ffffffffffffffff1667ffffffffffffffff16815260200190815260200160002060000160009054906101000a900473ffffffffffffffffffffffffffffffffffffffff166142cf565b50565b816000600360008367ffffffffffffffff1667ffffffffffffffff16815260200190815260200160002060000160009054906101000a900473ffffffffffffffffffffffffffffffffffffffff169050600073ffffffffffffffffffffffffffffffffffffffff168173ffffffffffffffffffffffffffffffffffffffff16141561090d576040517f1f6a65b600000000000000000000000000000000000000000000000000000000815260040160405180910390fd5b8073ffffffffffffffffffffffffffffffffffffffff163373ffffffffffffffffffffffffffffffffffffffff161461097d57806040517fd8a3fb520000000000000000000000000000000000000000000000000000000081526004016109749190617937565b60405180910390fd5b600b60000160069054906101000a900460ff16156109c7576040517fed3ba6a600000000000000000000000000000000000000000000000000000000815260040160405180910390fd5b8273ffffffffffffffffffffffffffffffffffffffff16600360008667ffffffffffffffff1667ffffffffffffffff16815260200190815260200160002060010160009054906101000a900473ffffffffffffffffffffffffffffffffffffffff1673ffffffffffffffffffffffffffffffffffffffff1614610af25782600360008667ffffffffffffffff1667ffffffffffffffff16815260200190815260200160002060010160006101000a81548173ffffffffffffffffffffffffffffffffffffffff021916908373ffffffffffffffffffffffffffffffffffffffff1602179055508367ffffffffffffffff167f69436ea6df009049404f564eff6622cd00522b0bd6a89efd9e52a355c4a879be3385604051610ae9929190617952565b60405180910390a25b50505050565b6000600560009054906101000a900467ffffffffffffffff16905090565b610b1e61423f565b6000610b60826002806020026040519081016040528092919082600260200280828437600081840152601f19601f8201169050808301925050505050506138b8565b905060006006600083815260200190815260200160002060009054906101000a900473ffffffffffffffffffffffffffffffffffffffff169050600073ffffffffffffffffffffffffffffffffffffffff168173ffffffffffffffffffffffffffffffffffffffff161415610c0c57816040517f77f5b84c000000000000000000000000000000000000000000000000000000008152600401610c039190617a03565b60405180910390fd5b6006600083815260200190815260200160002060006101000a81549073ffffffffffffffffffffffffffffffffffffffff021916905560005b600780549050811015610d0c578260078281548110610c6757610c666189f7565b5b90600052602060002001541415610cf957600060076001600780549050610c8e919061854a565b81548110610c9f57610c9e6189f7565b5b906000526020600020015490508060078381548110610cc157610cc06189f7565b5b90600052602060002001819055506007805480610ce157610ce06189c8565b5b60019003818190600052602060002001600090559055505b8080610d0490618887565b915050610c45565b508073ffffffffffffffffffffffffffffffffffffffff167f72be339577868f868798bac2c93e52d6f034fef4689a9848996c14ebb7416c0d83604051610d539190617a03565b60405180910390a2505050565b6000600560089054906101000a90046bffffffffffffffffffffffff166bffffffffffffffffffffffff16905090565b60c881565b60606040518060400160405280601681526020017f565246436f6f7264696e61746f72563220312e302e3000000000000000000000815250905090565b7f000000000000000000000000000000000000000000000000000000000000000081565b6000600a54905090565b6101f481565b610e0e61423f565b60c861ffff168661ffff161115610e6157858660c86040517fa7386976000000000000000000000000000000000000000000000000000000008152600401610e5893929190617ddc565b60405180910390fd5b60008213610ea657816040517f43d4cf66000000000000000000000000000000000000000000000000000000008152600401610e9d9190617b44565b60405180910390fd5b6040518060a001604052808761ffff1681526020018663ffffffff1681526020016000151581526020018563ffffffff1681526020018463ffffffff16815250600b60008201518160000160006101000a81548161ffff021916908361ffff16021790555060208201518160000160026101000a81548163ffffffff021916908363ffffffff16021790555060408201518160000160066101000a81548160ff02191690831515021790555060608201518160000160076101000a81548163ffffffff021916908363ffffffff160217905550608082015181600001600b6101000a81548163ffffffff021916908363ffffffff16021790555090505080600c60008201518160000160006101000a81548163ffffffff021916908363ffffffff16021790555060208201518160000160046101000a81548163ffffffff021916908363ffffffff16021790555060408201518160000160086101000a81548163ffffffff021916908363ffffffff160217905550606082015181600001600c6101000a81548163ffffffff021916908363ffffffff16021790555060808201518160000160106101000a81548163ffffffff021916908363ffffffff16021790555060a08201518160000160146101000a81548162ffffff021916908362ffffff16021790555060c08201518160000160176101000a81548162ffffff021916908362ffffff16021790555060e082015181600001601a6101000a81548162ffffff021916908362ffffff16021790555061010082015181600001601d6101000a81548162ffffff021916908362ffffff16021790555090505081600a819055507fc21e3bd2e0b339d2848f0dd956947a88966c242c0c0c582a33137a5c1ceb5cb28686868686600c60405161114296959493929190617e96565b60405180910390a1505050505050565b6000600b60000160069054906101000a900460ff161561119e576040517fed3ba6a600000000000000000000000000000000000000000000000000000000815260040160405180910390fd5b600073ffffffffffffffffffffffffffffffffffffffff16600360008767ffffffffffffffff1667ffffffffffffffff16815260200190815260200160002060000160009054906101000a900473ffffffffffffffffffffffffffffffffffffffff1673ffffffffffffffffffffffffffffffffffffffff16141561124f576040517f1f6a65b600000000000000000000000000000000000000000000000000000000815260040160405180910390fd5b6000600260003373ffffffffffffffffffffffffffffffffffffffff1673ffffffffffffffffffffffffffffffffffffffff16815260200190815260200160002060008767ffffffffffffffff1667ffffffffffffffff16815260200190815260200160002060009054906101000a900467ffffffffffffffff16905060008167ffffffffffffffff16141561131e5785336040517ff0019fe60000000000000000000000000000000000000000000000000000000081526004016113159291906181e8565b60405180910390fd5b600b60000160009054906101000a900461ffff1661ffff168561ffff16108061134f575060c861ffff168561ffff16115b156113a95784600b60000160009054906101000a900461ffff1660c86040517fa73869760000000000000000000000000000000000000000000000000000000081526004016113a093929190617ddc565b60405180910390fd5b600b60000160029054906101000a900463ffffffff1663ffffffff168463ffffffff1611156114265783600b60000160029054906101000a900463ffffffff166040517ff5d7e01e00000000000000000000000000000000000000000000000000000000815260040161141d9291906180fc565b60405180910390fd5b6101f463ffffffff168363ffffffff16111561147d57826101f46040517f47386bec0000000000000000000000000000000000000000000000000000000081526004016114749291906180fc565b60405180910390fd5b600060018261148c919061843f565b905060008061149d8a338b86614874565b91509150816114aa6148e6565b8a8989336040516020016114c396959493929190617fe8565b6040516020818303038152906040528051906020012060096000848152602001908152602001600020819055503373ffffffffffffffffffffffffffffffffffffffff168967ffffffffffffffff168b7f63373d1c4696214b898952999c9aaec57dac1ee2723cec59bea6888f489a977285858d8d8d60405161154a959493929190617f95565b60405180910390a482600260003373ffffffffffffffffffffffffffffffffffffffff1673ffffffffffffffffffffffffffffffffffffffff16815260200190815260200160002060008b67ffffffffffffffff1667ffffffffffffffff16815260200190815260200160002060006101000a81548167ffffffffffffffff021916908367ffffffffffffffff1602179055508194505050505095945050505050565b6000806000806000806000806000600c60000160009054906101000a900463ffffffff16600c60000160049054906101000a900463ffffffff16600c60000160089054906101000a900463ffffffff16600c600001600c9054906101000a900463ffffffff16600c60000160109054906101000a900463ffffffff16600c60000160149054906101000a900462ffffff16600c60000160179054906101000a900462ffffff16600c600001601a9054906101000a900462ffffff16600c600001601d9054906101000a900462ffffff16985098509850985098509850985098509850909192939495969798565b606481565b600b60000160069054906101000a900460ff1615611729576040517fed3ba6a600000000000000000000000000000000000000000000000000000000815260040160405180910390fd5b806bffffffffffffffffffffffff16600860003373ffffffffffffffffffffffffffffffffffffffff1673ffffffffffffffffffffffffffffffffffffffff16815260200190815260200160002060009054906101000a90046bffffffffffffffffffffffff166bffffffffffffffffffffffff1610156117d6576040517ff4d678b800000000000000000000000000000000000000000000000000000000815260040160405180910390fd5b80600860003373ffffffffffffffffffffffffffffffffffffffff1673ffffffffffffffffffffffffffffffffffffffff16815260200190815260200160002060008282829054906101000a90046bffffffffffffffffffffffff1661183c919061857e565b92506101000a8154816bffffffffffffffffffffffff02191690836bffffffffffffffffffffffff16021790555080600560088282829054906101000a90046bffffffffffffffffffffffff16611893919061857e565b92506101000a8154816bffffffffffffffffffffffff02191690836bffffffffffffffffffffffff1602179055507f000000000000000000000000000000000000000000000000000000000000000073ffffffffffffffffffffffffffffffffffffffff1663a9059cbb83836040518363ffffffff1660e01b815260040161191c9291906179a4565b602060405180830381600087803b15801561193657600080fd5b505af115801561194a573d6000803e3d6000fd5b505050506040513d601f19601f8201168201806040525081019061196e9190616d6a565b6119a4576040517ff4d678b800000000000000000000000000000000000000000000000000000000815260040160405180910390fd5b5050565b7f000000000000000000000000000000000000000000000000000000000000000081565b600060096000838152602001908152602001600020549050919050565b6119f161423f565b6000611a33826002806020026040519081016040528092919082600260200280828437600081840152601f19601f8201169050808301925050505050506138b8565b9050600073ffffffffffffffffffffffffffffffffffffffff166006600083815260200190815260200160002060009054906101000a900473ffffffffffffffffffffffffffffffffffffffff1673ffffffffffffffffffffffffffffffffffffffff1614611ad957806040517f4a0b8fa7000000000000000000000000000000000000000000000000000000008152600401611ad09190617a03565b60405180910390fd5b826006600083815260200190815260200160002060006101000a81548173ffffffffffffffffffffffffffffffffffffffff021916908373ffffffffffffffffffffffffffffffffffffffff16021790555060078190806001815401808255809150506001900390600052602060002001600090919091909150558273ffffffffffffffffffffffffffffffffffffffff167fe729ae16526293f74ade739043022254f1489f616295a25bf72dfb4511ed73b882604051611b9a9190617a03565b60405180910390a2505050565b816000600360008367ffffffffffffffff1667ffffffffffffffff16815260200190815260200160002060000160009054906101000a900473ffffffffffffffffffffffffffffffffffffffff169050600073ffffffffffffffffffffffffffffffffffffffff168173ffffffffffffffffffffffffffffffffffffffff161415611c5e576040517f1f6a65b600000000000000000000000000000000000000000000000000000000815260040160405180910390fd5b8073ffffffffffffffffffffffffffffffffffffffff163373ffffffffffffffffffffffffffffffffffffffff1614611cce57806040517fd8a3fb52000000000000000000000000000000000000000000000000000000008152600401611cc59190617937565b60405180910390fd5b600b60000160069054906101000a900460ff1615611d18576040517fed3ba6a600000000000000000000000000000000000000000000000000000000815260040160405180910390fd5b606461ffff16600360008667ffffffffffffffff1667ffffffffffffffff168152602001908152602001600020600201805490501415611d84576040517f05a48e0f00000000000000000000000000000000000000000000000000000000815260040160405180910390fd5b6000600260008573ffffffffffffffffffffffffffffffffffffffff1673ffffffffffffffffffffffffffffffffffffffff16815260200190815260200160002060008667ffffffffffffffff1667ffffffffffffffff16815260200190815260200160002060009054906101000a900467ffffffffffffffff1667ffffffffffffffff1614611e1357611f6d565b6001600260008573ffffffffffffffffffffffffffffffffffffffff1673ffffffffffffffffffffffffffffffffffffffff16815260200190815260200160002060008667ffffffffffffffff1667ffffffffffffffff16815260200190815260200160002060006101000a81548167ffffffffffffffff021916908367ffffffffffffffff160217905550600360008567ffffffffffffffff1667ffffffffffffffff168152602001908152602001600020600201839080600181540180825580915050600190039060005260206000200160009091909190916101000a81548173ffffffffffffffffffffffffffffffffffffffff021916908373ffffffffffffffffffffffffffffffffffffffff1602179055508367ffffffffffffffff167f43dc749a04ac8fb825cbd514f7c0e13f13bc6f2ee66043b76629d51776cff8e084604051611f649190617937565b60405180910390a25b50505050565b600160009054906101000a900473ffffffffffffffffffffffffffffffffffffffff1673ffffffffffffffffffffffffffffffffffffffff163373ffffffffffffffffffffffffffffffffffffffff1614612003576040517f08c379a0000000000000000000000000000000000000000000000000000000008152600401611ffa90617b81565b60405180910390fd5b60008060009054906101000a900473ffffffffffffffffffffffffffffffffffffffff169050336000806101000a81548173ffffffffffffffffffffffffffffffffffffffff021916908373ffffffffffffffffffffffffffffffffffffffff1602179055506000600160006101000a81548173ffffffffffffffffffffffffffffffffffffffff021916908373ffffffffffffffffffffffffffffffffffffffff1602179055503373ffffffffffffffffffffffffffffffffffffffff168173ffffffffffffffffffffffffffffffffffffffff167f8be0079c531659141344cd1fd0a4f28419497f9722a3daafe3b4186f6b6457e060405160405180910390a350565b600b60000160069054906101000a900460ff1615612152576040517fed3ba6a600000000000000000000000000000000000000000000000000000000815260040160405180910390fd5b600073ffffffffffffffffffffffffffffffffffffffff16600360008367ffffffffffffffff1667ffffffffffffffff16815260200190815260200160002060000160009054906101000a900473ffffffffffffffffffffffffffffffffffffffff1673ffffffffffffffffffffffffffffffffffffffff161415612203576040517f1f6a65b600000000000000000000000000000000000000000000000000000000815260040160405180910390fd5b3373ffffffffffffffffffffffffffffffffffffffff16600360008367ffffffffffffffff1667ffffffffffffffff16815260200190815260200160002060010160009054906101000a900473ffffffffffffffffffffffffffffffffffffffff1673ffffffffffffffffffffffffffffffffffffffff161461230757600360008267ffffffffffffffff1667ffffffffffffffff16815260200190815260200160002060010160009054906101000a900473ffffffffffffffffffffffffffffffffffffffff166040517fd084e9750000000000000000000000000000000000000000000000000000000081526004016122fe9190617937565b60405180910390fd5b6000600360008367ffffffffffffffff1667ffffffffffffffff16815260200190815260200160002060000160009054906101000a900473ffffffffffffffffffffffffffffffffffffffff16905033600360008467ffffffffffffffff1667ffffffffffffffff16815260200190815260200160002060000160006101000a81548173ffffffffffffffffffffffffffffffffffffffff021916908373ffffffffffffffffffffffffffffffffffffffff1602179055506000600360008467ffffffffffffffff1667ffffffffffffffff16815260200190815260200160002060010160006101000a81548173ffffffffffffffffffffffffffffffffffffffff021916908373ffffffffffffffffffffffffffffffffffffffff1602179055508167ffffffffffffffff167f6f1dc65165ffffedfd8e507b4a0f1fcfdada045ed11f6c26ba27cedfe87802f08233604051612465929190617952565b60405180910390a25050565b60008060009054906101000a900473ffffffffffffffffffffffffffffffffffffffff16905090565b816000600360008367ffffffffffffffff1667ffffffffffffffff16815260200190815260200160002060000160009054906101000a900473ffffffffffffffffffffffffffffffffffffffff169050600073ffffffffffffffffffffffffffffffffffffffff168173ffffffffffffffffffffffffffffffffffffffff161415612551576040517f1f6a65b600000000000000000000000000000000000000000000000000000000815260040160405180910390fd5b8073ffffffffffffffffffffffffffffffffffffffff163373ffffffffffffffffffffffffffffffffffffffff16146125c157806040517fd8a3fb520000000000000000000000000000000000000000000000000000000081526004016125b89190617937565b60405180910390fd5b600b60000160069054906101000a900460ff161561260b576040517fed3ba6a600000000000000000000000000000000000000000000000000000000815260040160405180910390fd5b61261484613f59565b1561264b576040517fb42f66e800000000000000000000000000000000000000000000000000000000815260040160405180910390fd5b6000600260008573ffffffffffffffffffffffffffffffffffffffff1673ffffffffffffffffffffffffffffffffffffffff16815260200190815260200160002060008667ffffffffffffffff1667ffffffffffffffff16815260200190815260200160002060009054906101000a900467ffffffffffffffff1667ffffffffffffffff1614156127155783836040517ff0019fe600000000000000000000000000000000000000000000000000000000815260040161270c9291906181e8565b60405180910390fd5b6000600360008667ffffffffffffffff1667ffffffffffffffff1681526020019081526020016000206002018054806020026020016040519081016040528092919081815260200182805480156127c157602002820191906000526020600020905b8160009054906101000a900473ffffffffffffffffffffffffffffffffffffffff1673ffffffffffffffffffffffffffffffffffffffff1681526020019060010190808311612777575b505050505090506000600182516127d8919061854a565b905060005b8251811015612960578573ffffffffffffffffffffffffffffffffffffffff168382815181106128105761280f6189f7565b5b602002602001015173ffffffffffffffffffffffffffffffffffffffff16141561294d576000838381518110612849576128486189f7565b5b6020026020010151905080600360008a67ffffffffffffffff1667ffffffffffffffff16815260200190815260200160002060020183815481106128905761288f6189f7565b5b9060005260206000200160006101000a81548173ffffffffffffffffffffffffffffffffffffffff021916908373ffffffffffffffffffffffffffffffffffffffff160217905550600360008967ffffffffffffffff1667ffffffffffffffff168152602001908152602001600020600201805480612912576129116189c8565b5b6001900381819060005260206000200160006101000a81549073ffffffffffffffffffffffffffffffffffffffff0219169055905550612960565b808061295890618887565b9150506127dd565b50600260008673ffffffffffffffffffffffffffffffffffffffff1673ffffffffffffffffffffffffffffffffffffffff16815260200190815260200160002060008767ffffffffffffffff1667ffffffffffffffff16815260200190815260200160002060006101000a81549067ffffffffffffffff02191690558567ffffffffffffffff167f182bff9831466789164ca77075fffd84916d35a8180ba73c27e45634549b445b86604051612a169190617937565b60405180910390a2505050505050565b6000600b60000160069054906101000a900460ff1615612a72576040517fed3ba6a600000000000000000000000000000000000000000000000000000000815260040160405180910390fd5b6005600081819054906101000a900467ffffffffffffffff1680929190612a98906188d0565b91906101000a81548167ffffffffffffffff021916908367ffffffffffffffff160217905550506000600560009054906101000a900467ffffffffffffffff16905060008067ffffffffffffffff811115612af657612af5618a26565b5b604051908082528060200260200182016040528015612b245781602001602082028036833780820191505090505b509050604051806040016040528060006bffffffffffffffffffffffff168152602001600067ffffffffffffffff16815250600460008467ffffffffffffffff1667ffffffffffffffff16815260200190815260200160002060008201518160000160006101000a8154816bffffffffffffffffffffffff02191690836bffffffffffffffffffffffff160217905550602082015181600001600c6101000a81548167ffffffffffffffff021916908367ffffffffffffffff16021790555090505060405180606001604052803373ffffffffffffffffffffffffffffffffffffffff168152602001600073ffffffffffffffffffffffffffffffffffffffff16815260200182815250600360008467ffffffffffffffff1667ffffffffffffffff16815260200190815260200160002060008201518160000160006101000a81548173ffffffffffffffffffffffffffffffffffffffff021916908373ffffffffffffffffffffffffffffffffffffffff16021790555060208201518160010160006101000a81548173ffffffffffffffffffffffffffffffffffffffff021916908373ffffffffffffffffffffffffffffffffffffffff1602179055506040820151816002019080519060200190612cff929190616643565b509050508167ffffffffffffffff167f464722b4166576d3dcbba877b999bc35cf911f4eaf434b7eba68fa113951d0bf33604051612d3d9190617937565b60405180910390a2819250505090565b60008060006060600073ffffffffffffffffffffffffffffffffffffffff16600360008767ffffffffffffffff1667ffffffffffffffff16815260200190815260200160002060000160009054906101000a900473ffffffffffffffffffffffffffffffffffffffff1673ffffffffffffffffffffffffffffffffffffffff161415612e05576040517f1f6a65b600000000000000000000000000000000000000000000000000000000815260040160405180910390fd5b600460008667ffffffffffffffff1667ffffffffffffffff16815260200190815260200160002060000160009054906101000a90046bffffffffffffffffffffffff16600460008767ffffffffffffffff1667ffffffffffffffff168152602001908152602001600020600001600c9054906101000a900467ffffffffffffffff16600360008867ffffffffffffffff1667ffffffffffffffff16815260200190815260200160002060000160009054906101000a900473ffffffffffffffffffffffffffffffffffffffff16600360008967ffffffffffffffff1667ffffffffffffffff16815260200190815260200160002060020180805480602002602001604051908101604052809291908181526020018280548015612f7d57602002820191906000526020600020905b8160009054906101000a900473ffffffffffffffffffffffffffffffffffffffff1673ffffffffffffffffffffffffffffffffffffffff1681526020019060010190808311612f33575b5050505050905093509350935093509193509193565b600b60000160069054906101000a900460ff1615612fdd576040517fed3ba6a600000000000000000000000000000000000000000000000000000000815260040160405180910390fd5b7f000000000000000000000000000000000000000000000000000000000000000073ffffffffffffffffffffffffffffffffffffffff163373ffffffffffffffffffffffffffffffffffffffff1614613062576040517f44b0e3c300000000000000000000000000000000000000000000000000000000815260040160405180910390fd5b6020828290501461309f576040517f8129bbcd00000000000000000000000000000000000000000000000000000000815260040160405180910390fd5b600082828101906130b09190616f69565b9050600073ffffffffffffffffffffffffffffffffffffffff16600360008367ffffffffffffffff1667ffffffffffffffff16815260200190815260200160002060000160009054906101000a900473ffffffffffffffffffffffffffffffffffffffff1673ffffffffffffffffffffffffffffffffffffffff161415613163576040517f1f6a65b600000000000000000000000000000000000000000000000000000000815260040160405180910390fd5b6000600460008367ffffffffffffffff1667ffffffffffffffff16815260200190815260200160002060000160009054906101000a90046bffffffffffffffffffffffff166bffffffffffffffffffffffff16905084600460008467ffffffffffffffff1667ffffffffffffffff16815260200190815260200160002060000160008282829054906101000a90046bffffffffffffffffffffffff16613209919061847d565b92506101000a8154816bffffffffffffffffffffffff02191690836bffffffffffffffffffffffff16021790555084600560088282829054906101000a90046bffffffffffffffffffffffff16613260919061847d565b92506101000a8154816bffffffffffffffffffffffff02191690836bffffffffffffffffffffffff1602179055508167ffffffffffffffff167fd39ec07f4e209f627a4c427971473820dc129761ba28de8906bd56f57101d4f88287846132c791906183e9565b6040516132d5929190617f6c565b60405180910390a2505050505050565b7f000000000000000000000000000000000000000000000000000000000000000081565b6000600b60000160069054906101000a900460ff1615613355576040517fed3ba6a600000000000000000000000000000000000000000000000000000000815260040160405180910390fd5b60005a905060008060006133698787614989565b9250925092506000866060015163ffffffff1667ffffffffffffffff81111561339557613394618a26565b5b6040519080825280602002602001820160405280156133c35781602001602082028036833780820191505090505b50905060005b876060015163ffffffff168110156134395782816040516020016133ee929190617f6c565b6040516020818303038152906040528051906020012060001c82828151811061341a576134196189f7565b5b602002602001018181525050808061343190618887565b9150506133c9565b506009600084815260200190815260200160002060009055600080631fe543e360e01b858460405160240161346f929190617f3c565b604051602081830303815290604052907bffffffffffffffffffffffffffffffffffffffffffffffffffffffff19166020820180517bffffffffffffffffffffffffffffffffffffffffffffffffffffffff838183161783525050505090506001600b60000160066101000a81548160ff02191690831515021790555060006135078a6040015163ffffffff168b6080015184614cae565b90506000600b60000160066101000a81548160ff0219169083151502179055506000600460008c6020015167ffffffffffffffff1667ffffffffffffffff168152602001908152602001600020600001600c9054906101000a900467ffffffffffffffff1690506001600460008d6020015167ffffffffffffffff1667ffffffffffffffff168152602001908152602001600020600001600c8282829054906101000a900467ffffffffffffffff166135c0919061843f565b92506101000a81548167ffffffffffffffff021916908367ffffffffffffffff16021790555060006136178a600b600001600b9054906101000a900463ffffffff1663ffffffff16613611856138e8565b3a614cfb565b9050806bffffffffffffffffffffffff16600460008e6020015167ffffffffffffffff1667ffffffffffffffff16815260200190815260200160002060000160009054906101000a90046bffffffffffffffffffffffff166bffffffffffffffffffffffff1610156136b5576040517ff4d678b800000000000000000000000000000000000000000000000000000000815260040160405180910390fd5b80600460008e6020015167ffffffffffffffff1667ffffffffffffffff16815260200190815260200160002060000160008282829054906101000a90046bffffffffffffffffffffffff1661370a919061857e565b92506101000a8154816bffffffffffffffffffffffff02191690836bffffffffffffffffffffffff1602179055508060086000600660008d815260200190815260200160002060009054906101000a900473ffffffffffffffffffffffffffffffffffffffff1673ffffffffffffffffffffffffffffffffffffffff1673ffffffffffffffffffffffffffffffffffffffff16815260200190815260200160002060008282829054906101000a90046bffffffffffffffffffffffff166137d1919061847d565b92506101000a8154816bffffffffffffffffffffffff02191690836bffffffffffffffffffffffff160217905550877f7dffc5ae5ee4e2e4df1651cf6ad329a73cebdb728f37ea0187b9b17e036756e4888386604051613833939291906180aa565b60405180910390a2809a505050505050505050505092915050565b600080600080600b60000160009054906101000a900461ffff16600b60000160029054906101000a900463ffffffff16600b60000160079054906101000a900463ffffffff16600b600001600b9054906101000a900463ffffffff16935093509350935090919293565b6000816040516020016138cb91906179cd565b604051602081830303815290604052805190602001209050919050565b600080600c604051806101200160405290816000820160009054906101000a900463ffffffff1663ffffffff1663ffffffff1681526020016000820160049054906101000a900463ffffffff1663ffffffff1663ffffffff1681526020016000820160089054906101000a900463ffffffff1663ffffffff1663ffffffff16815260200160008201600c9054906101000a900463ffffffff1663ffffffff1663ffffffff1681526020016000820160109054906101000a900463ffffffff1663ffffffff1663ffffffff1681526020016000820160149054906101000a900462ffffff1662ffffff1662ffffff1681526020016000820160179054906101000a900462ffffff1662ffffff1662ffffff16815260200160008201601a9054906101000a900462ffffff1662ffffff1662ffffff16815260200160008201601d9054906101000a900462ffffff1662ffffff1662ffffff168152505090508267ffffffffffffffff16600011158015613a7357508060a0015162ffffff168367ffffffffffffffff1611155b15613a85578060000151915050613b64565b8267ffffffffffffffff168160a0015162ffffff16108015613aba57508060c0015162ffffff168367ffffffffffffffff1611155b15613acc578060200151915050613b64565b8267ffffffffffffffff168160c0015162ffffff16108015613b0157508060e0015162ffffff168367ffffffffffffffff1611155b15613b13578060400151915050613b64565b8267ffffffffffffffff168160e0015162ffffff16108015613b49575080610100015162ffffff168367ffffffffffffffff1611155b15613b5b578060600151915050613b64565b80608001519150505b919050565b816000600360008367ffffffffffffffff1667ffffffffffffffff16815260200190815260200160002060000160009054906101000a900473ffffffffffffffffffffffffffffffffffffffff169050600073ffffffffffffffffffffffffffffffffffffffff168173ffffffffffffffffffffffffffffffffffffffff161415613c20576040517f1f6a65b600000000000000000000000000000000000000000000000000000000815260040160405180910390fd5b8073ffffffffffffffffffffffffffffffffffffffff163373ffffffffffffffffffffffffffffffffffffffff1614613c9057806040517fd8a3fb52000000000000000000000000000000000000000000000000000000008152600401613c879190617937565b60405180910390fd5b600b60000160069054906101000a900460ff1615613cda576040517fed3ba6a600000000000000000000000000000000000000000000000000000000815260040160405180910390fd5b613ce384613f59565b15613d1a576040517fb42f66e800000000000000000000000000000000000000000000000000000000815260040160405180910390fd5b613d2484846142cf565b50505050565b613d3261423f565b60007f000000000000000000000000000000000000000000000000000000000000000073ffffffffffffffffffffffffffffffffffffffff166370a08231306040518263ffffffff1660e01b8152600401613d8d9190617937565b60206040518083038186803b158015613da557600080fd5b505afa158015613db9573d6000803e3d6000fd5b505050506040513d601f19601f82011682018060405250810190613ddd9190616f3c565b90506000600560089054906101000a90046bffffffffffffffffffffffff166bffffffffffffffffffffffff16905081811115613e535780826040517fa99da302000000000000000000000000000000000000000000000000000000008152600401613e4a929190617f6c565b60405180910390fd5b81811015613f545760008183613e69919061854a565b90507f000000000000000000000000000000000000000000000000000000000000000073ffffffffffffffffffffffffffffffffffffffff1663a9059cbb85836040518363ffffffff1660e01b8152600401613ec692919061797b565b602060405180830381600087803b158015613ee057600080fd5b505af1158015613ef4573d6000803e3d6000fd5b505050506040513d601f19601f82011682018060405250810190613f189190616d6a565b507f59bfc682b673f8cbf945f1e454df9334834abf7dfe7f92237ca29ecb9b4366008482604051613f4a92919061797b565b60405180910390a1505b505050565b600080600360008467ffffffffffffffff1667ffffffffffffffff1681526020019081526020016000206040518060600160405290816000820160009054906101000a900473ffffffffffffffffffffffffffffffffffffffff1673ffffffffffffffffffffffffffffffffffffffff1673ffffffffffffffffffffffffffffffffffffffff1681526020016001820160009054906101000a900473ffffffffffffffffffffffffffffffffffffffff1673ffffffffffffffffffffffffffffffffffffffff1673ffffffffffffffffffffffffffffffffffffffff168152602001600282018054806020026020016040519081016040528092919081815260200182805480156140bf57602002820191906000526020600020905b8160009054906101000a900473ffffffffffffffffffffffffffffffffffffffff1673ffffffffffffffffffffffffffffffffffffffff1681526020019060010190808311614075575b505050505081525050905060005b81604001515181101561421f5760005b60078054905081101561420b5760006141ca60078381548110614103576141026189f7565b5b906000526020600020015485604001518581518110614125576141246189f7565b5b6020026020010151886002600089604001518981518110614149576141486189f7565b5b602002602001015173ffffffffffffffffffffffffffffffffffffffff1673ffffffffffffffffffffffffffffffffffffffff16815260200190815260200160002060008b67ffffffffffffffff1667ffffffffffffffff16815260200190815260200160002060009054906101000a900467ffffffffffffffff16614874565b5090506000801b6009600083815260200190815260200160002054146141f7576001945050505050614226565b50808061420390618887565b9150506140dd565b50808061421790618887565b9150506140cd565b5060009150505b919050565b61423361423f565b61423c81614e74565b50565b60008054906101000a900473ffffffffffffffffffffffffffffffffffffffff1673ffffffffffffffffffffffffffffffffffffffff163373ffffffffffffffffffffffffffffffffffffffff16146142cd576040517f08c379a00000000000000000000000000000000000000000000000000000000081526004016142c490617be1565b60405180910390fd5b565b600b60000160069054906101000a900460ff1615614319576040517fed3ba6a600000000000000000000000000000000000000000000000000000000815260040160405180910390fd5b6000600360008467ffffffffffffffff1667ffffffffffffffff1681526020019081526020016000206040518060600160405290816000820160009054906101000a900473ffffffffffffffffffffffffffffffffffffffff1673ffffffffffffffffffffffffffffffffffffffff1673ffffffffffffffffffffffffffffffffffffffff1681526020016001820160009054906101000a900473ffffffffffffffffffffffffffffffffffffffff1673ffffffffffffffffffffffffffffffffffffffff1673ffffffffffffffffffffffffffffffffffffffff1681526020016002820180548060200260200160405190810160405280929190818152602001828054801561447e57602002820191906000526020600020905b8160009054906101000a900473ffffffffffffffffffffffffffffffffffffffff1673ffffffffffffffffffffffffffffffffffffffff1681526020019060010190808311614434575b50505050508152505090506000600460008567ffffffffffffffff1667ffffffffffffffff1681526020019081526020016000206040518060400160405290816000820160009054906101000a90046bffffffffffffffffffffffff166bffffffffffffffffffffffff166bffffffffffffffffffffffff16815260200160008201600c9054906101000a900467ffffffffffffffff1667ffffffffffffffff1667ffffffffffffffff1681525050905060008160000151905060005b8360400151518110156145f4576002600085604001518381518110614563576145626189f7565b5b602002602001015173ffffffffffffffffffffffffffffffffffffffff1673ffffffffffffffffffffffffffffffffffffffff16815260200190815260200160002060008767ffffffffffffffff1667ffffffffffffffff16815260200190815260200160002060006101000a81549067ffffffffffffffff021916905580806145ec90618887565b91505061453b565b50600360008667ffffffffffffffff1667ffffffffffffffff168152602001908152602001600020600080820160006101000a81549073ffffffffffffffffffffffffffffffffffffffff02191690556001820160006101000a81549073ffffffffffffffffffffffffffffffffffffffff021916905560028201600061467b91906166cd565b5050600460008667ffffffffffffffff1667ffffffffffffffff168152602001908152602001600020600080820160006101000a8154906bffffffffffffffffffffffff021916905560008201600c6101000a81549067ffffffffffffffff0219169055505080600560088282829054906101000a90046bffffffffffffffffffffffff1661470a919061857e565b92506101000a8154816bffffffffffffffffffffffff02191690836bffffffffffffffffffffffff1602179055507f000000000000000000000000000000000000000000000000000000000000000073ffffffffffffffffffffffffffffffffffffffff1663a9059cbb85836bffffffffffffffffffffffff166040518363ffffffff1660e01b81526004016147a192919061797b565b602060405180830381600087803b1580156147bb57600080fd5b505af11580156147cf573d6000803e3d6000fd5b505050506040513d601f19601f820116820180604052508101906147f39190616d6a565b614829576040517ff4d678b800000000000000000000000000000000000000000000000000000000815260040160405180910390fd5b8467ffffffffffffffff167fe8ed5b475a5b5987aa9165e8731bb78043f39eee32ec5a1169a89e27fcd4981585836040516148659291906179a4565b60405180910390a25050505050565b6000806000868686866040516020016148909493929190617a1e565b6040516020818303038152906040528051906020012060001c905086816040516020016148be929190617a63565b6040516020818303038152906040528051906020012060001c81925092505094509492505050565b6000804690506148f581614fa1565b1561498157606473ffffffffffffffffffffffffffffffffffffffff1663a3b1b31d6040518163ffffffff1660e01b815260040160206040518083038186803b15801561494157600080fd5b505afa158015614955573d6000803e3d6000fd5b505050506040513d601f19601f820116820180604052508101906149799190616f3c565b915050614986565b439150505b90565b600080600061499b85600001516138b8565b925060006006600085815260200190815260200160002060009054906101000a900473ffffffffffffffffffffffffffffffffffffffff169050600073ffffffffffffffffffffffffffffffffffffffff168173ffffffffffffffffffffffffffffffffffffffff161415614a4757836040517f77f5b84c000000000000000000000000000000000000000000000000000000008152600401614a3e9190617a03565b60405180910390fd5b838660800151604051602001614a5e929190617a63565b6040516020818303038152906040528051906020012060001c92506000600960008581526020019081526020016000205490506000801b811415614ace576040517f3688124a00000000000000000000000000000000000000000000000000000000815260040160405180910390fd5b8386600001518760200151886040015189606001518a60800151604051602001614afd96959493929190618049565b604051602081830303815290604052805190602001208114614b4b576040517fd529142c00000000000000000000000000000000000000000000000000000000815260040160405180910390fd5b6000614b5a8760000151614fc9565b90506000801b811415614c63577f000000000000000000000000000000000000000000000000000000000000000073ffffffffffffffffffffffffffffffffffffffff1663e9413d3888600001516040518263ffffffff1660e01b8152600401614bc491906181b2565b60206040518083038186803b158015614bdc57600080fd5b505afa158015614bf0573d6000803e3d6000fd5b505050506040513d601f19601f82011682018060405250810190614c149190616d97565b90506000801b811415614c625786600001516040517f175dadad000000000000000000000000000000000000000000000000000000008152600401614c5991906181b2565b60405180910390fd5b5b6000886080015182604051602001614c7c92919061790b565b6040516020818303038152906040528051906020012060001c9050614ca189826150d0565b9450505050509250925092565b60005a611388811015614cc057600080fd5b611388810390508460408204820311614cd857600080fd5b833b614ce357600080fd5b6000808451602086016000888af19150509392505050565b600080614d0661513d565b905060008113614d4d57806040517f43d4cf66000000000000000000000000000000000000000000000000000000008152600401614d449190617b44565b60405180910390fd5b6000614d9d6000368080601f016020809104026020016040519081016040528093929190818152602001838380828437600081840152601f19601f82011690508083019250505050505050615249565b9050600082825a8a8a614db091906183e9565b614dba919061854a565b87614dc591906184f0565b614dcf91906183e9565b670de0b6b3a7640000614de291906184f0565b614dec91906184bf565b905060008663ffffffff1664e8d4a51000614e0791906184f0565b9050806b033b2e3c9fd0803ce8000000614e21919061854a565b821115614e5a576040517fe80fa38100000000000000000000000000000000000000000000000000000000815260040160405180910390fd5b8082614e6691906183e9565b945050505050949350505050565b3373ffffffffffffffffffffffffffffffffffffffff168173ffffffffffffffffffffffffffffffffffffffff161415614ee3576040517f08c379a0000000000000000000000000000000000000000000000000000000008152600401614eda90617d21565b60405180910390fd5b80600160006101000a81548173ffffffffffffffffffffffffffffffffffffffff021916908373ffffffffffffffffffffffffffffffffffffffff1602179055508073ffffffffffffffffffffffffffffffffffffffff1660008054906101000a900473ffffffffffffffffffffffffffffffffffffffff1673ffffffffffffffffffffffffffffffffffffffff167fed8889f560326eb138920d842192f0eb3dd22b4f139c87a2c57538e05bae127860405160405180910390a350565b600061a4b1821480614fb5575062066eed82145b80614fc2575062066eee82145b9050919050565b600080469050614fd881614fa1565b156150bb576101008367ffffffffffffffff16614ff36148e6565b614ffd919061854a565b118061501a575061500c6148e6565b8367ffffffffffffffff1610155b156150295760009150506150cb565b606473ffffffffffffffffffffffffffffffffffffffff16632b407a82846040518263ffffffff1660e01b815260040161506391906181b2565b60206040518083038186803b15801561507b57600080fd5b505afa15801561508f573d6000803e3d6000fd5b505050506040513d601f19601f820116820180604052508101906150b39190616d97565b9150506150cb565b8267ffffffffffffffff16409150505b919050565b60006151048360000151846020015185604001518660600151868860a001518960c001518a60e001518b61010001516153db565b6003836020015160405160200161511c929190617f13565b6040516020818303038152906040528051906020012060001c905092915050565b600080600b60000160079054906101000a900463ffffffff1690506000808263ffffffff161190506000807f000000000000000000000000000000000000000000000000000000000000000073ffffffffffffffffffffffffffffffffffffffff1663feaf968c6040518163ffffffff1660e01b815260040160a06040518083038186803b1580156151ce57600080fd5b505afa1580156151e2573d6000803e3d6000fd5b505050506040513d601f19601f820116820180604052508101906152069190616fd6565b90919293509091505080935081925050508280156152345750814261522b919061854a565b8463ffffffff16105b1561523f57600a5490505b8094505050505090565b60008046905061525881614fa1565b156152e457606c73ffffffffffffffffffffffffffffffffffffffff1663c6f7de0e6040518163ffffffff1660e01b815260040160206040518083038186803b1580156152a457600080fd5b505afa1580156152b8573d6000803e3d6000fd5b505050506040513d601f19601f820116820180604052508101906152dc9190616f3c565b9150506153d6565b6152ed816155c8565b156153d05773420000000000000000000000000000000000000f73ffffffffffffffffffffffffffffffffffffffff166349948e0e84604051806080016040528060488152602001618ee66048913960405160200161534d92919061781f565b6040516020818303038152906040526040518263ffffffff1660e01b81526004016153789190617ad1565b60206040518083038186803b15801561539057600080fd5b505afa1580156153a4573d6000803e3d6000fd5b505050506040513d601f19601f820116820180604052508101906153c89190616f3c565b9150506153d6565b60009150505b919050565b6153e489615607565b615423576040517f08c379a000000000000000000000000000000000000000000000000000000000815260040161541a90617cc1565b60405180910390fd5b61542c88615607565b61546b576040517f08c379a000000000000000000000000000000000000000000000000000000000815260040161546290617ce1565b60405180910390fd5b61547483615607565b6154b3576040517f08c379a00000000000000000000000000000000000000000000000000000000081526004016154aa90617ca1565b60405180910390fd5b6154bc82615607565b6154fb576040517f08c379a00000000000000000000000000000000000000000000000000000000081526004016154f290617da1565b60405180910390fd5b615507878a8887615788565b615546576040517f08c379a000000000000000000000000000000000000000000000000000000000815260040161553d90617c61565b60405180910390fd5b60006155528a876159a6565b90506000615565898b878b868989615a38565b90506000615576838d8d8a86615bbf565b9050808a146155ba576040517f08c379a00000000000000000000000000000000000000000000000000000000081526004016155b190617d01565b60405180910390fd5b505050505050505050505050565b6000600a8214806155da57506101a482145b806155e7575062aa37dc82145b806155f3575061210582145b80615600575062014a3382145b9050919050565b60007ffffffffffffffffffffffffffffffffffffffffffffffffffffffffefffffc2f8260006002811061563e5761563d6189f7565b5b602002015110615683576040517f08c379a000000000000000000000000000000000000000000000000000000000815260040161567a90617c21565b60405180910390fd5b7ffffffffffffffffffffffffffffffffffffffffffffffffffffffffefffffc2f826001600281106156b8576156b76189f7565b5b6020020151106156fd576040517f08c379a00000000000000000000000000000000000000000000000000000000081526004016156f490617d81565b60405180910390fd5b7ffffffffffffffffffffffffffffffffffffffffffffffffffffffffefffffc2f8061572c5761572b618999565b5b826001600281106157405761573f6189f7565b5b602002015183600160028110615759576157586189f7565b5b60200201510961578083600060028110615776576157756189f7565b5b6020020151615c01565b149050919050565b60008073ffffffffffffffffffffffffffffffffffffffff168273ffffffffffffffffffffffffffffffffffffffff1614156157f9576040517f08c379a00000000000000000000000000000000000000000000000000000000081526004016157f090617c41565b60405180910390fd5b600080600286600160028110615812576158116189f7565b5b60200201518161582557615824618999565b5b061461583257601c615835565b601b5b905060007ffffffffffffffffffffffffffffffffebaaedce6af48a03bbfd25e8cd03641418061586857615867618999565b5b858760006002811061587d5761587c6189f7565b5b6020020151097ffffffffffffffffffffffffffffffffebaaedce6af48a03bbfd25e8cd03641410360001b905060007ffffffffffffffffffffffffffffffffebaaedce6af48a03bbfd25e8cd0364141806158db576158da618999565b5b876000600281106158ef576158ee6189f7565b5b6020020151890960001b90506000600183858a600060028110615915576159146189f7565b5b602002015160001b856040516000815260200160405260405161593b9493929190617a8c565b6020604051602081039080840390855afa15801561595d573d6000803e3d6000fd5b5050506020604051035190508573ffffffffffffffffffffffffffffffffffffffff168173ffffffffffffffffffffffffffffffffffffffff1614945050505050949350505050565b6159ae6166ee565b6159db600184846040516020016159c7939291906178ce565b604051602081830303815290604052615ca4565b90505b6159e781615607565b615a3257615a2b81600060028110615a0257615a016189f7565b5b6020020151604051602001615a179190617843565b604051602081830303815290604052615ca4565b90506159de565b92915050565b615a406166ee565b7ffffffffffffffffffffffffffffffffffffffffffffffffffffffffefffffc2f83600060028110615a7557615a746189f7565b5b602002015181615a8857615a87618999565b5b067ffffffffffffffffffffffffffffffffffffffffffffffffffffffffefffffc2f87600060028110615abe57615abd6189f7565b5b602002015181615ad157615ad0618999565b5b061415615b13576040517f08c379a0000000000000000000000000000000000000000000000000000000008152600401615b0a90617bc1565b60405180910390fd5b615b1e878988615da8565b615b5d576040517f08c379a0000000000000000000000000000000000000000000000000000000008152600401615b5490617d41565b60405180910390fd5b615b68848685615da8565b615ba7576040517f08c379a0000000000000000000000000000000000000000000000000000000008152600401615b9e90617ba1565b60405180910390fd5b615bb2868484615f40565b9050979650505050505050565b600060028686868587604051602001615bdd9695949392919061785e565b6040516020818303038152906040528051906020012060001c905095945050505050565b6000807ffffffffffffffffffffffffffffffffffffffffffffffffffffffffefffffc2f80615c3357615c32618999565b5b7ffffffffffffffffffffffffffffffffffffffffffffffffffffffffefffffc2f80615c6257615c61618999565b5b848509840990507ffffffffffffffffffffffffffffffffffffffffffffffffffffffffefffffc2f80615c9857615c97618999565b5b60078208915050919050565b615cac6166ee565b615cb5826160bc565b81600060028110615cc957615cc86189f7565b5b602002018181525050615cfb615cf682600060028110615cec57615ceb6189f7565b5b6020020151615c01565b616129565b81600160028110615d0f57615d0e6189f7565b5b6020020181815250506001600282600160028110615d3057615d2f6189f7565b5b602002015181615d4357615d42618999565b5b061415615da35780600160028110615d5e57615d5d6189f7565b5b60200201517ffffffffffffffffffffffffffffffffffffffffffffffffffffffffefffffc2f0381600160028110615d9957615d986189f7565b5b6020020181815250505b919050565b600080831415615ded576040517f08c379a0000000000000000000000000000000000000000000000000000000008152600401615de490617d61565b60405180910390fd5b600084600060028110615e0357615e026189f7565b5b60200201519050600080600287600160028110615e2357615e226189f7565b5b6020020151615e329190618939565b14615e3e57601c615e41565b601b5b905060007ffffffffffffffffffffffffffffffffebaaedce6af48a03bbfd25e8cd036414180615e7457615e73618999565b5b83870960001b9050600060016000801b848660001b8560405160008152602001604052604051615ea79493929190617a8c565b6020604051602081039080840390855afa158015615ec9573d6000803e3d6000fd5b505050602060405103519050600086604051602001615ee89190617804565b6040516020818303038152906040528051906020012060001c90508073ffffffffffffffffffffffffffffffffffffffff168273ffffffffffffffffffffffffffffffffffffffff1614955050505050509392505050565b615f486166ee565b6000806000615fb987600060028110615f6457615f636189f7565b5b602002015188600160028110615f7d57615f7c6189f7565b5b602002015188600060028110615f9657615f956189f7565b5b602002015189600160028110615faf57615fae6189f7565b5b602002015161616c565b80935081945082955050505060017ffffffffffffffffffffffffffffffffffffffffffffffffffffffffefffffc2f80615ff657615ff5618999565b5b86830914616039576040517f08c379a000000000000000000000000000000000000000000000000000000000815260040161603090617c81565b60405180910390fd5b60405180604001604052807ffffffffffffffffffffffffffffffffffffffffffffffffffffffffefffffc2f8061607357616072618999565b5b87860981526020017ffffffffffffffffffffffffffffffffffffffffffffffffffffffffefffffc2f806160aa576160a9618999565b5b87850981525093505050509392505050565b6000818051906020012060001c90505b7ffffffffffffffffffffffffffffffffffffffffffffffffffffffffefffffc2f811061612457806040516020016161049190617843565b6040516020818303038152906040528051906020012060001c90506160cc565b919050565b600061616582600260017ffffffffffffffffffffffffffffffffffffffffffffffffffffffffefffffc2f61615e91906183e9565b901c616363565b9050919050565b60008060008060006001809150915060007ffffffffffffffffffffffffffffffffffffffffffffffffffffffffefffffc2f806161ac576161ab618999565b5b897ffffffffffffffffffffffffffffffffffffffffffffffffffffffffefffffc2f038808905060007ffffffffffffffffffffffffffffffffffffffffffffffffffffffffefffffc2f8061620457616203618999565b5b8b7ffffffffffffffffffffffffffffffffffffffffffffffffffffffffefffffc2f038a0890506000616239838385856164c3565b809250819950505061624d88828e8861653b565b809250819950505061626188828c8761653b565b809250819950505060006162778d878b8561653b565b809250819950505061628b888286866164c3565b809250819950505061629f88828e8961653b565b809250819950505080821461634f577ffffffffffffffffffffffffffffffffffffffffffffffffffffffffefffffc2f806162dd576162dc618999565b5b818a0998507ffffffffffffffffffffffffffffffffffffffffffffffffffffffffefffffc2f8061631157616310618999565b5b82890997507ffffffffffffffffffffffffffffffffffffffffffffffffffffffffefffffc2f8061634557616344618999565b5b8183099650616353565b8196505b5050505050509450945094915050565b60008061636e616710565b602081600060068110616384576163836189f7565b5b6020020181815250506020816001600681106163a3576163a26189f7565b5b6020020181815250506020816002600681106163c2576163c16189f7565b5b60200201818152505084816003600681106163e0576163df6189f7565b5b60200201818152505083816004600681106163fe576163fd6189f7565b5b6020020181815250507ffffffffffffffffffffffffffffffffffffffffffffffffffffffffefffffc2f8160056006811061643c5761643b6189f7565b5b60200201818152505061644d616732565b60208160c0846005600019fa9250600083141561649f576040517f08c379a000000000000000000000000000000000000000000000000000000000815260040161649690617c01565b60405180910390fd5b806000600181106164b3576164b26189f7565b5b6020020151935050505092915050565b6000807ffffffffffffffffffffffffffffffffffffffffffffffffffffffffefffffc2f806164f5576164f4618999565b5b8487097ffffffffffffffffffffffffffffffffffffffffffffffffffffffffefffffc2f8061652757616526618999565b5b848709809250819350505094509492505050565b60008060007ffffffffffffffffffffffffffffffffffffffffffffffffffffffffefffffc2f8061656f5761656e618999565b5b878509905060007ffffffffffffffffffffffffffffffffffffffffffffffffffffffffefffffc2f806165a5576165a4618999565b5b87877ffffffffffffffffffffffffffffffffffffffffffffffffffffffffefffffc2f030990507ffffffffffffffffffffffffffffffffffffffffffffffffffffffffefffffc2f806165fb576165fa618999565b5b8183087ffffffffffffffffffffffffffffffffffffffffffffffffffffffffefffffc2f8061662d5761662c618999565b5b8689098094508195505050505094509492505050565b8280548282559060005260206000209081019282156166bc579160200282015b828111156166bb5782518260006101000a81548173ffffffffffffffffffffffffffffffffffffffff021916908373ffffffffffffffffffffffffffffffffffffffff16021790555091602001919060010190616663565b5b5090506166c99190616754565b5090565b50805460008255906000526020600020908101906166eb9190616754565b50565b6040518060400160405280600290602082028036833780820191505090505090565b6040518060c00160405280600690602082028036833780820191505090505090565b6040518060200160405280600190602082028036833780820191505090505090565b5b8082111561676d576000816000905550600101616755565b5090565b600061678461677f8461829d565b618278565b9050808285602086028201111561679e5761679d618a64565b5b60005b858110156167ce57816167b48882616b71565b8452602084019350602083019250506001810190506167a1565b5050509392505050565b6000813590506167e781618de8565b92915050565b60008190508260206002028201111561680957616808618a64565b5b92915050565b600082601f83011261682457616823618a5a565b5b6002616831848285616771565b91505092915050565b60008151905061684981618dff565b92915050565b60008135905061685e81618e16565b92915050565b60008151905061687381618e16565b92915050565b60008083601f84011261688f5761688e618a5a565b5b8235905067ffffffffffffffff8111156168ac576168ab618a55565b5b6020830191508360018202830111156168c8576168c7618a64565b5b9250929050565b6000813590506168de81618e2d565b92915050565b6000815190506168f381618e2d565b92915050565b600061012082840312156169105761690f618a5f565b5b61691b610120618278565b9050600061692b84828501616b9b565b600083015250602061693f84828501616b9b565b602083015250604061695384828501616b9b565b604083015250606061696784828501616b9b565b606083015250608061697b84828501616b9b565b60808301525060a061698f84828501616b5c565b60a08301525060c06169a384828501616b5c565b60c08301525060e06169b784828501616b5c565b60e0830152506101006169cc84828501616b5c565b6101008301525092915050565b60006101a082840312156169f0576169ef618a5f565b5b6169fb610120618278565b90506000616a0b8482850161680f565b6000830152506040616a1f8482850161680f565b6020830152506080616a3384828501616b71565b60408301525060a0616a4784828501616b71565b60608301525060c0616a5b84828501616b71565b60808301525060e0616a6f848285016167d8565b60a083015250610100616a848482850161680f565b60c083015250610140616a998482850161680f565b60e083015250610180616aae84828501616b71565b6101008301525092915050565b600060a08284031215616ad157616ad0618a5f565b5b616adb60a0618278565b90506000616aeb84828501616bb0565b6000830152506020616aff84828501616bb0565b6020830152506040616b1384828501616b9b565b6040830152506060616b2784828501616b9b565b6060830152506080616b3b848285016167d8565b60808301525092915050565b600081359050616b5681618e44565b92915050565b600081359050616b6b81618e5b565b92915050565b600081359050616b8081618e72565b92915050565b600081519050616b9581618e72565b92915050565b600081359050616baa81618e89565b92915050565b600081359050616bbf81618ea0565b92915050565b600081519050616bd481618eb7565b92915050565b600081359050616be981618ece565b92915050565b600060208284031215616c0557616c04618a6e565b5b6000616c13848285016167d8565b91505092915050565b60008060608385031215616c3357616c32618a6e565b5b6000616c41858286016167d8565b9250506020616c52858286016167ed565b9150509250929050565b60008060008060608587031215616c7657616c75618a6e565b5b6000616c84878288016167d8565b9450506020616c9587828801616b71565b935050604085013567ffffffffffffffff811115616cb657616cb5618a69565b5b616cc287828801616879565b925092505092959194509250565b60008060408385031215616ce757616ce6618a6e565b5b6000616cf5858286016167d8565b9250506020616d0685828601616bda565b9150509250929050565b600060408284031215616d2657616d25618a6e565b5b6000616d34848285016167ed565b91505092915050565b600060408284031215616d5357616d52618a6e565b5b6000616d618482850161680f565b91505092915050565b600060208284031215616d8057616d7f618a6e565b5b6000616d8e8482850161683a565b91505092915050565b600060208284031215616dad57616dac618a6e565b5b6000616dbb84828501616864565b91505092915050565b600080600080600060a08688031215616de057616ddf618a6e565b5b6000616dee8882890161684f565b9550506020616dff88828901616bb0565b9450506040616e1088828901616b47565b9350506060616e2188828901616b9b565b9250506080616e3288828901616b9b565b9150509295509295909350565b6000806102408385031215616e5757616e56618a6e565b5b6000616e65858286016169d9565b9250506101a0616e7785828601616abb565b9150509250929050565b6000806000806000806101c08789031215616e9f57616e9e618a6e565b5b6000616ead89828a01616b47565b9650506020616ebe89828a01616b9b565b9550506040616ecf89828a01616b9b565b9450506060616ee089828a01616b9b565b9350506080616ef189828a016168cf565b92505060a0616f0289828a016168f9565b9150509295509295509295565b600060208284031215616f2557616f24618a6e565b5b6000616f3384828501616b71565b91505092915050565b600060208284031215616f5257616f51618a6e565b5b6000616f6084828501616b86565b91505092915050565b600060208284031215616f7f57616f7e618a6e565b5b6000616f8d84828501616bb0565b91505092915050565b60008060408385031215616fad57616fac618a6e565b5b6000616fbb85828601616bb0565b9250506020616fcc858286016167d8565b9150509250929050565b600080600080600060a08688031215616ff257616ff1618a6e565b5b600061700088828901616bc5565b9550506020617011888289016168e4565b945050604061702288828901616b86565b935050606061703388828901616b86565b925050608061704488828901616bc5565b9150509295509295909350565b600061705d83836170b1565b60208301905092915050565b600061707583836172bd565b60208301905092915050565b600061708d8383617757565b60208301905092915050565b60006170a58383617775565b60208301905092915050565b6170ba816185d1565b82525050565b6170c9816185d1565b82525050565b6170e06170db826185d1565b618901565b82525050565b60006170f1826182fd565b6170fb8185618373565b9350617106836182c3565b8060005b8381101561713757815161711e8882617051565b97506171298361833f565b92505060018101905061710a565b5085935050505092915050565b600061714f82618308565b6171598185618384565b9350617164836182d3565b8060005b8381101561719557815161717c8882617069565b97506171878361834c565b925050600181019050617168565b5085935050505092915050565b6171ab81618313565b6171b58184618395565b92506171c0826182e3565b8060005b838110156171f15781516171d88782617081565b96506171e383618359565b9250506001810190506171c4565b505050505050565b61720281618313565b61720c81846183a0565b9250617217826182e3565b8060005b8381101561724857815161722f8782617099565b965061723a83618359565b92505060018101905061721b565b505050505050565b600061725b8261831e565b61726581856183ab565b9350617270836182ed565b8060005b838110156172a15781516172888882617081565b975061729383618366565b925050600181019050617274565b5085935050505092915050565b6172b7816185e3565b82525050565b6172c6816185ef565b82525050565b6172d5816185ef565b82525050565b6172ec6172e7826185ef565b618913565b82525050565b60006172fd82618329565b61730781856183bc565b9350617317818560208601618739565b61732081618a73565b840191505092915050565b600061733682618329565b61734081856183cd565b9350617350818560208601618739565b80840191505092915050565b617365816186a9565b82525050565b617374816186cd565b82525050565b617383816186f1565b82525050565b617392816185f9565b82525050565b60006173a382618334565b6173ad81856183d8565b93506173bd818560208601618739565b6173c681618a73565b840191505092915050565b60006173de6016836183d8565b91506173e982618b06565b602082019050919050565b60006174016017836183d8565b915061740c82618b2f565b602082019050919050565b6000617424601e836183d8565b915061742f82618b58565b602082019050919050565b60006174476016836183d8565b915061745282618b81565b602082019050919050565b600061746a6012836183d8565b915061747582618baa565b602082019050919050565b600061748d6012836183d8565b915061749882618bd3565b602082019050919050565b60006174b0600b836183d8565b91506174bb82618bfc565b602082019050919050565b60006174d36019836183d8565b91506174de82618c25565b602082019050919050565b60006174f66019836183d8565b915061750182618c4e565b602082019050919050565b6000617519601d836183d8565b915061752482618c77565b602082019050919050565b600061753c601a836183d8565b915061754782618ca0565b602082019050919050565b600061755f6015836183d8565b915061756a82618cc9565b602082019050919050565b6000617582600d836183d8565b915061758d82618cf2565b602082019050919050565b60006175a56017836183d8565b91506175b082618d1b565b602082019050919050565b60006175c86016836183d8565b91506175d382618d44565b602082019050919050565b60006175eb600b836183d8565b91506175f682618d6d565b602082019050919050565b600061760e6012836183d8565b915061761982618d96565b602082019050919050565b6000617631601c836183d8565b915061763c82618dbf565b602082019050919050565b6101208201600080830154905061765d8161876c565b61766a600086018261779b565b5061767481618822565b617681602086018261779b565b5061768b8161883c565b617698604086018261779b565b506176a281618786565b6176af606086018261779b565b506176b9816187a0565b6176c6608086018261779b565b506176d0816187ba565b6176dd60a0860182617739565b506176e7816187d4565b6176f460c0860182617739565b506176fe816187ee565b61770b60e0860182617739565b5061771581618808565b617723610100860182617739565b5050505050565b61773381618603565b82525050565b61774281618631565b82525050565b61775181618631565b82525050565b61776081618640565b82525050565b61776f81618640565b82525050565b61777e81618640565b82525050565b61779561779082618640565b61892f565b82525050565b6177a48161864a565b82525050565b6177b38161864a565b82525050565b6177c281618715565b82525050565b6177d18161865a565b82525050565b6177e08161866e565b82525050565b6177ef81618727565b82525050565b6177fe81618691565b82525050565b600061781082846171f9565b60408201915081905092915050565b600061782b828561732b565b9150617837828461732b565b91508190509392505050565b600061784f8284617784565b60208201915081905092915050565b600061786a8289617784565b60208201915061787a82886171f9565b60408201915061788a82876171f9565b60408201915061789a82866171f9565b6040820191506178aa82856171f9565b6040820191506178ba82846170cf565b601482019150819050979650505050505050565b60006178da8286617784565b6020820191506178ea82856171f9565b6040820191506178fa8284617784565b602082019150819050949350505050565b60006179178285617784565b60208201915061792782846172db565b6020820191508190509392505050565b600060208201905061794c60008301846170c0565b92915050565b600060408201905061796760008301856170c0565b61797460208301846170c0565b9392505050565b600060408201905061799060008301856170c0565b61799d6020830184617766565b9392505050565b60006040820190506179b960008301856170c0565b6179c660208301846177e6565b9392505050565b60006040820190506179e260008301846171a2565b92915050565b60006020820190506179fd60008301846172ae565b92915050565b6000602082019050617a1860008301846172cc565b92915050565b6000608082019050617a3360008301876172cc565b617a4060208301866170c0565b617a4d60408301856177c8565b617a5a60608301846177c8565b95945050505050565b6000604082019050617a7860008301856172cc565b617a856020830184617766565b9392505050565b6000608082019050617aa160008301876172cc565b617aae60208301866177d7565b617abb60408301856172cc565b617ac860608301846172cc565b95945050505050565b60006020820190508181036000830152617aeb81846172f2565b905092915050565b6000602082019050617b08600083018461735c565b92915050565b6000602082019050617b23600083018461736b565b92915050565b6000602082019050617b3e600083018461737a565b92915050565b6000602082019050617b596000830184617389565b92915050565b60006020820190508181036000830152617b798184617398565b905092915050565b60006020820190508181036000830152617b9a816173d1565b9050919050565b60006020820190508181036000830152617bba816173f4565b9050919050565b60006020820190508181036000830152617bda81617417565b9050919050565b60006020820190508181036000830152617bfa8161743a565b9050919050565b60006020820190508181036000830152617c1a8161745d565b9050919050565b60006020820190508181036000830152617c3a81617480565b9050919050565b60006020820190508181036000830152617c5a816174a3565b9050919050565b60006020820190508181036000830152617c7a816174c6565b9050919050565b60006020820190508181036000830152617c9a816174e9565b9050919050565b60006020820190508181036000830152617cba8161750c565b9050919050565b60006020820190508181036000830152617cda8161752f565b9050919050565b60006020820190508181036000830152617cfa81617552565b9050919050565b60006020820190508181036000830152617d1a81617575565b9050919050565b60006020820190508181036000830152617d3a81617598565b9050919050565b60006020820190508181036000830152617d5a816175bb565b9050919050565b60006020820190508181036000830152617d7a816175de565b9050919050565b60006020820190508181036000830152617d9a81617601565b9050919050565b60006020820190508181036000830152617dba81617624565b9050919050565b6000602082019050617dd6600083018461772a565b92915050565b6000606082019050617df1600083018661772a565b617dfe602083018561772a565b617e0b604083018461772a565b949350505050565b6000606082019050617e28600083018661772a565b617e3560208301856177aa565b8181036040830152617e478184617144565b9050949350505050565b6000608082019050617e66600083018761772a565b617e7360208301866177aa565b617e8060408301856177aa565b617e8d60608301846177aa565b95945050505050565b60006101c082019050617eac600083018961772a565b617eb960208301886177aa565b617ec660408301876177aa565b617ed360608301866177aa565b617ee06080830185617389565b617eed60a0830184617647565b979650505050505050565b6000602082019050617f0d6000830184617766565b92915050565b6000606082019050617f286000830185617766565b617f3560208301846171a2565b9392505050565b6000604082019050617f516000830185617766565b8181036020830152617f638184617250565b90509392505050565b6000604082019050617f816000830185617766565b617f8e6020830184617766565b9392505050565b600060a082019050617faa6000830188617766565b617fb76020830187617766565b617fc4604083018661772a565b617fd160608301856177aa565b617fde60808301846177aa565b9695505050505050565b600060c082019050617ffd6000830189617766565b61800a6020830188617766565b61801760408301876177c8565b61802460608301866177aa565b61803160808301856177aa565b61803e60a08301846170c0565b979650505050505050565b600060c08201905061805e6000830189617766565b61806b60208301886177c8565b61807860408301876177c8565b61808560608301866177aa565b61809260808301856177aa565b61809f60a08301846170c0565b979650505050505050565b60006060820190506180bf6000830186617766565b6180cc60208301856177f5565b6180d960408301846172ae565b949350505050565b60006020820190506180f660008301846177aa565b92915050565b600060408201905061811160008301856177aa565b61811e60208301846177aa565b9392505050565b60006101208201905061813b600083018c6177aa565b618148602083018b6177aa565b618155604083018a6177aa565b61816260608301896177aa565b61816f60808301886177aa565b61817c60a0830187617748565b61818960c0830186617748565b61819660e0830185617748565b6181a4610100830184617748565b9a9950505050505050505050565b60006020820190506181c760008301846177b9565b92915050565b60006020820190506181e260008301846177c8565b92915050565b60006040820190506181fd60008301856177c8565b61820a60208301846170c0565b9392505050565b600060208201905061822660008301846177f5565b92915050565b600060808201905061824160008301876177f5565b61824e60208301866177c8565b61825b60408301856170c0565b818103606083015261826d81846170e6565b905095945050505050565b6000618282618293565b905061828e8282618856565b919050565b6000604051905090565b600067ffffffffffffffff8211156182b8576182b7618a26565b5b602082029050919050565b6000819050602082019050919050565b6000819050602082019050919050565b6000819050919050565b6000819050602082019050919050565b600081519050919050565b600081519050919050565b600060029050919050565b600081519050919050565b600081519050919050565b600081519050919050565b6000602082019050919050565b6000602082019050919050565b6000602082019050919050565b6000602082019050919050565b600082825260208201905092915050565b600082825260208201905092915050565b600081905092915050565b600081905092915050565b600082825260208201905092915050565b600082825260208201905092915050565b600081905092915050565b600082825260208201905092915050565b60006183f482618640565b91506183ff83618640565b9250827fffffffffffffffffffffffffffffffffffffffffffffffffffffffffffffffff038211156184345761843361896a565b5b828201905092915050565b600061844a8261865a565b91506184558361865a565b92508267ffffffffffffffff038211156184725761847161896a565b5b828201905092915050565b600061848882618691565b915061849383618691565b9250826bffffffffffffffffffffffff038211156184b4576184b361896a565b5b828201905092915050565b60006184ca82618640565b91506184d583618640565b9250826184e5576184e4618999565b5b828204905092915050565b60006184fb82618640565b915061850683618640565b9250817fffffffffffffffffffffffffffffffffffffffffffffffffffffffffffffffff048311821515161561853f5761853e61896a565b5b828202905092915050565b600061855582618640565b915061856083618640565b9250828210156185735761857261896a565b5b828203905092915050565b600061858982618691565b915061859483618691565b9250828210156185a7576185a661896a565b5b828203905092915050565b600062ffffff82169050919050565b600063ffffffff82169050919050565b60006185dc82618611565b9050919050565b60008115159050919050565b6000819050919050565b6000819050919050565b600061ffff82169050919050565b600073ffffffffffffffffffffffffffffffffffffffff82169050919050565b600062ffffff82169050919050565b6000819050919050565b600063ffffffff82169050919050565b600067ffffffffffffffff82169050919050565b600060ff82169050919050565b600069ffffffffffffffffffff82169050919050565b60006bffffffffffffffffffffffff82169050919050565b60006186b4826186bb565b9050919050565b60006186c682618611565b9050919050565b60006186d8826186df565b9050919050565b60006186ea82618611565b9050919050565b60006186fc82618703565b9050919050565b600061870e82618611565b9050919050565b60006187208261865a565b9050919050565b600061873282618691565b9050919050565b60005b8381101561875757808201518184015260208101905061873c565b83811115618766576000848401525b50505050565b600061877f61877a83618a91565b6185c1565b9050919050565b600061879961879483618af9565b6185c1565b9050919050565b60006187b36187ae83618a9e565b6185c1565b9050919050565b60006187cd6187c883618aab565b6185b2565b9050919050565b60006187e76187e283618ab8565b6185b2565b9050919050565b60006188016187fc83618ac5565b6185b2565b9050919050565b600061881b61881683618ad2565b6185b2565b9050919050565b600061883561883083618adf565b6185c1565b9050919050565b600061884f61884a83618aec565b6185c1565b9050919050565b61885f82618a73565b810181811067ffffffffffffffff8211171561887e5761887d618a26565b5b80604052505050565b600061889282618640565b91507fffffffffffffffffffffffffffffffffffffffffffffffffffffffffffffffff8214156188c5576188c461896a565b5b600182019050919050565b60006188db8261865a565b915067ffffffffffffffff8214156188f6576188f561896a565b5b600182019050919050565b600061890c8261891d565b9050919050565b6000819050919050565b600061892882618a84565b9050919050565b6000819050919050565b600061894482618640565b915061894f83618640565b92508261895f5761895e618999565b5b828206905092915050565b7f4e487b7100000000000000000000000000000000000000000000000000000000600052601160045260246000fd5b7f4e487b7100000000000000000000000000000000000000000000000000000000600052601260045260246000fd5b7f4e487b7100000000000000000000000000000000000000000000000000000000600052603160045260246000fd5b7f4e487b7100000000000000000000000000000000000000000000000000000000600052603260045260246000fd5b7f4e487b7100000000000000000000000000000000000000000000000000000000600052604160045260246000fd5b600080fd5b600080fd5b600080fd5b600080fd5b600080fd5b600080fd5b6000601f19601f8301169050919050565b60008160601b9050919050565b60008160001c9050919050565b60008160801c9050919050565b60008160a01c9050919050565b60008160b81c9050919050565b60008160d01c9050919050565b60008160e81c9050919050565b60008160201c9050919050565b60008160401c9050919050565b60008160601c9050919050565b7f4d7573742062652070726f706f736564206f776e657200000000000000000000600082015250565b7f5365636f6e64206d756c20636865636b206661696c6564000000000000000000600082015250565b7f706f696e747320696e2073756d206d7573742062652064697374696e63740000600082015250565b7f4f6e6c792063616c6c61626c65206279206f776e657200000000000000000000600082015250565b7f6269674d6f64457870206661696c757265210000000000000000000000000000600082015250565b7f696e76616c696420782d6f7264696e6174650000000000000000000000000000600082015250565b7f626164207769746e657373000000000000000000000000000000000000000000600082015250565b7f6164647228632a706b2b732a6729213d5f755769746e65737300000000000000600082015250565b7f696e765a206d75737420626520696e7665727365206f66207a00000000000000600082015250565b7f6347616d6d615769746e657373206973206e6f74206f6e206375727665000000600082015250565b7f7075626c6963206b6579206973206e6f74206f6e206375727665000000000000600082015250565b7f67616d6d61206973206e6f74206f6e2063757276650000000000000000000000600082015250565b7f696e76616c69642070726f6f6600000000000000000000000000000000000000600082015250565b7f43616e6e6f74207472616e7366657220746f2073656c66000000000000000000600082015250565b7f4669727374206d756c20636865636b206661696c656400000000000000000000600082015250565b7f7a65726f207363616c6172000000000000000000000000000000000000000000600082015250565b7f696e76616c696420792d6f7264696e6174650000000000000000000000000000600082015250565b7f73486173685769746e657373206973206e6f74206f6e20637572766500000000600082015250565b618df1816185d1565b8114618dfc57600080fd5b50565b618e08816185e3565b8114618e1357600080fd5b50565b618e1f816185ef565b8114618e2a57600080fd5b50565b618e36816185f9565b8114618e4157600080fd5b50565b618e4d81618603565b8114618e5857600080fd5b50565b618e6481618631565b8114618e6f57600080fd5b50565b618e7b81618640565b8114618e8657600080fd5b50565b618e928161864a565b8114618e9d57600080fd5b50565b618ea98161865a565b8114618eb457600080fd5b50565b618ec08161867b565b8114618ecb57600080fd5b50565b618ed781618691565b8114618ee257600080fd5b5056fe307866666666666666666666666666666666666666666666666666666666666666666666666666666666666666666666666666666666666666666666666666666666666666666666a264697066735822122077553fcc39877efc5a81c6cd64cf2056ecea49c6e2d2a06570e09b5ffc2dedcd64736f6c63430008060033",
  "linkReferences": {},
  "deployedLinkReferences": {}
}