{
  "_format": "hh-sol-artifact-1",
  "contractName": "OVM_GasPriceOracle",
  "sourceName": "@chainlink/contracts/src/v0.8/vendor/@eth-optimism/contracts/v0.8.6/contracts/L2/predeploys/OVM_GasPriceOracle.sol",
  "abi": [
    {
      "inputs": [
        {
          "internalType": "address",
          "name": "_owner",
          "type": "address"
        }
      ],
      "stateMutability": "nonpayable",
      "type": "constructor"
    },
    {
      "anonymous": false,
      "inputs": [
        {
          "indexed": false,
          "internalType": "uint256",
          "name": "",
          "type": "uint256"
        }
      ],
      "name": "DecimalsUpdated",
      "type": "event"
    },
    {
      "anonymous": false,
      "inputs": [
        {
          "indexed": false,
          "internalType": "uint256",
          "name": "",
          "type": "uint256"
        }
      ],
      "name": "GasPriceUpdated",
      "type": "event"
    },
    {
      "anonymous": false,
      "inputs": [
        {
          "indexed": false,
          "internalType": "uint256",
          "name": "",
          "type": "uint256"
        }
      ],
      "name": "L1BaseFeeUpdated",
      "type": "event"
    },
    {
      "anonymous": false,
      "inputs": [
        {
          "indexed": false,
          "internalType": "uint256",
          "name": "",
          "type": "uint256"
        }
      ],
      "name": "OverheadUpdated",
      "type": "event"
    },
    {
      "anonymous": false,
      "inputs": [
        {
          "indexed": true,
          "internalType": "address",
          "name": "previousOwner",
          "type": "address"
        },
        {
          "indexed": true,
          "internalType": "address",
          "name": "newOwner",
          "type": "address"
        }
      ],
      "name": "OwnershipTransferred",
      "type": "event"
    },
    {
      "anonymous": false,
      "inputs": [
        {
          "indexed": false,
          "internalType": "uint256",
          "name": "",
          "type": "uint256"
        }
      ],
      "name": "ScalarUpdated",
      "type": "event"
    },
    {
      "inputs": [],
      "name": "decimals",
      "outputs": [
        {
          "internalType": "uint256",
          "name": "",
          "type": "uint256"
        }
      ],
      "stateMutability": "view",
      "type": "function"
    },
    {
      "inputs": [],
      "name": "gasPrice",
      "outputs": [
        {
          "internalType": "uint256",
          "name": "",
          "type": "uint256"
        }
      ],
      "stateMutability": "view",
      "type": "function"
    },
    {
      "inputs": [
        {
          "internalType": "bytes",
          "name": "_data",
          "type": "bytes"
        }
      ],
      "name": "getL1Fee",
      "outputs": [
        {
          "internalType": "uint256",
          "name": "",
          "type": "uint256"
        }
      ],
      "stateMutability": "view",
      "type": "function"
    },
    {
      "inputs": [
        {
          "internalType": "bytes",
          "name": "_data",
          "type": "bytes"
        }
      ],
      "name": "getL1GasUsed",
      "outputs": [
        {
          "internalType": "uint256",
          "name": "",
          "type": "uint256"
        }
      ],
      "stateMutability": "view",
      "type": "function"
    },
    {
      "inputs": [],
      "name": "l1BaseFee",
      "outputs": [
        {
          "internalType": "uint256",
          "name": "",
          "type": "uint256"
        }
      ],
      "stateMutability": "view",
      "type": "function"
    },
    {
      "inputs": [],
      "name": "overhead",
      "outputs": [
        {
          "internalType": "uint256",
          "name": "",
          "type": "uint256"
        }
      ],
      "stateMutability": "view",
      "type": "function"
    },
    {
      "inputs": [],
      "name": "owner",
      "outputs": [
        {
          "internalType": "address",
          "name": "",
          "type": "address"
        }
      ],
      "stateMutability": "view",
      "type": "function"
    },
    {
      "inputs": [],
      "name": "renounceOwnership",
      "outputs": [],
      "stateMutability": "nonpayable",
      "type": "function"
    },
    {
      "inputs": [],
      "name": "scalar",
      "outputs": [
        {
          "internalType": "uint256",
          "name": "",
          "type": "uint256"
        }
      ],
      "stateMutability": "view",
      "type": "function"
    },
    {
      "inputs": [
        {
          "internalType": "uint256",
          "name": "_decimals",
          "type": "uint256"
        }
      ],
      "name": "setDecimals",
      "outputs": [],
      "stateMutability": "nonpayable",
      "type": "function"
    },
    {
      "inputs": [
        {
          "internalType": "uint256",
          "name": "_gasPrice",
          "type": "uint256"
        }
      ],
      "name": "setGasPrice",
      "outputs": [],
      "stateMutability": "nonpayable",
      "type": "function"
    },
    {
      "inputs": [
        {
          "internalType": "uint256",
          "name": "_baseFee",
          "type": "uint256"
        }
      ],
      "name": "setL1BaseFee",
      "outputs": [],
      "stateMutability": "nonpayable",
      "type": "function"
    },
    {
      "inputs": [
        {
          "internalType": "uint256",
          "name": "_overhead",
          "type": "uint256"
        }
      ],
      "name": "setOverhead",
      "outputs": [],
      "stateMutability": "nonpayable",
      "type": "function"
    },
    {
      "inputs": [
        {
          "internalType": "uint256",
          "name": "_scalar",
          "type": "uint256"
        }
      ],
      "name": "setScalar",
      "outputs": [],
      "stateMutability": "nonpayable",
      "type": "function"
    },
    {
      "inputs": [
        {
          "internalType": "address",
          "name": "newOwner",
          "type": "address"
        }
      ],
      "name": "transferOwnership",
      "outputs": [],
      "stateMutability": "nonpayable",
      "type": "function"
    }
  ],
  "bytecode": "0x60806040523480156200001157600080fd5b5060405162001329380380620013298339818101604052810190620000379190620002a3565b620000576200004b6200006f60201b60201c565b6200007760201b60201c565b62000068816200013b60201b60201c565b5062000443565b600033905090565b60008060009054906101000a900473ffffffffffffffffffffffffffffffffffffffff169050816000806101000a81548173ffffffffffffffffffffffffffffffffffffffff021916908373ffffffffffffffffffffffffffffffffffffffff1602179055508173ffffffffffffffffffffffffffffffffffffffff168173ffffffffffffffffffffffffffffffffffffffff167f8be0079c531659141344cd1fd0a4f28419497f9722a3daafe3b4186f6b6457e060405160405180910390a35050565b6200014b620001d260201b60201c565b600073ffffffffffffffffffffffffffffffffffffffff168173ffffffffffffffffffffffffffffffffffffffff161415620001be576040517f08c379a0000000000000000000000000000000000000000000000000000000008152600401620001b59062000323565b60405180910390fd5b620001cf816200007760201b60201c565b50565b620001e26200006f60201b60201c565b73ffffffffffffffffffffffffffffffffffffffff16620002086200026360201b60201c565b73ffffffffffffffffffffffffffffffffffffffff161462000261576040517f08c379a0000000000000000000000000000000000000000000000000000000008152600401620002589062000345565b60405180910390fd5b565b60008060009054906101000a900473ffffffffffffffffffffffffffffffffffffffff16905090565b6000815190506200029d8162000429565b92915050565b600060208284031215620002bc57620002bb620003ac565b5b6000620002cc848285016200028c565b91505092915050565b6000620002e460268362000367565b9150620002f182620003b1565b604082019050919050565b60006200030b60208362000367565b9150620003188262000400565b602082019050919050565b600060208201905081810360008301526200033e81620002d5565b9050919050565b600060208201905081810360008301526200036081620002fc565b9050919050565b600082825260208201905092915050565b600062000385826200038c565b9050919050565b600073ffffffffffffffffffffffffffffffffffffffff82169050919050565b600080fd5b7f4f776e61626c653a206e6577206f776e657220697320746865207a65726f206160008201527f6464726573730000000000000000000000000000000000000000000000000000602082015250565b7f4f776e61626c653a2063616c6c6572206973206e6f7420746865206f776e6572600082015250565b620004348162000378565b81146200044057600080fd5b50565b610ed680620004536000396000f3fe608060405234801561001057600080fd5b50600436106100f55760003560e01c80638c8885c811610097578063de26c4a111610066578063de26c4a114610238578063f2fde38b14610268578063f45e65d814610284578063fe173b97146102a2576100f5565b80638c8885c8146101c65780638da5cb5b146101e2578063bede39b514610200578063bf1fe4201461021c576100f5565b806349948e0e116100d357806349948e0e14610152578063519b4bd31461018257806370465597146101a0578063715018a6146101bc576100f5565b80630c18c162146100fa578063313ce567146101185780633577afc514610136575b600080fd5b6101026102c0565b60405161010f9190610973565b60405180910390f35b6101206102c6565b60405161012d9190610973565b60405180910390f35b610150600480360381019061014b9190610887565b6102cc565b005b61016c6004803603810190610167919061083e565b610315565b6040516101799190610973565b60405180910390f35b61018a610377565b6040516101979190610973565b60405180910390f35b6101ba60048036038101906101b59190610887565b61037d565b005b6101c46103c6565b005b6101e060048036038101906101db9190610887565b6103da565b005b6101ea610423565b6040516101f79190610918565b60405180910390f35b61021a60048036038101906102159190610887565b61044c565b005b61023660048036038101906102319190610887565b610495565b005b610252600480360381019061024d919061083e565b6104de565b60405161025f9190610973565b60405180910390f35b610282600480360381019061027d9190610811565b61059d565b005b61028c610621565b6040516102999190610973565b60405180910390f35b6102aa610627565b6040516102b79190610973565b60405180910390f35b60035481565b60055481565b6102d461062d565b806003819055507f32740b35c0ea213650f60d44366b4fb211c9033b50714e4a1d34e65d5beb9bb48160405161030a9190610973565b60405180910390a150565b600080610321836104de565b90506000600254826103339190610bed565b90506000600554600a6103469190610acf565b90506000600454836103589190610bed565b9050600082826103689190610a4b565b90508095505050505050919050565b60025481565b61038561062d565b806004819055507f3336cd9708eaf2769a0f0dc0679f30e80f15dcd88d1921b5a16858e8b85c591a816040516103bb9190610973565b60405180910390a150565b6103ce61062d565b6103d860006106ab565b565b6103e261062d565b806005819055507fd68112a8707e326d08be3656b528c1bcc5bbbfc47f4177e2179b14d8640838c1816040516104189190610973565b60405180910390a150565b60008060009054906101000a900473ffffffffffffffffffffffffffffffffffffffff16905090565b61045461062d565b806002819055507f351fb23757bb5ea0546c85b7996ddd7155f96b939ebaa5ff7bc49c75f27f2c448160405161048a9190610973565b60405180910390a150565b61049d61062d565b806001819055507ffcdccc6074c6c42e4bd578aa9870c697dc976a270968452d2b8c8dc369fae396816040516104d39190610973565b60405180910390a150565b6000806000905060005b835181101561057357600060f81b84828151811061050957610508610d6a565b5b602001015160f81c60f81b7effffffffffffffffffffffffffffffffffffffffffffffffffffffffffffff191614156105505760048261054991906109f5565b9150610560565b60108261055d91906109f5565b91505b808061056b90610cc3565b9150506104e8565b5060006003548261058491906109f5565b90506104408161059491906109f5565b92505050919050565b6105a561062d565b600073ffffffffffffffffffffffffffffffffffffffff168173ffffffffffffffffffffffffffffffffffffffff161415610615576040517f08c379a000000000000000000000000000000000000000000000000000000000815260040161060c90610933565b60405180910390fd5b61061e816106ab565b50565b60045481565b60015481565b61063561076f565b73ffffffffffffffffffffffffffffffffffffffff16610653610423565b73ffffffffffffffffffffffffffffffffffffffff16146106a9576040517f08c379a00000000000000000000000000000000000000000000000000000000081526004016106a090610953565b60405180910390fd5b565b60008060009054906101000a900473ffffffffffffffffffffffffffffffffffffffff169050816000806101000a81548173ffffffffffffffffffffffffffffffffffffffff021916908373ffffffffffffffffffffffffffffffffffffffff1602179055508173ffffffffffffffffffffffffffffffffffffffff168173ffffffffffffffffffffffffffffffffffffffff167f8be0079c531659141344cd1fd0a4f28419497f9722a3daafe3b4186f6b6457e060405160405180910390a35050565b600033905090565b600061078a610785846109b3565b61098e565b9050828152602081018484840111156107a6576107a5610dcd565b5b6107b1848285610c83565b509392505050565b6000813590506107c881610e72565b92915050565b600082601f8301126107e3576107e2610dc8565b5b81356107f3848260208601610777565b91505092915050565b60008135905061080b81610e89565b92915050565b60006020828403121561082757610826610dd7565b5b6000610835848285016107b9565b91505092915050565b60006020828403121561085457610853610dd7565b5b600082013567ffffffffffffffff81111561087257610871610dd2565b5b61087e848285016107ce565b91505092915050565b60006020828403121561089d5761089c610dd7565b5b60006108ab848285016107fc565b91505092915050565b6108bd81610c47565b82525050565b60006108d06026836109e4565b91506108db82610dfa565b604082019050919050565b60006108f36020836109e4565b91506108fe82610e49565b602082019050919050565b61091281610c79565b82525050565b600060208201905061092d60008301846108b4565b92915050565b6000602082019050818103600083015261094c816108c3565b9050919050565b6000602082019050818103600083015261096c816108e6565b9050919050565b60006020820190506109886000830184610909565b92915050565b60006109986109a9565b90506109a48282610c92565b919050565b6000604051905090565b600067ffffffffffffffff8211156109ce576109cd610d99565b5b6109d782610ddc565b9050602081019050919050565b600082825260208201905092915050565b6000610a0082610c79565b9150610a0b83610c79565b9250827fffffffffffffffffffffffffffffffffffffffffffffffffffffffffffffffff03821115610a4057610a3f610d0c565b5b828201905092915050565b6000610a5682610c79565b9150610a6183610c79565b925082610a7157610a70610d3b565b5b828204905092915050565b6000808291508390505b6001851115610ac657808604811115610aa257610aa1610d0c565b5b6001851615610ab15780820291505b8081029050610abf85610ded565b9450610a86565b94509492505050565b6000610ada82610c79565b9150610ae583610c79565b9250610b127fffffffffffffffffffffffffffffffffffffffffffffffffffffffffffffffff8484610b1a565b905092915050565b600082610b2a5760019050610be6565b81610b385760009050610be6565b8160018114610b4e5760028114610b5857610b87565b6001915050610be6565b60ff841115610b6a57610b69610d0c565b5b8360020a915084821115610b8157610b80610d0c565b5b50610be6565b5060208310610133831016604e8410600b8410161715610bbc5782820a905083811115610bb757610bb6610d0c565b5b610be6565b610bc98484846001610a7c565b92509050818404811115610be057610bdf610d0c565b5b81810290505b9392505050565b6000610bf882610c79565b9150610c0383610c79565b9250817fffffffffffffffffffffffffffffffffffffffffffffffffffffffffffffffff0483118215151615610c3c57610c3b610d0c565b5b828202905092915050565b6000610c5282610c59565b9050919050565b600073ffffffffffffffffffffffffffffffffffffffff82169050919050565b6000819050919050565b82818337600083830152505050565b610c9b82610ddc565b810181811067ffffffffffffffff82111715610cba57610cb9610d99565b5b80604052505050565b6000610cce82610c79565b91507fffffffffffffffffffffffffffffffffffffffffffffffffffffffffffffffff821415610d0157610d00610d0c565b5b600182019050919050565b7f4e487b7100000000000000000000000000000000000000000000000000000000600052601160045260246000fd5b7f4e487b7100000000000000000000000000000000000000000000000000000000600052601260045260246000fd5b7f4e487b7100000000000000000000000000000000000000000000000000000000600052603260045260246000fd5b7f4e487b7100000000000000000000000000000000000000000000000000000000600052604160045260246000fd5b600080fd5b600080fd5b600080fd5b600080fd5b6000601f19601f8301169050919050565b60008160011c9050919050565b7f4f776e61626c653a206e6577206f776e657220697320746865207a65726f206160008201527f6464726573730000000000000000000000000000000000000000000000000000602082015250565b7f4f776e61626c653a2063616c6c6572206973206e6f7420746865206f776e6572600082015250565b610e7b81610c47565b8114610e8657600080fd5b50565b610e9281610c79565b8114610e9d57600080fd5b5056fea264697066735822122059b815e688e059bd10532178f265e9993e6731be76ea0985f75668cb163ff99364736f6c63430008060033",
  "linkReferences": {},
  "deployedLinkReferences": {}
}