{"@chainlink/contracts/src/v0.8/vrf/VRFCoordinatorV2.sol":{"VRFCoordinatorV2":{"abi":[{"inputs":[{"internalType":"address","name":"link","type":"address"},{"internalType":"address","name":"blockhashStore","type":"address"},{"internalType":"address","name":"linkEthFeed","type":"address"}],"stateMutability":"nonpayable","type":"constructor"},{"inputs":[{"internalType":"uint256","name":"internalBalance","type":"uint256"},{"internalType":"uint256","name":"externalBalance","type":"uint256"}],"name":"BalanceInvariantViolated","type":"error"},{"inputs":[{"internalType":"uint256","name":"blockNum","type":"uint256"}],"name":"BlockhashNotInStore","type":"error"},{"inputs":[{"internalType":"uint32","name":"have","type":"uint32"},{"internalType":"uint32","name":"want","type":"uint32"}],"name":"GasLimitTooBig","type":"error"},{"inputs":[],"name":"IncorrectCommitment","type":"error"},{"inputs":[],"name":"InsufficientBalance","type":"error"},{"inputs":[{"internalType":"uint256","name":"have","type":"uint256"},{"internalType":"uint256","name":"want","type":"uint256"}],"name":"InsufficientGasForConsumer","type":"error"},{"inputs":[],"name":"InvalidCalldata","type":"error"},{"inputs":[{"internalType":"uint64","name":"subId","type":"uint64"},{"internalType":"address","name":"consumer","type":"address"}],"name":"InvalidConsumer","type":"error"},{"inputs":[{"internalType":"int256","name":"linkWei","type":"int256"}],"name":"InvalidLinkWeiPrice","type":"error"},{"inputs":[{"internalType":"uint16","name":"have","type":"uint16"},{"internalType":"uint16","name":"min","type":"uint16"},{"internalType":"uint16","name":"max","type":"uint16"}],"name":"InvalidRequestConfirmations","type":"error"},{"inputs":[],"name":"InvalidSubscription","type":"error"},{"inputs":[{"internalType":"address","name":"proposedOwner","type":"address"}],"name":"MustBeRequestedOwner","type":"error"},{"inputs":[{"internalType":"address","name":"owner","type":"address"}],"name":"MustBeSubOwner","type":"error"},{"inputs":[],"name":"NoCorrespondingRequest","type":"error"},{"inputs":[{"internalType":"bytes32","name":"keyHash","type":"bytes32"}],"name":"NoSuchProvingKey","type":"error"},{"inputs":[{"internalType":"uint32","name":"have","type":"uint32"},{"internalType":"uint32","name":"want","type":"uint32"}],"name":"NumWordsTooBig","type":"error"},{"inputs":[],"name":"OnlyCallableFromLink","type":"error"},{"inputs":[],"name":"PaymentTooLarge","type":"error"},{"inputs":[],"name":"PendingRequestExists","type":"error"},{"inputs":[{"internalType":"bytes32","name":"keyHash","type":"bytes32"}],"name":"ProvingKeyAlreadyRegistered","type":"error"},{"inputs":[],"name":"Reentrant","type":"error"},{"inputs":[],"name":"TooManyConsumers","type":"error"},{"anonymous":false,"inputs":[{"indexed":false,"internalType":"uint16","name":"minimumRequestConfirmations","type":"uint16"},{"indexed":false,"internalType":"uint32","name":"maxGasLimit","type":"uint32"},{"indexed":false,"internalType":"uint32","name":"stalenessSeconds","type":"uint32"},{"indexed":false,"internalType":"uint32","name":"gasAfterPaymentCalculation","type":"uint32"},{"indexed":false,"internalType":"int256","name":"fallbackWeiPerUnitLink","type":"int256"},{"components":[{"internalType":"uint32","name":"fulfillmentFlatFeeLinkPPMTier1","type":"uint32"},{"internalType":"uint32","name":"fulfillmentFlatFeeLinkPPMTier2","type":"uint32"},{"internalType":"uint32","name":"fulfillmentFlatFeeLinkPPMTier3","type":"uint32"},{"internalType":"uint32","name":"fulfillmentFlatFeeLinkPPMTier4","type":"uint32"},{"internalType":"uint32","name":"fulfillmentFlatFeeLinkPPMTier5","type":"uint32"},{"internalType":"uint24","name":"reqsForTier2","type":"uint24"},{"internalType":"uint24","name":"reqsForTier3","type":"uint24"},{"internalType":"uint24","name":"reqsForTier4","type":"uint24"},{"internalType":"uint24","name":"reqsForTier5","type":"uint24"}],"indexed":false,"internalType":"struct VRFCoordinatorV2.FeeConfig","name":"feeConfig","type":"tuple"}],"name":"ConfigSet","type":"event"},{"anonymous":false,"inputs":[{"indexed":false,"internalType":"address","name":"to","type":"address"},{"indexed":false,"internalType":"uint256","name":"amount","type":"uint256"}],"name":"FundsRecovered","type":"event"},{"anonymous":false,"inputs":[{"indexed":true,"internalType":"address","name":"from","type":"address"},{"indexed":true,"internalType":"address","name":"to","type":"address"}],"name":"OwnershipTransferRequested","type":"event"},{"anonymous":false,"inputs":[{"indexed":true,"internalType":"address","name":"from","type":"address"},{"indexed":true,"internalType":"address","name":"to","type":"address"}],"name":"OwnershipTransferred","type":"event"},{"anonymous":false,"inputs":[{"indexed":false,"internalType":"bytes32","name":"keyHash","type":"bytes32"},{"indexed":true,"internalType":"address","name":"oracle","type":"address"}],"name":"ProvingKeyDeregistered","type":"event"},{"anonymous":false,"inputs":[{"indexed":false,"internalType":"bytes32","name":"keyHash","type":"bytes32"},{"indexed":true,"internalType":"address","name":"oracle","type":"address"}],"name":"ProvingKeyRegistered","type":"event"},{"anonymous":false,"inputs":[{"indexed":true,"internalType":"uint256","name":"requestId","type":"uint256"},{"indexed":false,"internalType":"uint256","name":"outputSeed","type":"uint256"},{"indexed":false,"internalType":"uint96","name":"payment","type":"uint96"},{"indexed":false,"internalType":"bool","name":"success","type":"bool"}],"name":"RandomWordsFulfilled","type":"event"},{"anonymous":false,"inputs":[{"indexed":true,"internalType":"bytes32","name":"keyHash","type":"bytes32"},{"indexed":false,"internalType":"uint256","name":"requestId","type":"uint256"},{"indexed":false,"internalType":"uint256","name":"preSeed","type":"uint256"},{"indexed":true,"internalType":"uint64","name":"subId","type":"uint64"},{"indexed":false,"internalType":"uint16","name":"minimumRequestConfirmations","type":"uint16"},{"indexed":false,"internalType":"uint32","name":"callbackGasLimit","type":"uint32"},{"indexed":false,"internalType":"uint32","name":"numWords","type":"uint32"},{"indexed":true,"internalType":"address","name":"sender","type":"address"}],"name":"RandomWordsRequested","type":"event"},{"anonymous":false,"inputs":[{"indexed":true,"internalType":"uint64","name":"subId","type":"uint64"},{"indexed":false,"internalType":"address","name":"to","type":"address"},{"indexed":false,"internalType":"uint256","name":"amount","type":"uint256"}],"name":"SubscriptionCanceled","type":"event"},{"anonymous":false,"inputs":[{"indexed":true,"internalType":"uint64","name":"subId","type":"uint64"},{"indexed":false,"internalType":"address","name":"consumer","type":"address"}],"name":"SubscriptionConsumerAdded","type":"event"},{"anonymous":false,"inputs":[{"indexed":true,"internalType":"uint64","name":"subId","type":"uint64"},{"indexed":false,"internalType":"address","name":"consumer","type":"address"}],"name":"SubscriptionConsumerRemoved","type":"event"},{"anonymous":false,"inputs":[{"indexed":true,"internalType":"uint64","name":"subId","type":"uint64"},{"indexed":false,"internalType":"address","name":"owner","type":"address"}],"name":"SubscriptionCreated","type":"event"},{"anonymous":false,"inputs":[{"indexed":true,"internalType":"uint64","name":"subId","type":"uint64"},{"indexed":false,"internalType":"uint256","name":"oldBalance","type":"uint256"},{"indexed":false,"internalType":"uint256","name":"newBalance","type":"uint256"}],"name":"SubscriptionFunded","type":"event"},{"anonymous":false,"inputs":[{"indexed":true,"internalType":"uint64","name":"subId","type":"uint64"},{"indexed":false,"internalType":"address","name":"from","type":"address"},{"indexed":false,"internalType":"address","name":"to","type":"address"}],"name":"SubscriptionOwnerTransferRequested","type":"event"},{"anonymous":false,"inputs":[{"indexed":true,"internalType":"uint64","name":"subId","type":"uint64"},{"indexed":false,"internalType":"address","name":"from","type":"address"},{"indexed":false,"internalType":"address","name":"to","type":"address"}],"name":"SubscriptionOwnerTransferred","type":"event"},{"inputs":[],"name":"BLOCKHASH_STORE","outputs":[{"internalType":"contract BlockhashStoreInterface","name":"","type":"address"}],"stateMutability":"view","type":"function"},{"inputs":[],"name":"LINK","outputs":[{"internalType":"contract LinkTokenInterface","name":"","type":"address"}],"stateMutability":"view","type":"function"},{"inputs":[],"name":"LINK_ETH_FEED","outputs":[{"internalType":"contract AggregatorV3Interface","name":"","type":"address"}],"stateMutability":"view","type":"function"},{"inputs":[],"name":"MAX_CONSUMERS","outputs":[{"internalType":"uint16","name":"","type":"uint16"}],"stateMutability":"view","type":"function"},{"inputs":[],"name":"MAX_NUM_WORDS","outputs":[{"internalType":"uint32","name":"","type":"uint32"}],"stateMutability":"view","type":"function"},{"inputs":[],"name":"MAX_REQUEST_CONFIRMATIONS","outputs":[{"internalType":"uint16","name":"","type":"uint16"}],"stateMutability":"view","type":"function"},{"inputs":[],"name":"acceptOwnership","outputs":[],"stateMutability":"nonpayable","type":"function"},{"inputs":[{"internalType":"uint64","name":"subId","type":"uint64"}],"name":"acceptSubscriptionOwnerTransfer","outputs":[],"stateMutability":"nonpayable","type":"function"},{"inputs":[{"internalType":"uint64","name":"subId","type":"uint64"},{"internalType":"address","name":"consumer","type":"address"}],"name":"addConsumer","outputs":[],"stateMutability":"nonpayable","type":"function"},{"inputs":[{"internalType":"uint64","name":"subId","type":"uint64"},{"internalType":"address","name":"to","type":"address"}],"name":"cancelSubscription","outputs":[],"stateMutability":"nonpayable","type":"function"},{"inputs":[],"name":"createSubscription","outputs":[{"internalType":"uint64","name":"","type":"uint64"}],"stateMutability":"nonpayable","type":"function"},{"inputs":[{"internalType":"uint256[2]","name":"publicProvingKey","type":"uint256[2]"}],"name":"deregisterProvingKey","outputs":[],"stateMutability":"nonpayable","type":"function"},{"inputs":[{"components":[{"internalType":"uint256[2]","name":"pk","type":"uint256[2]"},{"internalType":"uint256[2]","name":"gamma","type":"uint256[2]"},{"internalType":"uint256","name":"c","type":"uint256"},{"internalType":"uint256","name":"s","type":"uint256"},{"internalType":"uint256","name":"seed","type":"uint256"},{"internalType":"address","name":"uWitness","type":"address"},{"internalType":"uint256[2]","name":"cGammaWitness","type":"uint256[2]"},{"internalType":"uint256[2]","name":"sHashWitness","type":"uint256[2]"},{"internalType":"uint256","name":"zInv","type":"uint256"}],"internalType":"struct VRF.Proof","name":"proof","type":"tuple"},{"components":[{"internalType":"uint64","name":"blockNum","type":"uint64"},{"internalType":"uint64","name":"subId","type":"uint64"},{"internalType":"uint32","name":"callbackGasLimit","type":"uint32"},{"internalType":"uint32","name":"numWords","type":"uint32"},{"internalType":"address","name":"sender","type":"address"}],"internalType":"struct VRFCoordinatorV2.RequestCommitment","name":"rc","type":"tuple"}],"name":"fulfillRandomWords","outputs":[{"internalType":"uint96","name":"","type":"uint96"}],"stateMutability":"nonpayable","type":"function"},{"inputs":[{"internalType":"uint256","name":"requestId","type":"uint256"}],"name":"getCommitment","outputs":[{"internalType":"bytes32","name":"","type":"bytes32"}],"stateMutability":"view","type":"function"},{"inputs":[],"name":"getConfig","outputs":[{"internalType":"uint16","name":"minimumRequestConfirmations","type":"uint16"},{"internalType":"uint32","name":"maxGasLimit","type":"uint32"},{"internalType":"uint32","name":"stalenessSeconds","type":"uint32"},{"internalType":"uint32","name":"gasAfterPaymentCalculation","type":"uint32"}],"stateMutability":"view","type":"function"},{"inputs":[],"name":"getCurrentSubId","outputs":[{"internalType":"uint64","name":"","type":"uint64"}],"stateMutability":"view","type":"function"},{"inputs":[],"name":"getFallbackWeiPerUnitLink","outputs":[{"internalType":"int256","name":"","type":"int256"}],"stateMutability":"view","type":"function"},{"inputs":[],"name":"getFeeConfig","outputs":[{"internalType":"uint32","name":"fulfillmentFlatFeeLinkPPMTier1","type":"uint32"},{"internalType":"uint32","name":"fulfillmentFlatFeeLinkPPMTier2","type":"uint32"},{"internalType":"uint32","name":"fulfillmentFlatFeeLinkPPMTier3","type":"uint32"},{"internalType":"uint32","name":"fulfillmentFlatFeeLinkPPMTier4","type":"uint32"},{"internalType":"uint32","name":"fulfillmentFlatFeeLinkPPMTier5","type":"uint32"},{"internalType":"uint24","name":"reqsForTier2","type":"uint24"},{"internalType":"uint24","name":"reqsForTier3","type":"uint24"},{"internalType":"uint24","name":"reqsForTier4","type":"uint24"},{"internalType":"uint24","name":"reqsForTier5","type":"uint24"}],"stateMutability":"view","type":"function"},{"inputs":[{"internalType":"uint64","name":"reqCount","type":"uint64"}],"name":"getFeeTier","outputs":[{"internalType":"uint32","name":"","type":"uint32"}],"stateMutability":"view","type":"function"},{"inputs":[],"name":"getRequestConfig","outputs":[{"internalType":"uint16","name":"","type":"uint16"},{"internalType":"uint32","name":"","type":"uint32"},{"internalType":"bytes32[]","name":"","type":"bytes32[]"}],"stateMutability":"view","type":"function"},{"inputs":[{"internalType":"uint64","name":"subId","type":"uint64"}],"name":"getSubscription","outputs":[{"internalType":"uint96","name":"balance","type":"uint96"},{"internalType":"uint64","name":"reqCount","type":"uint64"},{"internalType":"address","name":"owner","type":"address"},{"internalType":"address[]","name":"consumers","type":"address[]"}],"stateMutability":"view","type":"function"},{"inputs":[],"name":"getTotalBalance","outputs":[{"internalType":"uint256","name":"","type":"uint256"}],"stateMutability":"view","type":"function"},{"inputs":[{"internalType":"uint256[2]","name":"publicKey","type":"uint256[2]"}],"name":"hashOfKey","outputs":[{"internalType":"bytes32","name":"","type":"bytes32"}],"stateMutability":"pure","type":"function"},{"inputs":[{"internalType":"address","name":"","type":"address"},{"internalType":"uint256","name":"amount","type":"uint256"},{"internalType":"bytes","name":"data","type":"bytes"}],"name":"onTokenTransfer","outputs":[],"stateMutability":"nonpayable","type":"function"},{"inputs":[{"internalType":"address","name":"recipient","type":"address"},{"internalType":"uint96","name":"amount","type":"uint96"}],"name":"oracleWithdraw","outputs":[],"stateMutability":"nonpayable","type":"function"},{"inputs":[],"name":"owner","outputs":[{"internalType":"address","name":"","type":"address"}],"stateMutability":"view","type":"function"},{"inputs":[{"internalType":"uint64","name":"subId","type":"uint64"}],"name":"ownerCancelSubscription","outputs":[],"stateMutability":"nonpayable","type":"function"},{"inputs":[{"internalType":"uint64","name":"subId","type":"uint64"}],"name":"pendingRequestExists","outputs":[{"internalType":"bool","name":"","type":"bool"}],"stateMutability":"view","type":"function"},{"inputs":[{"internalType":"address","name":"to","type":"address"}],"name":"recoverFunds","outputs":[],"stateMutability":"nonpayable","type":"function"},{"inputs":[{"internalType":"address","name":"oracle","type":"address"},{"internalType":"uint256[2]","name":"publicProvingKey","type":"uint256[2]"}],"name":"registerProvingKey","outputs":[],"stateMutability":"nonpayable","type":"function"},{"inputs":[{"internalType":"uint64","name":"subId","type":"uint64"},{"internalType":"address","name":"consumer","type":"address"}],"name":"removeConsumer","outputs":[],"stateMutability":"nonpayable","type":"function"},{"inputs":[{"internalType":"bytes32","name":"keyHash","type":"bytes32"},{"internalType":"uint64","name":"subId","type":"uint64"},{"internalType":"uint16","name":"requestConfirmations","type":"uint16"},{"internalType":"uint32","name":"callbackGasLimit","type":"uint32"},{"internalType":"uint32","name":"numWords","type":"uint32"}],"name":"requestRandomWords","outputs":[{"internalType":"uint256","name":"","type":"uint256"}],"stateMutability":"nonpayable","type":"function"},{"inputs":[{"internalType":"uint64","name":"subId","type":"uint64"},{"internalType":"address","name":"newOwner","type":"address"}],"name":"requestSubscriptionOwnerTransfer","outputs":[],"stateMutability":"nonpayable","type":"function"},{"inputs":[{"internalType":"uint16","name":"minimumRequestConfirmations","type":"uint16"},{"internalType":"uint32","name":"maxGasLimit","type":"uint32"},{"internalType":"uint32","name":"stalenessSeconds","type":"uint32"},{"internalType":"uint32","name":"gasAfterPaymentCalculation","type":"uint32"},{"internalType":"int256","name":"fallbackWeiPerUnitLink","type":"int256"},{"components":[{"internalType":"uint32","name":"fulfillmentFlatFeeLinkPPMTier1","type":"uint32"},{"internalType":"uint32","name":"fulfillmentFlatFeeLinkPPMTier2","type":"uint32"},{"internalType":"uint32","name":"fulfillmentFlatFeeLinkPPMTier3","type":"uint32"},{"internalType":"uint32","name":"fulfillmentFlatFeeLinkPPMTier4","type":"uint32"},{"internalType":"uint32","name":"fulfillmentFlatFeeLinkPPMTier5","type":"uint32"},{"internalType":"uint24","name":"reqsForTier2","type":"uint24"},{"internalType":"uint24","name":"reqsForTier3","type":"uint24"},{"internalType":"uint24","name":"reqsForTier4","type":"uint24"},{"internalType":"uint24","name":"reqsForTier5","type":"uint24"}],"internalType":"struct VRFCoordinatorV2.FeeConfig","name":"feeConfig","type":"tuple"}],"name":"setConfig","outputs":[],"stateMutability":"nonpayable","type":"function"},{"inputs":[{"internalType":"address","name":"to","type":"address"}],"name":"transferOwnership","outputs":[],"stateMutability":"nonpayable","type":"function"},{"inputs":[],"name":"typeAndVersion","outputs":[{"internalType":"string","name":"","type":"string"}],"stateMutability":"pure","type":"function"}],"devdoc":{"kind":"dev","methods":{"acceptSubscriptionOwnerTransfer(uint64)":{"details":"will revert if original owner of subId has not requested that msg.sender become the new owner.","params":{"subId":"- ID of the subscription"}},"addConsumer(uint64,address)":{"params":{"consumer":"- New consumer which can use the subscription","subId":"- ID of the subscription"}},"cancelSubscription(uint64,address)":{"params":{"subId":"- ID of the subscription","to":"- Where to send the remaining LINK to"}},"createSubscription()":{"details":"You can manage the consumer set dynamically with addConsumer/removeConsumer.Note to fund the subscription, use transferAndCall. For exampleLINKTOKEN.transferAndCall(address(COORDINATOR),amount,abi.encode(subId));","returns":{"_0":"- A unique subscription id."}},"deregisterProvingKey(uint256[2])":{"params":{"publicProvingKey":"key that oracle can use to submit vrf fulfillments"}},"getCommitment(uint256)":{"details":"used to determine if a request is fulfilled or not","params":{"requestId":"id of request"}},"getRequestConfig()":{"returns":{"_0":"minimumRequestConfirmations global min for request confirmations","_1":"maxGasLimit global max for request gas limit","_2":"s_provingKeyHashes list of registered key hashes"}},"getSubscription(uint64)":{"params":{"subId":"- ID of the subscription"},"returns":{"balance":"- LINK balance of the subscription in juels.","consumers":"- list of consumer address which are able to use this subscription.","owner":"- owner of the subscription.","reqCount":"- number of requests for this subscription, determines fee tier."}},"hashOfKey(uint256[2])":{"params":{"publicKey":"the key to return the hash of"}},"ownerCancelSubscription(uint64)":{"details":"notably can be called even if there are pending requests, outstanding ones may fail onchain","params":{"subId":"subscription id"}},"pendingRequestExists(uint64)":{"details":"Looping is bounded to MAX_CONSUMERS*(number of keyhashes).Used to disable subscription canceling while outstanding request are present."},"recoverFunds(address)":{"params":{"to":"address to send link to"}},"registerProvingKey(address,uint256[2])":{"params":{"oracle":"address of the oracle","publicProvingKey":"key that oracle can use to submit vrf fulfillments"}},"removeConsumer(uint64,address)":{"params":{"consumer":"- Consumer to remove from the subscription","subId":"- ID of the subscription"}},"requestRandomWords(bytes32,uint64,uint16,uint32,uint32)":{"params":{"callbackGasLimit":"- How much gas you'd like to receive in your fulfillRandomWords callback. Note that gasleft() inside fulfillRandomWords may be slightly less than this amount because of gas used calling the function (argument decoding etc.), so you may need to request slightly more than you expect to have inside fulfillRandomWords. The acceptable range is [0, maxGasLimit]","keyHash":"- Corresponds to a particular oracle job which uses that key for generating the VRF proof. Different keyHash's have different gas price ceilings, so you can select a specific one to bound your maximum per request cost.","minimumRequestConfirmations":"- How many blocks you'd like the oracle to wait before responding to the request. See SECURITY CONSIDERATIONS for why you may want to request more. The acceptable range is [minimumRequestBlockConfirmations, 200].","numWords":"- The number of uint256 random values you'd like to receive in your fulfillRandomWords callback. Note these numbers are expanded in a secure way by the VRFCoordinator from a single random value supplied by the oracle.","subId":"- The ID of the VRF subscription. Must be funded with the minimum subscription balance required for the selected keyHash."},"returns":{"_0":"- A unique identifier of the request. Can be used to match a request to a response in fulfillRandomWords."}},"requestSubscriptionOwnerTransfer(uint64,address)":{"params":{"newOwner":"- proposed new owner of the subscription","subId":"- ID of the subscription"}},"setConfig(uint16,uint32,uint32,uint32,int256,(uint32,uint32,uint32,uint32,uint32,uint24,uint24,uint24,uint24))":{"params":{"fallbackWeiPerUnitLink":"fallback eth/link price in the case of a stale feed","feeConfig":"fee tier configuration","gasAfterPaymentCalculation":"gas used in doing accounting after completing the gas measurement","maxGasLimit":"global max for request gas limit","minimumRequestConfirmations":"global min for request confirmations","stalenessSeconds":"if the eth/link feed is more stale then this, use the fallback price"}},"typeAndVersion()":{"returns":{"_0":"Type and version string"}}},"version":1},"evm":{"bytecode":{"linkReferences":{},"object":"60e06040523480156200001157600080fd5b506040516200949d3803806200949d83398181016040528101906200003791906200032c565b338060008073ffffffffffffffffffffffffffffffffffffffff168273ffffffffffffffffffffffffffffffffffffffff161415620000ad576040517f08c379a0000000000000000000000000000000000000000000000000000000008152600401620000a490620003d6565b60405180910390fd5b816000806101000a81548173ffffffffffffffffffffffffffffffffffffffff021916908373ffffffffffffffffffffffffffffffffffffffff160217905550600073ffffffffffffffffffffffffffffffffffffffff168173ffffffffffffffffffffffffffffffffffffffff161462000134576200013381620001e560201b60201c565b5b5050508273ffffffffffffffffffffffffffffffffffffffff1660808173ffffffffffffffffffffffffffffffffffffffff1660601b815250508073ffffffffffffffffffffffffffffffffffffffff1660a08173ffffffffffffffffffffffffffffffffffffffff1660601b815250508173ffffffffffffffffffffffffffffffffffffffff1660c08173ffffffffffffffffffffffffffffffffffffffff1660601b81525050505050620004d0565b3373ffffffffffffffffffffffffffffffffffffffff168173ffffffffffffffffffffffffffffffffffffffff16141562000257576040517f08c379a00000000000000000000000000000000000000000000000000000000081526004016200024e90620003f8565b60405180910390fd5b80600160006101000a81548173ffffffffffffffffffffffffffffffffffffffff021916908373ffffffffffffffffffffffffffffffffffffffff1602179055508073ffffffffffffffffffffffffffffffffffffffff1660008054906101000a900473ffffffffffffffffffffffffffffffffffffffff1673ffffffffffffffffffffffffffffffffffffffff167fed8889f560326eb138920d842192f0eb3dd22b4f139c87a2c57538e05bae127860405160405180910390a350565b6000815190506200032681620004b6565b92915050565b6000806000606084860312156200034857620003476200045f565b5b6000620003588682870162000315565b93505060206200036b8682870162000315565b92505060406200037e8682870162000315565b9150509250925092565b6000620003976018836200041a565b9150620003a48262000464565b602082019050919050565b6000620003be6017836200041a565b9150620003cb826200048d565b602082019050919050565b60006020820190508181036000830152620003f18162000388565b9050919050565b600060208201905081810360008301526200041381620003af565b9050919050565b600082825260208201905092915050565b600062000438826200043f565b9050919050565b600073ffffffffffffffffffffffffffffffffffffffff82169050919050565b600080fd5b7f43616e6e6f7420736574206f776e657220746f207a65726f0000000000000000600082015250565b7f43616e6e6f74207472616e7366657220746f2073656c66000000000000000000600082015250565b620004c1816200042b565b8114620004cd57600080fd5b50565b60805160601c60a05160601c60c05160601c618f636200053a600039600081816119aa0152614b690152600081816132e7015261516a015260008181610dd4015281816118c301528181612fdf01528181613d3601528181613e6d015261473a0152618f636000f3fe608060405234801561001057600080fd5b506004361061021b5760003560e01c80636f64f03f11610125578063ad178361116100ad578063d2f9f9a71161007c578063d2f9f9a714610604578063d7ae1d3014610634578063e72f6e3014610650578063e82ad7d41461066c578063f2fde38b1461069c5761021b565b8063ad17836114610565578063af198b9714610583578063c3f909d4146105b3578063caf70c4a146105d45761021b565b80638da5cb5b116100f45780638da5cb5b146104be5780639f87fad7146104dc578063a21a23e4146104f8578063a47c769614610516578063a4c0ed36146105495761021b565b80636f64f03f146104605780637341c10c1461047c57806379ba50971461049857806382359740146104a25761021b565b8063356dac71116101a85780635fbbc0d2116101775780635fbbc0d2146103b257806364d51a2a146103d857806366316d8d146103f6578063689c45171461041257806369bcdb7d146104305761021b565b8063356dac711461032a57806340d6bb82146103485780634cb48a54146103665780635d3b1d30146103825761021b565b806308821d58116101ef57806308821d581461029657806312b58349146102b257806315c48b84146102d0578063181f5a77146102ee5780631b6b6d231461030c5761021b565b80620122911461022057806302bcc5b61461024057806304c357cb1461025c57806306bfa63714610278575b600080fd5b6102286106b8565b60405161023793929190617e13565b60405180910390f35b61025a60048036038101906102559190616f69565b610746565b005b61027660048036038101906102719190616f96565b610856565b005b610280610af8565b60405161028d91906181cd565b60405180910390f35b6102b060048036038101906102ab9190616d10565b610b16565b005b6102ba610d60565b6040516102c79190617ef8565b60405180910390f35b6102d8610d90565b6040516102e59190617dc1565b60405180910390f35b6102f6610d95565b6040516103039190617b5f565b60405180910390f35b610314610dd2565b6040516103219190617b29565b60405180910390f35b610332610df6565b60405161033f9190617b44565b60405180910390f35b610350610e00565b60405161035d91906180e1565b60405180910390f35b610380600480360381019061037b9190616e81565b610e06565b005b61039c60048036038101906103979190616dc4565b611152565b6040516103a99190617ef8565b60405180910390f35b6103ba6115ed565b6040516103cf99989796959493929190618125565b60405180910390f35b6103e06116da565b6040516103ed9190617dc1565b60405180910390f35b610410600480360381019061040b9190616cd0565b6116df565b005b61041a6119a8565b6040516104279190617b0e565b60405180910390f35b61044a60048036038101906104459190616f0f565b6119cc565b6040516104579190617a03565b60405180910390f35b61047a60048036038101906104759190616c1c565b6119e9565b005b61049660048036038101906104919190616f96565b611ba7565b005b6104a0611f73565b005b6104bc60048036038101906104b79190616f69565b612108565b005b6104c6612471565b6040516104d39190617937565b60405180910390f35b6104f660048036038101906104f19190616f96565b61249a565b005b610500612a26565b60405161050d91906181cd565b60405180910390f35b610530600480360381019061052b9190616f69565b612d4d565b604051610540949392919061822c565b60405180910390f35b610563600480360381019061055e9190616c5c565b612f93565b005b61056d6132e5565b60405161057a9190617af3565b60405180910390f35b61059d60048036038101906105989190616e3f565b613309565b6040516105aa9190618211565b60405180910390f35b6105bb61384e565b6040516105cb9493929190617e51565b60405180910390f35b6105ee60048036038101906105e99190616d3d565b6138b8565b6040516105fb9190617a03565b60405180910390f35b61061e60048036038101906106199190616f69565b6138e8565b60405161062b91906180e1565b60405180910390f35b61064e60048036038101906106499190616f96565b613b69565b005b61066a60048036038101906106659190616bef565b613d2a565b005b61068660048036038101906106819190616f69565b613f59565b60405161069391906179e8565b60405180910390f35b6106b660048036038101906106b19190616bef565b61422b565b005b6000806060600b60000160009054906101000a900461ffff16600b60000160029054906101000a900463ffffffff1660078080548060200260200160405190810160405280929190818152602001828054801561073457602002820191906000526020600020905b815481526020019060010190808311610720575b50505050509050925092509250909192565b61074e61423f565b600073ffffffffffffffffffffffffffffffffffffffff16600360008367ffffffffffffffff1667ffffffffffffffff16815260200190815260200160002060000160009054906101000a900473ffffffffffffffffffffffffffffffffffffffff1673ffffffffffffffffffffffffffffffffffffffff1614156107ff576040517f1f6a65b600000000000000000000000000000000000000000000000000000000815260040160405180910390fd5b61085381600360008467ffffffffffffffff1667ffffffffffffffff16815260200190815260200160002060000160009054906101000a900473ffffffffffffffffffffffffffffffffffffffff166142cf565b50565b816000600360008367ffffffffffffffff1667ffffffffffffffff16815260200190815260200160002060000160009054906101000a900473ffffffffffffffffffffffffffffffffffffffff169050600073ffffffffffffffffffffffffffffffffffffffff168173ffffffffffffffffffffffffffffffffffffffff16141561090d576040517f1f6a65b600000000000000000000000000000000000000000000000000000000815260040160405180910390fd5b8073ffffffffffffffffffffffffffffffffffffffff163373ffffffffffffffffffffffffffffffffffffffff161461097d57806040517fd8a3fb520000000000000000000000000000000000000000000000000000000081526004016109749190617937565b60405180910390fd5b600b60000160069054906101000a900460ff16156109c7576040517fed3ba6a600000000000000000000000000000000000000000000000000000000815260040160405180910390fd5b8273ffffffffffffffffffffffffffffffffffffffff16600360008667ffffffffffffffff1667ffffffffffffffff16815260200190815260200160002060010160009054906101000a900473ffffffffffffffffffffffffffffffffffffffff1673ffffffffffffffffffffffffffffffffffffffff1614610af25782600360008667ffffffffffffffff1667ffffffffffffffff16815260200190815260200160002060010160006101000a81548173ffffffffffffffffffffffffffffffffffffffff021916908373ffffffffffffffffffffffffffffffffffffffff1602179055508367ffffffffffffffff167f69436ea6df009049404f564eff6622cd00522b0bd6a89efd9e52a355c4a879be3385604051610ae9929190617952565b60405180910390a25b50505050565b6000600560009054906101000a900467ffffffffffffffff16905090565b610b1e61423f565b6000610b60826002806020026040519081016040528092919082600260200280828437600081840152601f19601f8201169050808301925050505050506138b8565b905060006006600083815260200190815260200160002060009054906101000a900473ffffffffffffffffffffffffffffffffffffffff169050600073ffffffffffffffffffffffffffffffffffffffff168173ffffffffffffffffffffffffffffffffffffffff161415610c0c57816040517f77f5b84c000000000000000000000000000000000000000000000000000000008152600401610c039190617a03565b60405180910390fd5b6006600083815260200190815260200160002060006101000a81549073ffffffffffffffffffffffffffffffffffffffff021916905560005b600780549050811015610d0c578260078281548110610c6757610c666189f7565b5b90600052602060002001541415610cf957600060076001600780549050610c8e919061854a565b81548110610c9f57610c9e6189f7565b5b906000526020600020015490508060078381548110610cc157610cc06189f7565b5b90600052602060002001819055506007805480610ce157610ce06189c8565b5b60019003818190600052602060002001600090559055505b8080610d0490618887565b915050610c45565b508073ffffffffffffffffffffffffffffffffffffffff167f72be339577868f868798bac2c93e52d6f034fef4689a9848996c14ebb7416c0d83604051610d539190617a03565b60405180910390a2505050565b6000600560089054906101000a90046bffffffffffffffffffffffff166bffffffffffffffffffffffff16905090565b60c881565b60606040518060400160405280601681526020017f565246436f6f7264696e61746f72563220312e302e3000000000000000000000815250905090565b7f000000000000000000000000000000000000000000000000000000000000000081565b6000600a54905090565b6101f481565b610e0e61423f565b60c861ffff168661ffff161115610e6157858660c86040517fa7386976000000000000000000000000000000000000000000000000000000008152600401610e5893929190617ddc565b60405180910390fd5b60008213610ea657816040517f43d4cf66000000000000000000000000000000000000000000000000000000008152600401610e9d9190617b44565b60405180910390fd5b6040518060a001604052808761ffff1681526020018663ffffffff1681526020016000151581526020018563ffffffff1681526020018463ffffffff16815250600b60008201518160000160006101000a81548161ffff021916908361ffff16021790555060208201518160000160026101000a81548163ffffffff021916908363ffffffff16021790555060408201518160000160066101000a81548160ff02191690831515021790555060608201518160000160076101000a81548163ffffffff021916908363ffffffff160217905550608082015181600001600b6101000a81548163ffffffff021916908363ffffffff16021790555090505080600c60008201518160000160006101000a81548163ffffffff021916908363ffffffff16021790555060208201518160000160046101000a81548163ffffffff021916908363ffffffff16021790555060408201518160000160086101000a81548163ffffffff021916908363ffffffff160217905550606082015181600001600c6101000a81548163ffffffff021916908363ffffffff16021790555060808201518160000160106101000a81548163ffffffff021916908363ffffffff16021790555060a08201518160000160146101000a81548162ffffff021916908362ffffff16021790555060c08201518160000160176101000a81548162ffffff021916908362ffffff16021790555060e082015181600001601a6101000a81548162ffffff021916908362ffffff16021790555061010082015181600001601d6101000a81548162ffffff021916908362ffffff16021790555090505081600a819055507fc21e3bd2e0b339d2848f0dd956947a88966c242c0c0c582a33137a5c1ceb5cb28686868686600c60405161114296959493929190617e96565b60405180910390a1505050505050565b6000600b60000160069054906101000a900460ff161561119e576040517fed3ba6a600000000000000000000000000000000000000000000000000000000815260040160405180910390fd5b600073ffffffffffffffffffffffffffffffffffffffff16600360008767ffffffffffffffff1667ffffffffffffffff16815260200190815260200160002060000160009054906101000a900473ffffffffffffffffffffffffffffffffffffffff1673ffffffffffffffffffffffffffffffffffffffff16141561124f576040517f1f6a65b600000000000000000000000000000000000000000000000000000000815260040160405180910390fd5b6000600260003373ffffffffffffffffffffffffffffffffffffffff1673ffffffffffffffffffffffffffffffffffffffff16815260200190815260200160002060008767ffffffffffffffff1667ffffffffffffffff16815260200190815260200160002060009054906101000a900467ffffffffffffffff16905060008167ffffffffffffffff16141561131e5785336040517ff0019fe60000000000000000000000000000000000000000000000000000000081526004016113159291906181e8565b60405180910390fd5b600b60000160009054906101000a900461ffff1661ffff168561ffff16108061134f575060c861ffff168561ffff16115b156113a95784600b60000160009054906101000a900461ffff1660c86040517fa73869760000000000000000000000000000000000000000000000000000000081526004016113a093929190617ddc565b60405180910390fd5b600b60000160029054906101000a900463ffffffff1663ffffffff168463ffffffff1611156114265783600b60000160029054906101000a900463ffffffff166040517ff5d7e01e00000000000000000000000000000000000000000000000000000000815260040161141d9291906180fc565b60405180910390fd5b6101f463ffffffff168363ffffffff16111561147d57826101f46040517f47386bec0000000000000000000000000000000000000000000000000000000081526004016114749291906180fc565b60405180910390fd5b600060018261148c919061843f565b905060008061149d8a338b86614874565b91509150816114aa6148e6565b8a8989336040516020016114c396959493929190617fe8565b6040516020818303038152906040528051906020012060096000848152602001908152602001600020819055503373ffffffffffffffffffffffffffffffffffffffff168967ffffffffffffffff168b7f63373d1c4696214b898952999c9aaec57dac1ee2723cec59bea6888f489a977285858d8d8d60405161154a959493929190617f95565b60405180910390a482600260003373ffffffffffffffffffffffffffffffffffffffff1673ffffffffffffffffffffffffffffffffffffffff16815260200190815260200160002060008b67ffffffffffffffff1667ffffffffffffffff16815260200190815260200160002060006101000a81548167ffffffffffffffff021916908367ffffffffffffffff1602179055508194505050505095945050505050565b6000806000806000806000806000600c60000160009054906101000a900463ffffffff16600c60000160049054906101000a900463ffffffff16600c60000160089054906101000a900463ffffffff16600c600001600c9054906101000a900463ffffffff16600c60000160109054906101000a900463ffffffff16600c60000160149054906101000a900462ffffff16600c60000160179054906101000a900462ffffff16600c600001601a9054906101000a900462ffffff16600c600001601d9054906101000a900462ffffff16985098509850985098509850985098509850909192939495969798565b606481565b600b60000160069054906101000a900460ff1615611729576040517fed3ba6a600000000000000000000000000000000000000000000000000000000815260040160405180910390fd5b806bffffffffffffffffffffffff16600860003373ffffffffffffffffffffffffffffffffffffffff1673ffffffffffffffffffffffffffffffffffffffff16815260200190815260200160002060009054906101000a90046bffffffffffffffffffffffff166bffffffffffffffffffffffff1610156117d6576040517ff4d678b800000000000000000000000000000000000000000000000000000000815260040160405180910390fd5b80600860003373ffffffffffffffffffffffffffffffffffffffff1673ffffffffffffffffffffffffffffffffffffffff16815260200190815260200160002060008282829054906101000a90046bffffffffffffffffffffffff1661183c919061857e565b92506101000a8154816bffffffffffffffffffffffff02191690836bffffffffffffffffffffffff16021790555080600560088282829054906101000a90046bffffffffffffffffffffffff16611893919061857e565b92506101000a8154816bffffffffffffffffffffffff02191690836bffffffffffffffffffffffff1602179055507f000000000000000000000000000000000000000000000000000000000000000073ffffffffffffffffffffffffffffffffffffffff1663a9059cbb83836040518363ffffffff1660e01b815260040161191c9291906179a4565b602060405180830381600087803b15801561193657600080fd5b505af115801561194a573d6000803e3d6000fd5b505050506040513d601f19601f8201168201806040525081019061196e9190616d6a565b6119a4576040517ff4d678b800000000000000000000000000000000000000000000000000000000815260040160405180910390fd5b5050565b7f000000000000000000000000000000000000000000000000000000000000000081565b600060096000838152602001908152602001600020549050919050565b6119f161423f565b6000611a33826002806020026040519081016040528092919082600260200280828437600081840152601f19601f8201169050808301925050505050506138b8565b9050600073ffffffffffffffffffffffffffffffffffffffff166006600083815260200190815260200160002060009054906101000a900473ffffffffffffffffffffffffffffffffffffffff1673ffffffffffffffffffffffffffffffffffffffff1614611ad957806040517f4a0b8fa7000000000000000000000000000000000000000000000000000000008152600401611ad09190617a03565b60405180910390fd5b826006600083815260200190815260200160002060006101000a81548173ffffffffffffffffffffffffffffffffffffffff021916908373ffffffffffffffffffffffffffffffffffffffff16021790555060078190806001815401808255809150506001900390600052602060002001600090919091909150558273ffffffffffffffffffffffffffffffffffffffff167fe729ae16526293f74ade739043022254f1489f616295a25bf72dfb4511ed73b882604051611b9a9190617a03565b60405180910390a2505050565b816000600360008367ffffffffffffffff1667ffffffffffffffff16815260200190815260200160002060000160009054906101000a900473ffffffffffffffffffffffffffffffffffffffff169050600073ffffffffffffffffffffffffffffffffffffffff168173ffffffffffffffffffffffffffffffffffffffff161415611c5e576040517f1f6a65b600000000000000000000000000000000000000000000000000000000815260040160405180910390fd5b8073ffffffffffffffffffffffffffffffffffffffff163373ffffffffffffffffffffffffffffffffffffffff1614611cce57806040517fd8a3fb52000000000000000000000000000000000000000000000000000000008152600401611cc59190617937565b60405180910390fd5b600b60000160069054906101000a900460ff1615611d18576040517fed3ba6a600000000000000000000000000000000000000000000000000000000815260040160405180910390fd5b606461ffff16600360008667ffffffffffffffff1667ffffffffffffffff168152602001908152602001600020600201805490501415611d84576040517f05a48e0f00000000000000000000000000000000000000000000000000000000815260040160405180910390fd5b6000600260008573ffffffffffffffffffffffffffffffffffffffff1673ffffffffffffffffffffffffffffffffffffffff16815260200190815260200160002060008667ffffffffffffffff1667ffffffffffffffff16815260200190815260200160002060009054906101000a900467ffffffffffffffff1667ffffffffffffffff1614611e1357611f6d565b6001600260008573ffffffffffffffffffffffffffffffffffffffff1673ffffffffffffffffffffffffffffffffffffffff16815260200190815260200160002060008667ffffffffffffffff1667ffffffffffffffff16815260200190815260200160002060006101000a81548167ffffffffffffffff021916908367ffffffffffffffff160217905550600360008567ffffffffffffffff1667ffffffffffffffff168152602001908152602001600020600201839080600181540180825580915050600190039060005260206000200160009091909190916101000a81548173ffffffffffffffffffffffffffffffffffffffff021916908373ffffffffffffffffffffffffffffffffffffffff1602179055508367ffffffffffffffff167f43dc749a04ac8fb825cbd514f7c0e13f13bc6f2ee66043b76629d51776cff8e084604051611f649190617937565b60405180910390a25b50505050565b600160009054906101000a900473ffffffffffffffffffffffffffffffffffffffff1673ffffffffffffffffffffffffffffffffffffffff163373ffffffffffffffffffffffffffffffffffffffff1614612003576040517f08c379a0000000000000000000000000000000000000000000000000000000008152600401611ffa90617b81565b60405180910390fd5b60008060009054906101000a900473ffffffffffffffffffffffffffffffffffffffff169050336000806101000a81548173ffffffffffffffffffffffffffffffffffffffff021916908373ffffffffffffffffffffffffffffffffffffffff1602179055506000600160006101000a81548173ffffffffffffffffffffffffffffffffffffffff021916908373ffffffffffffffffffffffffffffffffffffffff1602179055503373ffffffffffffffffffffffffffffffffffffffff168173ffffffffffffffffffffffffffffffffffffffff167f8be0079c531659141344cd1fd0a4f28419497f9722a3daafe3b4186f6b6457e060405160405180910390a350565b600b60000160069054906101000a900460ff1615612152576040517fed3ba6a600000000000000000000000000000000000000000000000000000000815260040160405180910390fd5b600073ffffffffffffffffffffffffffffffffffffffff16600360008367ffffffffffffffff1667ffffffffffffffff16815260200190815260200160002060000160009054906101000a900473ffffffffffffffffffffffffffffffffffffffff1673ffffffffffffffffffffffffffffffffffffffff161415612203576040517f1f6a65b600000000000000000000000000000000000000000000000000000000815260040160405180910390fd5b3373ffffffffffffffffffffffffffffffffffffffff16600360008367ffffffffffffffff1667ffffffffffffffff16815260200190815260200160002060010160009054906101000a900473ffffffffffffffffffffffffffffffffffffffff1673ffffffffffffffffffffffffffffffffffffffff161461230757600360008267ffffffffffffffff1667ffffffffffffffff16815260200190815260200160002060010160009054906101000a900473ffffffffffffffffffffffffffffffffffffffff166040517fd084e9750000000000000000000000000000000000000000000000000000000081526004016122fe9190617937565b60405180910390fd5b6000600360008367ffffffffffffffff1667ffffffffffffffff16815260200190815260200160002060000160009054906101000a900473ffffffffffffffffffffffffffffffffffffffff16905033600360008467ffffffffffffffff1667ffffffffffffffff16815260200190815260200160002060000160006101000a81548173ffffffffffffffffffffffffffffffffffffffff021916908373ffffffffffffffffffffffffffffffffffffffff1602179055506000600360008467ffffffffffffffff1667ffffffffffffffff16815260200190815260200160002060010160006101000a81548173ffffffffffffffffffffffffffffffffffffffff021916908373ffffffffffffffffffffffffffffffffffffffff1602179055508167ffffffffffffffff167f6f1dc65165ffffedfd8e507b4a0f1fcfdada045ed11f6c26ba27cedfe87802f08233604051612465929190617952565b60405180910390a25050565b60008060009054906101000a900473ffffffffffffffffffffffffffffffffffffffff16905090565b816000600360008367ffffffffffffffff1667ffffffffffffffff16815260200190815260200160002060000160009054906101000a900473ffffffffffffffffffffffffffffffffffffffff169050600073ffffffffffffffffffffffffffffffffffffffff168173ffffffffffffffffffffffffffffffffffffffff161415612551576040517f1f6a65b600000000000000000000000000000000000000000000000000000000815260040160405180910390fd5b8073ffffffffffffffffffffffffffffffffffffffff163373ffffffffffffffffffffffffffffffffffffffff16146125c157806040517fd8a3fb520000000000000000000000000000000000000000000000000000000081526004016125b89190617937565b60405180910390fd5b600b60000160069054906101000a900460ff161561260b576040517fed3ba6a600000000000000000000000000000000000000000000000000000000815260040160405180910390fd5b61261484613f59565b1561264b576040517fb42f66e800000000000000000000000000000000000000000000000000000000815260040160405180910390fd5b6000600260008573ffffffffffffffffffffffffffffffffffffffff1673ffffffffffffffffffffffffffffffffffffffff16815260200190815260200160002060008667ffffffffffffffff1667ffffffffffffffff16815260200190815260200160002060009054906101000a900467ffffffffffffffff1667ffffffffffffffff1614156127155783836040517ff0019fe600000000000000000000000000000000000000000000000000000000815260040161270c9291906181e8565b60405180910390fd5b6000600360008667ffffffffffffffff1667ffffffffffffffff1681526020019081526020016000206002018054806020026020016040519081016040528092919081815260200182805480156127c157602002820191906000526020600020905b8160009054906101000a900473ffffffffffffffffffffffffffffffffffffffff1673ffffffffffffffffffffffffffffffffffffffff1681526020019060010190808311612777575b505050505090506000600182516127d8919061854a565b905060005b8251811015612960578573ffffffffffffffffffffffffffffffffffffffff168382815181106128105761280f6189f7565b5b602002602001015173ffffffffffffffffffffffffffffffffffffffff16141561294d576000838381518110612849576128486189f7565b5b6020026020010151905080600360008a67ffffffffffffffff1667ffffffffffffffff16815260200190815260200160002060020183815481106128905761288f6189f7565b5b9060005260206000200160006101000a81548173ffffffffffffffffffffffffffffffffffffffff021916908373ffffffffffffffffffffffffffffffffffffffff160217905550600360008967ffffffffffffffff1667ffffffffffffffff168152602001908152602001600020600201805480612912576129116189c8565b5b6001900381819060005260206000200160006101000a81549073ffffffffffffffffffffffffffffffffffffffff0219169055905550612960565b808061295890618887565b9150506127dd565b50600260008673ffffffffffffffffffffffffffffffffffffffff1673ffffffffffffffffffffffffffffffffffffffff16815260200190815260200160002060008767ffffffffffffffff1667ffffffffffffffff16815260200190815260200160002060006101000a81549067ffffffffffffffff02191690558567ffffffffffffffff167f182bff9831466789164ca77075fffd84916d35a8180ba73c27e45634549b445b86604051612a169190617937565b60405180910390a2505050505050565b6000600b60000160069054906101000a900460ff1615612a72576040517fed3ba6a600000000000000000000000000000000000000000000000000000000815260040160405180910390fd5b6005600081819054906101000a900467ffffffffffffffff1680929190612a98906188d0565b91906101000a81548167ffffffffffffffff021916908367ffffffffffffffff160217905550506000600560009054906101000a900467ffffffffffffffff16905060008067ffffffffffffffff811115612af657612af5618a26565b5b604051908082528060200260200182016040528015612b245781602001602082028036833780820191505090505b509050604051806040016040528060006bffffffffffffffffffffffff168152602001600067ffffffffffffffff16815250600460008467ffffffffffffffff1667ffffffffffffffff16815260200190815260200160002060008201518160000160006101000a8154816bffffffffffffffffffffffff02191690836bffffffffffffffffffffffff160217905550602082015181600001600c6101000a81548167ffffffffffffffff021916908367ffffffffffffffff16021790555090505060405180606001604052803373ffffffffffffffffffffffffffffffffffffffff168152602001600073ffffffffffffffffffffffffffffffffffffffff16815260200182815250600360008467ffffffffffffffff1667ffffffffffffffff16815260200190815260200160002060008201518160000160006101000a81548173ffffffffffffffffffffffffffffffffffffffff021916908373ffffffffffffffffffffffffffffffffffffffff16021790555060208201518160010160006101000a81548173ffffffffffffffffffffffffffffffffffffffff021916908373ffffffffffffffffffffffffffffffffffffffff1602179055506040820151816002019080519060200190612cff929190616643565b509050508167ffffffffffffffff167f464722b4166576d3dcbba877b999bc35cf911f4eaf434b7eba68fa113951d0bf33604051612d3d9190617937565b60405180910390a2819250505090565b60008060006060600073ffffffffffffffffffffffffffffffffffffffff16600360008767ffffffffffffffff1667ffffffffffffffff16815260200190815260200160002060000160009054906101000a900473ffffffffffffffffffffffffffffffffffffffff1673ffffffffffffffffffffffffffffffffffffffff161415612e05576040517f1f6a65b600000000000000000000000000000000000000000000000000000000815260040160405180910390fd5b600460008667ffffffffffffffff1667ffffffffffffffff16815260200190815260200160002060000160009054906101000a90046bffffffffffffffffffffffff16600460008767ffffffffffffffff1667ffffffffffffffff168152602001908152602001600020600001600c9054906101000a900467ffffffffffffffff16600360008867ffffffffffffffff1667ffffffffffffffff16815260200190815260200160002060000160009054906101000a900473ffffffffffffffffffffffffffffffffffffffff16600360008967ffffffffffffffff1667ffffffffffffffff16815260200190815260200160002060020180805480602002602001604051908101604052809291908181526020018280548015612f7d57602002820191906000526020600020905b8160009054906101000a900473ffffffffffffffffffffffffffffffffffffffff1673ffffffffffffffffffffffffffffffffffffffff1681526020019060010190808311612f33575b5050505050905093509350935093509193509193565b600b60000160069054906101000a900460ff1615612fdd576040517fed3ba6a600000000000000000000000000000000000000000000000000000000815260040160405180910390fd5b7f000000000000000000000000000000000000000000000000000000000000000073ffffffffffffffffffffffffffffffffffffffff163373ffffffffffffffffffffffffffffffffffffffff1614613062576040517f44b0e3c300000000000000000000000000000000000000000000000000000000815260040160405180910390fd5b6020828290501461309f576040517f8129bbcd00000000000000000000000000000000000000000000000000000000815260040160405180910390fd5b600082828101906130b09190616f69565b9050600073ffffffffffffffffffffffffffffffffffffffff16600360008367ffffffffffffffff1667ffffffffffffffff16815260200190815260200160002060000160009054906101000a900473ffffffffffffffffffffffffffffffffffffffff1673ffffffffffffffffffffffffffffffffffffffff161415613163576040517f1f6a65b600000000000000000000000000000000000000000000000000000000815260040160405180910390fd5b6000600460008367ffffffffffffffff1667ffffffffffffffff16815260200190815260200160002060000160009054906101000a90046bffffffffffffffffffffffff166bffffffffffffffffffffffff16905084600460008467ffffffffffffffff1667ffffffffffffffff16815260200190815260200160002060000160008282829054906101000a90046bffffffffffffffffffffffff16613209919061847d565b92506101000a8154816bffffffffffffffffffffffff02191690836bffffffffffffffffffffffff16021790555084600560088282829054906101000a90046bffffffffffffffffffffffff16613260919061847d565b92506101000a8154816bffffffffffffffffffffffff02191690836bffffffffffffffffffffffff1602179055508167ffffffffffffffff167fd39ec07f4e209f627a4c427971473820dc129761ba28de8906bd56f57101d4f88287846132c791906183e9565b6040516132d5929190617f6c565b60405180910390a2505050505050565b7f000000000000000000000000000000000000000000000000000000000000000081565b6000600b60000160069054906101000a900460ff1615613355576040517fed3ba6a600000000000000000000000000000000000000000000000000000000815260040160405180910390fd5b60005a905060008060006133698787614989565b9250925092506000866060015163ffffffff1667ffffffffffffffff81111561339557613394618a26565b5b6040519080825280602002602001820160405280156133c35781602001602082028036833780820191505090505b50905060005b876060015163ffffffff168110156134395782816040516020016133ee929190617f6c565b6040516020818303038152906040528051906020012060001c82828151811061341a576134196189f7565b5b602002602001018181525050808061343190618887565b9150506133c9565b506009600084815260200190815260200160002060009055600080631fe543e360e01b858460405160240161346f929190617f3c565b604051602081830303815290604052907bffffffffffffffffffffffffffffffffffffffffffffffffffffffff19166020820180517bffffffffffffffffffffffffffffffffffffffffffffffffffffffff838183161783525050505090506001600b60000160066101000a81548160ff02191690831515021790555060006135078a6040015163ffffffff168b6080015184614cae565b90506000600b60000160066101000a81548160ff0219169083151502179055506000600460008c6020015167ffffffffffffffff1667ffffffffffffffff168152602001908152602001600020600001600c9054906101000a900467ffffffffffffffff1690506001600460008d6020015167ffffffffffffffff1667ffffffffffffffff168152602001908152602001600020600001600c8282829054906101000a900467ffffffffffffffff166135c0919061843f565b92506101000a81548167ffffffffffffffff021916908367ffffffffffffffff16021790555060006136178a600b600001600b9054906101000a900463ffffffff1663ffffffff16613611856138e8565b3a614cfb565b9050806bffffffffffffffffffffffff16600460008e6020015167ffffffffffffffff1667ffffffffffffffff16815260200190815260200160002060000160009054906101000a90046bffffffffffffffffffffffff166bffffffffffffffffffffffff1610156136b5576040517ff4d678b800000000000000000000000000000000000000000000000000000000815260040160405180910390fd5b80600460008e6020015167ffffffffffffffff1667ffffffffffffffff16815260200190815260200160002060000160008282829054906101000a90046bffffffffffffffffffffffff1661370a919061857e565b92506101000a8154816bffffffffffffffffffffffff02191690836bffffffffffffffffffffffff1602179055508060086000600660008d815260200190815260200160002060009054906101000a900473ffffffffffffffffffffffffffffffffffffffff1673ffffffffffffffffffffffffffffffffffffffff1673ffffffffffffffffffffffffffffffffffffffff16815260200190815260200160002060008282829054906101000a90046bffffffffffffffffffffffff166137d1919061847d565b92506101000a8154816bffffffffffffffffffffffff02191690836bffffffffffffffffffffffff160217905550877f7dffc5ae5ee4e2e4df1651cf6ad329a73cebdb728f37ea0187b9b17e036756e4888386604051613833939291906180aa565b60405180910390a2809a505050505050505050505092915050565b600080600080600b60000160009054906101000a900461ffff16600b60000160029054906101000a900463ffffffff16600b60000160079054906101000a900463ffffffff16600b600001600b9054906101000a900463ffffffff16935093509350935090919293565b6000816040516020016138cb91906179cd565b604051602081830303815290604052805190602001209050919050565b600080600c604051806101200160405290816000820160009054906101000a900463ffffffff1663ffffffff1663ffffffff1681526020016000820160049054906101000a900463ffffffff1663ffffffff1663ffffffff1681526020016000820160089054906101000a900463ffffffff1663ffffffff1663ffffffff16815260200160008201600c9054906101000a900463ffffffff1663ffffffff1663ffffffff1681526020016000820160109054906101000a900463ffffffff1663ffffffff1663ffffffff1681526020016000820160149054906101000a900462ffffff1662ffffff1662ffffff1681526020016000820160179054906101000a900462ffffff1662ffffff1662ffffff16815260200160008201601a9054906101000a900462ffffff1662ffffff1662ffffff16815260200160008201601d9054906101000a900462ffffff1662ffffff1662ffffff168152505090508267ffffffffffffffff16600011158015613a7357508060a0015162ffffff168367ffffffffffffffff1611155b15613a85578060000151915050613b64565b8267ffffffffffffffff168160a0015162ffffff16108015613aba57508060c0015162ffffff168367ffffffffffffffff1611155b15613acc578060200151915050613b64565b8267ffffffffffffffff168160c0015162ffffff16108015613b0157508060e0015162ffffff168367ffffffffffffffff1611155b15613b13578060400151915050613b64565b8267ffffffffffffffff168160e0015162ffffff16108015613b49575080610100015162ffffff168367ffffffffffffffff1611155b15613b5b578060600151915050613b64565b80608001519150505b919050565b816000600360008367ffffffffffffffff1667ffffffffffffffff16815260200190815260200160002060000160009054906101000a900473ffffffffffffffffffffffffffffffffffffffff169050600073ffffffffffffffffffffffffffffffffffffffff168173ffffffffffffffffffffffffffffffffffffffff161415613c20576040517f1f6a65b600000000000000000000000000000000000000000000000000000000815260040160405180910390fd5b8073ffffffffffffffffffffffffffffffffffffffff163373ffffffffffffffffffffffffffffffffffffffff1614613c9057806040517fd8a3fb52000000000000000000000000000000000000000000000000000000008152600401613c879190617937565b60405180910390fd5b600b60000160069054906101000a900460ff1615613cda576040517fed3ba6a600000000000000000000000000000000000000000000000000000000815260040160405180910390fd5b613ce384613f59565b15613d1a576040517fb42f66e800000000000000000000000000000000000000000000000000000000815260040160405180910390fd5b613d2484846142cf565b50505050565b613d3261423f565b60007f000000000000000000000000000000000000000000000000000000000000000073ffffffffffffffffffffffffffffffffffffffff166370a08231306040518263ffffffff1660e01b8152600401613d8d9190617937565b60206040518083038186803b158015613da557600080fd5b505afa158015613db9573d6000803e3d6000fd5b505050506040513d601f19601f82011682018060405250810190613ddd9190616f3c565b90506000600560089054906101000a90046bffffffffffffffffffffffff166bffffffffffffffffffffffff16905081811115613e535780826040517fa99da302000000000000000000000000000000000000000000000000000000008152600401613e4a929190617f6c565b60405180910390fd5b81811015613f545760008183613e69919061854a565b90507f000000000000000000000000000000000000000000000000000000000000000073ffffffffffffffffffffffffffffffffffffffff1663a9059cbb85836040518363ffffffff1660e01b8152600401613ec692919061797b565b602060405180830381600087803b158015613ee057600080fd5b505af1158015613ef4573d6000803e3d6000fd5b505050506040513d601f19601f82011682018060405250810190613f189190616d6a565b507f59bfc682b673f8cbf945f1e454df9334834abf7dfe7f92237ca29ecb9b4366008482604051613f4a92919061797b565b60405180910390a1505b505050565b600080600360008467ffffffffffffffff1667ffffffffffffffff1681526020019081526020016000206040518060600160405290816000820160009054906101000a900473ffffffffffffffffffffffffffffffffffffffff1673ffffffffffffffffffffffffffffffffffffffff1673ffffffffffffffffffffffffffffffffffffffff1681526020016001820160009054906101000a900473ffffffffffffffffffffffffffffffffffffffff1673ffffffffffffffffffffffffffffffffffffffff1673ffffffffffffffffffffffffffffffffffffffff168152602001600282018054806020026020016040519081016040528092919081815260200182805480156140bf57602002820191906000526020600020905b8160009054906101000a900473ffffffffffffffffffffffffffffffffffffffff1673ffffffffffffffffffffffffffffffffffffffff1681526020019060010190808311614075575b505050505081525050905060005b81604001515181101561421f5760005b60078054905081101561420b5760006141ca60078381548110614103576141026189f7565b5b906000526020600020015485604001518581518110614125576141246189f7565b5b6020026020010151886002600089604001518981518110614149576141486189f7565b5b602002602001015173ffffffffffffffffffffffffffffffffffffffff1673ffffffffffffffffffffffffffffffffffffffff16815260200190815260200160002060008b67ffffffffffffffff1667ffffffffffffffff16815260200190815260200160002060009054906101000a900467ffffffffffffffff16614874565b5090506000801b6009600083815260200190815260200160002054146141f7576001945050505050614226565b50808061420390618887565b9150506140dd565b50808061421790618887565b9150506140cd565b5060009150505b919050565b61423361423f565b61423c81614e74565b50565b60008054906101000a900473ffffffffffffffffffffffffffffffffffffffff1673ffffffffffffffffffffffffffffffffffffffff163373ffffffffffffffffffffffffffffffffffffffff16146142cd576040517f08c379a00000000000000000000000000000000000000000000000000000000081526004016142c490617be1565b60405180910390fd5b565b600b60000160069054906101000a900460ff1615614319576040517fed3ba6a600000000000000000000000000000000000000000000000000000000815260040160405180910390fd5b6000600360008467ffffffffffffffff1667ffffffffffffffff1681526020019081526020016000206040518060600160405290816000820160009054906101000a900473ffffffffffffffffffffffffffffffffffffffff1673ffffffffffffffffffffffffffffffffffffffff1673ffffffffffffffffffffffffffffffffffffffff1681526020016001820160009054906101000a900473ffffffffffffffffffffffffffffffffffffffff1673ffffffffffffffffffffffffffffffffffffffff1673ffffffffffffffffffffffffffffffffffffffff1681526020016002820180548060200260200160405190810160405280929190818152602001828054801561447e57602002820191906000526020600020905b8160009054906101000a900473ffffffffffffffffffffffffffffffffffffffff1673ffffffffffffffffffffffffffffffffffffffff1681526020019060010190808311614434575b50505050508152505090506000600460008567ffffffffffffffff1667ffffffffffffffff1681526020019081526020016000206040518060400160405290816000820160009054906101000a90046bffffffffffffffffffffffff166bffffffffffffffffffffffff166bffffffffffffffffffffffff16815260200160008201600c9054906101000a900467ffffffffffffffff1667ffffffffffffffff1667ffffffffffffffff1681525050905060008160000151905060005b8360400151518110156145f4576002600085604001518381518110614563576145626189f7565b5b602002602001015173ffffffffffffffffffffffffffffffffffffffff1673ffffffffffffffffffffffffffffffffffffffff16815260200190815260200160002060008767ffffffffffffffff1667ffffffffffffffff16815260200190815260200160002060006101000a81549067ffffffffffffffff021916905580806145ec90618887565b91505061453b565b50600360008667ffffffffffffffff1667ffffffffffffffff168152602001908152602001600020600080820160006101000a81549073ffffffffffffffffffffffffffffffffffffffff02191690556001820160006101000a81549073ffffffffffffffffffffffffffffffffffffffff021916905560028201600061467b91906166cd565b5050600460008667ffffffffffffffff1667ffffffffffffffff168152602001908152602001600020600080820160006101000a8154906bffffffffffffffffffffffff021916905560008201600c6101000a81549067ffffffffffffffff0219169055505080600560088282829054906101000a90046bffffffffffffffffffffffff1661470a919061857e565b92506101000a8154816bffffffffffffffffffffffff02191690836bffffffffffffffffffffffff1602179055507f000000000000000000000000000000000000000000000000000000000000000073ffffffffffffffffffffffffffffffffffffffff1663a9059cbb85836bffffffffffffffffffffffff166040518363ffffffff1660e01b81526004016147a192919061797b565b602060405180830381600087803b1580156147bb57600080fd5b505af11580156147cf573d6000803e3d6000fd5b505050506040513d601f19601f820116820180604052508101906147f39190616d6a565b614829576040517ff4d678b800000000000000000000000000000000000000000000000000000000815260040160405180910390fd5b8467ffffffffffffffff167fe8ed5b475a5b5987aa9165e8731bb78043f39eee32ec5a1169a89e27fcd4981585836040516148659291906179a4565b60405180910390a25050505050565b6000806000868686866040516020016148909493929190617a1e565b6040516020818303038152906040528051906020012060001c905086816040516020016148be929190617a63565b6040516020818303038152906040528051906020012060001c81925092505094509492505050565b6000804690506148f581614fa1565b1561498157606473ffffffffffffffffffffffffffffffffffffffff1663a3b1b31d6040518163ffffffff1660e01b815260040160206040518083038186803b15801561494157600080fd5b505afa158015614955573d6000803e3d6000fd5b505050506040513d601f19601f820116820180604052508101906149799190616f3c565b915050614986565b439150505b90565b600080600061499b85600001516138b8565b925060006006600085815260200190815260200160002060009054906101000a900473ffffffffffffffffffffffffffffffffffffffff169050600073ffffffffffffffffffffffffffffffffffffffff168173ffffffffffffffffffffffffffffffffffffffff161415614a4757836040517f77f5b84c000000000000000000000000000000000000000000000000000000008152600401614a3e9190617a03565b60405180910390fd5b838660800151604051602001614a5e929190617a63565b6040516020818303038152906040528051906020012060001c92506000600960008581526020019081526020016000205490506000801b811415614ace576040517f3688124a00000000000000000000000000000000000000000000000000000000815260040160405180910390fd5b8386600001518760200151886040015189606001518a60800151604051602001614afd96959493929190618049565b604051602081830303815290604052805190602001208114614b4b576040517fd529142c00000000000000000000000000000000000000000000000000000000815260040160405180910390fd5b6000614b5a8760000151614fc9565b90506000801b811415614c63577f000000000000000000000000000000000000000000000000000000000000000073ffffffffffffffffffffffffffffffffffffffff1663e9413d3888600001516040518263ffffffff1660e01b8152600401614bc491906181b2565b60206040518083038186803b158015614bdc57600080fd5b505afa158015614bf0573d6000803e3d6000fd5b505050506040513d601f19601f82011682018060405250810190614c149190616d97565b90506000801b811415614c625786600001516040517f175dadad000000000000000000000000000000000000000000000000000000008152600401614c5991906181b2565b60405180910390fd5b5b6000886080015182604051602001614c7c92919061790b565b6040516020818303038152906040528051906020012060001c9050614ca189826150d0565b9450505050509250925092565b60005a611388811015614cc057600080fd5b611388810390508460408204820311614cd857600080fd5b833b614ce357600080fd5b6000808451602086016000888af19150509392505050565b600080614d0661513d565b905060008113614d4d57806040517f43d4cf66000000000000000000000000000000000000000000000000000000008152600401614d449190617b44565b60405180910390fd5b6000614d9d6000368080601f016020809104026020016040519081016040528093929190818152602001838380828437600081840152601f19601f82011690508083019250505050505050615249565b9050600082825a8a8a614db091906183e9565b614dba919061854a565b87614dc591906184f0565b614dcf91906183e9565b670de0b6b3a7640000614de291906184f0565b614dec91906184bf565b905060008663ffffffff1664e8d4a51000614e0791906184f0565b9050806b033b2e3c9fd0803ce8000000614e21919061854a565b821115614e5a576040517fe80fa38100000000000000000000000000000000000000000000000000000000815260040160405180910390fd5b8082614e6691906183e9565b945050505050949350505050565b3373ffffffffffffffffffffffffffffffffffffffff168173ffffffffffffffffffffffffffffffffffffffff161415614ee3576040517f08c379a0000000000000000000000000000000000000000000000000000000008152600401614eda90617d21565b60405180910390fd5b80600160006101000a81548173ffffffffffffffffffffffffffffffffffffffff021916908373ffffffffffffffffffffffffffffffffffffffff1602179055508073ffffffffffffffffffffffffffffffffffffffff1660008054906101000a900473ffffffffffffffffffffffffffffffffffffffff1673ffffffffffffffffffffffffffffffffffffffff167fed8889f560326eb138920d842192f0eb3dd22b4f139c87a2c57538e05bae127860405160405180910390a350565b600061a4b1821480614fb5575062066eed82145b80614fc2575062066eee82145b9050919050565b600080469050614fd881614fa1565b156150bb576101008367ffffffffffffffff16614ff36148e6565b614ffd919061854a565b118061501a575061500c6148e6565b8367ffffffffffffffff1610155b156150295760009150506150cb565b606473ffffffffffffffffffffffffffffffffffffffff16632b407a82846040518263ffffffff1660e01b815260040161506391906181b2565b60206040518083038186803b15801561507b57600080fd5b505afa15801561508f573d6000803e3d6000fd5b505050506040513d601f19601f820116820180604052508101906150b39190616d97565b9150506150cb565b8267ffffffffffffffff16409150505b919050565b60006151048360000151846020015185604001518660600151868860a001518960c001518a60e001518b61010001516153db565b6003836020015160405160200161511c929190617f13565b6040516020818303038152906040528051906020012060001c905092915050565b600080600b60000160079054906101000a900463ffffffff1690506000808263ffffffff161190506000807f000000000000000000000000000000000000000000000000000000000000000073ffffffffffffffffffffffffffffffffffffffff1663feaf968c6040518163ffffffff1660e01b815260040160a06040518083038186803b1580156151ce57600080fd5b505afa1580156151e2573d6000803e3d6000fd5b505050506040513d601f19601f820116820180604052508101906152069190616fd6565b90919293509091505080935081925050508280156152345750814261522b919061854a565b8463ffffffff16105b1561523f57600a5490505b8094505050505090565b60008046905061525881614fa1565b156152e457606c73ffffffffffffffffffffffffffffffffffffffff1663c6f7de0e6040518163ffffffff1660e01b815260040160206040518083038186803b1580156152a457600080fd5b505afa1580156152b8573d6000803e3d6000fd5b505050506040513d601f19601f820116820180604052508101906152dc9190616f3c565b9150506153d6565b6152ed816155c8565b156153d05773420000000000000000000000000000000000000f73ffffffffffffffffffffffffffffffffffffffff166349948e0e84604051806080016040528060488152602001618ee66048913960405160200161534d92919061781f565b6040516020818303038152906040526040518263ffffffff1660e01b81526004016153789190617ad1565b60206040518083038186803b15801561539057600080fd5b505afa1580156153a4573d6000803e3d6000fd5b505050506040513d601f19601f820116820180604052508101906153c89190616f3c565b9150506153d6565b60009150505b919050565b6153e489615607565b615423576040517f08c379a000000000000000000000000000000000000000000000000000000000815260040161541a90617cc1565b60405180910390fd5b61542c88615607565b61546b576040517f08c379a000000000000000000000000000000000000000000000000000000000815260040161546290617ce1565b60405180910390fd5b61547483615607565b6154b3576040517f08c379a00000000000000000000000000000000000000000000000000000000081526004016154aa90617ca1565b60405180910390fd5b6154bc82615607565b6154fb576040517f08c379a00000000000000000000000000000000000000000000000000000000081526004016154f290617da1565b60405180910390fd5b615507878a8887615788565b615546576040517f08c379a000000000000000000000000000000000000000000000000000000000815260040161553d90617c61565b60405180910390fd5b60006155528a876159a6565b90506000615565898b878b868989615a38565b90506000615576838d8d8a86615bbf565b9050808a146155ba576040517f08c379a00000000000000000000000000000000000000000000000000000000081526004016155b190617d01565b60405180910390fd5b505050505050505050505050565b6000600a8214806155da57506101a482145b806155e7575062aa37dc82145b806155f3575061210582145b80615600575062014a3382145b9050919050565b60007ffffffffffffffffffffffffffffffffffffffffffffffffffffffffefffffc2f8260006002811061563e5761563d6189f7565b5b602002015110615683576040517f08c379a000000000000000000000000000000000000000000000000000000000815260040161567a90617c21565b60405180910390fd5b7ffffffffffffffffffffffffffffffffffffffffffffffffffffffffefffffc2f826001600281106156b8576156b76189f7565b5b6020020151106156fd576040517f08c379a00000000000000000000000000000000000000000000000000000000081526004016156f490617d81565b60405180910390fd5b7ffffffffffffffffffffffffffffffffffffffffffffffffffffffffefffffc2f8061572c5761572b618999565b5b826001600281106157405761573f6189f7565b5b602002015183600160028110615759576157586189f7565b5b60200201510961578083600060028110615776576157756189f7565b5b6020020151615c01565b149050919050565b60008073ffffffffffffffffffffffffffffffffffffffff168273ffffffffffffffffffffffffffffffffffffffff1614156157f9576040517f08c379a00000000000000000000000000000000000000000000000000000000081526004016157f090617c41565b60405180910390fd5b600080600286600160028110615812576158116189f7565b5b60200201518161582557615824618999565b5b061461583257601c615835565b601b5b905060007ffffffffffffffffffffffffffffffffebaaedce6af48a03bbfd25e8cd03641418061586857615867618999565b5b858760006002811061587d5761587c6189f7565b5b6020020151097ffffffffffffffffffffffffffffffffebaaedce6af48a03bbfd25e8cd03641410360001b905060007ffffffffffffffffffffffffffffffffebaaedce6af48a03bbfd25e8cd0364141806158db576158da618999565b5b876000600281106158ef576158ee6189f7565b5b6020020151890960001b90506000600183858a600060028110615915576159146189f7565b5b602002015160001b856040516000815260200160405260405161593b9493929190617a8c565b6020604051602081039080840390855afa15801561595d573d6000803e3d6000fd5b5050506020604051035190508573ffffffffffffffffffffffffffffffffffffffff168173ffffffffffffffffffffffffffffffffffffffff1614945050505050949350505050565b6159ae6166ee565b6159db600184846040516020016159c7939291906178ce565b604051602081830303815290604052615ca4565b90505b6159e781615607565b615a3257615a2b81600060028110615a0257615a016189f7565b5b6020020151604051602001615a179190617843565b604051602081830303815290604052615ca4565b90506159de565b92915050565b615a406166ee565b7ffffffffffffffffffffffffffffffffffffffffffffffffffffffffefffffc2f83600060028110615a7557615a746189f7565b5b602002015181615a8857615a87618999565b5b067ffffffffffffffffffffffffffffffffffffffffffffffffffffffffefffffc2f87600060028110615abe57615abd6189f7565b5b602002015181615ad157615ad0618999565b5b061415615b13576040517f08c379a0000000000000000000000000000000000000000000000000000000008152600401615b0a90617bc1565b60405180910390fd5b615b1e878988615da8565b615b5d576040517f08c379a0000000000000000000000000000000000000000000000000000000008152600401615b5490617d41565b60405180910390fd5b615b68848685615da8565b615ba7576040517f08c379a0000000000000000000000000000000000000000000000000000000008152600401615b9e90617ba1565b60405180910390fd5b615bb2868484615f40565b9050979650505050505050565b600060028686868587604051602001615bdd9695949392919061785e565b6040516020818303038152906040528051906020012060001c905095945050505050565b6000807ffffffffffffffffffffffffffffffffffffffffffffffffffffffffefffffc2f80615c3357615c32618999565b5b7ffffffffffffffffffffffffffffffffffffffffffffffffffffffffefffffc2f80615c6257615c61618999565b5b848509840990507ffffffffffffffffffffffffffffffffffffffffffffffffffffffffefffffc2f80615c9857615c97618999565b5b60078208915050919050565b615cac6166ee565b615cb5826160bc565b81600060028110615cc957615cc86189f7565b5b602002018181525050615cfb615cf682600060028110615cec57615ceb6189f7565b5b6020020151615c01565b616129565b81600160028110615d0f57615d0e6189f7565b5b6020020181815250506001600282600160028110615d3057615d2f6189f7565b5b602002015181615d4357615d42618999565b5b061415615da35780600160028110615d5e57615d5d6189f7565b5b60200201517ffffffffffffffffffffffffffffffffffffffffffffffffffffffffefffffc2f0381600160028110615d9957615d986189f7565b5b6020020181815250505b919050565b600080831415615ded576040517f08c379a0000000000000000000000000000000000000000000000000000000008152600401615de490617d61565b60405180910390fd5b600084600060028110615e0357615e026189f7565b5b60200201519050600080600287600160028110615e2357615e226189f7565b5b6020020151615e329190618939565b14615e3e57601c615e41565b601b5b905060007ffffffffffffffffffffffffffffffffebaaedce6af48a03bbfd25e8cd036414180615e7457615e73618999565b5b83870960001b9050600060016000801b848660001b8560405160008152602001604052604051615ea79493929190617a8c565b6020604051602081039080840390855afa158015615ec9573d6000803e3d6000fd5b505050602060405103519050600086604051602001615ee89190617804565b6040516020818303038152906040528051906020012060001c90508073ffffffffffffffffffffffffffffffffffffffff168273ffffffffffffffffffffffffffffffffffffffff1614955050505050509392505050565b615f486166ee565b6000806000615fb987600060028110615f6457615f636189f7565b5b602002015188600160028110615f7d57615f7c6189f7565b5b602002015188600060028110615f9657615f956189f7565b5b602002015189600160028110615faf57615fae6189f7565b5b602002015161616c565b80935081945082955050505060017ffffffffffffffffffffffffffffffffffffffffffffffffffffffffefffffc2f80615ff657615ff5618999565b5b86830914616039576040517f08c379a000000000000000000000000000000000000000000000000000000000815260040161603090617c81565b60405180910390fd5b60405180604001604052807ffffffffffffffffffffffffffffffffffffffffffffffffffffffffefffffc2f8061607357616072618999565b5b87860981526020017ffffffffffffffffffffffffffffffffffffffffffffffffffffffffefffffc2f806160aa576160a9618999565b5b87850981525093505050509392505050565b6000818051906020012060001c90505b7ffffffffffffffffffffffffffffffffffffffffffffffffffffffffefffffc2f811061612457806040516020016161049190617843565b6040516020818303038152906040528051906020012060001c90506160cc565b919050565b600061616582600260017ffffffffffffffffffffffffffffffffffffffffffffffffffffffffefffffc2f61615e91906183e9565b901c616363565b9050919050565b60008060008060006001809150915060007ffffffffffffffffffffffffffffffffffffffffffffffffffffffffefffffc2f806161ac576161ab618999565b5b897ffffffffffffffffffffffffffffffffffffffffffffffffffffffffefffffc2f038808905060007ffffffffffffffffffffffffffffffffffffffffffffffffffffffffefffffc2f8061620457616203618999565b5b8b7ffffffffffffffffffffffffffffffffffffffffffffffffffffffffefffffc2f038a0890506000616239838385856164c3565b809250819950505061624d88828e8861653b565b809250819950505061626188828c8761653b565b809250819950505060006162778d878b8561653b565b809250819950505061628b888286866164c3565b809250819950505061629f88828e8961653b565b809250819950505080821461634f577ffffffffffffffffffffffffffffffffffffffffffffffffffffffffefffffc2f806162dd576162dc618999565b5b818a0998507ffffffffffffffffffffffffffffffffffffffffffffffffffffffffefffffc2f8061631157616310618999565b5b82890997507ffffffffffffffffffffffffffffffffffffffffffffffffffffffffefffffc2f8061634557616344618999565b5b8183099650616353565b8196505b5050505050509450945094915050565b60008061636e616710565b602081600060068110616384576163836189f7565b5b6020020181815250506020816001600681106163a3576163a26189f7565b5b6020020181815250506020816002600681106163c2576163c16189f7565b5b60200201818152505084816003600681106163e0576163df6189f7565b5b60200201818152505083816004600681106163fe576163fd6189f7565b5b6020020181815250507ffffffffffffffffffffffffffffffffffffffffffffffffffffffffefffffc2f8160056006811061643c5761643b6189f7565b5b60200201818152505061644d616732565b60208160c0846005600019fa9250600083141561649f576040517f08c379a000000000000000000000000000000000000000000000000000000000815260040161649690617c01565b60405180910390fd5b806000600181106164b3576164b26189f7565b5b6020020151935050505092915050565b6000807ffffffffffffffffffffffffffffffffffffffffffffffffffffffffefffffc2f806164f5576164f4618999565b5b8487097ffffffffffffffffffffffffffffffffffffffffffffffffffffffffefffffc2f8061652757616526618999565b5b848709809250819350505094509492505050565b60008060007ffffffffffffffffffffffffffffffffffffffffffffffffffffffffefffffc2f8061656f5761656e618999565b5b878509905060007ffffffffffffffffffffffffffffffffffffffffffffffffffffffffefffffc2f806165a5576165a4618999565b5b87877ffffffffffffffffffffffffffffffffffffffffffffffffffffffffefffffc2f030990507ffffffffffffffffffffffffffffffffffffffffffffffffffffffffefffffc2f806165fb576165fa618999565b5b8183087ffffffffffffffffffffffffffffffffffffffffffffffffffffffffefffffc2f8061662d5761662c618999565b5b8689098094508195505050505094509492505050565b8280548282559060005260206000209081019282156166bc579160200282015b828111156166bb5782518260006101000a81548173ffffffffffffffffffffffffffffffffffffffff021916908373ffffffffffffffffffffffffffffffffffffffff16021790555091602001919060010190616663565b5b5090506166c99190616754565b5090565b50805460008255906000526020600020908101906166eb9190616754565b50565b6040518060400160405280600290602082028036833780820191505090505090565b6040518060c00160405280600690602082028036833780820191505090505090565b6040518060200160405280600190602082028036833780820191505090505090565b5b8082111561676d576000816000905550600101616755565b5090565b600061678461677f8461829d565b618278565b9050808285602086028201111561679e5761679d618a64565b5b60005b858110156167ce57816167b48882616b71565b8452602084019350602083019250506001810190506167a1565b5050509392505050565b6000813590506167e781618de8565b92915050565b60008190508260206002028201111561680957616808618a64565b5b92915050565b600082601f83011261682457616823618a5a565b5b6002616831848285616771565b91505092915050565b60008151905061684981618dff565b92915050565b60008135905061685e81618e16565b92915050565b60008151905061687381618e16565b92915050565b60008083601f84011261688f5761688e618a5a565b5b8235905067ffffffffffffffff8111156168ac576168ab618a55565b5b6020830191508360018202830111156168c8576168c7618a64565b5b9250929050565b6000813590506168de81618e2d565b92915050565b6000815190506168f381618e2d565b92915050565b600061012082840312156169105761690f618a5f565b5b61691b610120618278565b9050600061692b84828501616b9b565b600083015250602061693f84828501616b9b565b602083015250604061695384828501616b9b565b604083015250606061696784828501616b9b565b606083015250608061697b84828501616b9b565b60808301525060a061698f84828501616b5c565b60a08301525060c06169a384828501616b5c565b60c08301525060e06169b784828501616b5c565b60e0830152506101006169cc84828501616b5c565b6101008301525092915050565b60006101a082840312156169f0576169ef618a5f565b5b6169fb610120618278565b90506000616a0b8482850161680f565b6000830152506040616a1f8482850161680f565b6020830152506080616a3384828501616b71565b60408301525060a0616a4784828501616b71565b60608301525060c0616a5b84828501616b71565b60808301525060e0616a6f848285016167d8565b60a083015250610100616a848482850161680f565b60c083015250610140616a998482850161680f565b60e083015250610180616aae84828501616b71565b6101008301525092915050565b600060a08284031215616ad157616ad0618a5f565b5b616adb60a0618278565b90506000616aeb84828501616bb0565b6000830152506020616aff84828501616bb0565b6020830152506040616b1384828501616b9b565b6040830152506060616b2784828501616b9b565b6060830152506080616b3b848285016167d8565b60808301525092915050565b600081359050616b5681618e44565b92915050565b600081359050616b6b81618e5b565b92915050565b600081359050616b8081618e72565b92915050565b600081519050616b9581618e72565b92915050565b600081359050616baa81618e89565b92915050565b600081359050616bbf81618ea0565b92915050565b600081519050616bd481618eb7565b92915050565b600081359050616be981618ece565b92915050565b600060208284031215616c0557616c04618a6e565b5b6000616c13848285016167d8565b91505092915050565b60008060608385031215616c3357616c32618a6e565b5b6000616c41858286016167d8565b9250506020616c52858286016167ed565b9150509250929050565b60008060008060608587031215616c7657616c75618a6e565b5b6000616c84878288016167d8565b9450506020616c9587828801616b71565b935050604085013567ffffffffffffffff811115616cb657616cb5618a69565b5b616cc287828801616879565b925092505092959194509250565b60008060408385031215616ce757616ce6618a6e565b5b6000616cf5858286016167d8565b9250506020616d0685828601616bda565b9150509250929050565b600060408284031215616d2657616d25618a6e565b5b6000616d34848285016167ed565b91505092915050565b600060408284031215616d5357616d52618a6e565b5b6000616d618482850161680f565b91505092915050565b600060208284031215616d8057616d7f618a6e565b5b6000616d8e8482850161683a565b91505092915050565b600060208284031215616dad57616dac618a6e565b5b6000616dbb84828501616864565b91505092915050565b600080600080600060a08688031215616de057616ddf618a6e565b5b6000616dee8882890161684f565b9550506020616dff88828901616bb0565b9450506040616e1088828901616b47565b9350506060616e2188828901616b9b565b9250506080616e3288828901616b9b565b9150509295509295909350565b6000806102408385031215616e5757616e56618a6e565b5b6000616e65858286016169d9565b9250506101a0616e7785828601616abb565b9150509250929050565b6000806000806000806101c08789031215616e9f57616e9e618a6e565b5b6000616ead89828a01616b47565b9650506020616ebe89828a01616b9b565b9550506040616ecf89828a01616b9b565b9450506060616ee089828a01616b9b565b9350506080616ef189828a016168cf565b92505060a0616f0289828a016168f9565b9150509295509295509295565b600060208284031215616f2557616f24618a6e565b5b6000616f3384828501616b71565b91505092915050565b600060208284031215616f5257616f51618a6e565b5b6000616f6084828501616b86565b91505092915050565b600060208284031215616f7f57616f7e618a6e565b5b6000616f8d84828501616bb0565b91505092915050565b60008060408385031215616fad57616fac618a6e565b5b6000616fbb85828601616bb0565b9250506020616fcc858286016167d8565b9150509250929050565b600080600080600060a08688031215616ff257616ff1618a6e565b5b600061700088828901616bc5565b9550506020617011888289016168e4565b945050604061702288828901616b86565b935050606061703388828901616b86565b925050608061704488828901616bc5565b9150509295509295909350565b600061705d83836170b1565b60208301905092915050565b600061707583836172bd565b60208301905092915050565b600061708d8383617757565b60208301905092915050565b60006170a58383617775565b60208301905092915050565b6170ba816185d1565b82525050565b6170c9816185d1565b82525050565b6170e06170db826185d1565b618901565b82525050565b60006170f1826182fd565b6170fb8185618373565b9350617106836182c3565b8060005b8381101561713757815161711e8882617051565b97506171298361833f565b92505060018101905061710a565b5085935050505092915050565b600061714f82618308565b6171598185618384565b9350617164836182d3565b8060005b8381101561719557815161717c8882617069565b97506171878361834c565b925050600181019050617168565b5085935050505092915050565b6171ab81618313565b6171b58184618395565b92506171c0826182e3565b8060005b838110156171f15781516171d88782617081565b96506171e383618359565b9250506001810190506171c4565b505050505050565b61720281618313565b61720c81846183a0565b9250617217826182e3565b8060005b8381101561724857815161722f8782617099565b965061723a83618359565b92505060018101905061721b565b505050505050565b600061725b8261831e565b61726581856183ab565b9350617270836182ed565b8060005b838110156172a15781516172888882617081565b975061729383618366565b925050600181019050617274565b5085935050505092915050565b6172b7816185e3565b82525050565b6172c6816185ef565b82525050565b6172d5816185ef565b82525050565b6172ec6172e7826185ef565b618913565b82525050565b60006172fd82618329565b61730781856183bc565b9350617317818560208601618739565b61732081618a73565b840191505092915050565b600061733682618329565b61734081856183cd565b9350617350818560208601618739565b80840191505092915050565b617365816186a9565b82525050565b617374816186cd565b82525050565b617383816186f1565b82525050565b617392816185f9565b82525050565b60006173a382618334565b6173ad81856183d8565b93506173bd818560208601618739565b6173c681618a73565b840191505092915050565b60006173de6016836183d8565b91506173e982618b06565b602082019050919050565b60006174016017836183d8565b915061740c82618b2f565b602082019050919050565b6000617424601e836183d8565b915061742f82618b58565b602082019050919050565b60006174476016836183d8565b915061745282618b81565b602082019050919050565b600061746a6012836183d8565b915061747582618baa565b602082019050919050565b600061748d6012836183d8565b915061749882618bd3565b602082019050919050565b60006174b0600b836183d8565b91506174bb82618bfc565b602082019050919050565b60006174d36019836183d8565b91506174de82618c25565b602082019050919050565b60006174f66019836183d8565b915061750182618c4e565b602082019050919050565b6000617519601d836183d8565b915061752482618c77565b602082019050919050565b600061753c601a836183d8565b915061754782618ca0565b602082019050919050565b600061755f6015836183d8565b915061756a82618cc9565b602082019050919050565b6000617582600d836183d8565b915061758d82618cf2565b602082019050919050565b60006175a56017836183d8565b91506175b082618d1b565b602082019050919050565b60006175c86016836183d8565b91506175d382618d44565b602082019050919050565b60006175eb600b836183d8565b91506175f682618d6d565b602082019050919050565b600061760e6012836183d8565b915061761982618d96565b602082019050919050565b6000617631601c836183d8565b915061763c82618dbf565b602082019050919050565b6101208201600080830154905061765d8161876c565b61766a600086018261779b565b5061767481618822565b617681602086018261779b565b5061768b8161883c565b617698604086018261779b565b506176a281618786565b6176af606086018261779b565b506176b9816187a0565b6176c6608086018261779b565b506176d0816187ba565b6176dd60a0860182617739565b506176e7816187d4565b6176f460c0860182617739565b506176fe816187ee565b61770b60e0860182617739565b5061771581618808565b617723610100860182617739565b5050505050565b61773381618603565b82525050565b61774281618631565b82525050565b61775181618631565b82525050565b61776081618640565b82525050565b61776f81618640565b82525050565b61777e81618640565b82525050565b61779561779082618640565b61892f565b82525050565b6177a48161864a565b82525050565b6177b38161864a565b82525050565b6177c281618715565b82525050565b6177d18161865a565b82525050565b6177e08161866e565b82525050565b6177ef81618727565b82525050565b6177fe81618691565b82525050565b600061781082846171f9565b60408201915081905092915050565b600061782b828561732b565b9150617837828461732b565b91508190509392505050565b600061784f8284617784565b60208201915081905092915050565b600061786a8289617784565b60208201915061787a82886171f9565b60408201915061788a82876171f9565b60408201915061789a82866171f9565b6040820191506178aa82856171f9565b6040820191506178ba82846170cf565b601482019150819050979650505050505050565b60006178da8286617784565b6020820191506178ea82856171f9565b6040820191506178fa8284617784565b602082019150819050949350505050565b60006179178285617784565b60208201915061792782846172db565b6020820191508190509392505050565b600060208201905061794c60008301846170c0565b92915050565b600060408201905061796760008301856170c0565b61797460208301846170c0565b9392505050565b600060408201905061799060008301856170c0565b61799d6020830184617766565b9392505050565b60006040820190506179b960008301856170c0565b6179c660208301846177e6565b9392505050565b60006040820190506179e260008301846171a2565b92915050565b60006020820190506179fd60008301846172ae565b92915050565b6000602082019050617a1860008301846172cc565b92915050565b6000608082019050617a3360008301876172cc565b617a4060208301866170c0565b617a4d60408301856177c8565b617a5a60608301846177c8565b95945050505050565b6000604082019050617a7860008301856172cc565b617a856020830184617766565b9392505050565b6000608082019050617aa160008301876172cc565b617aae60208301866177d7565b617abb60408301856172cc565b617ac860608301846172cc565b95945050505050565b60006020820190508181036000830152617aeb81846172f2565b905092915050565b6000602082019050617b08600083018461735c565b92915050565b6000602082019050617b23600083018461736b565b92915050565b6000602082019050617b3e600083018461737a565b92915050565b6000602082019050617b596000830184617389565b92915050565b60006020820190508181036000830152617b798184617398565b905092915050565b60006020820190508181036000830152617b9a816173d1565b9050919050565b60006020820190508181036000830152617bba816173f4565b9050919050565b60006020820190508181036000830152617bda81617417565b9050919050565b60006020820190508181036000830152617bfa8161743a565b9050919050565b60006020820190508181036000830152617c1a8161745d565b9050919050565b60006020820190508181036000830152617c3a81617480565b9050919050565b60006020820190508181036000830152617c5a816174a3565b9050919050565b60006020820190508181036000830152617c7a816174c6565b9050919050565b60006020820190508181036000830152617c9a816174e9565b9050919050565b60006020820190508181036000830152617cba8161750c565b9050919050565b60006020820190508181036000830152617cda8161752f565b9050919050565b60006020820190508181036000830152617cfa81617552565b9050919050565b60006020820190508181036000830152617d1a81617575565b9050919050565b60006020820190508181036000830152617d3a81617598565b9050919050565b60006020820190508181036000830152617d5a816175bb565b9050919050565b60006020820190508181036000830152617d7a816175de565b9050919050565b60006020820190508181036000830152617d9a81617601565b9050919050565b60006020820190508181036000830152617dba81617624565b9050919050565b6000602082019050617dd6600083018461772a565b92915050565b6000606082019050617df1600083018661772a565b617dfe602083018561772a565b617e0b604083018461772a565b949350505050565b6000606082019050617e28600083018661772a565b617e3560208301856177aa565b8181036040830152617e478184617144565b9050949350505050565b6000608082019050617e66600083018761772a565b617e7360208301866177aa565b617e8060408301856177aa565b617e8d60608301846177aa565b95945050505050565b60006101c082019050617eac600083018961772a565b617eb960208301886177aa565b617ec660408301876177aa565b617ed360608301866177aa565b617ee06080830185617389565b617eed60a0830184617647565b979650505050505050565b6000602082019050617f0d6000830184617766565b92915050565b6000606082019050617f286000830185617766565b617f3560208301846171a2565b9392505050565b6000604082019050617f516000830185617766565b8181036020830152617f638184617250565b90509392505050565b6000604082019050617f816000830185617766565b617f8e6020830184617766565b9392505050565b600060a082019050617faa6000830188617766565b617fb76020830187617766565b617fc4604083018661772a565b617fd160608301856177aa565b617fde60808301846177aa565b9695505050505050565b600060c082019050617ffd6000830189617766565b61800a6020830188617766565b61801760408301876177c8565b61802460608301866177aa565b61803160808301856177aa565b61803e60a08301846170c0565b979650505050505050565b600060c08201905061805e6000830189617766565b61806b60208301886177c8565b61807860408301876177c8565b61808560608301866177aa565b61809260808301856177aa565b61809f60a08301846170c0565b979650505050505050565b60006060820190506180bf6000830186617766565b6180cc60208301856177f5565b6180d960408301846172ae565b949350505050565b60006020820190506180f660008301846177aa565b92915050565b600060408201905061811160008301856177aa565b61811e60208301846177aa565b9392505050565b60006101208201905061813b600083018c6177aa565b618148602083018b6177aa565b618155604083018a6177aa565b61816260608301896177aa565b61816f60808301886177aa565b61817c60a0830187617748565b61818960c0830186617748565b61819660e0830185617748565b6181a4610100830184617748565b9a9950505050505050505050565b60006020820190506181c760008301846177b9565b92915050565b60006020820190506181e260008301846177c8565b92915050565b60006040820190506181fd60008301856177c8565b61820a60208301846170c0565b9392505050565b600060208201905061822660008301846177f5565b92915050565b600060808201905061824160008301876177f5565b61824e60208301866177c8565b61825b60408301856170c0565b818103606083015261826d81846170e6565b905095945050505050565b6000618282618293565b905061828e8282618856565b919050565b6000604051905090565b600067ffffffffffffffff8211156182b8576182b7618a26565b5b602082029050919050565b6000819050602082019050919050565b6000819050602082019050919050565b6000819050919050565b6000819050602082019050919050565b600081519050919050565b600081519050919050565b600060029050919050565b600081519050919050565b600081519050919050565b600081519050919050565b6000602082019050919050565b6000602082019050919050565b6000602082019050919050565b6000602082019050919050565b600082825260208201905092915050565b600082825260208201905092915050565b600081905092915050565b600081905092915050565b600082825260208201905092915050565b600082825260208201905092915050565b600081905092915050565b600082825260208201905092915050565b60006183f482618640565b91506183ff83618640565b9250827fffffffffffffffffffffffffffffffffffffffffffffffffffffffffffffffff038211156184345761843361896a565b5b828201905092915050565b600061844a8261865a565b91506184558361865a565b92508267ffffffffffffffff038211156184725761847161896a565b5b828201905092915050565b600061848882618691565b915061849383618691565b9250826bffffffffffffffffffffffff038211156184b4576184b361896a565b5b828201905092915050565b60006184ca82618640565b91506184d583618640565b9250826184e5576184e4618999565b5b828204905092915050565b60006184fb82618640565b915061850683618640565b9250817fffffffffffffffffffffffffffffffffffffffffffffffffffffffffffffffff048311821515161561853f5761853e61896a565b5b828202905092915050565b600061855582618640565b915061856083618640565b9250828210156185735761857261896a565b5b828203905092915050565b600061858982618691565b915061859483618691565b9250828210156185a7576185a661896a565b5b828203905092915050565b600062ffffff82169050919050565b600063ffffffff82169050919050565b60006185dc82618611565b9050919050565b60008115159050919050565b6000819050919050565b6000819050919050565b600061ffff82169050919050565b600073ffffffffffffffffffffffffffffffffffffffff82169050919050565b600062ffffff82169050919050565b6000819050919050565b600063ffffffff82169050919050565b600067ffffffffffffffff82169050919050565b600060ff82169050919050565b600069ffffffffffffffffffff82169050919050565b60006bffffffffffffffffffffffff82169050919050565b60006186b4826186bb565b9050919050565b60006186c682618611565b9050919050565b60006186d8826186df565b9050919050565b60006186ea82618611565b9050919050565b60006186fc82618703565b9050919050565b600061870e82618611565b9050919050565b60006187208261865a565b9050919050565b600061873282618691565b9050919050565b60005b8381101561875757808201518184015260208101905061873c565b83811115618766576000848401525b50505050565b600061877f61877a83618a91565b6185c1565b9050919050565b600061879961879483618af9565b6185c1565b9050919050565b60006187b36187ae83618a9e565b6185c1565b9050919050565b60006187cd6187c883618aab565b6185b2565b9050919050565b60006187e76187e283618ab8565b6185b2565b9050919050565b60006188016187fc83618ac5565b6185b2565b9050919050565b600061881b61881683618ad2565b6185b2565b9050919050565b600061883561883083618adf565b6185c1565b9050919050565b600061884f61884a83618aec565b6185c1565b9050919050565b61885f82618a73565b810181811067ffffffffffffffff8211171561887e5761887d618a26565b5b80604052505050565b600061889282618640565b91507fffffffffffffffffffffffffffffffffffffffffffffffffffffffffffffffff8214156188c5576188c461896a565b5b600182019050919050565b60006188db8261865a565b915067ffffffffffffffff8214156188f6576188f561896a565b5b600182019050919050565b600061890c8261891d565b9050919050565b6000819050919050565b600061892882618a84565b9050919050565b6000819050919050565b600061894482618640565b915061894f83618640565b92508261895f5761895e618999565b5b828206905092915050565b7f4e487b7100000000000000000000000000000000000000000000000000000000600052601160045260246000fd5b7f4e487b7100000000000000000000000000000000000000000000000000000000600052601260045260246000fd5b7f4e487b7100000000000000000000000000000000000000000000000000000000600052603160045260246000fd5b7f4e487b7100000000000000000000000000000000000000000000000000000000600052603260045260246000fd5b7f4e487b7100000000000000000000000000000000000000000000000000000000600052604160045260246000fd5b600080fd5b600080fd5b600080fd5b600080fd5b600080fd5b600080fd5b6000601f19601f8301169050919050565b60008160601b9050919050565b60008160001c9050919050565b60008160801c9050919050565b60008160a01c9050919050565b60008160b81c9050919050565b60008160d01c9050919050565b60008160e81c9050919050565b60008160201c9050919050565b60008160401c9050919050565b60008160601c9050919050565b7f4d7573742062652070726f706f736564206f776e657200000000000000000000600082015250565b7f5365636f6e64206d756c20636865636b206661696c6564000000000000000000600082015250565b7f706f696e747320696e2073756d206d7573742062652064697374696e63740000600082015250565b7f4f6e6c792063616c6c61626c65206279206f776e657200000000000000000000600082015250565b7f6269674d6f64457870206661696c757265210000000000000000000000000000600082015250565b7f696e76616c696420782d6f7264696e6174650000000000000000000000000000600082015250565b7f626164207769746e657373000000000000000000000000000000000000000000600082015250565b7f6164647228632a706b2b732a6729213d5f755769746e65737300000000000000600082015250565b7f696e765a206d75737420626520696e7665727365206f66207a00000000000000600082015250565b7f6347616d6d615769746e657373206973206e6f74206f6e206375727665000000600082015250565b7f7075626c6963206b6579206973206e6f74206f6e206375727665000000000000600082015250565b7f67616d6d61206973206e6f74206f6e2063757276650000000000000000000000600082015250565b7f696e76616c69642070726f6f6600000000000000000000000000000000000000600082015250565b7f43616e6e6f74207472616e7366657220746f2073656c66000000000000000000600082015250565b7f4669727374206d756c20636865636b206661696c656400000000000000000000600082015250565b7f7a65726f207363616c6172000000000000000000000000000000000000000000600082015250565b7f696e76616c696420792d6f7264696e6174650000000000000000000000000000600082015250565b7f73486173685769746e657373206973206e6f74206f6e20637572766500000000600082015250565b618df1816185d1565b8114618dfc57600080fd5b50565b618e08816185e3565b8114618e1357600080fd5b50565b618e1f816185ef565b8114618e2a57600080fd5b50565b618e36816185f9565b8114618e4157600080fd5b50565b618e4d81618603565b8114618e5857600080fd5b50565b618e6481618631565b8114618e6f57600080fd5b50565b618e7b81618640565b8114618e8657600080fd5b50565b618e928161864a565b8114618e9d57600080fd5b50565b618ea98161865a565b8114618eb457600080fd5b50565b618ec08161867b565b8114618ecb57600080fd5b50565b618ed781618691565b8114618ee257600080fd5b5056fe307866666666666666666666666666666666666666666666666666666666666666666666666666666666666666666666666666666666666666666666666666666666666666666666a264697066735822122077553fcc39877efc5a81c6cd64cf2056ecea49c6e2d2a06570e09b5ffc2dedcd64736f6c63430008060033","opcodes":"PUSH1 0xE0 PUSH1 0x40 MSTORE CALLVALUE DUP1 ISZERO PUSH3 0x11 JUMPI PUSH1 0x0 DUP1 REVERT JUMPDEST POP PUSH1 0x40 MLOAD PUSH3 0x949D CODESIZE SUB DUP1 PUSH3 0x949D DUP4 CODECOPY DUP2 DUP2 ADD PUSH1 0x40 MSTORE DUP2 ADD SWAP1 PUSH3 0x37 SWAP2 SWAP1 PUSH3 0x32C JUMP JUMPDEST CALLER DUP1 PUSH1 0x0 DUP1 PUSH20 0xFFFFFFFFFFFFFFFFFFFFFFFFFFFFFFFFFFFFFFFF AND DUP3 PUSH20 0xFFFFFFFFFFFFFFFFFFFFFFFFFFFFFFFFFFFFFFFF AND EQ ISZERO PUSH3 0xAD JUMPI PUSH1 0x40 MLOAD PUSH32 0x8C379A000000000000000000000000000000000000000000000000000000000 DUP2 MSTORE PUSH1 0x4 ADD PUSH3 0xA4 SWAP1 PUSH3 0x3D6 JUMP JUMPDEST PUSH1 0x40 MLOAD DUP1 SWAP2 SUB SWAP1 REVERT JUMPDEST DUP2 PUSH1 0x0 DUP1 PUSH2 0x100 EXP DUP2 SLOAD DUP2 PUSH20 0xFFFFFFFFFFFFFFFFFFFFFFFFFFFFFFFFFFFFFFFF MUL NOT AND SWAP1 DUP4 PUSH20 0xFFFFFFFFFFFFFFFFFFFFFFFFFFFFFFFFFFFFFFFF AND MUL OR SWAP1 SSTORE POP PUSH1 0x0 PUSH20 0xFFFFFFFFFFFFFFFFFFFFFFFFFFFFFFFFFFFFFFFF AND DUP2 PUSH20 0xFFFFFFFFFFFFFFFFFFFFFFFFFFFFFFFFFFFFFFFF AND EQ PUSH3 0x134 JUMPI PUSH3 0x133 DUP2 PUSH3 0x1E5 PUSH1 0x20 SHL PUSH1 0x20 SHR JUMP JUMPDEST JUMPDEST POP POP POP DUP3 PUSH20 0xFFFFFFFFFFFFFFFFFFFFFFFFFFFFFFFFFFFFFFFF AND PUSH1 0x80 DUP2 PUSH20 0xFFFFFFFFFFFFFFFFFFFFFFFFFFFFFFFFFFFFFFFF AND PUSH1 0x60 SHL DUP2 MSTORE POP POP DUP1 PUSH20 0xFFFFFFFFFFFFFFFFFFFFFFFFFFFFFFFFFFFFFFFF AND PUSH1 0xA0 DUP2 PUSH20 0xFFFFFFFFFFFFFFFFFFFFFFFFFFFFFFFFFFFFFFFF AND PUSH1 0x60 SHL DUP2 MSTORE POP POP DUP2 PUSH20 0xFFFFFFFFFFFFFFFFFFFFFFFFFFFFFFFFFFFFFFFF AND PUSH1 0xC0 DUP2 PUSH20 0xFFFFFFFFFFFFFFFFFFFFFFFFFFFFFFFFFFFFFFFF AND PUSH1 0x60 SHL DUP2 MSTORE POP POP POP POP POP PUSH3 0x4D0 JUMP JUMPDEST CALLER PUSH20 0xFFFFFFFFFFFFFFFFFFFFFFFFFFFFFFFFFFFFFFFF AND DUP2 PUSH20 0xFFFFFFFFFFFFFFFFFFFFFFFFFFFFFFFFFFFFFFFF AND EQ ISZERO PUSH3 0x257 JUMPI PUSH1 0x40 MLOAD PUSH32 0x8C379A000000000000000000000000000000000000000000000000000000000 DUP2 MSTORE PUSH1 0x4 ADD PUSH3 0x24E SWAP1 PUSH3 0x3F8 JUMP JUMPDEST PUSH1 0x40 MLOAD DUP1 SWAP2 SUB SWAP1 REVERT JUMPDEST DUP1 PUSH1 0x1 PUSH1 0x0 PUSH2 0x100 EXP DUP2 SLOAD DUP2 PUSH20 0xFFFFFFFFFFFFFFFFFFFFFFFFFFFFFFFFFFFFFFFF MUL NOT AND SWAP1 DUP4 PUSH20 0xFFFFFFFFFFFFFFFFFFFFFFFFFFFFFFFFFFFFFFFF AND MUL OR SWAP1 SSTORE POP DUP1 PUSH20 0xFFFFFFFFFFFFFFFFFFFFFFFFFFFFFFFFFFFFFFFF AND PUSH1 0x0 DUP1 SLOAD SWAP1 PUSH2 0x100 EXP SWAP1 DIV PUSH20 0xFFFFFFFFFFFFFFFFFFFFFFFFFFFFFFFFFFFFFFFF AND PUSH20 0xFFFFFFFFFFFFFFFFFFFFFFFFFFFFFFFFFFFFFFFF AND PUSH32 0xED8889F560326EB138920D842192F0EB3DD22B4F139C87A2C57538E05BAE1278 PUSH1 0x40 MLOAD PUSH1 0x40 MLOAD DUP1 SWAP2 SUB SWAP1 LOG3 POP JUMP JUMPDEST PUSH1 0x0 DUP2 MLOAD SWAP1 POP PUSH3 0x326 DUP2 PUSH3 0x4B6 JUMP JUMPDEST SWAP3 SWAP2 POP POP JUMP JUMPDEST PUSH1 0x0 DUP1 PUSH1 0x0 PUSH1 0x60 DUP5 DUP7 SUB SLT ISZERO PUSH3 0x348 JUMPI PUSH3 0x347 PUSH3 0x45F JUMP JUMPDEST JUMPDEST PUSH1 0x0 PUSH3 0x358 DUP7 DUP3 DUP8 ADD PUSH3 0x315 JUMP JUMPDEST SWAP4 POP POP PUSH1 0x20 PUSH3 0x36B DUP7 DUP3 DUP8 ADD PUSH3 0x315 JUMP JUMPDEST SWAP3 POP POP PUSH1 0x40 PUSH3 0x37E DUP7 DUP3 DUP8 ADD PUSH3 0x315 JUMP JUMPDEST SWAP2 POP POP SWAP3 POP SWAP3 POP SWAP3 JUMP JUMPDEST PUSH1 0x0 PUSH3 0x397 PUSH1 0x18 DUP4 PUSH3 0x41A JUMP JUMPDEST SWAP2 POP PUSH3 0x3A4 DUP3 PUSH3 0x464 JUMP JUMPDEST PUSH1 0x20 DUP3 ADD SWAP1 POP SWAP2 SWAP1 POP JUMP JUMPDEST PUSH1 0x0 PUSH3 0x3BE PUSH1 0x17 DUP4 PUSH3 0x41A JUMP JUMPDEST SWAP2 POP PUSH3 0x3CB DUP3 PUSH3 0x48D JUMP JUMPDEST PUSH1 0x20 DUP3 ADD SWAP1 POP SWAP2 SWAP1 POP JUMP JUMPDEST PUSH1 0x0 PUSH1 0x20 DUP3 ADD SWAP1 POP DUP2 DUP2 SUB PUSH1 0x0 DUP4 ADD MSTORE PUSH3 0x3F1 DUP2 PUSH3 0x388 JUMP JUMPDEST SWAP1 POP SWAP2 SWAP1 POP JUMP JUMPDEST PUSH1 0x0 PUSH1 0x20 DUP3 ADD SWAP1 POP DUP2 DUP2 SUB PUSH1 0x0 DUP4 ADD MSTORE PUSH3 0x413 DUP2 PUSH3 0x3AF JUMP JUMPDEST SWAP1 POP SWAP2 SWAP1 POP JUMP JUMPDEST PUSH1 0x0 DUP3 DUP3 MSTORE PUSH1 0x20 DUP3 ADD SWAP1 POP SWAP3 SWAP2 POP POP JUMP JUMPDEST PUSH1 0x0 PUSH3 0x438 DUP3 PUSH3 0x43F JUMP JUMPDEST SWAP1 POP SWAP2 SWAP1 POP JUMP JUMPDEST PUSH1 0x0 PUSH20 0xFFFFFFFFFFFFFFFFFFFFFFFFFFFFFFFFFFFFFFFF DUP3 AND SWAP1 POP SWAP2 SWAP1 POP JUMP JUMPDEST PUSH1 0x0 DUP1 REVERT JUMPDEST PUSH32 0x43616E6E6F7420736574206F776E657220746F207A65726F0000000000000000 PUSH1 0x0 DUP3 ADD MSTORE POP JUMP JUMPDEST PUSH32 0x43616E6E6F74207472616E7366657220746F2073656C66000000000000000000 PUSH1 0x0 DUP3 ADD MSTORE POP JUMP JUMPDEST PUSH3 0x4C1 DUP2 PUSH3 0x42B JUMP JUMPDEST DUP2 EQ PUSH3 0x4CD JUMPI PUSH1 0x0 DUP1 REVERT JUMPDEST POP JUMP JUMPDEST PUSH1 0x80 MLOAD PUSH1 0x60 SHR PUSH1 0xA0 MLOAD PUSH1 0x60 SHR PUSH1 0xC0 MLOAD PUSH1 0x60 SHR PUSH2 0x8F63 PUSH3 0x53A PUSH1 0x0 CODECOPY PUSH1 0x0 DUP2 DUP2 PUSH2 0x19AA ADD MSTORE PUSH2 0x4B69 ADD MSTORE PUSH1 0x0 DUP2 DUP2 PUSH2 0x32E7 ADD MSTORE PUSH2 0x516A ADD MSTORE PUSH1 0x0 DUP2 DUP2 PUSH2 0xDD4 ADD MSTORE DUP2 DUP2 PUSH2 0x18C3 ADD MSTORE DUP2 DUP2 PUSH2 0x2FDF ADD MSTORE DUP2 DUP2 PUSH2 0x3D36 ADD MSTORE DUP2 DUP2 PUSH2 0x3E6D ADD MSTORE PUSH2 0x473A ADD MSTORE PUSH2 0x8F63 PUSH1 0x0 RETURN INVALID PUSH1 0x80 PUSH1 0x40 MSTORE CALLVALUE DUP1 ISZERO PUSH2 0x10 JUMPI PUSH1 0x0 DUP1 REVERT JUMPDEST POP PUSH1 0x4 CALLDATASIZE LT PUSH2 0x21B JUMPI PUSH1 0x0 CALLDATALOAD PUSH1 0xE0 SHR DUP1 PUSH4 0x6F64F03F GT PUSH2 0x125 JUMPI DUP1 PUSH4 0xAD178361 GT PUSH2 0xAD JUMPI DUP1 PUSH4 0xD2F9F9A7 GT PUSH2 0x7C JUMPI DUP1 PUSH4 0xD2F9F9A7 EQ PUSH2 0x604 JUMPI DUP1 PUSH4 0xD7AE1D30 EQ PUSH2 0x634 JUMPI DUP1 PUSH4 0xE72F6E30 EQ PUSH2 0x650 JUMPI DUP1 PUSH4 0xE82AD7D4 EQ PUSH2 0x66C JUMPI DUP1 PUSH4 0xF2FDE38B EQ PUSH2 0x69C JUMPI PUSH2 0x21B JUMP JUMPDEST DUP1 PUSH4 0xAD178361 EQ PUSH2 0x565 JUMPI DUP1 PUSH4 0xAF198B97 EQ PUSH2 0x583 JUMPI DUP1 PUSH4 0xC3F909D4 EQ PUSH2 0x5B3 JUMPI DUP1 PUSH4 0xCAF70C4A EQ PUSH2 0x5D4 JUMPI PUSH2 0x21B JUMP JUMPDEST DUP1 PUSH4 0x8DA5CB5B GT PUSH2 0xF4 JUMPI DUP1 PUSH4 0x8DA5CB5B EQ PUSH2 0x4BE JUMPI DUP1 PUSH4 0x9F87FAD7 EQ PUSH2 0x4DC JUMPI DUP1 PUSH4 0xA21A23E4 EQ PUSH2 0x4F8 JUMPI DUP1 PUSH4 0xA47C7696 EQ PUSH2 0x516 JUMPI DUP1 PUSH4 0xA4C0ED36 EQ PUSH2 0x549 JUMPI PUSH2 0x21B JUMP JUMPDEST DUP1 PUSH4 0x6F64F03F EQ PUSH2 0x460 JUMPI DUP1 PUSH4 0x7341C10C EQ PUSH2 0x47C JUMPI DUP1 PUSH4 0x79BA5097 EQ PUSH2 0x498 JUMPI DUP1 PUSH4 0x82359740 EQ PUSH2 0x4A2 JUMPI PUSH2 0x21B JUMP JUMPDEST DUP1 PUSH4 0x356DAC71 GT PUSH2 0x1A8 JUMPI DUP1 PUSH4 0x5FBBC0D2 GT PUSH2 0x177 JUMPI DUP1 PUSH4 0x5FBBC0D2 EQ PUSH2 0x3B2 JUMPI DUP1 PUSH4 0x64D51A2A EQ PUSH2 0x3D8 JUMPI DUP1 PUSH4 0x66316D8D EQ PUSH2 0x3F6 JUMPI DUP1 PUSH4 0x689C4517 EQ PUSH2 0x412 JUMPI DUP1 PUSH4 0x69BCDB7D EQ PUSH2 0x430 JUMPI PUSH2 0x21B JUMP JUMPDEST DUP1 PUSH4 0x356DAC71 EQ PUSH2 0x32A JUMPI DUP1 PUSH4 0x40D6BB82 EQ PUSH2 0x348 JUMPI DUP1 PUSH4 0x4CB48A54 EQ PUSH2 0x366 JUMPI DUP1 PUSH4 0x5D3B1D30 EQ PUSH2 0x382 JUMPI PUSH2 0x21B JUMP JUMPDEST DUP1 PUSH4 0x8821D58 GT PUSH2 0x1EF JUMPI DUP1 PUSH4 0x8821D58 EQ PUSH2 0x296 JUMPI DUP1 PUSH4 0x12B58349 EQ PUSH2 0x2B2 JUMPI DUP1 PUSH4 0x15C48B84 EQ PUSH2 0x2D0 JUMPI DUP1 PUSH4 0x181F5A77 EQ PUSH2 0x2EE JUMPI DUP1 PUSH4 0x1B6B6D23 EQ PUSH2 0x30C JUMPI PUSH2 0x21B JUMP JUMPDEST DUP1 PUSH3 0x12291 EQ PUSH2 0x220 JUMPI DUP1 PUSH4 0x2BCC5B6 EQ PUSH2 0x240 JUMPI DUP1 PUSH4 0x4C357CB EQ PUSH2 0x25C JUMPI DUP1 PUSH4 0x6BFA637 EQ PUSH2 0x278 JUMPI JUMPDEST PUSH1 0x0 DUP1 REVERT JUMPDEST PUSH2 0x228 PUSH2 0x6B8 JUMP JUMPDEST PUSH1 0x40 MLOAD PUSH2 0x237 SWAP4 SWAP3 SWAP2 SWAP1 PUSH2 0x7E13 JUMP JUMPDEST PUSH1 0x40 MLOAD DUP1 SWAP2 SUB SWAP1 RETURN JUMPDEST PUSH2 0x25A PUSH1 0x4 DUP1 CALLDATASIZE SUB DUP2 ADD SWAP1 PUSH2 0x255 SWAP2 SWAP1 PUSH2 0x6F69 JUMP JUMPDEST PUSH2 0x746 JUMP JUMPDEST STOP JUMPDEST PUSH2 0x276 PUSH1 0x4 DUP1 CALLDATASIZE SUB DUP2 ADD SWAP1 PUSH2 0x271 SWAP2 SWAP1 PUSH2 0x6F96 JUMP JUMPDEST PUSH2 0x856 JUMP JUMPDEST STOP JUMPDEST PUSH2 0x280 PUSH2 0xAF8 JUMP JUMPDEST PUSH1 0x40 MLOAD PUSH2 0x28D SWAP2 SWAP1 PUSH2 0x81CD JUMP JUMPDEST PUSH1 0x40 MLOAD DUP1 SWAP2 SUB SWAP1 RETURN JUMPDEST PUSH2 0x2B0 PUSH1 0x4 DUP1 CALLDATASIZE SUB DUP2 ADD SWAP1 PUSH2 0x2AB SWAP2 SWAP1 PUSH2 0x6D10 JUMP JUMPDEST PUSH2 0xB16 JUMP JUMPDEST STOP JUMPDEST PUSH2 0x2BA PUSH2 0xD60 JUMP JUMPDEST PUSH1 0x40 MLOAD PUSH2 0x2C7 SWAP2 SWAP1 PUSH2 0x7EF8 JUMP JUMPDEST PUSH1 0x40 MLOAD DUP1 SWAP2 SUB SWAP1 RETURN JUMPDEST PUSH2 0x2D8 PUSH2 0xD90 JUMP JUMPDEST PUSH1 0x40 MLOAD PUSH2 0x2E5 SWAP2 SWAP1 PUSH2 0x7DC1 JUMP JUMPDEST PUSH1 0x40 MLOAD DUP1 SWAP2 SUB SWAP1 RETURN JUMPDEST PUSH2 0x2F6 PUSH2 0xD95 JUMP JUMPDEST PUSH1 0x40 MLOAD PUSH2 0x303 SWAP2 SWAP1 PUSH2 0x7B5F JUMP JUMPDEST PUSH1 0x40 MLOAD DUP1 SWAP2 SUB SWAP1 RETURN JUMPDEST PUSH2 0x314 PUSH2 0xDD2 JUMP JUMPDEST PUSH1 0x40 MLOAD PUSH2 0x321 SWAP2 SWAP1 PUSH2 0x7B29 JUMP JUMPDEST PUSH1 0x40 MLOAD DUP1 SWAP2 SUB SWAP1 RETURN JUMPDEST PUSH2 0x332 PUSH2 0xDF6 JUMP JUMPDEST PUSH1 0x40 MLOAD PUSH2 0x33F SWAP2 SWAP1 PUSH2 0x7B44 JUMP JUMPDEST PUSH1 0x40 MLOAD DUP1 SWAP2 SUB SWAP1 RETURN JUMPDEST PUSH2 0x350 PUSH2 0xE00 JUMP JUMPDEST PUSH1 0x40 MLOAD PUSH2 0x35D SWAP2 SWAP1 PUSH2 0x80E1 JUMP JUMPDEST PUSH1 0x40 MLOAD DUP1 SWAP2 SUB SWAP1 RETURN JUMPDEST PUSH2 0x380 PUSH1 0x4 DUP1 CALLDATASIZE SUB DUP2 ADD SWAP1 PUSH2 0x37B SWAP2 SWAP1 PUSH2 0x6E81 JUMP JUMPDEST PUSH2 0xE06 JUMP JUMPDEST STOP JUMPDEST PUSH2 0x39C PUSH1 0x4 DUP1 CALLDATASIZE SUB DUP2 ADD SWAP1 PUSH2 0x397 SWAP2 SWAP1 PUSH2 0x6DC4 JUMP JUMPDEST PUSH2 0x1152 JUMP JUMPDEST PUSH1 0x40 MLOAD PUSH2 0x3A9 SWAP2 SWAP1 PUSH2 0x7EF8 JUMP JUMPDEST PUSH1 0x40 MLOAD DUP1 SWAP2 SUB SWAP1 RETURN JUMPDEST PUSH2 0x3BA PUSH2 0x15ED JUMP JUMPDEST PUSH1 0x40 MLOAD PUSH2 0x3CF SWAP10 SWAP9 SWAP8 SWAP7 SWAP6 SWAP5 SWAP4 SWAP3 SWAP2 SWAP1 PUSH2 0x8125 JUMP JUMPDEST PUSH1 0x40 MLOAD DUP1 SWAP2 SUB SWAP1 RETURN JUMPDEST PUSH2 0x3E0 PUSH2 0x16DA JUMP JUMPDEST PUSH1 0x40 MLOAD PUSH2 0x3ED SWAP2 SWAP1 PUSH2 0x7DC1 JUMP JUMPDEST PUSH1 0x40 MLOAD DUP1 SWAP2 SUB SWAP1 RETURN JUMPDEST PUSH2 0x410 PUSH1 0x4 DUP1 CALLDATASIZE SUB DUP2 ADD SWAP1 PUSH2 0x40B SWAP2 SWAP1 PUSH2 0x6CD0 JUMP JUMPDEST PUSH2 0x16DF JUMP JUMPDEST STOP JUMPDEST PUSH2 0x41A PUSH2 0x19A8 JUMP JUMPDEST PUSH1 0x40 MLOAD PUSH2 0x427 SWAP2 SWAP1 PUSH2 0x7B0E JUMP JUMPDEST PUSH1 0x40 MLOAD DUP1 SWAP2 SUB SWAP1 RETURN JUMPDEST PUSH2 0x44A PUSH1 0x4 DUP1 CALLDATASIZE SUB DUP2 ADD SWAP1 PUSH2 0x445 SWAP2 SWAP1 PUSH2 0x6F0F JUMP JUMPDEST PUSH2 0x19CC JUMP JUMPDEST PUSH1 0x40 MLOAD PUSH2 0x457 SWAP2 SWAP1 PUSH2 0x7A03 JUMP JUMPDEST PUSH1 0x40 MLOAD DUP1 SWAP2 SUB SWAP1 RETURN JUMPDEST PUSH2 0x47A PUSH1 0x4 DUP1 CALLDATASIZE SUB DUP2 ADD SWAP1 PUSH2 0x475 SWAP2 SWAP1 PUSH2 0x6C1C JUMP JUMPDEST PUSH2 0x19E9 JUMP JUMPDEST STOP JUMPDEST PUSH2 0x496 PUSH1 0x4 DUP1 CALLDATASIZE SUB DUP2 ADD SWAP1 PUSH2 0x491 SWAP2 SWAP1 PUSH2 0x6F96 JUMP JUMPDEST PUSH2 0x1BA7 JUMP JUMPDEST STOP JUMPDEST PUSH2 0x4A0 PUSH2 0x1F73 JUMP JUMPDEST STOP JUMPDEST PUSH2 0x4BC PUSH1 0x4 DUP1 CALLDATASIZE SUB DUP2 ADD SWAP1 PUSH2 0x4B7 SWAP2 SWAP1 PUSH2 0x6F69 JUMP JUMPDEST PUSH2 0x2108 JUMP JUMPDEST STOP JUMPDEST PUSH2 0x4C6 PUSH2 0x2471 JUMP JUMPDEST PUSH1 0x40 MLOAD PUSH2 0x4D3 SWAP2 SWAP1 PUSH2 0x7937 JUMP JUMPDEST PUSH1 0x40 MLOAD DUP1 SWAP2 SUB SWAP1 RETURN JUMPDEST PUSH2 0x4F6 PUSH1 0x4 DUP1 CALLDATASIZE SUB DUP2 ADD SWAP1 PUSH2 0x4F1 SWAP2 SWAP1 PUSH2 0x6F96 JUMP JUMPDEST PUSH2 0x249A JUMP JUMPDEST STOP JUMPDEST PUSH2 0x500 PUSH2 0x2A26 JUMP JUMPDEST PUSH1 0x40 MLOAD PUSH2 0x50D SWAP2 SWAP1 PUSH2 0x81CD JUMP JUMPDEST PUSH1 0x40 MLOAD DUP1 SWAP2 SUB SWAP1 RETURN JUMPDEST PUSH2 0x530 PUSH1 0x4 DUP1 CALLDATASIZE SUB DUP2 ADD SWAP1 PUSH2 0x52B SWAP2 SWAP1 PUSH2 0x6F69 JUMP JUMPDEST PUSH2 0x2D4D JUMP JUMPDEST PUSH1 0x40 MLOAD PUSH2 0x540 SWAP5 SWAP4 SWAP3 SWAP2 SWAP1 PUSH2 0x822C JUMP JUMPDEST PUSH1 0x40 MLOAD DUP1 SWAP2 SUB SWAP1 RETURN JUMPDEST PUSH2 0x563 PUSH1 0x4 DUP1 CALLDATASIZE SUB DUP2 ADD SWAP1 PUSH2 0x55E SWAP2 SWAP1 PUSH2 0x6C5C JUMP JUMPDEST PUSH2 0x2F93 JUMP JUMPDEST STOP JUMPDEST PUSH2 0x56D PUSH2 0x32E5 JUMP JUMPDEST PUSH1 0x40 MLOAD PUSH2 0x57A SWAP2 SWAP1 PUSH2 0x7AF3 JUMP JUMPDEST PUSH1 0x40 MLOAD DUP1 SWAP2 SUB SWAP1 RETURN JUMPDEST PUSH2 0x59D PUSH1 0x4 DUP1 CALLDATASIZE SUB DUP2 ADD SWAP1 PUSH2 0x598 SWAP2 SWAP1 PUSH2 0x6E3F JUMP JUMPDEST PUSH2 0x3309 JUMP JUMPDEST PUSH1 0x40 MLOAD PUSH2 0x5AA SWAP2 SWAP1 PUSH2 0x8211 JUMP JUMPDEST PUSH1 0x40 MLOAD DUP1 SWAP2 SUB SWAP1 RETURN JUMPDEST PUSH2 0x5BB PUSH2 0x384E JUMP JUMPDEST PUSH1 0x40 MLOAD PUSH2 0x5CB SWAP5 SWAP4 SWAP3 SWAP2 SWAP1 PUSH2 0x7E51 JUMP JUMPDEST PUSH1 0x40 MLOAD DUP1 SWAP2 SUB SWAP1 RETURN JUMPDEST PUSH2 0x5EE PUSH1 0x4 DUP1 CALLDATASIZE SUB DUP2 ADD SWAP1 PUSH2 0x5E9 SWAP2 SWAP1 PUSH2 0x6D3D JUMP JUMPDEST PUSH2 0x38B8 JUMP JUMPDEST PUSH1 0x40 MLOAD PUSH2 0x5FB SWAP2 SWAP1 PUSH2 0x7A03 JUMP JUMPDEST PUSH1 0x40 MLOAD DUP1 SWAP2 SUB SWAP1 RETURN JUMPDEST PUSH2 0x61E PUSH1 0x4 DUP1 CALLDATASIZE SUB DUP2 ADD SWAP1 PUSH2 0x619 SWAP2 SWAP1 PUSH2 0x6F69 JUMP JUMPDEST PUSH2 0x38E8 JUMP JUMPDEST PUSH1 0x40 MLOAD PUSH2 0x62B SWAP2 SWAP1 PUSH2 0x80E1 JUMP JUMPDEST PUSH1 0x40 MLOAD DUP1 SWAP2 SUB SWAP1 RETURN JUMPDEST PUSH2 0x64E PUSH1 0x4 DUP1 CALLDATASIZE SUB DUP2 ADD SWAP1 PUSH2 0x649 SWAP2 SWAP1 PUSH2 0x6F96 JUMP JUMPDEST PUSH2 0x3B69 JUMP JUMPDEST STOP JUMPDEST PUSH2 0x66A PUSH1 0x4 DUP1 CALLDATASIZE SUB DUP2 ADD SWAP1 PUSH2 0x665 SWAP2 SWAP1 PUSH2 0x6BEF JUMP JUMPDEST PUSH2 0x3D2A JUMP JUMPDEST STOP JUMPDEST PUSH2 0x686 PUSH1 0x4 DUP1 CALLDATASIZE SUB DUP2 ADD SWAP1 PUSH2 0x681 SWAP2 SWAP1 PUSH2 0x6F69 JUMP JUMPDEST PUSH2 0x3F59 JUMP JUMPDEST PUSH1 0x40 MLOAD PUSH2 0x693 SWAP2 SWAP1 PUSH2 0x79E8 JUMP JUMPDEST PUSH1 0x40 MLOAD DUP1 SWAP2 SUB SWAP1 RETURN JUMPDEST PUSH2 0x6B6 PUSH1 0x4 DUP1 CALLDATASIZE SUB DUP2 ADD SWAP1 PUSH2 0x6B1 SWAP2 SWAP1 PUSH2 0x6BEF JUMP JUMPDEST PUSH2 0x422B JUMP JUMPDEST STOP JUMPDEST PUSH1 0x0 DUP1 PUSH1 0x60 PUSH1 0xB PUSH1 0x0 ADD PUSH1 0x0 SWAP1 SLOAD SWAP1 PUSH2 0x100 EXP SWAP1 DIV PUSH2 0xFFFF AND PUSH1 0xB PUSH1 0x0 ADD PUSH1 0x2 SWAP1 SLOAD SWAP1 PUSH2 0x100 EXP SWAP1 DIV PUSH4 0xFFFFFFFF AND PUSH1 0x7 DUP1 DUP1 SLOAD DUP1 PUSH1 0x20 MUL PUSH1 0x20 ADD PUSH1 0x40 MLOAD SWAP1 DUP2 ADD PUSH1 0x40 MSTORE DUP1 SWAP3 SWAP2 SWAP1 DUP2 DUP2 MSTORE PUSH1 0x20 ADD DUP3 DUP1 SLOAD DUP1 ISZERO PUSH2 0x734 JUMPI PUSH1 0x20 MUL DUP3 ADD SWAP2 SWAP1 PUSH1 0x0 MSTORE PUSH1 0x20 PUSH1 0x0 KECCAK256 SWAP1 JUMPDEST DUP2 SLOAD DUP2 MSTORE PUSH1 0x20 ADD SWAP1 PUSH1 0x1 ADD SWAP1 DUP1 DUP4 GT PUSH2 0x720 JUMPI JUMPDEST POP POP POP POP POP SWAP1 POP SWAP3 POP SWAP3 POP SWAP3 POP SWAP1 SWAP2 SWAP3 JUMP JUMPDEST PUSH2 0x74E PUSH2 0x423F JUMP JUMPDEST PUSH1 0x0 PUSH20 0xFFFFFFFFFFFFFFFFFFFFFFFFFFFFFFFFFFFFFFFF AND PUSH1 0x3 PUSH1 0x0 DUP4 PUSH8 0xFFFFFFFFFFFFFFFF AND PUSH8 0xFFFFFFFFFFFFFFFF AND DUP2 MSTORE PUSH1 0x20 ADD SWAP1 DUP2 MSTORE PUSH1 0x20 ADD PUSH1 0x0 KECCAK256 PUSH1 0x0 ADD PUSH1 0x0 SWAP1 SLOAD SWAP1 PUSH2 0x100 EXP SWAP1 DIV PUSH20 0xFFFFFFFFFFFFFFFFFFFFFFFFFFFFFFFFFFFFFFFF AND PUSH20 0xFFFFFFFFFFFFFFFFFFFFFFFFFFFFFFFFFFFFFFFF AND EQ ISZERO PUSH2 0x7FF JUMPI PUSH1 0x40 MLOAD PUSH32 0x1F6A65B600000000000000000000000000000000000000000000000000000000 DUP2 MSTORE PUSH1 0x4 ADD PUSH1 0x40 MLOAD DUP1 SWAP2 SUB SWAP1 REVERT JUMPDEST PUSH2 0x853 DUP2 PUSH1 0x3 PUSH1 0x0 DUP5 PUSH8 0xFFFFFFFFFFFFFFFF AND PUSH8 0xFFFFFFFFFFFFFFFF AND DUP2 MSTORE PUSH1 0x20 ADD SWAP1 DUP2 MSTORE PUSH1 0x20 ADD PUSH1 0x0 KECCAK256 PUSH1 0x0 ADD PUSH1 0x0 SWAP1 SLOAD SWAP1 PUSH2 0x100 EXP SWAP1 DIV PUSH20 0xFFFFFFFFFFFFFFFFFFFFFFFFFFFFFFFFFFFFFFFF AND PUSH2 0x42CF JUMP JUMPDEST POP JUMP JUMPDEST DUP2 PUSH1 0x0 PUSH1 0x3 PUSH1 0x0 DUP4 PUSH8 0xFFFFFFFFFFFFFFFF AND PUSH8 0xFFFFFFFFFFFFFFFF AND DUP2 MSTORE PUSH1 0x20 ADD SWAP1 DUP2 MSTORE PUSH1 0x20 ADD PUSH1 0x0 KECCAK256 PUSH1 0x0 ADD PUSH1 0x0 SWAP1 SLOAD SWAP1 PUSH2 0x100 EXP SWAP1 DIV PUSH20 0xFFFFFFFFFFFFFFFFFFFFFFFFFFFFFFFFFFFFFFFF AND SWAP1 POP PUSH1 0x0 PUSH20 0xFFFFFFFFFFFFFFFFFFFFFFFFFFFFFFFFFFFFFFFF AND DUP2 PUSH20 0xFFFFFFFFFFFFFFFFFFFFFFFFFFFFFFFFFFFFFFFF AND EQ ISZERO PUSH2 0x90D JUMPI PUSH1 0x40 MLOAD PUSH32 0x1F6A65B600000000000000000000000000000000000000000000000000000000 DUP2 MSTORE PUSH1 0x4 ADD PUSH1 0x40 MLOAD DUP1 SWAP2 SUB SWAP1 REVERT JUMPDEST DUP1 PUSH20 0xFFFFFFFFFFFFFFFFFFFFFFFFFFFFFFFFFFFFFFFF AND CALLER PUSH20 0xFFFFFFFFFFFFFFFFFFFFFFFFFFFFFFFFFFFFFFFF AND EQ PUSH2 0x97D JUMPI DUP1 PUSH1 0x40 MLOAD PUSH32 0xD8A3FB5200000000000000000000000000000000000000000000000000000000 DUP2 MSTORE PUSH1 0x4 ADD PUSH2 0x974 SWAP2 SWAP1 PUSH2 0x7937 JUMP JUMPDEST PUSH1 0x40 MLOAD DUP1 SWAP2 SUB SWAP1 REVERT JUMPDEST PUSH1 0xB PUSH1 0x0 ADD PUSH1 0x6 SWAP1 SLOAD SWAP1 PUSH2 0x100 EXP SWAP1 DIV PUSH1 0xFF AND ISZERO PUSH2 0x9C7 JUMPI PUSH1 0x40 MLOAD PUSH32 0xED3BA6A600000000000000000000000000000000000000000000000000000000 DUP2 MSTORE PUSH1 0x4 ADD PUSH1 0x40 MLOAD DUP1 SWAP2 SUB SWAP1 REVERT JUMPDEST DUP3 PUSH20 0xFFFFFFFFFFFFFFFFFFFFFFFFFFFFFFFFFFFFFFFF AND PUSH1 0x3 PUSH1 0x0 DUP7 PUSH8 0xFFFFFFFFFFFFFFFF AND PUSH8 0xFFFFFFFFFFFFFFFF AND DUP2 MSTORE PUSH1 0x20 ADD SWAP1 DUP2 MSTORE PUSH1 0x20 ADD PUSH1 0x0 KECCAK256 PUSH1 0x1 ADD PUSH1 0x0 SWAP1 SLOAD SWAP1 PUSH2 0x100 EXP SWAP1 DIV PUSH20 0xFFFFFFFFFFFFFFFFFFFFFFFFFFFFFFFFFFFFFFFF AND PUSH20 0xFFFFFFFFFFFFFFFFFFFFFFFFFFFFFFFFFFFFFFFF AND EQ PUSH2 0xAF2 JUMPI DUP3 PUSH1 0x3 PUSH1 0x0 DUP7 PUSH8 0xFFFFFFFFFFFFFFFF AND PUSH8 0xFFFFFFFFFFFFFFFF AND DUP2 MSTORE PUSH1 0x20 ADD SWAP1 DUP2 MSTORE PUSH1 0x20 ADD PUSH1 0x0 KECCAK256 PUSH1 0x1 ADD PUSH1 0x0 PUSH2 0x100 EXP DUP2 SLOAD DUP2 PUSH20 0xFFFFFFFFFFFFFFFFFFFFFFFFFFFFFFFFFFFFFFFF MUL NOT AND SWAP1 DUP4 PUSH20 0xFFFFFFFFFFFFFFFFFFFFFFFFFFFFFFFFFFFFFFFF AND MUL OR SWAP1 SSTORE POP DUP4 PUSH8 0xFFFFFFFFFFFFFFFF AND PUSH32 0x69436EA6DF009049404F564EFF6622CD00522B0BD6A89EFD9E52A355C4A879BE CALLER DUP6 PUSH1 0x40 MLOAD PUSH2 0xAE9 SWAP3 SWAP2 SWAP1 PUSH2 0x7952 JUMP JUMPDEST PUSH1 0x40 MLOAD DUP1 SWAP2 SUB SWAP1 LOG2 JUMPDEST POP POP POP POP JUMP JUMPDEST PUSH1 0x0 PUSH1 0x5 PUSH1 0x0 SWAP1 SLOAD SWAP1 PUSH2 0x100 EXP SWAP1 DIV PUSH8 0xFFFFFFFFFFFFFFFF AND SWAP1 POP SWAP1 JUMP JUMPDEST PUSH2 0xB1E PUSH2 0x423F JUMP JUMPDEST PUSH1 0x0 PUSH2 0xB60 DUP3 PUSH1 0x2 DUP1 PUSH1 0x20 MUL PUSH1 0x40 MLOAD SWAP1 DUP2 ADD PUSH1 0x40 MSTORE DUP1 SWAP3 SWAP2 SWAP1 DUP3 PUSH1 0x2 PUSH1 0x20 MUL DUP1 DUP3 DUP5 CALLDATACOPY PUSH1 0x0 DUP2 DUP5 ADD MSTORE PUSH1 0x1F NOT PUSH1 0x1F DUP3 ADD AND SWAP1 POP DUP1 DUP4 ADD SWAP3 POP POP POP POP POP POP PUSH2 0x38B8 JUMP JUMPDEST SWAP1 POP PUSH1 0x0 PUSH1 0x6 PUSH1 0x0 DUP4 DUP2 MSTORE PUSH1 0x20 ADD SWAP1 DUP2 MSTORE PUSH1 0x20 ADD PUSH1 0x0 KECCAK256 PUSH1 0x0 SWAP1 SLOAD SWAP1 PUSH2 0x100 EXP SWAP1 DIV PUSH20 0xFFFFFFFFFFFFFFFFFFFFFFFFFFFFFFFFFFFFFFFF AND SWAP1 POP PUSH1 0x0 PUSH20 0xFFFFFFFFFFFFFFFFFFFFFFFFFFFFFFFFFFFFFFFF AND DUP2 PUSH20 0xFFFFFFFFFFFFFFFFFFFFFFFFFFFFFFFFFFFFFFFF AND EQ ISZERO PUSH2 0xC0C JUMPI DUP2 PUSH1 0x40 MLOAD PUSH32 0x77F5B84C00000000000000000000000000000000000000000000000000000000 DUP2 MSTORE PUSH1 0x4 ADD PUSH2 0xC03 SWAP2 SWAP1 PUSH2 0x7A03 JUMP JUMPDEST PUSH1 0x40 MLOAD DUP1 SWAP2 SUB SWAP1 REVERT JUMPDEST PUSH1 0x6 PUSH1 0x0 DUP4 DUP2 MSTORE PUSH1 0x20 ADD SWAP1 DUP2 MSTORE PUSH1 0x20 ADD PUSH1 0x0 KECCAK256 PUSH1 0x0 PUSH2 0x100 EXP DUP2 SLOAD SWAP1 PUSH20 0xFFFFFFFFFFFFFFFFFFFFFFFFFFFFFFFFFFFFFFFF MUL NOT AND SWAP1 SSTORE PUSH1 0x0 JUMPDEST PUSH1 0x7 DUP1 SLOAD SWAP1 POP DUP2 LT ISZERO PUSH2 0xD0C JUMPI DUP3 PUSH1 0x7 DUP3 DUP2 SLOAD DUP2 LT PUSH2 0xC67 JUMPI PUSH2 0xC66 PUSH2 0x89F7 JUMP JUMPDEST JUMPDEST SWAP1 PUSH1 0x0 MSTORE PUSH1 0x20 PUSH1 0x0 KECCAK256 ADD SLOAD EQ ISZERO PUSH2 0xCF9 JUMPI PUSH1 0x0 PUSH1 0x7 PUSH1 0x1 PUSH1 0x7 DUP1 SLOAD SWAP1 POP PUSH2 0xC8E SWAP2 SWAP1 PUSH2 0x854A JUMP JUMPDEST DUP2 SLOAD DUP2 LT PUSH2 0xC9F JUMPI PUSH2 0xC9E PUSH2 0x89F7 JUMP JUMPDEST JUMPDEST SWAP1 PUSH1 0x0 MSTORE PUSH1 0x20 PUSH1 0x0 KECCAK256 ADD SLOAD SWAP1 POP DUP1 PUSH1 0x7 DUP4 DUP2 SLOAD DUP2 LT PUSH2 0xCC1 JUMPI PUSH2 0xCC0 PUSH2 0x89F7 JUMP JUMPDEST JUMPDEST SWAP1 PUSH1 0x0 MSTORE PUSH1 0x20 PUSH1 0x0 KECCAK256 ADD DUP2 SWAP1 SSTORE POP PUSH1 0x7 DUP1 SLOAD DUP1 PUSH2 0xCE1 JUMPI PUSH2 0xCE0 PUSH2 0x89C8 JUMP JUMPDEST JUMPDEST PUSH1 0x1 SWAP1 SUB DUP2 DUP2 SWAP1 PUSH1 0x0 MSTORE PUSH1 0x20 PUSH1 0x0 KECCAK256 ADD PUSH1 0x0 SWAP1 SSTORE SWAP1 SSTORE POP JUMPDEST DUP1 DUP1 PUSH2 0xD04 SWAP1 PUSH2 0x8887 JUMP JUMPDEST SWAP2 POP POP PUSH2 0xC45 JUMP JUMPDEST POP DUP1 PUSH20 0xFFFFFFFFFFFFFFFFFFFFFFFFFFFFFFFFFFFFFFFF AND PUSH32 0x72BE339577868F868798BAC2C93E52D6F034FEF4689A9848996C14EBB7416C0D DUP4 PUSH1 0x40 MLOAD PUSH2 0xD53 SWAP2 SWAP1 PUSH2 0x7A03 JUMP JUMPDEST PUSH1 0x40 MLOAD DUP1 SWAP2 SUB SWAP1 LOG2 POP POP POP JUMP JUMPDEST PUSH1 0x0 PUSH1 0x5 PUSH1 0x8 SWAP1 SLOAD SWAP1 PUSH2 0x100 EXP SWAP1 DIV PUSH12 0xFFFFFFFFFFFFFFFFFFFFFFFF AND PUSH12 0xFFFFFFFFFFFFFFFFFFFFFFFF AND SWAP1 POP SWAP1 JUMP JUMPDEST PUSH1 0xC8 DUP2 JUMP JUMPDEST PUSH1 0x60 PUSH1 0x40 MLOAD DUP1 PUSH1 0x40 ADD PUSH1 0x40 MSTORE DUP1 PUSH1 0x16 DUP2 MSTORE PUSH1 0x20 ADD PUSH32 0x565246436F6F7264696E61746F72563220312E302E3000000000000000000000 DUP2 MSTORE POP SWAP1 POP SWAP1 JUMP JUMPDEST PUSH32 0x0 DUP2 JUMP JUMPDEST PUSH1 0x0 PUSH1 0xA SLOAD SWAP1 POP SWAP1 JUMP JUMPDEST PUSH2 0x1F4 DUP2 JUMP JUMPDEST PUSH2 0xE0E PUSH2 0x423F JUMP JUMPDEST PUSH1 0xC8 PUSH2 0xFFFF AND DUP7 PUSH2 0xFFFF AND GT ISZERO PUSH2 0xE61 JUMPI DUP6 DUP7 PUSH1 0xC8 PUSH1 0x40 MLOAD PUSH32 0xA738697600000000000000000000000000000000000000000000000000000000 DUP2 MSTORE PUSH1 0x4 ADD PUSH2 0xE58 SWAP4 SWAP3 SWAP2 SWAP1 PUSH2 0x7DDC JUMP JUMPDEST PUSH1 0x40 MLOAD DUP1 SWAP2 SUB SWAP1 REVERT JUMPDEST PUSH1 0x0 DUP3 SGT PUSH2 0xEA6 JUMPI DUP2 PUSH1 0x40 MLOAD PUSH32 0x43D4CF6600000000000000000000000000000000000000000000000000000000 DUP2 MSTORE PUSH1 0x4 ADD PUSH2 0xE9D SWAP2 SWAP1 PUSH2 0x7B44 JUMP JUMPDEST PUSH1 0x40 MLOAD DUP1 SWAP2 SUB SWAP1 REVERT JUMPDEST PUSH1 0x40 MLOAD DUP1 PUSH1 0xA0 ADD PUSH1 0x40 MSTORE DUP1 DUP8 PUSH2 0xFFFF AND DUP2 MSTORE PUSH1 0x20 ADD DUP7 PUSH4 0xFFFFFFFF AND DUP2 MSTORE PUSH1 0x20 ADD PUSH1 0x0 ISZERO ISZERO DUP2 MSTORE PUSH1 0x20 ADD DUP6 PUSH4 0xFFFFFFFF AND DUP2 MSTORE PUSH1 0x20 ADD DUP5 PUSH4 0xFFFFFFFF AND DUP2 MSTORE POP PUSH1 0xB PUSH1 0x0 DUP3 ADD MLOAD DUP2 PUSH1 0x0 ADD PUSH1 0x0 PUSH2 0x100 EXP DUP2 SLOAD DUP2 PUSH2 0xFFFF MUL NOT AND SWAP1 DUP4 PUSH2 0xFFFF AND MUL OR SWAP1 SSTORE POP PUSH1 0x20 DUP3 ADD MLOAD DUP2 PUSH1 0x0 ADD PUSH1 0x2 PUSH2 0x100 EXP DUP2 SLOAD DUP2 PUSH4 0xFFFFFFFF MUL NOT AND SWAP1 DUP4 PUSH4 0xFFFFFFFF AND MUL OR SWAP1 SSTORE POP PUSH1 0x40 DUP3 ADD MLOAD DUP2 PUSH1 0x0 ADD PUSH1 0x6 PUSH2 0x100 EXP DUP2 SLOAD DUP2 PUSH1 0xFF MUL NOT AND SWAP1 DUP4 ISZERO ISZERO MUL OR SWAP1 SSTORE POP PUSH1 0x60 DUP3 ADD MLOAD DUP2 PUSH1 0x0 ADD PUSH1 0x7 PUSH2 0x100 EXP DUP2 SLOAD DUP2 PUSH4 0xFFFFFFFF MUL NOT AND SWAP1 DUP4 PUSH4 0xFFFFFFFF AND MUL OR SWAP1 SSTORE POP PUSH1 0x80 DUP3 ADD MLOAD DUP2 PUSH1 0x0 ADD PUSH1 0xB PUSH2 0x100 EXP DUP2 SLOAD DUP2 PUSH4 0xFFFFFFFF MUL NOT AND SWAP1 DUP4 PUSH4 0xFFFFFFFF AND MUL OR SWAP1 SSTORE POP SWAP1 POP POP DUP1 PUSH1 0xC PUSH1 0x0 DUP3 ADD MLOAD DUP2 PUSH1 0x0 ADD PUSH1 0x0 PUSH2 0x100 EXP DUP2 SLOAD DUP2 PUSH4 0xFFFFFFFF MUL NOT AND SWAP1 DUP4 PUSH4 0xFFFFFFFF AND MUL OR SWAP1 SSTORE POP PUSH1 0x20 DUP3 ADD MLOAD DUP2 PUSH1 0x0 ADD PUSH1 0x4 PUSH2 0x100 EXP DUP2 SLOAD DUP2 PUSH4 0xFFFFFFFF MUL NOT AND SWAP1 DUP4 PUSH4 0xFFFFFFFF AND MUL OR SWAP1 SSTORE POP PUSH1 0x40 DUP3 ADD MLOAD DUP2 PUSH1 0x0 ADD PUSH1 0x8 PUSH2 0x100 EXP DUP2 SLOAD DUP2 PUSH4 0xFFFFFFFF MUL NOT AND SWAP1 DUP4 PUSH4 0xFFFFFFFF AND MUL OR SWAP1 SSTORE POP PUSH1 0x60 DUP3 ADD MLOAD DUP2 PUSH1 0x0 ADD PUSH1 0xC PUSH2 0x100 EXP DUP2 SLOAD DUP2 PUSH4 0xFFFFFFFF MUL NOT AND SWAP1 DUP4 PUSH4 0xFFFFFFFF AND MUL OR SWAP1 SSTORE POP PUSH1 0x80 DUP3 ADD MLOAD DUP2 PUSH1 0x0 ADD PUSH1 0x10 PUSH2 0x100 EXP DUP2 SLOAD DUP2 PUSH4 0xFFFFFFFF MUL NOT AND SWAP1 DUP4 PUSH4 0xFFFFFFFF AND MUL OR SWAP1 SSTORE POP PUSH1 0xA0 DUP3 ADD MLOAD DUP2 PUSH1 0x0 ADD PUSH1 0x14 PUSH2 0x100 EXP DUP2 SLOAD DUP2 PUSH3 0xFFFFFF MUL NOT AND SWAP1 DUP4 PUSH3 0xFFFFFF AND MUL OR SWAP1 SSTORE POP PUSH1 0xC0 DUP3 ADD MLOAD DUP2 PUSH1 0x0 ADD PUSH1 0x17 PUSH2 0x100 EXP DUP2 SLOAD DUP2 PUSH3 0xFFFFFF MUL NOT AND SWAP1 DUP4 PUSH3 0xFFFFFF AND MUL OR SWAP1 SSTORE POP PUSH1 0xE0 DUP3 ADD MLOAD DUP2 PUSH1 0x0 ADD PUSH1 0x1A PUSH2 0x100 EXP DUP2 SLOAD DUP2 PUSH3 0xFFFFFF MUL NOT AND SWAP1 DUP4 PUSH3 0xFFFFFF AND MUL OR SWAP1 SSTORE POP PUSH2 0x100 DUP3 ADD MLOAD DUP2 PUSH1 0x0 ADD PUSH1 0x1D PUSH2 0x100 EXP DUP2 SLOAD DUP2 PUSH3 0xFFFFFF MUL NOT AND SWAP1 DUP4 PUSH3 0xFFFFFF AND MUL OR SWAP1 SSTORE POP SWAP1 POP POP DUP2 PUSH1 0xA DUP2 SWAP1 SSTORE POP PUSH32 0xC21E3BD2E0B339D2848F0DD956947A88966C242C0C0C582A33137A5C1CEB5CB2 DUP7 DUP7 DUP7 DUP7 DUP7 PUSH1 0xC PUSH1 0x40 MLOAD PUSH2 0x1142 SWAP7 SWAP6 SWAP5 SWAP4 SWAP3 SWAP2 SWAP1 PUSH2 0x7E96 JUMP JUMPDEST PUSH1 0x40 MLOAD DUP1 SWAP2 SUB SWAP1 LOG1 POP POP POP POP POP POP JUMP JUMPDEST PUSH1 0x0 PUSH1 0xB PUSH1 0x0 ADD PUSH1 0x6 SWAP1 SLOAD SWAP1 PUSH2 0x100 EXP SWAP1 DIV PUSH1 0xFF AND ISZERO PUSH2 0x119E JUMPI PUSH1 0x40 MLOAD PUSH32 0xED3BA6A600000000000000000000000000000000000000000000000000000000 DUP2 MSTORE PUSH1 0x4 ADD PUSH1 0x40 MLOAD DUP1 SWAP2 SUB SWAP1 REVERT JUMPDEST PUSH1 0x0 PUSH20 0xFFFFFFFFFFFFFFFFFFFFFFFFFFFFFFFFFFFFFFFF AND PUSH1 0x3 PUSH1 0x0 DUP8 PUSH8 0xFFFFFFFFFFFFFFFF AND PUSH8 0xFFFFFFFFFFFFFFFF AND DUP2 MSTORE PUSH1 0x20 ADD SWAP1 DUP2 MSTORE PUSH1 0x20 ADD PUSH1 0x0 KECCAK256 PUSH1 0x0 ADD PUSH1 0x0 SWAP1 SLOAD SWAP1 PUSH2 0x100 EXP SWAP1 DIV PUSH20 0xFFFFFFFFFFFFFFFFFFFFFFFFFFFFFFFFFFFFFFFF AND PUSH20 0xFFFFFFFFFFFFFFFFFFFFFFFFFFFFFFFFFFFFFFFF AND EQ ISZERO PUSH2 0x124F JUMPI PUSH1 0x40 MLOAD PUSH32 0x1F6A65B600000000000000000000000000000000000000000000000000000000 DUP2 MSTORE PUSH1 0x4 ADD PUSH1 0x40 MLOAD DUP1 SWAP2 SUB SWAP1 REVERT JUMPDEST PUSH1 0x0 PUSH1 0x2 PUSH1 0x0 CALLER PUSH20 0xFFFFFFFFFFFFFFFFFFFFFFFFFFFFFFFFFFFFFFFF AND PUSH20 0xFFFFFFFFFFFFFFFFFFFFFFFFFFFFFFFFFFFFFFFF AND DUP2 MSTORE PUSH1 0x20 ADD SWAP1 DUP2 MSTORE PUSH1 0x20 ADD PUSH1 0x0 KECCAK256 PUSH1 0x0 DUP8 PUSH8 0xFFFFFFFFFFFFFFFF AND PUSH8 0xFFFFFFFFFFFFFFFF AND DUP2 MSTORE PUSH1 0x20 ADD SWAP1 DUP2 MSTORE PUSH1 0x20 ADD PUSH1 0x0 KECCAK256 PUSH1 0x0 SWAP1 SLOAD SWAP1 PUSH2 0x100 EXP SWAP1 DIV PUSH8 0xFFFFFFFFFFFFFFFF AND SWAP1 POP PUSH1 0x0 DUP2 PUSH8 0xFFFFFFFFFFFFFFFF AND EQ ISZERO PUSH2 0x131E JUMPI DUP6 CALLER PUSH1 0x40 MLOAD PUSH32 0xF0019FE600000000000000000000000000000000000000000000000000000000 DUP2 MSTORE PUSH1 0x4 ADD PUSH2 0x1315 SWAP3 SWAP2 SWAP1 PUSH2 0x81E8 JUMP JUMPDEST PUSH1 0x40 MLOAD DUP1 SWAP2 SUB SWAP1 REVERT JUMPDEST PUSH1 0xB PUSH1 0x0 ADD PUSH1 0x0 SWAP1 SLOAD SWAP1 PUSH2 0x100 EXP SWAP1 DIV PUSH2 0xFFFF AND PUSH2 0xFFFF AND DUP6 PUSH2 0xFFFF AND LT DUP1 PUSH2 0x134F JUMPI POP PUSH1 0xC8 PUSH2 0xFFFF AND DUP6 PUSH2 0xFFFF AND GT JUMPDEST ISZERO PUSH2 0x13A9 JUMPI DUP5 PUSH1 0xB PUSH1 0x0 ADD PUSH1 0x0 SWAP1 SLOAD SWAP1 PUSH2 0x100 EXP SWAP1 DIV PUSH2 0xFFFF AND PUSH1 0xC8 PUSH1 0x40 MLOAD PUSH32 0xA738697600000000000000000000000000000000000000000000000000000000 DUP2 MSTORE PUSH1 0x4 ADD PUSH2 0x13A0 SWAP4 SWAP3 SWAP2 SWAP1 PUSH2 0x7DDC JUMP JUMPDEST PUSH1 0x40 MLOAD DUP1 SWAP2 SUB SWAP1 REVERT JUMPDEST PUSH1 0xB PUSH1 0x0 ADD PUSH1 0x2 SWAP1 SLOAD SWAP1 PUSH2 0x100 EXP SWAP1 DIV PUSH4 0xFFFFFFFF AND PUSH4 0xFFFFFFFF AND DUP5 PUSH4 0xFFFFFFFF AND GT ISZERO PUSH2 0x1426 JUMPI DUP4 PUSH1 0xB PUSH1 0x0 ADD PUSH1 0x2 SWAP1 SLOAD SWAP1 PUSH2 0x100 EXP SWAP1 DIV PUSH4 0xFFFFFFFF AND PUSH1 0x40 MLOAD PUSH32 0xF5D7E01E00000000000000000000000000000000000000000000000000000000 DUP2 MSTORE PUSH1 0x4 ADD PUSH2 0x141D SWAP3 SWAP2 SWAP1 PUSH2 0x80FC JUMP JUMPDEST PUSH1 0x40 MLOAD DUP1 SWAP2 SUB SWAP1 REVERT JUMPDEST PUSH2 0x1F4 PUSH4 0xFFFFFFFF AND DUP4 PUSH4 0xFFFFFFFF AND GT ISZERO PUSH2 0x147D JUMPI DUP3 PUSH2 0x1F4 PUSH1 0x40 MLOAD PUSH32 0x47386BEC00000000000000000000000000000000000000000000000000000000 DUP2 MSTORE PUSH1 0x4 ADD PUSH2 0x1474 SWAP3 SWAP2 SWAP1 PUSH2 0x80FC JUMP JUMPDEST PUSH1 0x40 MLOAD DUP1 SWAP2 SUB SWAP1 REVERT JUMPDEST PUSH1 0x0 PUSH1 0x1 DUP3 PUSH2 0x148C SWAP2 SWAP1 PUSH2 0x843F JUMP JUMPDEST SWAP1 POP PUSH1 0x0 DUP1 PUSH2 0x149D DUP11 CALLER DUP12 DUP7 PUSH2 0x4874 JUMP JUMPDEST SWAP2 POP SWAP2 POP DUP2 PUSH2 0x14AA PUSH2 0x48E6 JUMP JUMPDEST DUP11 DUP10 DUP10 CALLER PUSH1 0x40 MLOAD PUSH1 0x20 ADD PUSH2 0x14C3 SWAP7 SWAP6 SWAP5 SWAP4 SWAP3 SWAP2 SWAP1 PUSH2 0x7FE8 JUMP JUMPDEST PUSH1 0x40 MLOAD PUSH1 0x20 DUP2 DUP4 SUB SUB DUP2 MSTORE SWAP1 PUSH1 0x40 MSTORE DUP1 MLOAD SWAP1 PUSH1 0x20 ADD KECCAK256 PUSH1 0x9 PUSH1 0x0 DUP5 DUP2 MSTORE PUSH1 0x20 ADD SWAP1 DUP2 MSTORE PUSH1 0x20 ADD PUSH1 0x0 KECCAK256 DUP2 SWAP1 SSTORE POP CALLER PUSH20 0xFFFFFFFFFFFFFFFFFFFFFFFFFFFFFFFFFFFFFFFF AND DUP10 PUSH8 0xFFFFFFFFFFFFFFFF AND DUP12 PUSH32 0x63373D1C4696214B898952999C9AAEC57DAC1EE2723CEC59BEA6888F489A9772 DUP6 DUP6 DUP14 DUP14 DUP14 PUSH1 0x40 MLOAD PUSH2 0x154A SWAP6 SWAP5 SWAP4 SWAP3 SWAP2 SWAP1 PUSH2 0x7F95 JUMP JUMPDEST PUSH1 0x40 MLOAD DUP1 SWAP2 SUB SWAP1 LOG4 DUP3 PUSH1 0x2 PUSH1 0x0 CALLER PUSH20 0xFFFFFFFFFFFFFFFFFFFFFFFFFFFFFFFFFFFFFFFF AND PUSH20 0xFFFFFFFFFFFFFFFFFFFFFFFFFFFFFFFFFFFFFFFF AND DUP2 MSTORE PUSH1 0x20 ADD SWAP1 DUP2 MSTORE PUSH1 0x20 ADD PUSH1 0x0 KECCAK256 PUSH1 0x0 DUP12 PUSH8 0xFFFFFFFFFFFFFFFF AND PUSH8 0xFFFFFFFFFFFFFFFF AND DUP2 MSTORE PUSH1 0x20 ADD SWAP1 DUP2 MSTORE PUSH1 0x20 ADD PUSH1 0x0 KECCAK256 PUSH1 0x0 PUSH2 0x100 EXP DUP2 SLOAD DUP2 PUSH8 0xFFFFFFFFFFFFFFFF MUL NOT AND SWAP1 DUP4 PUSH8 0xFFFFFFFFFFFFFFFF AND MUL OR SWAP1 SSTORE POP DUP2 SWAP5 POP POP POP POP POP SWAP6 SWAP5 POP POP POP POP POP JUMP JUMPDEST PUSH1 0x0 DUP1 PUSH1 0x0 DUP1 PUSH1 0x0 DUP1 PUSH1 0x0 DUP1 PUSH1 0x0 PUSH1 0xC PUSH1 0x0 ADD PUSH1 0x0 SWAP1 SLOAD SWAP1 PUSH2 0x100 EXP SWAP1 DIV PUSH4 0xFFFFFFFF AND PUSH1 0xC PUSH1 0x0 ADD PUSH1 0x4 SWAP1 SLOAD SWAP1 PUSH2 0x100 EXP SWAP1 DIV PUSH4 0xFFFFFFFF AND PUSH1 0xC PUSH1 0x0 ADD PUSH1 0x8 SWAP1 SLOAD SWAP1 PUSH2 0x100 EXP SWAP1 DIV PUSH4 0xFFFFFFFF AND PUSH1 0xC PUSH1 0x0 ADD PUSH1 0xC SWAP1 SLOAD SWAP1 PUSH2 0x100 EXP SWAP1 DIV PUSH4 0xFFFFFFFF AND PUSH1 0xC PUSH1 0x0 ADD PUSH1 0x10 SWAP1 SLOAD SWAP1 PUSH2 0x100 EXP SWAP1 DIV PUSH4 0xFFFFFFFF AND PUSH1 0xC PUSH1 0x0 ADD PUSH1 0x14 SWAP1 SLOAD SWAP1 PUSH2 0x100 EXP SWAP1 DIV PUSH3 0xFFFFFF AND PUSH1 0xC PUSH1 0x0 ADD PUSH1 0x17 SWAP1 SLOAD SWAP1 PUSH2 0x100 EXP SWAP1 DIV PUSH3 0xFFFFFF AND PUSH1 0xC PUSH1 0x0 ADD PUSH1 0x1A SWAP1 SLOAD SWAP1 PUSH2 0x100 EXP SWAP1 DIV PUSH3 0xFFFFFF AND PUSH1 0xC PUSH1 0x0 ADD PUSH1 0x1D SWAP1 SLOAD SWAP1 PUSH2 0x100 EXP SWAP1 DIV PUSH3 0xFFFFFF AND SWAP9 POP SWAP9 POP SWAP9 POP SWAP9 POP SWAP9 POP SWAP9 POP SWAP9 POP SWAP9 POP SWAP9 POP SWAP1 SWAP2 SWAP3 SWAP4 SWAP5 SWAP6 SWAP7 SWAP8 SWAP9 JUMP JUMPDEST PUSH1 0x64 DUP2 JUMP JUMPDEST PUSH1 0xB PUSH1 0x0 ADD PUSH1 0x6 SWAP1 SLOAD SWAP1 PUSH2 0x100 EXP SWAP1 DIV PUSH1 0xFF AND ISZERO PUSH2 0x1729 JUMPI PUSH1 0x40 MLOAD PUSH32 0xED3BA6A600000000000000000000000000000000000000000000000000000000 DUP2 MSTORE PUSH1 0x4 ADD PUSH1 0x40 MLOAD DUP1 SWAP2 SUB SWAP1 REVERT JUMPDEST DUP1 PUSH12 0xFFFFFFFFFFFFFFFFFFFFFFFF AND PUSH1 0x8 PUSH1 0x0 CALLER PUSH20 0xFFFFFFFFFFFFFFFFFFFFFFFFFFFFFFFFFFFFFFFF AND PUSH20 0xFFFFFFFFFFFFFFFFFFFFFFFFFFFFFFFFFFFFFFFF AND DUP2 MSTORE PUSH1 0x20 ADD SWAP1 DUP2 MSTORE PUSH1 0x20 ADD PUSH1 0x0 KECCAK256 PUSH1 0x0 SWAP1 SLOAD SWAP1 PUSH2 0x100 EXP SWAP1 DIV PUSH12 0xFFFFFFFFFFFFFFFFFFFFFFFF AND PUSH12 0xFFFFFFFFFFFFFFFFFFFFFFFF AND LT ISZERO PUSH2 0x17D6 JUMPI PUSH1 0x40 MLOAD PUSH32 0xF4D678B800000000000000000000000000000000000000000000000000000000 DUP2 MSTORE PUSH1 0x4 ADD PUSH1 0x40 MLOAD DUP1 SWAP2 SUB SWAP1 REVERT JUMPDEST DUP1 PUSH1 0x8 PUSH1 0x0 CALLER PUSH20 0xFFFFFFFFFFFFFFFFFFFFFFFFFFFFFFFFFFFFFFFF AND PUSH20 0xFFFFFFFFFFFFFFFFFFFFFFFFFFFFFFFFFFFFFFFF AND DUP2 MSTORE PUSH1 0x20 ADD SWAP1 DUP2 MSTORE PUSH1 0x20 ADD PUSH1 0x0 KECCAK256 PUSH1 0x0 DUP3 DUP3 DUP3 SWAP1 SLOAD SWAP1 PUSH2 0x100 EXP SWAP1 DIV PUSH12 0xFFFFFFFFFFFFFFFFFFFFFFFF AND PUSH2 0x183C SWAP2 SWAP1 PUSH2 0x857E JUMP JUMPDEST SWAP3 POP PUSH2 0x100 EXP DUP2 SLOAD DUP2 PUSH12 0xFFFFFFFFFFFFFFFFFFFFFFFF MUL NOT AND SWAP1 DUP4 PUSH12 0xFFFFFFFFFFFFFFFFFFFFFFFF AND MUL OR SWAP1 SSTORE POP DUP1 PUSH1 0x5 PUSH1 0x8 DUP3 DUP3 DUP3 SWAP1 SLOAD SWAP1 PUSH2 0x100 EXP SWAP1 DIV PUSH12 0xFFFFFFFFFFFFFFFFFFFFFFFF AND PUSH2 0x1893 SWAP2 SWAP1 PUSH2 0x857E JUMP JUMPDEST SWAP3 POP PUSH2 0x100 EXP DUP2 SLOAD DUP2 PUSH12 0xFFFFFFFFFFFFFFFFFFFFFFFF MUL NOT AND SWAP1 DUP4 PUSH12 0xFFFFFFFFFFFFFFFFFFFFFFFF AND MUL OR SWAP1 SSTORE POP PUSH32 0x0 PUSH20 0xFFFFFFFFFFFFFFFFFFFFFFFFFFFFFFFFFFFFFFFF AND PUSH4 0xA9059CBB DUP4 DUP4 PUSH1 0x40 MLOAD DUP4 PUSH4 0xFFFFFFFF AND PUSH1 0xE0 SHL DUP2 MSTORE PUSH1 0x4 ADD PUSH2 0x191C SWAP3 SWAP2 SWAP1 PUSH2 0x79A4 JUMP JUMPDEST PUSH1 0x20 PUSH1 0x40 MLOAD DUP1 DUP4 SUB DUP2 PUSH1 0x0 DUP8 DUP1 EXTCODESIZE ISZERO DUP1 ISZERO PUSH2 0x1936 JUMPI PUSH1 0x0 DUP1 REVERT JUMPDEST POP GAS CALL ISZERO DUP1 ISZERO PUSH2 0x194A JUMPI RETURNDATASIZE PUSH1 0x0 DUP1 RETURNDATACOPY RETURNDATASIZE PUSH1 0x0 REVERT JUMPDEST POP POP POP POP PUSH1 0x40 MLOAD RETURNDATASIZE PUSH1 0x1F NOT PUSH1 0x1F DUP3 ADD AND DUP3 ADD DUP1 PUSH1 0x40 MSTORE POP DUP2 ADD SWAP1 PUSH2 0x196E SWAP2 SWAP1 PUSH2 0x6D6A JUMP JUMPDEST PUSH2 0x19A4 JUMPI PUSH1 0x40 MLOAD PUSH32 0xF4D678B800000000000000000000000000000000000000000000000000000000 DUP2 MSTORE PUSH1 0x4 ADD PUSH1 0x40 MLOAD DUP1 SWAP2 SUB SWAP1 REVERT JUMPDEST POP POP JUMP JUMPDEST PUSH32 0x0 DUP2 JUMP JUMPDEST PUSH1 0x0 PUSH1 0x9 PUSH1 0x0 DUP4 DUP2 MSTORE PUSH1 0x20 ADD SWAP1 DUP2 MSTORE PUSH1 0x20 ADD PUSH1 0x0 KECCAK256 SLOAD SWAP1 POP SWAP2 SWAP1 POP JUMP JUMPDEST PUSH2 0x19F1 PUSH2 0x423F JUMP JUMPDEST PUSH1 0x0 PUSH2 0x1A33 DUP3 PUSH1 0x2 DUP1 PUSH1 0x20 MUL PUSH1 0x40 MLOAD SWAP1 DUP2 ADD PUSH1 0x40 MSTORE DUP1 SWAP3 SWAP2 SWAP1 DUP3 PUSH1 0x2 PUSH1 0x20 MUL DUP1 DUP3 DUP5 CALLDATACOPY PUSH1 0x0 DUP2 DUP5 ADD MSTORE PUSH1 0x1F NOT PUSH1 0x1F DUP3 ADD AND SWAP1 POP DUP1 DUP4 ADD SWAP3 POP POP POP POP POP POP PUSH2 0x38B8 JUMP JUMPDEST SWAP1 POP PUSH1 0x0 PUSH20 0xFFFFFFFFFFFFFFFFFFFFFFFFFFFFFFFFFFFFFFFF AND PUSH1 0x6 PUSH1 0x0 DUP4 DUP2 MSTORE PUSH1 0x20 ADD SWAP1 DUP2 MSTORE PUSH1 0x20 ADD PUSH1 0x0 KECCAK256 PUSH1 0x0 SWAP1 SLOAD SWAP1 PUSH2 0x100 EXP SWAP1 DIV PUSH20 0xFFFFFFFFFFFFFFFFFFFFFFFFFFFFFFFFFFFFFFFF AND PUSH20 0xFFFFFFFFFFFFFFFFFFFFFFFFFFFFFFFFFFFFFFFF AND EQ PUSH2 0x1AD9 JUMPI DUP1 PUSH1 0x40 MLOAD PUSH32 0x4A0B8FA700000000000000000000000000000000000000000000000000000000 DUP2 MSTORE PUSH1 0x4 ADD PUSH2 0x1AD0 SWAP2 SWAP1 PUSH2 0x7A03 JUMP JUMPDEST PUSH1 0x40 MLOAD DUP1 SWAP2 SUB SWAP1 REVERT JUMPDEST DUP3 PUSH1 0x6 PUSH1 0x0 DUP4 DUP2 MSTORE PUSH1 0x20 ADD SWAP1 DUP2 MSTORE PUSH1 0x20 ADD PUSH1 0x0 KECCAK256 PUSH1 0x0 PUSH2 0x100 EXP DUP2 SLOAD DUP2 PUSH20 0xFFFFFFFFFFFFFFFFFFFFFFFFFFFFFFFFFFFFFFFF MUL NOT AND SWAP1 DUP4 PUSH20 0xFFFFFFFFFFFFFFFFFFFFFFFFFFFFFFFFFFFFFFFF AND MUL OR SWAP1 SSTORE POP PUSH1 0x7 DUP2 SWAP1 DUP1 PUSH1 0x1 DUP2 SLOAD ADD DUP1 DUP3 SSTORE DUP1 SWAP2 POP POP PUSH1 0x1 SWAP1 SUB SWAP1 PUSH1 0x0 MSTORE PUSH1 0x20 PUSH1 0x0 KECCAK256 ADD PUSH1 0x0 SWAP1 SWAP2 SWAP1 SWAP2 SWAP1 SWAP2 POP SSTORE DUP3 PUSH20 0xFFFFFFFFFFFFFFFFFFFFFFFFFFFFFFFFFFFFFFFF AND PUSH32 0xE729AE16526293F74ADE739043022254F1489F616295A25BF72DFB4511ED73B8 DUP3 PUSH1 0x40 MLOAD PUSH2 0x1B9A SWAP2 SWAP1 PUSH2 0x7A03 JUMP JUMPDEST PUSH1 0x40 MLOAD DUP1 SWAP2 SUB SWAP1 LOG2 POP POP POP JUMP JUMPDEST DUP2 PUSH1 0x0 PUSH1 0x3 PUSH1 0x0 DUP4 PUSH8 0xFFFFFFFFFFFFFFFF AND PUSH8 0xFFFFFFFFFFFFFFFF AND DUP2 MSTORE PUSH1 0x20 ADD SWAP1 DUP2 MSTORE PUSH1 0x20 ADD PUSH1 0x0 KECCAK256 PUSH1 0x0 ADD PUSH1 0x0 SWAP1 SLOAD SWAP1 PUSH2 0x100 EXP SWAP1 DIV PUSH20 0xFFFFFFFFFFFFFFFFFFFFFFFFFFFFFFFFFFFFFFFF AND SWAP1 POP PUSH1 0x0 PUSH20 0xFFFFFFFFFFFFFFFFFFFFFFFFFFFFFFFFFFFFFFFF AND DUP2 PUSH20 0xFFFFFFFFFFFFFFFFFFFFFFFFFFFFFFFFFFFFFFFF AND EQ ISZERO PUSH2 0x1C5E JUMPI PUSH1 0x40 MLOAD PUSH32 0x1F6A65B600000000000000000000000000000000000000000000000000000000 DUP2 MSTORE PUSH1 0x4 ADD PUSH1 0x40 MLOAD DUP1 SWAP2 SUB SWAP1 REVERT JUMPDEST DUP1 PUSH20 0xFFFFFFFFFFFFFFFFFFFFFFFFFFFFFFFFFFFFFFFF AND CALLER PUSH20 0xFFFFFFFFFFFFFFFFFFFFFFFFFFFFFFFFFFFFFFFF AND EQ PUSH2 0x1CCE JUMPI DUP1 PUSH1 0x40 MLOAD PUSH32 0xD8A3FB5200000000000000000000000000000000000000000000000000000000 DUP2 MSTORE PUSH1 0x4 ADD PUSH2 0x1CC5 SWAP2 SWAP1 PUSH2 0x7937 JUMP JUMPDEST PUSH1 0x40 MLOAD DUP1 SWAP2 SUB SWAP1 REVERT JUMPDEST PUSH1 0xB PUSH1 0x0 ADD PUSH1 0x6 SWAP1 SLOAD SWAP1 PUSH2 0x100 EXP SWAP1 DIV PUSH1 0xFF AND ISZERO PUSH2 0x1D18 JUMPI PUSH1 0x40 MLOAD PUSH32 0xED3BA6A600000000000000000000000000000000000000000000000000000000 DUP2 MSTORE PUSH1 0x4 ADD PUSH1 0x40 MLOAD DUP1 SWAP2 SUB SWAP1 REVERT JUMPDEST PUSH1 0x64 PUSH2 0xFFFF AND PUSH1 0x3 PUSH1 0x0 DUP7 PUSH8 0xFFFFFFFFFFFFFFFF AND PUSH8 0xFFFFFFFFFFFFFFFF AND DUP2 MSTORE PUSH1 0x20 ADD SWAP1 DUP2 MSTORE PUSH1 0x20 ADD PUSH1 0x0 KECCAK256 PUSH1 0x2 ADD DUP1 SLOAD SWAP1 POP EQ ISZERO PUSH2 0x1D84 JUMPI PUSH1 0x40 MLOAD PUSH32 0x5A48E0F00000000000000000000000000000000000000000000000000000000 DUP2 MSTORE PUSH1 0x4 ADD PUSH1 0x40 MLOAD DUP1 SWAP2 SUB SWAP1 REVERT JUMPDEST PUSH1 0x0 PUSH1 0x2 PUSH1 0x0 DUP6 PUSH20 0xFFFFFFFFFFFFFFFFFFFFFFFFFFFFFFFFFFFFFFFF AND PUSH20 0xFFFFFFFFFFFFFFFFFFFFFFFFFFFFFFFFFFFFFFFF AND DUP2 MSTORE PUSH1 0x20 ADD SWAP1 DUP2 MSTORE PUSH1 0x20 ADD PUSH1 0x0 KECCAK256 PUSH1 0x0 DUP7 PUSH8 0xFFFFFFFFFFFFFFFF AND PUSH8 0xFFFFFFFFFFFFFFFF AND DUP2 MSTORE PUSH1 0x20 ADD SWAP1 DUP2 MSTORE PUSH1 0x20 ADD PUSH1 0x0 KECCAK256 PUSH1 0x0 SWAP1 SLOAD SWAP1 PUSH2 0x100 EXP SWAP1 DIV PUSH8 0xFFFFFFFFFFFFFFFF AND PUSH8 0xFFFFFFFFFFFFFFFF AND EQ PUSH2 0x1E13 JUMPI PUSH2 0x1F6D JUMP JUMPDEST PUSH1 0x1 PUSH1 0x2 PUSH1 0x0 DUP6 PUSH20 0xFFFFFFFFFFFFFFFFFFFFFFFFFFFFFFFFFFFFFFFF AND PUSH20 0xFFFFFFFFFFFFFFFFFFFFFFFFFFFFFFFFFFFFFFFF AND DUP2 MSTORE PUSH1 0x20 ADD SWAP1 DUP2 MSTORE PUSH1 0x20 ADD PUSH1 0x0 KECCAK256 PUSH1 0x0 DUP7 PUSH8 0xFFFFFFFFFFFFFFFF AND PUSH8 0xFFFFFFFFFFFFFFFF AND DUP2 MSTORE PUSH1 0x20 ADD SWAP1 DUP2 MSTORE PUSH1 0x20 ADD PUSH1 0x0 KECCAK256 PUSH1 0x0 PUSH2 0x100 EXP DUP2 SLOAD DUP2 PUSH8 0xFFFFFFFFFFFFFFFF MUL NOT AND SWAP1 DUP4 PUSH8 0xFFFFFFFFFFFFFFFF AND MUL OR SWAP1 SSTORE POP PUSH1 0x3 PUSH1 0x0 DUP6 PUSH8 0xFFFFFFFFFFFFFFFF AND PUSH8 0xFFFFFFFFFFFFFFFF AND DUP2 MSTORE PUSH1 0x20 ADD SWAP1 DUP2 MSTORE PUSH1 0x20 ADD PUSH1 0x0 KECCAK256 PUSH1 0x2 ADD DUP4 SWAP1 DUP1 PUSH1 0x1 DUP2 SLOAD ADD DUP1 DUP3 SSTORE DUP1 SWAP2 POP POP PUSH1 0x1 SWAP1 SUB SWAP1 PUSH1 0x0 MSTORE PUSH1 0x20 PUSH1 0x0 KECCAK256 ADD PUSH1 0x0 SWAP1 SWAP2 SWAP1 SWAP2 SWAP1 SWAP2 PUSH2 0x100 EXP DUP2 SLOAD DUP2 PUSH20 0xFFFFFFFFFFFFFFFFFFFFFFFFFFFFFFFFFFFFFFFF MUL NOT AND SWAP1 DUP4 PUSH20 0xFFFFFFFFFFFFFFFFFFFFFFFFFFFFFFFFFFFFFFFF AND MUL OR SWAP1 SSTORE POP DUP4 PUSH8 0xFFFFFFFFFFFFFFFF AND PUSH32 0x43DC749A04AC8FB825CBD514F7C0E13F13BC6F2EE66043B76629D51776CFF8E0 DUP5 PUSH1 0x40 MLOAD PUSH2 0x1F64 SWAP2 SWAP1 PUSH2 0x7937 JUMP JUMPDEST PUSH1 0x40 MLOAD DUP1 SWAP2 SUB SWAP1 LOG2 JUMPDEST POP POP POP POP JUMP JUMPDEST PUSH1 0x1 PUSH1 0x0 SWAP1 SLOAD SWAP1 PUSH2 0x100 EXP SWAP1 DIV PUSH20 0xFFFFFFFFFFFFFFFFFFFFFFFFFFFFFFFFFFFFFFFF AND PUSH20 0xFFFFFFFFFFFFFFFFFFFFFFFFFFFFFFFFFFFFFFFF AND CALLER PUSH20 0xFFFFFFFFFFFFFFFFFFFFFFFFFFFFFFFFFFFFFFFF AND EQ PUSH2 0x2003 JUMPI PUSH1 0x40 MLOAD PUSH32 0x8C379A000000000000000000000000000000000000000000000000000000000 DUP2 MSTORE PUSH1 0x4 ADD PUSH2 0x1FFA SWAP1 PUSH2 0x7B81 JUMP JUMPDEST PUSH1 0x40 MLOAD DUP1 SWAP2 SUB SWAP1 REVERT JUMPDEST PUSH1 0x0 DUP1 PUSH1 0x0 SWAP1 SLOAD SWAP1 PUSH2 0x100 EXP SWAP1 DIV PUSH20 0xFFFFFFFFFFFFFFFFFFFFFFFFFFFFFFFFFFFFFFFF AND SWAP1 POP CALLER PUSH1 0x0 DUP1 PUSH2 0x100 EXP DUP2 SLOAD DUP2 PUSH20 0xFFFFFFFFFFFFFFFFFFFFFFFFFFFFFFFFFFFFFFFF MUL NOT AND SWAP1 DUP4 PUSH20 0xFFFFFFFFFFFFFFFFFFFFFFFFFFFFFFFFFFFFFFFF AND MUL OR SWAP1 SSTORE POP PUSH1 0x0 PUSH1 0x1 PUSH1 0x0 PUSH2 0x100 EXP DUP2 SLOAD DUP2 PUSH20 0xFFFFFFFFFFFFFFFFFFFFFFFFFFFFFFFFFFFFFFFF MUL NOT AND SWAP1 DUP4 PUSH20 0xFFFFFFFFFFFFFFFFFFFFFFFFFFFFFFFFFFFFFFFF AND MUL OR SWAP1 SSTORE POP CALLER PUSH20 0xFFFFFFFFFFFFFFFFFFFFFFFFFFFFFFFFFFFFFFFF AND DUP2 PUSH20 0xFFFFFFFFFFFFFFFFFFFFFFFFFFFFFFFFFFFFFFFF AND PUSH32 0x8BE0079C531659141344CD1FD0A4F28419497F9722A3DAAFE3B4186F6B6457E0 PUSH1 0x40 MLOAD PUSH1 0x40 MLOAD DUP1 SWAP2 SUB SWAP1 LOG3 POP JUMP JUMPDEST PUSH1 0xB PUSH1 0x0 ADD PUSH1 0x6 SWAP1 SLOAD SWAP1 PUSH2 0x100 EXP SWAP1 DIV PUSH1 0xFF AND ISZERO PUSH2 0x2152 JUMPI PUSH1 0x40 MLOAD PUSH32 0xED3BA6A600000000000000000000000000000000000000000000000000000000 DUP2 MSTORE PUSH1 0x4 ADD PUSH1 0x40 MLOAD DUP1 SWAP2 SUB SWAP1 REVERT JUMPDEST PUSH1 0x0 PUSH20 0xFFFFFFFFFFFFFFFFFFFFFFFFFFFFFFFFFFFFFFFF AND PUSH1 0x3 PUSH1 0x0 DUP4 PUSH8 0xFFFFFFFFFFFFFFFF AND PUSH8 0xFFFFFFFFFFFFFFFF AND DUP2 MSTORE PUSH1 0x20 ADD SWAP1 DUP2 MSTORE PUSH1 0x20 ADD PUSH1 0x0 KECCAK256 PUSH1 0x0 ADD PUSH1 0x0 SWAP1 SLOAD SWAP1 PUSH2 0x100 EXP SWAP1 DIV PUSH20 0xFFFFFFFFFFFFFFFFFFFFFFFFFFFFFFFFFFFFFFFF AND PUSH20 0xFFFFFFFFFFFFFFFFFFFFFFFFFFFFFFFFFFFFFFFF AND EQ ISZERO PUSH2 0x2203 JUMPI PUSH1 0x40 MLOAD PUSH32 0x1F6A65B600000000000000000000000000000000000000000000000000000000 DUP2 MSTORE PUSH1 0x4 ADD PUSH1 0x40 MLOAD DUP1 SWAP2 SUB SWAP1 REVERT JUMPDEST CALLER PUSH20 0xFFFFFFFFFFFFFFFFFFFFFFFFFFFFFFFFFFFFFFFF AND PUSH1 0x3 PUSH1 0x0 DUP4 PUSH8 0xFFFFFFFFFFFFFFFF AND PUSH8 0xFFFFFFFFFFFFFFFF AND DUP2 MSTORE PUSH1 0x20 ADD SWAP1 DUP2 MSTORE PUSH1 0x20 ADD PUSH1 0x0 KECCAK256 PUSH1 0x1 ADD PUSH1 0x0 SWAP1 SLOAD SWAP1 PUSH2 0x100 EXP SWAP1 DIV PUSH20 0xFFFFFFFFFFFFFFFFFFFFFFFFFFFFFFFFFFFFFFFF AND PUSH20 0xFFFFFFFFFFFFFFFFFFFFFFFFFFFFFFFFFFFFFFFF AND EQ PUSH2 0x2307 JUMPI PUSH1 0x3 PUSH1 0x0 DUP3 PUSH8 0xFFFFFFFFFFFFFFFF AND PUSH8 0xFFFFFFFFFFFFFFFF AND DUP2 MSTORE PUSH1 0x20 ADD SWAP1 DUP2 MSTORE PUSH1 0x20 ADD PUSH1 0x0 KECCAK256 PUSH1 0x1 ADD PUSH1 0x0 SWAP1 SLOAD SWAP1 PUSH2 0x100 EXP SWAP1 DIV PUSH20 0xFFFFFFFFFFFFFFFFFFFFFFFFFFFFFFFFFFFFFFFF AND PUSH1 0x40 MLOAD PUSH32 0xD084E97500000000000000000000000000000000000000000000000000000000 DUP2 MSTORE PUSH1 0x4 ADD PUSH2 0x22FE SWAP2 SWAP1 PUSH2 0x7937 JUMP JUMPDEST PUSH1 0x40 MLOAD DUP1 SWAP2 SUB SWAP1 REVERT JUMPDEST PUSH1 0x0 PUSH1 0x3 PUSH1 0x0 DUP4 PUSH8 0xFFFFFFFFFFFFFFFF AND PUSH8 0xFFFFFFFFFFFFFFFF AND DUP2 MSTORE PUSH1 0x20 ADD SWAP1 DUP2 MSTORE PUSH1 0x20 ADD PUSH1 0x0 KECCAK256 PUSH1 0x0 ADD PUSH1 0x0 SWAP1 SLOAD SWAP1 PUSH2 0x100 EXP SWAP1 DIV PUSH20 0xFFFFFFFFFFFFFFFFFFFFFFFFFFFFFFFFFFFFFFFF AND SWAP1 POP CALLER PUSH1 0x3 PUSH1 0x0 DUP5 PUSH8 0xFFFFFFFFFFFFFFFF AND PUSH8 0xFFFFFFFFFFFFFFFF AND DUP2 MSTORE PUSH1 0x20 ADD SWAP1 DUP2 MSTORE PUSH1 0x20 ADD PUSH1 0x0 KECCAK256 PUSH1 0x0 ADD PUSH1 0x0 PUSH2 0x100 EXP DUP2 SLOAD DUP2 PUSH20 0xFFFFFFFFFFFFFFFFFFFFFFFFFFFFFFFFFFFFFFFF MUL NOT AND SWAP1 DUP4 PUSH20 0xFFFFFFFFFFFFFFFFFFFFFFFFFFFFFFFFFFFFFFFF AND MUL OR SWAP1 SSTORE POP PUSH1 0x0 PUSH1 0x3 PUSH1 0x0 DUP5 PUSH8 0xFFFFFFFFFFFFFFFF AND PUSH8 0xFFFFFFFFFFFFFFFF AND DUP2 MSTORE PUSH1 0x20 ADD SWAP1 DUP2 MSTORE PUSH1 0x20 ADD PUSH1 0x0 KECCAK256 PUSH1 0x1 ADD PUSH1 0x0 PUSH2 0x100 EXP DUP2 SLOAD DUP2 PUSH20 0xFFFFFFFFFFFFFFFFFFFFFFFFFFFFFFFFFFFFFFFF MUL NOT AND SWAP1 DUP4 PUSH20 0xFFFFFFFFFFFFFFFFFFFFFFFFFFFFFFFFFFFFFFFF AND MUL OR SWAP1 SSTORE POP DUP2 PUSH8 0xFFFFFFFFFFFFFFFF AND PUSH32 0x6F1DC65165FFFFEDFD8E507B4A0F1FCFDADA045ED11F6C26BA27CEDFE87802F0 DUP3 CALLER PUSH1 0x40 MLOAD PUSH2 0x2465 SWAP3 SWAP2 SWAP1 PUSH2 0x7952 JUMP JUMPDEST PUSH1 0x40 MLOAD DUP1 SWAP2 SUB SWAP1 LOG2 POP POP JUMP JUMPDEST PUSH1 0x0 DUP1 PUSH1 0x0 SWAP1 SLOAD SWAP1 PUSH2 0x100 EXP SWAP1 DIV PUSH20 0xFFFFFFFFFFFFFFFFFFFFFFFFFFFFFFFFFFFFFFFF AND SWAP1 POP SWAP1 JUMP JUMPDEST DUP2 PUSH1 0x0 PUSH1 0x3 PUSH1 0x0 DUP4 PUSH8 0xFFFFFFFFFFFFFFFF AND PUSH8 0xFFFFFFFFFFFFFFFF AND DUP2 MSTORE PUSH1 0x20 ADD SWAP1 DUP2 MSTORE PUSH1 0x20 ADD PUSH1 0x0 KECCAK256 PUSH1 0x0 ADD PUSH1 0x0 SWAP1 SLOAD SWAP1 PUSH2 0x100 EXP SWAP1 DIV PUSH20 0xFFFFFFFFFFFFFFFFFFFFFFFFFFFFFFFFFFFFFFFF AND SWAP1 POP PUSH1 0x0 PUSH20 0xFFFFFFFFFFFFFFFFFFFFFFFFFFFFFFFFFFFFFFFF AND DUP2 PUSH20 0xFFFFFFFFFFFFFFFFFFFFFFFFFFFFFFFFFFFFFFFF AND EQ ISZERO PUSH2 0x2551 JUMPI PUSH1 0x40 MLOAD PUSH32 0x1F6A65B600000000000000000000000000000000000000000000000000000000 DUP2 MSTORE PUSH1 0x4 ADD PUSH1 0x40 MLOAD DUP1 SWAP2 SUB SWAP1 REVERT JUMPDEST DUP1 PUSH20 0xFFFFFFFFFFFFFFFFFFFFFFFFFFFFFFFFFFFFFFFF AND CALLER PUSH20 0xFFFFFFFFFFFFFFFFFFFFFFFFFFFFFFFFFFFFFFFF AND EQ PUSH2 0x25C1 JUMPI DUP1 PUSH1 0x40 MLOAD PUSH32 0xD8A3FB5200000000000000000000000000000000000000000000000000000000 DUP2 MSTORE PUSH1 0x4 ADD PUSH2 0x25B8 SWAP2 SWAP1 PUSH2 0x7937 JUMP JUMPDEST PUSH1 0x40 MLOAD DUP1 SWAP2 SUB SWAP1 REVERT JUMPDEST PUSH1 0xB PUSH1 0x0 ADD PUSH1 0x6 SWAP1 SLOAD SWAP1 PUSH2 0x100 EXP SWAP1 DIV PUSH1 0xFF AND ISZERO PUSH2 0x260B JUMPI PUSH1 0x40 MLOAD PUSH32 0xED3BA6A600000000000000000000000000000000000000000000000000000000 DUP2 MSTORE PUSH1 0x4 ADD PUSH1 0x40 MLOAD DUP1 SWAP2 SUB SWAP1 REVERT JUMPDEST PUSH2 0x2614 DUP5 PUSH2 0x3F59 JUMP JUMPDEST ISZERO PUSH2 0x264B JUMPI PUSH1 0x40 MLOAD PUSH32 0xB42F66E800000000000000000000000000000000000000000000000000000000 DUP2 MSTORE PUSH1 0x4 ADD PUSH1 0x40 MLOAD DUP1 SWAP2 SUB SWAP1 REVERT JUMPDEST PUSH1 0x0 PUSH1 0x2 PUSH1 0x0 DUP6 PUSH20 0xFFFFFFFFFFFFFFFFFFFFFFFFFFFFFFFFFFFFFFFF AND PUSH20 0xFFFFFFFFFFFFFFFFFFFFFFFFFFFFFFFFFFFFFFFF AND DUP2 MSTORE PUSH1 0x20 ADD SWAP1 DUP2 MSTORE PUSH1 0x20 ADD PUSH1 0x0 KECCAK256 PUSH1 0x0 DUP7 PUSH8 0xFFFFFFFFFFFFFFFF AND PUSH8 0xFFFFFFFFFFFFFFFF AND DUP2 MSTORE PUSH1 0x20 ADD SWAP1 DUP2 MSTORE PUSH1 0x20 ADD PUSH1 0x0 KECCAK256 PUSH1 0x0 SWAP1 SLOAD SWAP1 PUSH2 0x100 EXP SWAP1 DIV PUSH8 0xFFFFFFFFFFFFFFFF AND PUSH8 0xFFFFFFFFFFFFFFFF AND EQ ISZERO PUSH2 0x2715 JUMPI DUP4 DUP4 PUSH1 0x40 MLOAD PUSH32 0xF0019FE600000000000000000000000000000000000000000000000000000000 DUP2 MSTORE PUSH1 0x4 ADD PUSH2 0x270C SWAP3 SWAP2 SWAP1 PUSH2 0x81E8 JUMP JUMPDEST PUSH1 0x40 MLOAD DUP1 SWAP2 SUB SWAP1 REVERT JUMPDEST PUSH1 0x0 PUSH1 0x3 PUSH1 0x0 DUP7 PUSH8 0xFFFFFFFFFFFFFFFF AND PUSH8 0xFFFFFFFFFFFFFFFF AND DUP2 MSTORE PUSH1 0x20 ADD SWAP1 DUP2 MSTORE PUSH1 0x20 ADD PUSH1 0x0 KECCAK256 PUSH1 0x2 ADD DUP1 SLOAD DUP1 PUSH1 0x20 MUL PUSH1 0x20 ADD PUSH1 0x40 MLOAD SWAP1 DUP2 ADD PUSH1 0x40 MSTORE DUP1 SWAP3 SWAP2 SWAP1 DUP2 DUP2 MSTORE PUSH1 0x20 ADD DUP3 DUP1 SLOAD DUP1 ISZERO PUSH2 0x27C1 JUMPI PUSH1 0x20 MUL DUP3 ADD SWAP2 SWAP1 PUSH1 0x0 MSTORE PUSH1 0x20 PUSH1 0x0 KECCAK256 SWAP1 JUMPDEST DUP2 PUSH1 0x0 SWAP1 SLOAD SWAP1 PUSH2 0x100 EXP SWAP1 DIV PUSH20 0xFFFFFFFFFFFFFFFFFFFFFFFFFFFFFFFFFFFFFFFF AND PUSH20 0xFFFFFFFFFFFFFFFFFFFFFFFFFFFFFFFFFFFFFFFF AND DUP2 MSTORE PUSH1 0x20 ADD SWAP1 PUSH1 0x1 ADD SWAP1 DUP1 DUP4 GT PUSH2 0x2777 JUMPI JUMPDEST POP POP POP POP POP SWAP1 POP PUSH1 0x0 PUSH1 0x1 DUP3 MLOAD PUSH2 0x27D8 SWAP2 SWAP1 PUSH2 0x854A JUMP JUMPDEST SWAP1 POP PUSH1 0x0 JUMPDEST DUP3 MLOAD DUP2 LT ISZERO PUSH2 0x2960 JUMPI DUP6 PUSH20 0xFFFFFFFFFFFFFFFFFFFFFFFFFFFFFFFFFFFFFFFF AND DUP4 DUP3 DUP2 MLOAD DUP2 LT PUSH2 0x2810 JUMPI PUSH2 0x280F PUSH2 0x89F7 JUMP JUMPDEST JUMPDEST PUSH1 0x20 MUL PUSH1 0x20 ADD ADD MLOAD PUSH20 0xFFFFFFFFFFFFFFFFFFFFFFFFFFFFFFFFFFFFFFFF AND EQ ISZERO PUSH2 0x294D JUMPI PUSH1 0x0 DUP4 DUP4 DUP2 MLOAD DUP2 LT PUSH2 0x2849 JUMPI PUSH2 0x2848 PUSH2 0x89F7 JUMP JUMPDEST JUMPDEST PUSH1 0x20 MUL PUSH1 0x20 ADD ADD MLOAD SWAP1 POP DUP1 PUSH1 0x3 PUSH1 0x0 DUP11 PUSH8 0xFFFFFFFFFFFFFFFF AND PUSH8 0xFFFFFFFFFFFFFFFF AND DUP2 MSTORE PUSH1 0x20 ADD SWAP1 DUP2 MSTORE PUSH1 0x20 ADD PUSH1 0x0 KECCAK256 PUSH1 0x2 ADD DUP4 DUP2 SLOAD DUP2 LT PUSH2 0x2890 JUMPI PUSH2 0x288F PUSH2 0x89F7 JUMP JUMPDEST JUMPDEST SWAP1 PUSH1 0x0 MSTORE PUSH1 0x20 PUSH1 0x0 KECCAK256 ADD PUSH1 0x0 PUSH2 0x100 EXP DUP2 SLOAD DUP2 PUSH20 0xFFFFFFFFFFFFFFFFFFFFFFFFFFFFFFFFFFFFFFFF MUL NOT AND SWAP1 DUP4 PUSH20 0xFFFFFFFFFFFFFFFFFFFFFFFFFFFFFFFFFFFFFFFF AND MUL OR SWAP1 SSTORE POP PUSH1 0x3 PUSH1 0x0 DUP10 PUSH8 0xFFFFFFFFFFFFFFFF AND PUSH8 0xFFFFFFFFFFFFFFFF AND DUP2 MSTORE PUSH1 0x20 ADD SWAP1 DUP2 MSTORE PUSH1 0x20 ADD PUSH1 0x0 KECCAK256 PUSH1 0x2 ADD DUP1 SLOAD DUP1 PUSH2 0x2912 JUMPI PUSH2 0x2911 PUSH2 0x89C8 JUMP JUMPDEST JUMPDEST PUSH1 0x1 SWAP1 SUB DUP2 DUP2 SWAP1 PUSH1 0x0 MSTORE PUSH1 0x20 PUSH1 0x0 KECCAK256 ADD PUSH1 0x0 PUSH2 0x100 EXP DUP2 SLOAD SWAP1 PUSH20 0xFFFFFFFFFFFFFFFFFFFFFFFFFFFFFFFFFFFFFFFF MUL NOT AND SWAP1 SSTORE SWAP1 SSTORE POP PUSH2 0x2960 JUMP JUMPDEST DUP1 DUP1 PUSH2 0x2958 SWAP1 PUSH2 0x8887 JUMP JUMPDEST SWAP2 POP POP PUSH2 0x27DD JUMP JUMPDEST POP PUSH1 0x2 PUSH1 0x0 DUP7 PUSH20 0xFFFFFFFFFFFFFFFFFFFFFFFFFFFFFFFFFFFFFFFF AND PUSH20 0xFFFFFFFFFFFFFFFFFFFFFFFFFFFFFFFFFFFFFFFF AND DUP2 MSTORE PUSH1 0x20 ADD SWAP1 DUP2 MSTORE PUSH1 0x20 ADD PUSH1 0x0 KECCAK256 PUSH1 0x0 DUP8 PUSH8 0xFFFFFFFFFFFFFFFF AND PUSH8 0xFFFFFFFFFFFFFFFF AND DUP2 MSTORE PUSH1 0x20 ADD SWAP1 DUP2 MSTORE PUSH1 0x20 ADD PUSH1 0x0 KECCAK256 PUSH1 0x0 PUSH2 0x100 EXP DUP2 SLOAD SWAP1 PUSH8 0xFFFFFFFFFFFFFFFF MUL NOT AND SWAP1 SSTORE DUP6 PUSH8 0xFFFFFFFFFFFFFFFF AND PUSH32 0x182BFF9831466789164CA77075FFFD84916D35A8180BA73C27E45634549B445B DUP7 PUSH1 0x40 MLOAD PUSH2 0x2A16 SWAP2 SWAP1 PUSH2 0x7937 JUMP JUMPDEST PUSH1 0x40 MLOAD DUP1 SWAP2 SUB SWAP1 LOG2 POP POP POP POP POP POP JUMP JUMPDEST PUSH1 0x0 PUSH1 0xB PUSH1 0x0 ADD PUSH1 0x6 SWAP1 SLOAD SWAP1 PUSH2 0x100 EXP SWAP1 DIV PUSH1 0xFF AND ISZERO PUSH2 0x2A72 JUMPI PUSH1 0x40 MLOAD PUSH32 0xED3BA6A600000000000000000000000000000000000000000000000000000000 DUP2 MSTORE PUSH1 0x4 ADD PUSH1 0x40 MLOAD DUP1 SWAP2 SUB SWAP1 REVERT JUMPDEST PUSH1 0x5 PUSH1 0x0 DUP2 DUP2 SWAP1 SLOAD SWAP1 PUSH2 0x100 EXP SWAP1 DIV PUSH8 0xFFFFFFFFFFFFFFFF AND DUP1 SWAP3 SWAP2 SWAP1 PUSH2 0x2A98 SWAP1 PUSH2 0x88D0 JUMP JUMPDEST SWAP2 SWAP1 PUSH2 0x100 EXP DUP2 SLOAD DUP2 PUSH8 0xFFFFFFFFFFFFFFFF MUL NOT AND SWAP1 DUP4 PUSH8 0xFFFFFFFFFFFFFFFF AND MUL OR SWAP1 SSTORE POP POP PUSH1 0x0 PUSH1 0x5 PUSH1 0x0 SWAP1 SLOAD SWAP1 PUSH2 0x100 EXP SWAP1 DIV PUSH8 0xFFFFFFFFFFFFFFFF AND SWAP1 POP PUSH1 0x0 DUP1 PUSH8 0xFFFFFFFFFFFFFFFF DUP2 GT ISZERO PUSH2 0x2AF6 JUMPI PUSH2 0x2AF5 PUSH2 0x8A26 JUMP JUMPDEST JUMPDEST PUSH1 0x40 MLOAD SWAP1 DUP1 DUP3 MSTORE DUP1 PUSH1 0x20 MUL PUSH1 0x20 ADD DUP3 ADD PUSH1 0x40 MSTORE DUP1 ISZERO PUSH2 0x2B24 JUMPI DUP2 PUSH1 0x20 ADD PUSH1 0x20 DUP3 MUL DUP1 CALLDATASIZE DUP4 CALLDATACOPY DUP1 DUP3 ADD SWAP2 POP POP SWAP1 POP JUMPDEST POP SWAP1 POP PUSH1 0x40 MLOAD DUP1 PUSH1 0x40 ADD PUSH1 0x40 MSTORE DUP1 PUSH1 0x0 PUSH12 0xFFFFFFFFFFFFFFFFFFFFFFFF AND DUP2 MSTORE PUSH1 0x20 ADD PUSH1 0x0 PUSH8 0xFFFFFFFFFFFFFFFF AND DUP2 MSTORE POP PUSH1 0x4 PUSH1 0x0 DUP5 PUSH8 0xFFFFFFFFFFFFFFFF AND PUSH8 0xFFFFFFFFFFFFFFFF AND DUP2 MSTORE PUSH1 0x20 ADD SWAP1 DUP2 MSTORE PUSH1 0x20 ADD PUSH1 0x0 KECCAK256 PUSH1 0x0 DUP3 ADD MLOAD DUP2 PUSH1 0x0 ADD PUSH1 0x0 PUSH2 0x100 EXP DUP2 SLOAD DUP2 PUSH12 0xFFFFFFFFFFFFFFFFFFFFFFFF MUL NOT AND SWAP1 DUP4 PUSH12 0xFFFFFFFFFFFFFFFFFFFFFFFF AND MUL OR SWAP1 SSTORE POP PUSH1 0x20 DUP3 ADD MLOAD DUP2 PUSH1 0x0 ADD PUSH1 0xC PUSH2 0x100 EXP DUP2 SLOAD DUP2 PUSH8 0xFFFFFFFFFFFFFFFF MUL NOT AND SWAP1 DUP4 PUSH8 0xFFFFFFFFFFFFFFFF AND MUL OR SWAP1 SSTORE POP SWAP1 POP POP PUSH1 0x40 MLOAD DUP1 PUSH1 0x60 ADD PUSH1 0x40 MSTORE DUP1 CALLER PUSH20 0xFFFFFFFFFFFFFFFFFFFFFFFFFFFFFFFFFFFFFFFF AND DUP2 MSTORE PUSH1 0x20 ADD PUSH1 0x0 PUSH20 0xFFFFFFFFFFFFFFFFFFFFFFFFFFFFFFFFFFFFFFFF AND DUP2 MSTORE PUSH1 0x20 ADD DUP3 DUP2 MSTORE POP PUSH1 0x3 PUSH1 0x0 DUP5 PUSH8 0xFFFFFFFFFFFFFFFF AND PUSH8 0xFFFFFFFFFFFFFFFF AND DUP2 MSTORE PUSH1 0x20 ADD SWAP1 DUP2 MSTORE PUSH1 0x20 ADD PUSH1 0x0 KECCAK256 PUSH1 0x0 DUP3 ADD MLOAD DUP2 PUSH1 0x0 ADD PUSH1 0x0 PUSH2 0x100 EXP DUP2 SLOAD DUP2 PUSH20 0xFFFFFFFFFFFFFFFFFFFFFFFFFFFFFFFFFFFFFFFF MUL NOT AND SWAP1 DUP4 PUSH20 0xFFFFFFFFFFFFFFFFFFFFFFFFFFFFFFFFFFFFFFFF AND MUL OR SWAP1 SSTORE POP PUSH1 0x20 DUP3 ADD MLOAD DUP2 PUSH1 0x1 ADD PUSH1 0x0 PUSH2 0x100 EXP DUP2 SLOAD DUP2 PUSH20 0xFFFFFFFFFFFFFFFFFFFFFFFFFFFFFFFFFFFFFFFF MUL NOT AND SWAP1 DUP4 PUSH20 0xFFFFFFFFFFFFFFFFFFFFFFFFFFFFFFFFFFFFFFFF AND MUL OR SWAP1 SSTORE POP PUSH1 0x40 DUP3 ADD MLOAD DUP2 PUSH1 0x2 ADD SWAP1 DUP1 MLOAD SWAP1 PUSH1 0x20 ADD SWAP1 PUSH2 0x2CFF SWAP3 SWAP2 SWAP1 PUSH2 0x6643 JUMP JUMPDEST POP SWAP1 POP POP DUP2 PUSH8 0xFFFFFFFFFFFFFFFF AND PUSH32 0x464722B4166576D3DCBBA877B999BC35CF911F4EAF434B7EBA68FA113951D0BF CALLER PUSH1 0x40 MLOAD PUSH2 0x2D3D SWAP2 SWAP1 PUSH2 0x7937 JUMP JUMPDEST PUSH1 0x40 MLOAD DUP1 SWAP2 SUB SWAP1 LOG2 DUP2 SWAP3 POP POP POP SWAP1 JUMP JUMPDEST PUSH1 0x0 DUP1 PUSH1 0x0 PUSH1 0x60 PUSH1 0x0 PUSH20 0xFFFFFFFFFFFFFFFFFFFFFFFFFFFFFFFFFFFFFFFF AND PUSH1 0x3 PUSH1 0x0 DUP8 PUSH8 0xFFFFFFFFFFFFFFFF AND PUSH8 0xFFFFFFFFFFFFFFFF AND DUP2 MSTORE PUSH1 0x20 ADD SWAP1 DUP2 MSTORE PUSH1 0x20 ADD PUSH1 0x0 KECCAK256 PUSH1 0x0 ADD PUSH1 0x0 SWAP1 SLOAD SWAP1 PUSH2 0x100 EXP SWAP1 DIV PUSH20 0xFFFFFFFFFFFFFFFFFFFFFFFFFFFFFFFFFFFFFFFF AND PUSH20 0xFFFFFFFFFFFFFFFFFFFFFFFFFFFFFFFFFFFFFFFF AND EQ ISZERO PUSH2 0x2E05 JUMPI PUSH1 0x40 MLOAD PUSH32 0x1F6A65B600000000000000000000000000000000000000000000000000000000 DUP2 MSTORE PUSH1 0x4 ADD PUSH1 0x40 MLOAD DUP1 SWAP2 SUB SWAP1 REVERT JUMPDEST PUSH1 0x4 PUSH1 0x0 DUP7 PUSH8 0xFFFFFFFFFFFFFFFF AND PUSH8 0xFFFFFFFFFFFFFFFF AND DUP2 MSTORE PUSH1 0x20 ADD SWAP1 DUP2 MSTORE PUSH1 0x20 ADD PUSH1 0x0 KECCAK256 PUSH1 0x0 ADD PUSH1 0x0 SWAP1 SLOAD SWAP1 PUSH2 0x100 EXP SWAP1 DIV PUSH12 0xFFFFFFFFFFFFFFFFFFFFFFFF AND PUSH1 0x4 PUSH1 0x0 DUP8 PUSH8 0xFFFFFFFFFFFFFFFF AND PUSH8 0xFFFFFFFFFFFFFFFF AND DUP2 MSTORE PUSH1 0x20 ADD SWAP1 DUP2 MSTORE PUSH1 0x20 ADD PUSH1 0x0 KECCAK256 PUSH1 0x0 ADD PUSH1 0xC SWAP1 SLOAD SWAP1 PUSH2 0x100 EXP SWAP1 DIV PUSH8 0xFFFFFFFFFFFFFFFF AND PUSH1 0x3 PUSH1 0x0 DUP9 PUSH8 0xFFFFFFFFFFFFFFFF AND PUSH8 0xFFFFFFFFFFFFFFFF AND DUP2 MSTORE PUSH1 0x20 ADD SWAP1 DUP2 MSTORE PUSH1 0x20 ADD PUSH1 0x0 KECCAK256 PUSH1 0x0 ADD PUSH1 0x0 SWAP1 SLOAD SWAP1 PUSH2 0x100 EXP SWAP1 DIV PUSH20 0xFFFFFFFFFFFFFFFFFFFFFFFFFFFFFFFFFFFFFFFF AND PUSH1 0x3 PUSH1 0x0 DUP10 PUSH8 0xFFFFFFFFFFFFFFFF AND PUSH8 0xFFFFFFFFFFFFFFFF AND DUP2 MSTORE PUSH1 0x20 ADD SWAP1 DUP2 MSTORE PUSH1 0x20 ADD PUSH1 0x0 KECCAK256 PUSH1 0x2 ADD DUP1 DUP1 SLOAD DUP1 PUSH1 0x20 MUL PUSH1 0x20 ADD PUSH1 0x40 MLOAD SWAP1 DUP2 ADD PUSH1 0x40 MSTORE DUP1 SWAP3 SWAP2 SWAP1 DUP2 DUP2 MSTORE PUSH1 0x20 ADD DUP3 DUP1 SLOAD DUP1 ISZERO PUSH2 0x2F7D JUMPI PUSH1 0x20 MUL DUP3 ADD SWAP2 SWAP1 PUSH1 0x0 MSTORE PUSH1 0x20 PUSH1 0x0 KECCAK256 SWAP1 JUMPDEST DUP2 PUSH1 0x0 SWAP1 SLOAD SWAP1 PUSH2 0x100 EXP SWAP1 DIV PUSH20 0xFFFFFFFFFFFFFFFFFFFFFFFFFFFFFFFFFFFFFFFF AND PUSH20 0xFFFFFFFFFFFFFFFFFFFFFFFFFFFFFFFFFFFFFFFF AND DUP2 MSTORE PUSH1 0x20 ADD SWAP1 PUSH1 0x1 ADD SWAP1 DUP1 DUP4 GT PUSH2 0x2F33 JUMPI JUMPDEST POP POP POP POP POP SWAP1 POP SWAP4 POP SWAP4 POP SWAP4 POP SWAP4 POP SWAP2 SWAP4 POP SWAP2 SWAP4 JUMP JUMPDEST PUSH1 0xB PUSH1 0x0 ADD PUSH1 0x6 SWAP1 SLOAD SWAP1 PUSH2 0x100 EXP SWAP1 DIV PUSH1 0xFF AND ISZERO PUSH2 0x2FDD JUMPI PUSH1 0x40 MLOAD PUSH32 0xED3BA6A600000000000000000000000000000000000000000000000000000000 DUP2 MSTORE PUSH1 0x4 ADD PUSH1 0x40 MLOAD DUP1 SWAP2 SUB SWAP1 REVERT JUMPDEST PUSH32 0x0 PUSH20 0xFFFFFFFFFFFFFFFFFFFFFFFFFFFFFFFFFFFFFFFF AND CALLER PUSH20 0xFFFFFFFFFFFFFFFFFFFFFFFFFFFFFFFFFFFFFFFF AND EQ PUSH2 0x3062 JUMPI PUSH1 0x40 MLOAD PUSH32 0x44B0E3C300000000000000000000000000000000000000000000000000000000 DUP2 MSTORE PUSH1 0x4 ADD PUSH1 0x40 MLOAD DUP1 SWAP2 SUB SWAP1 REVERT JUMPDEST PUSH1 0x20 DUP3 DUP3 SWAP1 POP EQ PUSH2 0x309F JUMPI PUSH1 0x40 MLOAD PUSH32 0x8129BBCD00000000000000000000000000000000000000000000000000000000 DUP2 MSTORE PUSH1 0x4 ADD PUSH1 0x40 MLOAD DUP1 SWAP2 SUB SWAP1 REVERT JUMPDEST PUSH1 0x0 DUP3 DUP3 DUP2 ADD SWAP1 PUSH2 0x30B0 SWAP2 SWAP1 PUSH2 0x6F69 JUMP JUMPDEST SWAP1 POP PUSH1 0x0 PUSH20 0xFFFFFFFFFFFFFFFFFFFFFFFFFFFFFFFFFFFFFFFF AND PUSH1 0x3 PUSH1 0x0 DUP4 PUSH8 0xFFFFFFFFFFFFFFFF AND PUSH8 0xFFFFFFFFFFFFFFFF AND DUP2 MSTORE PUSH1 0x20 ADD SWAP1 DUP2 MSTORE PUSH1 0x20 ADD PUSH1 0x0 KECCAK256 PUSH1 0x0 ADD PUSH1 0x0 SWAP1 SLOAD SWAP1 PUSH2 0x100 EXP SWAP1 DIV PUSH20 0xFFFFFFFFFFFFFFFFFFFFFFFFFFFFFFFFFFFFFFFF AND PUSH20 0xFFFFFFFFFFFFFFFFFFFFFFFFFFFFFFFFFFFFFFFF AND EQ ISZERO PUSH2 0x3163 JUMPI PUSH1 0x40 MLOAD PUSH32 0x1F6A65B600000000000000000000000000000000000000000000000000000000 DUP2 MSTORE PUSH1 0x4 ADD PUSH1 0x40 MLOAD DUP1 SWAP2 SUB SWAP1 REVERT JUMPDEST PUSH1 0x0 PUSH1 0x4 PUSH1 0x0 DUP4 PUSH8 0xFFFFFFFFFFFFFFFF AND PUSH8 0xFFFFFFFFFFFFFFFF AND DUP2 MSTORE PUSH1 0x20 ADD SWAP1 DUP2 MSTORE PUSH1 0x20 ADD PUSH1 0x0 KECCAK256 PUSH1 0x0 ADD PUSH1 0x0 SWAP1 SLOAD SWAP1 PUSH2 0x100 EXP SWAP1 DIV PUSH12 0xFFFFFFFFFFFFFFFFFFFFFFFF AND PUSH12 0xFFFFFFFFFFFFFFFFFFFFFFFF AND SWAP1 POP DUP5 PUSH1 0x4 PUSH1 0x0 DUP5 PUSH8 0xFFFFFFFFFFFFFFFF AND PUSH8 0xFFFFFFFFFFFFFFFF AND DUP2 MSTORE PUSH1 0x20 ADD SWAP1 DUP2 MSTORE PUSH1 0x20 ADD PUSH1 0x0 KECCAK256 PUSH1 0x0 ADD PUSH1 0x0 DUP3 DUP3 DUP3 SWAP1 SLOAD SWAP1 PUSH2 0x100 EXP SWAP1 DIV PUSH12 0xFFFFFFFFFFFFFFFFFFFFFFFF AND PUSH2 0x3209 SWAP2 SWAP1 PUSH2 0x847D JUMP JUMPDEST SWAP3 POP PUSH2 0x100 EXP DUP2 SLOAD DUP2 PUSH12 0xFFFFFFFFFFFFFFFFFFFFFFFF MUL NOT AND SWAP1 DUP4 PUSH12 0xFFFFFFFFFFFFFFFFFFFFFFFF AND MUL OR SWAP1 SSTORE POP DUP5 PUSH1 0x5 PUSH1 0x8 DUP3 DUP3 DUP3 SWAP1 SLOAD SWAP1 PUSH2 0x100 EXP SWAP1 DIV PUSH12 0xFFFFFFFFFFFFFFFFFFFFFFFF AND PUSH2 0x3260 SWAP2 SWAP1 PUSH2 0x847D JUMP JUMPDEST SWAP3 POP PUSH2 0x100 EXP DUP2 SLOAD DUP2 PUSH12 0xFFFFFFFFFFFFFFFFFFFFFFFF MUL NOT AND SWAP1 DUP4 PUSH12 0xFFFFFFFFFFFFFFFFFFFFFFFF AND MUL OR SWAP1 SSTORE POP DUP2 PUSH8 0xFFFFFFFFFFFFFFFF AND PUSH32 0xD39EC07F4E209F627A4C427971473820DC129761BA28DE8906BD56F57101D4F8 DUP3 DUP8 DUP5 PUSH2 0x32C7 SWAP2 SWAP1 PUSH2 0x83E9 JUMP JUMPDEST PUSH1 0x40 MLOAD PUSH2 0x32D5 SWAP3 SWAP2 SWAP1 PUSH2 0x7F6C JUMP JUMPDEST PUSH1 0x40 MLOAD DUP1 SWAP2 SUB SWAP1 LOG2 POP POP POP POP POP POP JUMP JUMPDEST PUSH32 0x0 DUP2 JUMP JUMPDEST PUSH1 0x0 PUSH1 0xB PUSH1 0x0 ADD PUSH1 0x6 SWAP1 SLOAD SWAP1 PUSH2 0x100 EXP SWAP1 DIV PUSH1 0xFF AND ISZERO PUSH2 0x3355 JUMPI PUSH1 0x40 MLOAD PUSH32 0xED3BA6A600000000000000000000000000000000000000000000000000000000 DUP2 MSTORE PUSH1 0x4 ADD PUSH1 0x40 MLOAD DUP1 SWAP2 SUB SWAP1 REVERT JUMPDEST PUSH1 0x0 GAS SWAP1 POP PUSH1 0x0 DUP1 PUSH1 0x0 PUSH2 0x3369 DUP8 DUP8 PUSH2 0x4989 JUMP JUMPDEST SWAP3 POP SWAP3 POP SWAP3 POP PUSH1 0x0 DUP7 PUSH1 0x60 ADD MLOAD PUSH4 0xFFFFFFFF AND PUSH8 0xFFFFFFFFFFFFFFFF DUP2 GT ISZERO PUSH2 0x3395 JUMPI PUSH2 0x3394 PUSH2 0x8A26 JUMP JUMPDEST JUMPDEST PUSH1 0x40 MLOAD SWAP1 DUP1 DUP3 MSTORE DUP1 PUSH1 0x20 MUL PUSH1 0x20 ADD DUP3 ADD PUSH1 0x40 MSTORE DUP1 ISZERO PUSH2 0x33C3 JUMPI DUP2 PUSH1 0x20 ADD PUSH1 0x20 DUP3 MUL DUP1 CALLDATASIZE DUP4 CALLDATACOPY DUP1 DUP3 ADD SWAP2 POP POP SWAP1 POP JUMPDEST POP SWAP1 POP PUSH1 0x0 JUMPDEST DUP8 PUSH1 0x60 ADD MLOAD PUSH4 0xFFFFFFFF AND DUP2 LT ISZERO PUSH2 0x3439 JUMPI DUP3 DUP2 PUSH1 0x40 MLOAD PUSH1 0x20 ADD PUSH2 0x33EE SWAP3 SWAP2 SWAP1 PUSH2 0x7F6C JUMP JUMPDEST PUSH1 0x40 MLOAD PUSH1 0x20 DUP2 DUP4 SUB SUB DUP2 MSTORE SWAP1 PUSH1 0x40 MSTORE DUP1 MLOAD SWAP1 PUSH1 0x20 ADD KECCAK256 PUSH1 0x0 SHR DUP3 DUP3 DUP2 MLOAD DUP2 LT PUSH2 0x341A JUMPI PUSH2 0x3419 PUSH2 0x89F7 JUMP JUMPDEST JUMPDEST PUSH1 0x20 MUL PUSH1 0x20 ADD ADD DUP2 DUP2 MSTORE POP POP DUP1 DUP1 PUSH2 0x3431 SWAP1 PUSH2 0x8887 JUMP JUMPDEST SWAP2 POP POP PUSH2 0x33C9 JUMP JUMPDEST POP PUSH1 0x9 PUSH1 0x0 DUP5 DUP2 MSTORE PUSH1 0x20 ADD SWAP1 DUP2 MSTORE PUSH1 0x20 ADD PUSH1 0x0 KECCAK256 PUSH1 0x0 SWAP1 SSTORE PUSH1 0x0 DUP1 PUSH4 0x1FE543E3 PUSH1 0xE0 SHL DUP6 DUP5 PUSH1 0x40 MLOAD PUSH1 0x24 ADD PUSH2 0x346F SWAP3 SWAP2 SWAP1 PUSH2 0x7F3C JUMP JUMPDEST PUSH1 0x40 MLOAD PUSH1 0x20 DUP2 DUP4 SUB SUB DUP2 MSTORE SWAP1 PUSH1 0x40 MSTORE SWAP1 PUSH28 0xFFFFFFFFFFFFFFFFFFFFFFFFFFFFFFFFFFFFFFFFFFFFFFFFFFFFFFFF NOT AND PUSH1 0x20 DUP3 ADD DUP1 MLOAD PUSH28 0xFFFFFFFFFFFFFFFFFFFFFFFFFFFFFFFFFFFFFFFFFFFFFFFFFFFFFFFF DUP4 DUP2 DUP4 AND OR DUP4 MSTORE POP POP POP POP SWAP1 POP PUSH1 0x1 PUSH1 0xB PUSH1 0x0 ADD PUSH1 0x6 PUSH2 0x100 EXP DUP2 SLOAD DUP2 PUSH1 0xFF MUL NOT AND SWAP1 DUP4 ISZERO ISZERO MUL OR SWAP1 SSTORE POP PUSH1 0x0 PUSH2 0x3507 DUP11 PUSH1 0x40 ADD MLOAD PUSH4 0xFFFFFFFF AND DUP12 PUSH1 0x80 ADD MLOAD DUP5 PUSH2 0x4CAE JUMP JUMPDEST SWAP1 POP PUSH1 0x0 PUSH1 0xB PUSH1 0x0 ADD PUSH1 0x6 PUSH2 0x100 EXP DUP2 SLOAD DUP2 PUSH1 0xFF MUL NOT AND SWAP1 DUP4 ISZERO ISZERO MUL OR SWAP1 SSTORE POP PUSH1 0x0 PUSH1 0x4 PUSH1 0x0 DUP13 PUSH1 0x20 ADD MLOAD PUSH8 0xFFFFFFFFFFFFFFFF AND PUSH8 0xFFFFFFFFFFFFFFFF AND DUP2 MSTORE PUSH1 0x20 ADD SWAP1 DUP2 MSTORE PUSH1 0x20 ADD PUSH1 0x0 KECCAK256 PUSH1 0x0 ADD PUSH1 0xC SWAP1 SLOAD SWAP1 PUSH2 0x100 EXP SWAP1 DIV PUSH8 0xFFFFFFFFFFFFFFFF AND SWAP1 POP PUSH1 0x1 PUSH1 0x4 PUSH1 0x0 DUP14 PUSH1 0x20 ADD MLOAD PUSH8 0xFFFFFFFFFFFFFFFF AND PUSH8 0xFFFFFFFFFFFFFFFF AND DUP2 MSTORE PUSH1 0x20 ADD SWAP1 DUP2 MSTORE PUSH1 0x20 ADD PUSH1 0x0 KECCAK256 PUSH1 0x0 ADD PUSH1 0xC DUP3 DUP3 DUP3 SWAP1 SLOAD SWAP1 PUSH2 0x100 EXP SWAP1 DIV PUSH8 0xFFFFFFFFFFFFFFFF AND PUSH2 0x35C0 SWAP2 SWAP1 PUSH2 0x843F JUMP JUMPDEST SWAP3 POP PUSH2 0x100 EXP DUP2 SLOAD DUP2 PUSH8 0xFFFFFFFFFFFFFFFF MUL NOT AND SWAP1 DUP4 PUSH8 0xFFFFFFFFFFFFFFFF AND MUL OR SWAP1 SSTORE POP PUSH1 0x0 PUSH2 0x3617 DUP11 PUSH1 0xB PUSH1 0x0 ADD PUSH1 0xB SWAP1 SLOAD SWAP1 PUSH2 0x100 EXP SWAP1 DIV PUSH4 0xFFFFFFFF AND PUSH4 0xFFFFFFFF AND PUSH2 0x3611 DUP6 PUSH2 0x38E8 JUMP JUMPDEST GASPRICE PUSH2 0x4CFB JUMP JUMPDEST SWAP1 POP DUP1 PUSH12 0xFFFFFFFFFFFFFFFFFFFFFFFF AND PUSH1 0x4 PUSH1 0x0 DUP15 PUSH1 0x20 ADD MLOAD PUSH8 0xFFFFFFFFFFFFFFFF AND PUSH8 0xFFFFFFFFFFFFFFFF AND DUP2 MSTORE PUSH1 0x20 ADD SWAP1 DUP2 MSTORE PUSH1 0x20 ADD PUSH1 0x0 KECCAK256 PUSH1 0x0 ADD PUSH1 0x0 SWAP1 SLOAD SWAP1 PUSH2 0x100 EXP SWAP1 DIV PUSH12 0xFFFFFFFFFFFFFFFFFFFFFFFF AND PUSH12 0xFFFFFFFFFFFFFFFFFFFFFFFF AND LT ISZERO PUSH2 0x36B5 JUMPI PUSH1 0x40 MLOAD PUSH32 0xF4D678B800000000000000000000000000000000000000000000000000000000 DUP2 MSTORE PUSH1 0x4 ADD PUSH1 0x40 MLOAD DUP1 SWAP2 SUB SWAP1 REVERT JUMPDEST DUP1 PUSH1 0x4 PUSH1 0x0 DUP15 PUSH1 0x20 ADD MLOAD PUSH8 0xFFFFFFFFFFFFFFFF AND PUSH8 0xFFFFFFFFFFFFFFFF AND DUP2 MSTORE PUSH1 0x20 ADD SWAP1 DUP2 MSTORE PUSH1 0x20 ADD PUSH1 0x0 KECCAK256 PUSH1 0x0 ADD PUSH1 0x0 DUP3 DUP3 DUP3 SWAP1 SLOAD SWAP1 PUSH2 0x100 EXP SWAP1 DIV PUSH12 0xFFFFFFFFFFFFFFFFFFFFFFFF AND PUSH2 0x370A SWAP2 SWAP1 PUSH2 0x857E JUMP JUMPDEST SWAP3 POP PUSH2 0x100 EXP DUP2 SLOAD DUP2 PUSH12 0xFFFFFFFFFFFFFFFFFFFFFFFF MUL NOT AND SWAP1 DUP4 PUSH12 0xFFFFFFFFFFFFFFFFFFFFFFFF AND MUL OR SWAP1 SSTORE POP DUP1 PUSH1 0x8 PUSH1 0x0 PUSH1 0x6 PUSH1 0x0 DUP14 DUP2 MSTORE PUSH1 0x20 ADD SWAP1 DUP2 MSTORE PUSH1 0x20 ADD PUSH1 0x0 KECCAK256 PUSH1 0x0 SWAP1 SLOAD SWAP1 PUSH2 0x100 EXP SWAP1 DIV PUSH20 0xFFFFFFFFFFFFFFFFFFFFFFFFFFFFFFFFFFFFFFFF AND PUSH20 0xFFFFFFFFFFFFFFFFFFFFFFFFFFFFFFFFFFFFFFFF AND PUSH20 0xFFFFFFFFFFFFFFFFFFFFFFFFFFFFFFFFFFFFFFFF AND DUP2 MSTORE PUSH1 0x20 ADD SWAP1 DUP2 MSTORE PUSH1 0x20 ADD PUSH1 0x0 KECCAK256 PUSH1 0x0 DUP3 DUP3 DUP3 SWAP1 SLOAD SWAP1 PUSH2 0x100 EXP SWAP1 DIV PUSH12 0xFFFFFFFFFFFFFFFFFFFFFFFF AND PUSH2 0x37D1 SWAP2 SWAP1 PUSH2 0x847D JUMP JUMPDEST SWAP3 POP PUSH2 0x100 EXP DUP2 SLOAD DUP2 PUSH12 0xFFFFFFFFFFFFFFFFFFFFFFFF MUL NOT AND SWAP1 DUP4 PUSH12 0xFFFFFFFFFFFFFFFFFFFFFFFF AND MUL OR SWAP1 SSTORE POP DUP8 PUSH32 0x7DFFC5AE5EE4E2E4DF1651CF6AD329A73CEBDB728F37EA0187B9B17E036756E4 DUP9 DUP4 DUP7 PUSH1 0x40 MLOAD PUSH2 0x3833 SWAP4 SWAP3 SWAP2 SWAP1 PUSH2 0x80AA JUMP JUMPDEST PUSH1 0x40 MLOAD DUP1 SWAP2 SUB SWAP1 LOG2 DUP1 SWAP11 POP POP POP POP POP POP POP POP POP POP POP SWAP3 SWAP2 POP POP JUMP JUMPDEST PUSH1 0x0 DUP1 PUSH1 0x0 DUP1 PUSH1 0xB PUSH1 0x0 ADD PUSH1 0x0 SWAP1 SLOAD SWAP1 PUSH2 0x100 EXP SWAP1 DIV PUSH2 0xFFFF AND PUSH1 0xB PUSH1 0x0 ADD PUSH1 0x2 SWAP1 SLOAD SWAP1 PUSH2 0x100 EXP SWAP1 DIV PUSH4 0xFFFFFFFF AND PUSH1 0xB PUSH1 0x0 ADD PUSH1 0x7 SWAP1 SLOAD SWAP1 PUSH2 0x100 EXP SWAP1 DIV PUSH4 0xFFFFFFFF AND PUSH1 0xB PUSH1 0x0 ADD PUSH1 0xB SWAP1 SLOAD SWAP1 PUSH2 0x100 EXP SWAP1 DIV PUSH4 0xFFFFFFFF AND SWAP4 POP SWAP4 POP SWAP4 POP SWAP4 POP SWAP1 SWAP2 SWAP3 SWAP4 JUMP JUMPDEST PUSH1 0x0 DUP2 PUSH1 0x40 MLOAD PUSH1 0x20 ADD PUSH2 0x38CB SWAP2 SWAP1 PUSH2 0x79CD JUMP JUMPDEST PUSH1 0x40 MLOAD PUSH1 0x20 DUP2 DUP4 SUB SUB DUP2 MSTORE SWAP1 PUSH1 0x40 MSTORE DUP1 MLOAD SWAP1 PUSH1 0x20 ADD KECCAK256 SWAP1 POP SWAP2 SWAP1 POP JUMP JUMPDEST PUSH1 0x0 DUP1 PUSH1 0xC PUSH1 0x40 MLOAD DUP1 PUSH2 0x120 ADD PUSH1 0x40 MSTORE SWAP1 DUP2 PUSH1 0x0 DUP3 ADD PUSH1 0x0 SWAP1 SLOAD SWAP1 PUSH2 0x100 EXP SWAP1 DIV PUSH4 0xFFFFFFFF AND PUSH4 0xFFFFFFFF AND PUSH4 0xFFFFFFFF AND DUP2 MSTORE PUSH1 0x20 ADD PUSH1 0x0 DUP3 ADD PUSH1 0x4 SWAP1 SLOAD SWAP1 PUSH2 0x100 EXP SWAP1 DIV PUSH4 0xFFFFFFFF AND PUSH4 0xFFFFFFFF AND PUSH4 0xFFFFFFFF AND DUP2 MSTORE PUSH1 0x20 ADD PUSH1 0x0 DUP3 ADD PUSH1 0x8 SWAP1 SLOAD SWAP1 PUSH2 0x100 EXP SWAP1 DIV PUSH4 0xFFFFFFFF AND PUSH4 0xFFFFFFFF AND PUSH4 0xFFFFFFFF AND DUP2 MSTORE PUSH1 0x20 ADD PUSH1 0x0 DUP3 ADD PUSH1 0xC SWAP1 SLOAD SWAP1 PUSH2 0x100 EXP SWAP1 DIV PUSH4 0xFFFFFFFF AND PUSH4 0xFFFFFFFF AND PUSH4 0xFFFFFFFF AND DUP2 MSTORE PUSH1 0x20 ADD PUSH1 0x0 DUP3 ADD PUSH1 0x10 SWAP1 SLOAD SWAP1 PUSH2 0x100 EXP SWAP1 DIV PUSH4 0xFFFFFFFF AND PUSH4 0xFFFFFFFF AND PUSH4 0xFFFFFFFF AND DUP2 MSTORE PUSH1 0x20 ADD PUSH1 0x0 DUP3 ADD PUSH1 0x14 SWAP1 SLOAD SWAP1 PUSH2 0x100 EXP SWAP1 DIV PUSH3 0xFFFFFF AND PUSH3 0xFFFFFF AND PUSH3 0xFFFFFF AND DUP2 MSTORE PUSH1 0x20 ADD PUSH1 0x0 DUP3 ADD PUSH1 0x17 SWAP1 SLOAD SWAP1 PUSH2 0x100 EXP SWAP1 DIV PUSH3 0xFFFFFF AND PUSH3 0xFFFFFF AND PUSH3 0xFFFFFF AND DUP2 MSTORE PUSH1 0x20 ADD PUSH1 0x0 DUP3 ADD PUSH1 0x1A SWAP1 SLOAD SWAP1 PUSH2 0x100 EXP SWAP1 DIV PUSH3 0xFFFFFF AND PUSH3 0xFFFFFF AND PUSH3 0xFFFFFF AND DUP2 MSTORE PUSH1 0x20 ADD PUSH1 0x0 DUP3 ADD PUSH1 0x1D SWAP1 SLOAD SWAP1 PUSH2 0x100 EXP SWAP1 DIV PUSH3 0xFFFFFF AND PUSH3 0xFFFFFF AND PUSH3 0xFFFFFF AND DUP2 MSTORE POP POP SWAP1 POP DUP3 PUSH8 0xFFFFFFFFFFFFFFFF AND PUSH1 0x0 GT ISZERO DUP1 ISZERO PUSH2 0x3A73 JUMPI POP DUP1 PUSH1 0xA0 ADD MLOAD PUSH3 0xFFFFFF AND DUP4 PUSH8 0xFFFFFFFFFFFFFFFF AND GT ISZERO JUMPDEST ISZERO PUSH2 0x3A85 JUMPI DUP1 PUSH1 0x0 ADD MLOAD SWAP2 POP POP PUSH2 0x3B64 JUMP JUMPDEST DUP3 PUSH8 0xFFFFFFFFFFFFFFFF AND DUP2 PUSH1 0xA0 ADD MLOAD PUSH3 0xFFFFFF AND LT DUP1 ISZERO PUSH2 0x3ABA JUMPI POP DUP1 PUSH1 0xC0 ADD MLOAD PUSH3 0xFFFFFF AND DUP4 PUSH8 0xFFFFFFFFFFFFFFFF AND GT ISZERO JUMPDEST ISZERO PUSH2 0x3ACC JUMPI DUP1 PUSH1 0x20 ADD MLOAD SWAP2 POP POP PUSH2 0x3B64 JUMP JUMPDEST DUP3 PUSH8 0xFFFFFFFFFFFFFFFF AND DUP2 PUSH1 0xC0 ADD MLOAD PUSH3 0xFFFFFF AND LT DUP1 ISZERO PUSH2 0x3B01 JUMPI POP DUP1 PUSH1 0xE0 ADD MLOAD PUSH3 0xFFFFFF AND DUP4 PUSH8 0xFFFFFFFFFFFFFFFF AND GT ISZERO JUMPDEST ISZERO PUSH2 0x3B13 JUMPI DUP1 PUSH1 0x40 ADD MLOAD SWAP2 POP POP PUSH2 0x3B64 JUMP JUMPDEST DUP3 PUSH8 0xFFFFFFFFFFFFFFFF AND DUP2 PUSH1 0xE0 ADD MLOAD PUSH3 0xFFFFFF AND LT DUP1 ISZERO PUSH2 0x3B49 JUMPI POP DUP1 PUSH2 0x100 ADD MLOAD PUSH3 0xFFFFFF AND DUP4 PUSH8 0xFFFFFFFFFFFFFFFF AND GT ISZERO JUMPDEST ISZERO PUSH2 0x3B5B JUMPI DUP1 PUSH1 0x60 ADD MLOAD SWAP2 POP POP PUSH2 0x3B64 JUMP JUMPDEST DUP1 PUSH1 0x80 ADD MLOAD SWAP2 POP POP JUMPDEST SWAP2 SWAP1 POP JUMP JUMPDEST DUP2 PUSH1 0x0 PUSH1 0x3 PUSH1 0x0 DUP4 PUSH8 0xFFFFFFFFFFFFFFFF AND PUSH8 0xFFFFFFFFFFFFFFFF AND DUP2 MSTORE PUSH1 0x20 ADD SWAP1 DUP2 MSTORE PUSH1 0x20 ADD PUSH1 0x0 KECCAK256 PUSH1 0x0 ADD PUSH1 0x0 SWAP1 SLOAD SWAP1 PUSH2 0x100 EXP SWAP1 DIV PUSH20 0xFFFFFFFFFFFFFFFFFFFFFFFFFFFFFFFFFFFFFFFF AND SWAP1 POP PUSH1 0x0 PUSH20 0xFFFFFFFFFFFFFFFFFFFFFFFFFFFFFFFFFFFFFFFF AND DUP2 PUSH20 0xFFFFFFFFFFFFFFFFFFFFFFFFFFFFFFFFFFFFFFFF AND EQ ISZERO PUSH2 0x3C20 JUMPI PUSH1 0x40 MLOAD PUSH32 0x1F6A65B600000000000000000000000000000000000000000000000000000000 DUP2 MSTORE PUSH1 0x4 ADD PUSH1 0x40 MLOAD DUP1 SWAP2 SUB SWAP1 REVERT JUMPDEST DUP1 PUSH20 0xFFFFFFFFFFFFFFFFFFFFFFFFFFFFFFFFFFFFFFFF AND CALLER PUSH20 0xFFFFFFFFFFFFFFFFFFFFFFFFFFFFFFFFFFFFFFFF AND EQ PUSH2 0x3C90 JUMPI DUP1 PUSH1 0x40 MLOAD PUSH32 0xD8A3FB5200000000000000000000000000000000000000000000000000000000 DUP2 MSTORE PUSH1 0x4 ADD PUSH2 0x3C87 SWAP2 SWAP1 PUSH2 0x7937 JUMP JUMPDEST PUSH1 0x40 MLOAD DUP1 SWAP2 SUB SWAP1 REVERT JUMPDEST PUSH1 0xB PUSH1 0x0 ADD PUSH1 0x6 SWAP1 SLOAD SWAP1 PUSH2 0x100 EXP SWAP1 DIV PUSH1 0xFF AND ISZERO PUSH2 0x3CDA JUMPI PUSH1 0x40 MLOAD PUSH32 0xED3BA6A600000000000000000000000000000000000000000000000000000000 DUP2 MSTORE PUSH1 0x4 ADD PUSH1 0x40 MLOAD DUP1 SWAP2 SUB SWAP1 REVERT JUMPDEST PUSH2 0x3CE3 DUP5 PUSH2 0x3F59 JUMP JUMPDEST ISZERO PUSH2 0x3D1A JUMPI PUSH1 0x40 MLOAD PUSH32 0xB42F66E800000000000000000000000000000000000000000000000000000000 DUP2 MSTORE PUSH1 0x4 ADD PUSH1 0x40 MLOAD DUP1 SWAP2 SUB SWAP1 REVERT JUMPDEST PUSH2 0x3D24 DUP5 DUP5 PUSH2 0x42CF JUMP JUMPDEST POP POP POP POP JUMP JUMPDEST PUSH2 0x3D32 PUSH2 0x423F JUMP JUMPDEST PUSH1 0x0 PUSH32 0x0 PUSH20 0xFFFFFFFFFFFFFFFFFFFFFFFFFFFFFFFFFFFFFFFF AND PUSH4 0x70A08231 ADDRESS PUSH1 0x40 MLOAD DUP3 PUSH4 0xFFFFFFFF AND PUSH1 0xE0 SHL DUP2 MSTORE PUSH1 0x4 ADD PUSH2 0x3D8D SWAP2 SWAP1 PUSH2 0x7937 JUMP JUMPDEST PUSH1 0x20 PUSH1 0x40 MLOAD DUP1 DUP4 SUB DUP2 DUP7 DUP1 EXTCODESIZE ISZERO DUP1 ISZERO PUSH2 0x3DA5 JUMPI PUSH1 0x0 DUP1 REVERT JUMPDEST POP GAS STATICCALL ISZERO DUP1 ISZERO PUSH2 0x3DB9 JUMPI RETURNDATASIZE PUSH1 0x0 DUP1 RETURNDATACOPY RETURNDATASIZE PUSH1 0x0 REVERT JUMPDEST POP POP POP POP PUSH1 0x40 MLOAD RETURNDATASIZE PUSH1 0x1F NOT PUSH1 0x1F DUP3 ADD AND DUP3 ADD DUP1 PUSH1 0x40 MSTORE POP DUP2 ADD SWAP1 PUSH2 0x3DDD SWAP2 SWAP1 PUSH2 0x6F3C JUMP JUMPDEST SWAP1 POP PUSH1 0x0 PUSH1 0x5 PUSH1 0x8 SWAP1 SLOAD SWAP1 PUSH2 0x100 EXP SWAP1 DIV PUSH12 0xFFFFFFFFFFFFFFFFFFFFFFFF AND PUSH12 0xFFFFFFFFFFFFFFFFFFFFFFFF AND SWAP1 POP DUP2 DUP2 GT ISZERO PUSH2 0x3E53 JUMPI DUP1 DUP3 PUSH1 0x40 MLOAD PUSH32 0xA99DA30200000000000000000000000000000000000000000000000000000000 DUP2 MSTORE PUSH1 0x4 ADD PUSH2 0x3E4A SWAP3 SWAP2 SWAP1 PUSH2 0x7F6C JUMP JUMPDEST PUSH1 0x40 MLOAD DUP1 SWAP2 SUB SWAP1 REVERT JUMPDEST DUP2 DUP2 LT ISZERO PUSH2 0x3F54 JUMPI PUSH1 0x0 DUP2 DUP4 PUSH2 0x3E69 SWAP2 SWAP1 PUSH2 0x854A JUMP JUMPDEST SWAP1 POP PUSH32 0x0 PUSH20 0xFFFFFFFFFFFFFFFFFFFFFFFFFFFFFFFFFFFFFFFF AND PUSH4 0xA9059CBB DUP6 DUP4 PUSH1 0x40 MLOAD DUP4 PUSH4 0xFFFFFFFF AND PUSH1 0xE0 SHL DUP2 MSTORE PUSH1 0x4 ADD PUSH2 0x3EC6 SWAP3 SWAP2 SWAP1 PUSH2 0x797B JUMP JUMPDEST PUSH1 0x20 PUSH1 0x40 MLOAD DUP1 DUP4 SUB DUP2 PUSH1 0x0 DUP8 DUP1 EXTCODESIZE ISZERO DUP1 ISZERO PUSH2 0x3EE0 JUMPI PUSH1 0x0 DUP1 REVERT JUMPDEST POP GAS CALL ISZERO DUP1 ISZERO PUSH2 0x3EF4 JUMPI RETURNDATASIZE PUSH1 0x0 DUP1 RETURNDATACOPY RETURNDATASIZE PUSH1 0x0 REVERT JUMPDEST POP POP POP POP PUSH1 0x40 MLOAD RETURNDATASIZE PUSH1 0x1F NOT PUSH1 0x1F DUP3 ADD AND DUP3 ADD DUP1 PUSH1 0x40 MSTORE POP DUP2 ADD SWAP1 PUSH2 0x3F18 SWAP2 SWAP1 PUSH2 0x6D6A JUMP JUMPDEST POP PUSH32 0x59BFC682B673F8CBF945F1E454DF9334834ABF7DFE7F92237CA29ECB9B436600 DUP5 DUP3 PUSH1 0x40 MLOAD PUSH2 0x3F4A SWAP3 SWAP2 SWAP1 PUSH2 0x797B JUMP JUMPDEST PUSH1 0x40 MLOAD DUP1 SWAP2 SUB SWAP1 LOG1 POP JUMPDEST POP POP POP JUMP JUMPDEST PUSH1 0x0 DUP1 PUSH1 0x3 PUSH1 0x0 DUP5 PUSH8 0xFFFFFFFFFFFFFFFF AND PUSH8 0xFFFFFFFFFFFFFFFF AND DUP2 MSTORE PUSH1 0x20 ADD SWAP1 DUP2 MSTORE PUSH1 0x20 ADD PUSH1 0x0 KECCAK256 PUSH1 0x40 MLOAD DUP1 PUSH1 0x60 ADD PUSH1 0x40 MSTORE SWAP1 DUP2 PUSH1 0x0 DUP3 ADD PUSH1 0x0 SWAP1 SLOAD SWAP1 PUSH2 0x100 EXP SWAP1 DIV PUSH20 0xFFFFFFFFFFFFFFFFFFFFFFFFFFFFFFFFFFFFFFFF AND PUSH20 0xFFFFFFFFFFFFFFFFFFFFFFFFFFFFFFFFFFFFFFFF AND PUSH20 0xFFFFFFFFFFFFFFFFFFFFFFFFFFFFFFFFFFFFFFFF AND DUP2 MSTORE PUSH1 0x20 ADD PUSH1 0x1 DUP3 ADD PUSH1 0x0 SWAP1 SLOAD SWAP1 PUSH2 0x100 EXP SWAP1 DIV PUSH20 0xFFFFFFFFFFFFFFFFFFFFFFFFFFFFFFFFFFFFFFFF AND PUSH20 0xFFFFFFFFFFFFFFFFFFFFFFFFFFFFFFFFFFFFFFFF AND PUSH20 0xFFFFFFFFFFFFFFFFFFFFFFFFFFFFFFFFFFFFFFFF AND DUP2 MSTORE PUSH1 0x20 ADD PUSH1 0x2 DUP3 ADD DUP1 SLOAD DUP1 PUSH1 0x20 MUL PUSH1 0x20 ADD PUSH1 0x40 MLOAD SWAP1 DUP2 ADD PUSH1 0x40 MSTORE DUP1 SWAP3 SWAP2 SWAP1 DUP2 DUP2 MSTORE PUSH1 0x20 ADD DUP3 DUP1 SLOAD DUP1 ISZERO PUSH2 0x40BF JUMPI PUSH1 0x20 MUL DUP3 ADD SWAP2 SWAP1 PUSH1 0x0 MSTORE PUSH1 0x20 PUSH1 0x0 KECCAK256 SWAP1 JUMPDEST DUP2 PUSH1 0x0 SWAP1 SLOAD SWAP1 PUSH2 0x100 EXP SWAP1 DIV PUSH20 0xFFFFFFFFFFFFFFFFFFFFFFFFFFFFFFFFFFFFFFFF AND PUSH20 0xFFFFFFFFFFFFFFFFFFFFFFFFFFFFFFFFFFFFFFFF AND DUP2 MSTORE PUSH1 0x20 ADD SWAP1 PUSH1 0x1 ADD SWAP1 DUP1 DUP4 GT PUSH2 0x4075 JUMPI JUMPDEST POP POP POP POP POP DUP2 MSTORE POP POP SWAP1 POP PUSH1 0x0 JUMPDEST DUP2 PUSH1 0x40 ADD MLOAD MLOAD DUP2 LT ISZERO PUSH2 0x421F JUMPI PUSH1 0x0 JUMPDEST PUSH1 0x7 DUP1 SLOAD SWAP1 POP DUP2 LT ISZERO PUSH2 0x420B JUMPI PUSH1 0x0 PUSH2 0x41CA PUSH1 0x7 DUP4 DUP2 SLOAD DUP2 LT PUSH2 0x4103 JUMPI PUSH2 0x4102 PUSH2 0x89F7 JUMP JUMPDEST JUMPDEST SWAP1 PUSH1 0x0 MSTORE PUSH1 0x20 PUSH1 0x0 KECCAK256 ADD SLOAD DUP6 PUSH1 0x40 ADD MLOAD DUP6 DUP2 MLOAD DUP2 LT PUSH2 0x4125 JUMPI PUSH2 0x4124 PUSH2 0x89F7 JUMP JUMPDEST JUMPDEST PUSH1 0x20 MUL PUSH1 0x20 ADD ADD MLOAD DUP9 PUSH1 0x2 PUSH1 0x0 DUP10 PUSH1 0x40 ADD MLOAD DUP10 DUP2 MLOAD DUP2 LT PUSH2 0x4149 JUMPI PUSH2 0x4148 PUSH2 0x89F7 JUMP JUMPDEST JUMPDEST PUSH1 0x20 MUL PUSH1 0x20 ADD ADD MLOAD PUSH20 0xFFFFFFFFFFFFFFFFFFFFFFFFFFFFFFFFFFFFFFFF AND PUSH20 0xFFFFFFFFFFFFFFFFFFFFFFFFFFFFFFFFFFFFFFFF AND DUP2 MSTORE PUSH1 0x20 ADD SWAP1 DUP2 MSTORE PUSH1 0x20 ADD PUSH1 0x0 KECCAK256 PUSH1 0x0 DUP12 PUSH8 0xFFFFFFFFFFFFFFFF AND PUSH8 0xFFFFFFFFFFFFFFFF AND DUP2 MSTORE PUSH1 0x20 ADD SWAP1 DUP2 MSTORE PUSH1 0x20 ADD PUSH1 0x0 KECCAK256 PUSH1 0x0 SWAP1 SLOAD SWAP1 PUSH2 0x100 EXP SWAP1 DIV PUSH8 0xFFFFFFFFFFFFFFFF AND PUSH2 0x4874 JUMP JUMPDEST POP SWAP1 POP PUSH1 0x0 DUP1 SHL PUSH1 0x9 PUSH1 0x0 DUP4 DUP2 MSTORE PUSH1 0x20 ADD SWAP1 DUP2 MSTORE PUSH1 0x20 ADD PUSH1 0x0 KECCAK256 SLOAD EQ PUSH2 0x41F7 JUMPI PUSH1 0x1 SWAP5 POP POP POP POP POP PUSH2 0x4226 JUMP JUMPDEST POP DUP1 DUP1 PUSH2 0x4203 SWAP1 PUSH2 0x8887 JUMP JUMPDEST SWAP2 POP POP PUSH2 0x40DD JUMP JUMPDEST POP DUP1 DUP1 PUSH2 0x4217 SWAP1 PUSH2 0x8887 JUMP JUMPDEST SWAP2 POP POP PUSH2 0x40CD JUMP JUMPDEST POP PUSH1 0x0 SWAP2 POP POP JUMPDEST SWAP2 SWAP1 POP JUMP JUMPDEST PUSH2 0x4233 PUSH2 0x423F JUMP JUMPDEST PUSH2 0x423C DUP2 PUSH2 0x4E74 JUMP JUMPDEST POP JUMP JUMPDEST PUSH1 0x0 DUP1 SLOAD SWAP1 PUSH2 0x100 EXP SWAP1 DIV PUSH20 0xFFFFFFFFFFFFFFFFFFFFFFFFFFFFFFFFFFFFFFFF AND PUSH20 0xFFFFFFFFFFFFFFFFFFFFFFFFFFFFFFFFFFFFFFFF AND CALLER PUSH20 0xFFFFFFFFFFFFFFFFFFFFFFFFFFFFFFFFFFFFFFFF AND EQ PUSH2 0x42CD JUMPI PUSH1 0x40 MLOAD PUSH32 0x8C379A000000000000000000000000000000000000000000000000000000000 DUP2 MSTORE PUSH1 0x4 ADD PUSH2 0x42C4 SWAP1 PUSH2 0x7BE1 JUMP JUMPDEST PUSH1 0x40 MLOAD DUP1 SWAP2 SUB SWAP1 REVERT JUMPDEST JUMP JUMPDEST PUSH1 0xB PUSH1 0x0 ADD PUSH1 0x6 SWAP1 SLOAD SWAP1 PUSH2 0x100 EXP SWAP1 DIV PUSH1 0xFF AND ISZERO PUSH2 0x4319 JUMPI PUSH1 0x40 MLOAD PUSH32 0xED3BA6A600000000000000000000000000000000000000000000000000000000 DUP2 MSTORE PUSH1 0x4 ADD PUSH1 0x40 MLOAD DUP1 SWAP2 SUB SWAP1 REVERT JUMPDEST PUSH1 0x0 PUSH1 0x3 PUSH1 0x0 DUP5 PUSH8 0xFFFFFFFFFFFFFFFF AND PUSH8 0xFFFFFFFFFFFFFFFF AND DUP2 MSTORE PUSH1 0x20 ADD SWAP1 DUP2 MSTORE PUSH1 0x20 ADD PUSH1 0x0 KECCAK256 PUSH1 0x40 MLOAD DUP1 PUSH1 0x60 ADD PUSH1 0x40 MSTORE SWAP1 DUP2 PUSH1 0x0 DUP3 ADD PUSH1 0x0 SWAP1 SLOAD SWAP1 PUSH2 0x100 EXP SWAP1 DIV PUSH20 0xFFFFFFFFFFFFFFFFFFFFFFFFFFFFFFFFFFFFFFFF AND PUSH20 0xFFFFFFFFFFFFFFFFFFFFFFFFFFFFFFFFFFFFFFFF AND PUSH20 0xFFFFFFFFFFFFFFFFFFFFFFFFFFFFFFFFFFFFFFFF AND DUP2 MSTORE PUSH1 0x20 ADD PUSH1 0x1 DUP3 ADD PUSH1 0x0 SWAP1 SLOAD SWAP1 PUSH2 0x100 EXP SWAP1 DIV PUSH20 0xFFFFFFFFFFFFFFFFFFFFFFFFFFFFFFFFFFFFFFFF AND PUSH20 0xFFFFFFFFFFFFFFFFFFFFFFFFFFFFFFFFFFFFFFFF AND PUSH20 0xFFFFFFFFFFFFFFFFFFFFFFFFFFFFFFFFFFFFFFFF AND DUP2 MSTORE PUSH1 0x20 ADD PUSH1 0x2 DUP3 ADD DUP1 SLOAD DUP1 PUSH1 0x20 MUL PUSH1 0x20 ADD PUSH1 0x40 MLOAD SWAP1 DUP2 ADD PUSH1 0x40 MSTORE DUP1 SWAP3 SWAP2 SWAP1 DUP2 DUP2 MSTORE PUSH1 0x20 ADD DUP3 DUP1 SLOAD DUP1 ISZERO PUSH2 0x447E JUMPI PUSH1 0x20 MUL DUP3 ADD SWAP2 SWAP1 PUSH1 0x0 MSTORE PUSH1 0x20 PUSH1 0x0 KECCAK256 SWAP1 JUMPDEST DUP2 PUSH1 0x0 SWAP1 SLOAD SWAP1 PUSH2 0x100 EXP SWAP1 DIV PUSH20 0xFFFFFFFFFFFFFFFFFFFFFFFFFFFFFFFFFFFFFFFF AND PUSH20 0xFFFFFFFFFFFFFFFFFFFFFFFFFFFFFFFFFFFFFFFF AND DUP2 MSTORE PUSH1 0x20 ADD SWAP1 PUSH1 0x1 ADD SWAP1 DUP1 DUP4 GT PUSH2 0x4434 JUMPI JUMPDEST POP POP POP POP POP DUP2 MSTORE POP POP SWAP1 POP PUSH1 0x0 PUSH1 0x4 PUSH1 0x0 DUP6 PUSH8 0xFFFFFFFFFFFFFFFF AND PUSH8 0xFFFFFFFFFFFFFFFF AND DUP2 MSTORE PUSH1 0x20 ADD SWAP1 DUP2 MSTORE PUSH1 0x20 ADD PUSH1 0x0 KECCAK256 PUSH1 0x40 MLOAD DUP1 PUSH1 0x40 ADD PUSH1 0x40 MSTORE SWAP1 DUP2 PUSH1 0x0 DUP3 ADD PUSH1 0x0 SWAP1 SLOAD SWAP1 PUSH2 0x100 EXP SWAP1 DIV PUSH12 0xFFFFFFFFFFFFFFFFFFFFFFFF AND PUSH12 0xFFFFFFFFFFFFFFFFFFFFFFFF AND PUSH12 0xFFFFFFFFFFFFFFFFFFFFFFFF AND DUP2 MSTORE PUSH1 0x20 ADD PUSH1 0x0 DUP3 ADD PUSH1 0xC SWAP1 SLOAD SWAP1 PUSH2 0x100 EXP SWAP1 DIV PUSH8 0xFFFFFFFFFFFFFFFF AND PUSH8 0xFFFFFFFFFFFFFFFF AND PUSH8 0xFFFFFFFFFFFFFFFF AND DUP2 MSTORE POP POP SWAP1 POP PUSH1 0x0 DUP2 PUSH1 0x0 ADD MLOAD SWAP1 POP PUSH1 0x0 JUMPDEST DUP4 PUSH1 0x40 ADD MLOAD MLOAD DUP2 LT ISZERO PUSH2 0x45F4 JUMPI PUSH1 0x2 PUSH1 0x0 DUP6 PUSH1 0x40 ADD MLOAD DUP4 DUP2 MLOAD DUP2 LT PUSH2 0x4563 JUMPI PUSH2 0x4562 PUSH2 0x89F7 JUMP JUMPDEST JUMPDEST PUSH1 0x20 MUL PUSH1 0x20 ADD ADD MLOAD PUSH20 0xFFFFFFFFFFFFFFFFFFFFFFFFFFFFFFFFFFFFFFFF AND PUSH20 0xFFFFFFFFFFFFFFFFFFFFFFFFFFFFFFFFFFFFFFFF AND DUP2 MSTORE PUSH1 0x20 ADD SWAP1 DUP2 MSTORE PUSH1 0x20 ADD PUSH1 0x0 KECCAK256 PUSH1 0x0 DUP8 PUSH8 0xFFFFFFFFFFFFFFFF AND PUSH8 0xFFFFFFFFFFFFFFFF AND DUP2 MSTORE PUSH1 0x20 ADD SWAP1 DUP2 MSTORE PUSH1 0x20 ADD PUSH1 0x0 KECCAK256 PUSH1 0x0 PUSH2 0x100 EXP DUP2 SLOAD SWAP1 PUSH8 0xFFFFFFFFFFFFFFFF MUL NOT AND SWAP1 SSTORE DUP1 DUP1 PUSH2 0x45EC SWAP1 PUSH2 0x8887 JUMP JUMPDEST SWAP2 POP POP PUSH2 0x453B JUMP JUMPDEST POP PUSH1 0x3 PUSH1 0x0 DUP7 PUSH8 0xFFFFFFFFFFFFFFFF AND PUSH8 0xFFFFFFFFFFFFFFFF AND DUP2 MSTORE PUSH1 0x20 ADD SWAP1 DUP2 MSTORE PUSH1 0x20 ADD PUSH1 0x0 KECCAK256 PUSH1 0x0 DUP1 DUP3 ADD PUSH1 0x0 PUSH2 0x100 EXP DUP2 SLOAD SWAP1 PUSH20 0xFFFFFFFFFFFFFFFFFFFFFFFFFFFFFFFFFFFFFFFF MUL NOT AND SWAP1 SSTORE PUSH1 0x1 DUP3 ADD PUSH1 0x0 PUSH2 0x100 EXP DUP2 SLOAD SWAP1 PUSH20 0xFFFFFFFFFFFFFFFFFFFFFFFFFFFFFFFFFFFFFFFF MUL NOT AND SWAP1 SSTORE PUSH1 0x2 DUP3 ADD PUSH1 0x0 PUSH2 0x467B SWAP2 SWAP1 PUSH2 0x66CD JUMP JUMPDEST POP POP PUSH1 0x4 PUSH1 0x0 DUP7 PUSH8 0xFFFFFFFFFFFFFFFF AND PUSH8 0xFFFFFFFFFFFFFFFF AND DUP2 MSTORE PUSH1 0x20 ADD SWAP1 DUP2 MSTORE PUSH1 0x20 ADD PUSH1 0x0 KECCAK256 PUSH1 0x0 DUP1 DUP3 ADD PUSH1 0x0 PUSH2 0x100 EXP DUP2 SLOAD SWAP1 PUSH12 0xFFFFFFFFFFFFFFFFFFFFFFFF MUL NOT AND SWAP1 SSTORE PUSH1 0x0 DUP3 ADD PUSH1 0xC PUSH2 0x100 EXP DUP2 SLOAD SWAP1 PUSH8 0xFFFFFFFFFFFFFFFF MUL NOT AND SWAP1 SSTORE POP POP DUP1 PUSH1 0x5 PUSH1 0x8 DUP3 DUP3 DUP3 SWAP1 SLOAD SWAP1 PUSH2 0x100 EXP SWAP1 DIV PUSH12 0xFFFFFFFFFFFFFFFFFFFFFFFF AND PUSH2 0x470A SWAP2 SWAP1 PUSH2 0x857E JUMP JUMPDEST SWAP3 POP PUSH2 0x100 EXP DUP2 SLOAD DUP2 PUSH12 0xFFFFFFFFFFFFFFFFFFFFFFFF MUL NOT AND SWAP1 DUP4 PUSH12 0xFFFFFFFFFFFFFFFFFFFFFFFF AND MUL OR SWAP1 SSTORE POP PUSH32 0x0 PUSH20 0xFFFFFFFFFFFFFFFFFFFFFFFFFFFFFFFFFFFFFFFF AND PUSH4 0xA9059CBB DUP6 DUP4 PUSH12 0xFFFFFFFFFFFFFFFFFFFFFFFF AND PUSH1 0x40 MLOAD DUP4 PUSH4 0xFFFFFFFF AND PUSH1 0xE0 SHL DUP2 MSTORE PUSH1 0x4 ADD PUSH2 0x47A1 SWAP3 SWAP2 SWAP1 PUSH2 0x797B JUMP JUMPDEST PUSH1 0x20 PUSH1 0x40 MLOAD DUP1 DUP4 SUB DUP2 PUSH1 0x0 DUP8 DUP1 EXTCODESIZE ISZERO DUP1 ISZERO PUSH2 0x47BB JUMPI PUSH1 0x0 DUP1 REVERT JUMPDEST POP GAS CALL ISZERO DUP1 ISZERO PUSH2 0x47CF JUMPI RETURNDATASIZE PUSH1 0x0 DUP1 RETURNDATACOPY RETURNDATASIZE PUSH1 0x0 REVERT JUMPDEST POP POP POP POP PUSH1 0x40 MLOAD RETURNDATASIZE PUSH1 0x1F NOT PUSH1 0x1F DUP3 ADD AND DUP3 ADD DUP1 PUSH1 0x40 MSTORE POP DUP2 ADD SWAP1 PUSH2 0x47F3 SWAP2 SWAP1 PUSH2 0x6D6A JUMP JUMPDEST PUSH2 0x4829 JUMPI PUSH1 0x40 MLOAD PUSH32 0xF4D678B800000000000000000000000000000000000000000000000000000000 DUP2 MSTORE PUSH1 0x4 ADD PUSH1 0x40 MLOAD DUP1 SWAP2 SUB SWAP1 REVERT JUMPDEST DUP5 PUSH8 0xFFFFFFFFFFFFFFFF AND PUSH32 0xE8ED5B475A5B5987AA9165E8731BB78043F39EEE32EC5A1169A89E27FCD49815 DUP6 DUP4 PUSH1 0x40 MLOAD PUSH2 0x4865 SWAP3 SWAP2 SWAP1 PUSH2 0x79A4 JUMP JUMPDEST PUSH1 0x40 MLOAD DUP1 SWAP2 SUB SWAP1 LOG2 POP POP POP POP POP JUMP JUMPDEST PUSH1 0x0 DUP1 PUSH1 0x0 DUP7 DUP7 DUP7 DUP7 PUSH1 0x40 MLOAD PUSH1 0x20 ADD PUSH2 0x4890 SWAP5 SWAP4 SWAP3 SWAP2 SWAP1 PUSH2 0x7A1E JUMP JUMPDEST PUSH1 0x40 MLOAD PUSH1 0x20 DUP2 DUP4 SUB SUB DUP2 MSTORE SWAP1 PUSH1 0x40 MSTORE DUP1 MLOAD SWAP1 PUSH1 0x20 ADD KECCAK256 PUSH1 0x0 SHR SWAP1 POP DUP7 DUP2 PUSH1 0x40 MLOAD PUSH1 0x20 ADD PUSH2 0x48BE SWAP3 SWAP2 SWAP1 PUSH2 0x7A63 JUMP JUMPDEST PUSH1 0x40 MLOAD PUSH1 0x20 DUP2 DUP4 SUB SUB DUP2 MSTORE SWAP1 PUSH1 0x40 MSTORE DUP1 MLOAD SWAP1 PUSH1 0x20 ADD KECCAK256 PUSH1 0x0 SHR DUP2 SWAP3 POP SWAP3 POP POP SWAP5 POP SWAP5 SWAP3 POP POP POP JUMP JUMPDEST PUSH1 0x0 DUP1 CHAINID SWAP1 POP PUSH2 0x48F5 DUP2 PUSH2 0x4FA1 JUMP JUMPDEST ISZERO PUSH2 0x4981 JUMPI PUSH1 0x64 PUSH20 0xFFFFFFFFFFFFFFFFFFFFFFFFFFFFFFFFFFFFFFFF AND PUSH4 0xA3B1B31D PUSH1 0x40 MLOAD DUP2 PUSH4 0xFFFFFFFF AND PUSH1 0xE0 SHL DUP2 MSTORE PUSH1 0x4 ADD PUSH1 0x20 PUSH1 0x40 MLOAD DUP1 DUP4 SUB DUP2 DUP7 DUP1 EXTCODESIZE ISZERO DUP1 ISZERO PUSH2 0x4941 JUMPI PUSH1 0x0 DUP1 REVERT JUMPDEST POP GAS STATICCALL ISZERO DUP1 ISZERO PUSH2 0x4955 JUMPI RETURNDATASIZE PUSH1 0x0 DUP1 RETURNDATACOPY RETURNDATASIZE PUSH1 0x0 REVERT JUMPDEST POP POP POP POP PUSH1 0x40 MLOAD RETURNDATASIZE PUSH1 0x1F NOT PUSH1 0x1F DUP3 ADD AND DUP3 ADD DUP1 PUSH1 0x40 MSTORE POP DUP2 ADD SWAP1 PUSH2 0x4979 SWAP2 SWAP1 PUSH2 0x6F3C JUMP JUMPDEST SWAP2 POP POP PUSH2 0x4986 JUMP JUMPDEST NUMBER SWAP2 POP POP JUMPDEST SWAP1 JUMP JUMPDEST PUSH1 0x0 DUP1 PUSH1 0x0 PUSH2 0x499B DUP6 PUSH1 0x0 ADD MLOAD PUSH2 0x38B8 JUMP JUMPDEST SWAP3 POP PUSH1 0x0 PUSH1 0x6 PUSH1 0x0 DUP6 DUP2 MSTORE PUSH1 0x20 ADD SWAP1 DUP2 MSTORE PUSH1 0x20 ADD PUSH1 0x0 KECCAK256 PUSH1 0x0 SWAP1 SLOAD SWAP1 PUSH2 0x100 EXP SWAP1 DIV PUSH20 0xFFFFFFFFFFFFFFFFFFFFFFFFFFFFFFFFFFFFFFFF AND SWAP1 POP PUSH1 0x0 PUSH20 0xFFFFFFFFFFFFFFFFFFFFFFFFFFFFFFFFFFFFFFFF AND DUP2 PUSH20 0xFFFFFFFFFFFFFFFFFFFFFFFFFFFFFFFFFFFFFFFF AND EQ ISZERO PUSH2 0x4A47 JUMPI DUP4 PUSH1 0x40 MLOAD PUSH32 0x77F5B84C00000000000000000000000000000000000000000000000000000000 DUP2 MSTORE PUSH1 0x4 ADD PUSH2 0x4A3E SWAP2 SWAP1 PUSH2 0x7A03 JUMP JUMPDEST PUSH1 0x40 MLOAD DUP1 SWAP2 SUB SWAP1 REVERT JUMPDEST DUP4 DUP7 PUSH1 0x80 ADD MLOAD PUSH1 0x40 MLOAD PUSH1 0x20 ADD PUSH2 0x4A5E SWAP3 SWAP2 SWAP1 PUSH2 0x7A63 JUMP JUMPDEST PUSH1 0x40 MLOAD PUSH1 0x20 DUP2 DUP4 SUB SUB DUP2 MSTORE SWAP1 PUSH1 0x40 MSTORE DUP1 MLOAD SWAP1 PUSH1 0x20 ADD KECCAK256 PUSH1 0x0 SHR SWAP3 POP PUSH1 0x0 PUSH1 0x9 PUSH1 0x0 DUP6 DUP2 MSTORE PUSH1 0x20 ADD SWAP1 DUP2 MSTORE PUSH1 0x20 ADD PUSH1 0x0 KECCAK256 SLOAD SWAP1 POP PUSH1 0x0 DUP1 SHL DUP2 EQ ISZERO PUSH2 0x4ACE JUMPI PUSH1 0x40 MLOAD PUSH32 0x3688124A00000000000000000000000000000000000000000000000000000000 DUP2 MSTORE PUSH1 0x4 ADD PUSH1 0x40 MLOAD DUP1 SWAP2 SUB SWAP1 REVERT JUMPDEST DUP4 DUP7 PUSH1 0x0 ADD MLOAD DUP8 PUSH1 0x20 ADD MLOAD DUP9 PUSH1 0x40 ADD MLOAD DUP10 PUSH1 0x60 ADD MLOAD DUP11 PUSH1 0x80 ADD MLOAD PUSH1 0x40 MLOAD PUSH1 0x20 ADD PUSH2 0x4AFD SWAP7 SWAP6 SWAP5 SWAP4 SWAP3 SWAP2 SWAP1 PUSH2 0x8049 JUMP JUMPDEST PUSH1 0x40 MLOAD PUSH1 0x20 DUP2 DUP4 SUB SUB DUP2 MSTORE SWAP1 PUSH1 0x40 MSTORE DUP1 MLOAD SWAP1 PUSH1 0x20 ADD KECCAK256 DUP2 EQ PUSH2 0x4B4B JUMPI PUSH1 0x40 MLOAD PUSH32 0xD529142C00000000000000000000000000000000000000000000000000000000 DUP2 MSTORE PUSH1 0x4 ADD PUSH1 0x40 MLOAD DUP1 SWAP2 SUB SWAP1 REVERT JUMPDEST PUSH1 0x0 PUSH2 0x4B5A DUP8 PUSH1 0x0 ADD MLOAD PUSH2 0x4FC9 JUMP JUMPDEST SWAP1 POP PUSH1 0x0 DUP1 SHL DUP2 EQ ISZERO PUSH2 0x4C63 JUMPI PUSH32 0x0 PUSH20 0xFFFFFFFFFFFFFFFFFFFFFFFFFFFFFFFFFFFFFFFF AND PUSH4 0xE9413D38 DUP9 PUSH1 0x0 ADD MLOAD PUSH1 0x40 MLOAD DUP3 PUSH4 0xFFFFFFFF AND PUSH1 0xE0 SHL DUP2 MSTORE PUSH1 0x4 ADD PUSH2 0x4BC4 SWAP2 SWAP1 PUSH2 0x81B2 JUMP JUMPDEST PUSH1 0x20 PUSH1 0x40 MLOAD DUP1 DUP4 SUB DUP2 DUP7 DUP1 EXTCODESIZE ISZERO DUP1 ISZERO PUSH2 0x4BDC JUMPI PUSH1 0x0 DUP1 REVERT JUMPDEST POP GAS STATICCALL ISZERO DUP1 ISZERO PUSH2 0x4BF0 JUMPI RETURNDATASIZE PUSH1 0x0 DUP1 RETURNDATACOPY RETURNDATASIZE PUSH1 0x0 REVERT JUMPDEST POP POP POP POP PUSH1 0x40 MLOAD RETURNDATASIZE PUSH1 0x1F NOT PUSH1 0x1F DUP3 ADD AND DUP3 ADD DUP1 PUSH1 0x40 MSTORE POP DUP2 ADD SWAP1 PUSH2 0x4C14 SWAP2 SWAP1 PUSH2 0x6D97 JUMP JUMPDEST SWAP1 POP PUSH1 0x0 DUP1 SHL DUP2 EQ ISZERO PUSH2 0x4C62 JUMPI DUP7 PUSH1 0x0 ADD MLOAD PUSH1 0x40 MLOAD PUSH32 0x175DADAD00000000000000000000000000000000000000000000000000000000 DUP2 MSTORE PUSH1 0x4 ADD PUSH2 0x4C59 SWAP2 SWAP1 PUSH2 0x81B2 JUMP JUMPDEST PUSH1 0x40 MLOAD DUP1 SWAP2 SUB SWAP1 REVERT JUMPDEST JUMPDEST PUSH1 0x0 DUP9 PUSH1 0x80 ADD MLOAD DUP3 PUSH1 0x40 MLOAD PUSH1 0x20 ADD PUSH2 0x4C7C SWAP3 SWAP2 SWAP1 PUSH2 0x790B JUMP JUMPDEST PUSH1 0x40 MLOAD PUSH1 0x20 DUP2 DUP4 SUB SUB DUP2 MSTORE SWAP1 PUSH1 0x40 MSTORE DUP1 MLOAD SWAP1 PUSH1 0x20 ADD KECCAK256 PUSH1 0x0 SHR SWAP1 POP PUSH2 0x4CA1 DUP10 DUP3 PUSH2 0x50D0 JUMP JUMPDEST SWAP5 POP POP POP POP POP SWAP3 POP SWAP3 POP SWAP3 JUMP JUMPDEST PUSH1 0x0 GAS PUSH2 0x1388 DUP2 LT ISZERO PUSH2 0x4CC0 JUMPI PUSH1 0x0 DUP1 REVERT JUMPDEST PUSH2 0x1388 DUP2 SUB SWAP1 POP DUP5 PUSH1 0x40 DUP3 DIV DUP3 SUB GT PUSH2 0x4CD8 JUMPI PUSH1 0x0 DUP1 REVERT JUMPDEST DUP4 EXTCODESIZE PUSH2 0x4CE3 JUMPI PUSH1 0x0 DUP1 REVERT JUMPDEST PUSH1 0x0 DUP1 DUP5 MLOAD PUSH1 0x20 DUP7 ADD PUSH1 0x0 DUP9 DUP11 CALL SWAP2 POP POP SWAP4 SWAP3 POP POP POP JUMP JUMPDEST PUSH1 0x0 DUP1 PUSH2 0x4D06 PUSH2 0x513D JUMP JUMPDEST SWAP1 POP PUSH1 0x0 DUP2 SGT PUSH2 0x4D4D JUMPI DUP1 PUSH1 0x40 MLOAD PUSH32 0x43D4CF6600000000000000000000000000000000000000000000000000000000 DUP2 MSTORE PUSH1 0x4 ADD PUSH2 0x4D44 SWAP2 SWAP1 PUSH2 0x7B44 JUMP JUMPDEST PUSH1 0x40 MLOAD DUP1 SWAP2 SUB SWAP1 REVERT JUMPDEST PUSH1 0x0 PUSH2 0x4D9D PUSH1 0x0 CALLDATASIZE DUP1 DUP1 PUSH1 0x1F ADD PUSH1 0x20 DUP1 SWAP2 DIV MUL PUSH1 0x20 ADD PUSH1 0x40 MLOAD SWAP1 DUP2 ADD PUSH1 0x40 MSTORE DUP1 SWAP4 SWAP3 SWAP2 SWAP1 DUP2 DUP2 MSTORE PUSH1 0x20 ADD DUP4 DUP4 DUP1 DUP3 DUP5 CALLDATACOPY PUSH1 0x0 DUP2 DUP5 ADD MSTORE PUSH1 0x1F NOT PUSH1 0x1F DUP3 ADD AND SWAP1 POP DUP1 DUP4 ADD SWAP3 POP POP POP POP POP POP POP PUSH2 0x5249 JUMP JUMPDEST SWAP1 POP PUSH1 0x0 DUP3 DUP3 GAS DUP11 DUP11 PUSH2 0x4DB0 SWAP2 SWAP1 PUSH2 0x83E9 JUMP JUMPDEST PUSH2 0x4DBA SWAP2 SWAP1 PUSH2 0x854A JUMP JUMPDEST DUP8 PUSH2 0x4DC5 SWAP2 SWAP1 PUSH2 0x84F0 JUMP JUMPDEST PUSH2 0x4DCF SWAP2 SWAP1 PUSH2 0x83E9 JUMP JUMPDEST PUSH8 0xDE0B6B3A7640000 PUSH2 0x4DE2 SWAP2 SWAP1 PUSH2 0x84F0 JUMP JUMPDEST PUSH2 0x4DEC SWAP2 SWAP1 PUSH2 0x84BF JUMP JUMPDEST SWAP1 POP PUSH1 0x0 DUP7 PUSH4 0xFFFFFFFF AND PUSH5 0xE8D4A51000 PUSH2 0x4E07 SWAP2 SWAP1 PUSH2 0x84F0 JUMP JUMPDEST SWAP1 POP DUP1 PUSH12 0x33B2E3C9FD0803CE8000000 PUSH2 0x4E21 SWAP2 SWAP1 PUSH2 0x854A JUMP JUMPDEST DUP3 GT ISZERO PUSH2 0x4E5A JUMPI PUSH1 0x40 MLOAD PUSH32 0xE80FA38100000000000000000000000000000000000000000000000000000000 DUP2 MSTORE PUSH1 0x4 ADD PUSH1 0x40 MLOAD DUP1 SWAP2 SUB SWAP1 REVERT JUMPDEST DUP1 DUP3 PUSH2 0x4E66 SWAP2 SWAP1 PUSH2 0x83E9 JUMP JUMPDEST SWAP5 POP POP POP POP POP SWAP5 SWAP4 POP POP POP POP JUMP JUMPDEST CALLER PUSH20 0xFFFFFFFFFFFFFFFFFFFFFFFFFFFFFFFFFFFFFFFF AND DUP2 PUSH20 0xFFFFFFFFFFFFFFFFFFFFFFFFFFFFFFFFFFFFFFFF AND EQ ISZERO PUSH2 0x4EE3 JUMPI PUSH1 0x40 MLOAD PUSH32 0x8C379A000000000000000000000000000000000000000000000000000000000 DUP2 MSTORE PUSH1 0x4 ADD PUSH2 0x4EDA SWAP1 PUSH2 0x7D21 JUMP JUMPDEST PUSH1 0x40 MLOAD DUP1 SWAP2 SUB SWAP1 REVERT JUMPDEST DUP1 PUSH1 0x1 PUSH1 0x0 PUSH2 0x100 EXP DUP2 SLOAD DUP2 PUSH20 0xFFFFFFFFFFFFFFFFFFFFFFFFFFFFFFFFFFFFFFFF MUL NOT AND SWAP1 DUP4 PUSH20 0xFFFFFFFFFFFFFFFFFFFFFFFFFFFFFFFFFFFFFFFF AND MUL OR SWAP1 SSTORE POP DUP1 PUSH20 0xFFFFFFFFFFFFFFFFFFFFFFFFFFFFFFFFFFFFFFFF AND PUSH1 0x0 DUP1 SLOAD SWAP1 PUSH2 0x100 EXP SWAP1 DIV PUSH20 0xFFFFFFFFFFFFFFFFFFFFFFFFFFFFFFFFFFFFFFFF AND PUSH20 0xFFFFFFFFFFFFFFFFFFFFFFFFFFFFFFFFFFFFFFFF AND PUSH32 0xED8889F560326EB138920D842192F0EB3DD22B4F139C87A2C57538E05BAE1278 PUSH1 0x40 MLOAD PUSH1 0x40 MLOAD DUP1 SWAP2 SUB SWAP1 LOG3 POP JUMP JUMPDEST PUSH1 0x0 PUSH2 0xA4B1 DUP3 EQ DUP1 PUSH2 0x4FB5 JUMPI POP PUSH3 0x66EED DUP3 EQ JUMPDEST DUP1 PUSH2 0x4FC2 JUMPI POP PUSH3 0x66EEE DUP3 EQ JUMPDEST SWAP1 POP SWAP2 SWAP1 POP JUMP JUMPDEST PUSH1 0x0 DUP1 CHAINID SWAP1 POP PUSH2 0x4FD8 DUP2 PUSH2 0x4FA1 JUMP JUMPDEST ISZERO PUSH2 0x50BB JUMPI PUSH2 0x100 DUP4 PUSH8 0xFFFFFFFFFFFFFFFF AND PUSH2 0x4FF3 PUSH2 0x48E6 JUMP JUMPDEST PUSH2 0x4FFD SWAP2 SWAP1 PUSH2 0x854A JUMP JUMPDEST GT DUP1 PUSH2 0x501A JUMPI POP PUSH2 0x500C PUSH2 0x48E6 JUMP JUMPDEST DUP4 PUSH8 0xFFFFFFFFFFFFFFFF AND LT ISZERO JUMPDEST ISZERO PUSH2 0x5029 JUMPI PUSH1 0x0 SWAP2 POP POP PUSH2 0x50CB JUMP JUMPDEST PUSH1 0x64 PUSH20 0xFFFFFFFFFFFFFFFFFFFFFFFFFFFFFFFFFFFFFFFF AND PUSH4 0x2B407A82 DUP5 PUSH1 0x40 MLOAD DUP3 PUSH4 0xFFFFFFFF AND PUSH1 0xE0 SHL DUP2 MSTORE PUSH1 0x4 ADD PUSH2 0x5063 SWAP2 SWAP1 PUSH2 0x81B2 JUMP JUMPDEST PUSH1 0x20 PUSH1 0x40 MLOAD DUP1 DUP4 SUB DUP2 DUP7 DUP1 EXTCODESIZE ISZERO DUP1 ISZERO PUSH2 0x507B JUMPI PUSH1 0x0 DUP1 REVERT JUMPDEST POP GAS STATICCALL ISZERO DUP1 ISZERO PUSH2 0x508F JUMPI RETURNDATASIZE PUSH1 0x0 DUP1 RETURNDATACOPY RETURNDATASIZE PUSH1 0x0 REVERT JUMPDEST POP POP POP POP PUSH1 0x40 MLOAD RETURNDATASIZE PUSH1 0x1F NOT PUSH1 0x1F DUP3 ADD AND DUP3 ADD DUP1 PUSH1 0x40 MSTORE POP DUP2 ADD SWAP1 PUSH2 0x50B3 SWAP2 SWAP1 PUSH2 0x6D97 JUMP JUMPDEST SWAP2 POP POP PUSH2 0x50CB JUMP JUMPDEST DUP3 PUSH8 0xFFFFFFFFFFFFFFFF AND BLOCKHASH SWAP2 POP POP JUMPDEST SWAP2 SWAP1 POP JUMP JUMPDEST PUSH1 0x0 PUSH2 0x5104 DUP4 PUSH1 0x0 ADD MLOAD DUP5 PUSH1 0x20 ADD MLOAD DUP6 PUSH1 0x40 ADD MLOAD DUP7 PUSH1 0x60 ADD MLOAD DUP7 DUP9 PUSH1 0xA0 ADD MLOAD DUP10 PUSH1 0xC0 ADD MLOAD DUP11 PUSH1 0xE0 ADD MLOAD DUP12 PUSH2 0x100 ADD MLOAD PUSH2 0x53DB JUMP JUMPDEST PUSH1 0x3 DUP4 PUSH1 0x20 ADD MLOAD PUSH1 0x40 MLOAD PUSH1 0x20 ADD PUSH2 0x511C SWAP3 SWAP2 SWAP1 PUSH2 0x7F13 JUMP JUMPDEST PUSH1 0x40 MLOAD PUSH1 0x20 DUP2 DUP4 SUB SUB DUP2 MSTORE SWAP1 PUSH1 0x40 MSTORE DUP1 MLOAD SWAP1 PUSH1 0x20 ADD KECCAK256 PUSH1 0x0 SHR SWAP1 POP SWAP3 SWAP2 POP POP JUMP JUMPDEST PUSH1 0x0 DUP1 PUSH1 0xB PUSH1 0x0 ADD PUSH1 0x7 SWAP1 SLOAD SWAP1 PUSH2 0x100 EXP SWAP1 DIV PUSH4 0xFFFFFFFF AND SWAP1 POP PUSH1 0x0 DUP1 DUP3 PUSH4 0xFFFFFFFF AND GT SWAP1 POP PUSH1 0x0 DUP1 PUSH32 0x0 PUSH20 0xFFFFFFFFFFFFFFFFFFFFFFFFFFFFFFFFFFFFFFFF AND PUSH4 0xFEAF968C PUSH1 0x40 MLOAD DUP2 PUSH4 0xFFFFFFFF AND PUSH1 0xE0 SHL DUP2 MSTORE PUSH1 0x4 ADD PUSH1 0xA0 PUSH1 0x40 MLOAD DUP1 DUP4 SUB DUP2 DUP7 DUP1 EXTCODESIZE ISZERO DUP1 ISZERO PUSH2 0x51CE JUMPI PUSH1 0x0 DUP1 REVERT JUMPDEST POP GAS STATICCALL ISZERO DUP1 ISZERO PUSH2 0x51E2 JUMPI RETURNDATASIZE PUSH1 0x0 DUP1 RETURNDATACOPY RETURNDATASIZE PUSH1 0x0 REVERT JUMPDEST POP POP POP POP PUSH1 0x40 MLOAD RETURNDATASIZE PUSH1 0x1F NOT PUSH1 0x1F DUP3 ADD AND DUP3 ADD DUP1 PUSH1 0x40 MSTORE POP DUP2 ADD SWAP1 PUSH2 0x5206 SWAP2 SWAP1 PUSH2 0x6FD6 JUMP JUMPDEST SWAP1 SWAP2 SWAP3 SWAP4 POP SWAP1 SWAP2 POP POP DUP1 SWAP4 POP DUP2 SWAP3 POP POP POP DUP3 DUP1 ISZERO PUSH2 0x5234 JUMPI POP DUP2 TIMESTAMP PUSH2 0x522B SWAP2 SWAP1 PUSH2 0x854A JUMP JUMPDEST DUP5 PUSH4 0xFFFFFFFF AND LT JUMPDEST ISZERO PUSH2 0x523F JUMPI PUSH1 0xA SLOAD SWAP1 POP JUMPDEST DUP1 SWAP5 POP POP POP POP POP SWAP1 JUMP JUMPDEST PUSH1 0x0 DUP1 CHAINID SWAP1 POP PUSH2 0x5258 DUP2 PUSH2 0x4FA1 JUMP JUMPDEST ISZERO PUSH2 0x52E4 JUMPI PUSH1 0x6C PUSH20 0xFFFFFFFFFFFFFFFFFFFFFFFFFFFFFFFFFFFFFFFF AND PUSH4 0xC6F7DE0E PUSH1 0x40 MLOAD DUP2 PUSH4 0xFFFFFFFF AND PUSH1 0xE0 SHL DUP2 MSTORE PUSH1 0x4 ADD PUSH1 0x20 PUSH1 0x40 MLOAD DUP1 DUP4 SUB DUP2 DUP7 DUP1 EXTCODESIZE ISZERO DUP1 ISZERO PUSH2 0x52A4 JUMPI PUSH1 0x0 DUP1 REVERT JUMPDEST POP GAS STATICCALL ISZERO DUP1 ISZERO PUSH2 0x52B8 JUMPI RETURNDATASIZE PUSH1 0x0 DUP1 RETURNDATACOPY RETURNDATASIZE PUSH1 0x0 REVERT JUMPDEST POP POP POP POP PUSH1 0x40 MLOAD RETURNDATASIZE PUSH1 0x1F NOT PUSH1 0x1F DUP3 ADD AND DUP3 ADD DUP1 PUSH1 0x40 MSTORE POP DUP2 ADD SWAP1 PUSH2 0x52DC SWAP2 SWAP1 PUSH2 0x6F3C JUMP JUMPDEST SWAP2 POP POP PUSH2 0x53D6 JUMP JUMPDEST PUSH2 0x52ED DUP2 PUSH2 0x55C8 JUMP JUMPDEST ISZERO PUSH2 0x53D0 JUMPI PUSH20 0x420000000000000000000000000000000000000F PUSH20 0xFFFFFFFFFFFFFFFFFFFFFFFFFFFFFFFFFFFFFFFF AND PUSH4 0x49948E0E DUP5 PUSH1 0x40 MLOAD DUP1 PUSH1 0x80 ADD PUSH1 0x40 MSTORE DUP1 PUSH1 0x48 DUP2 MSTORE PUSH1 0x20 ADD PUSH2 0x8EE6 PUSH1 0x48 SWAP2 CODECOPY PUSH1 0x40 MLOAD PUSH1 0x20 ADD PUSH2 0x534D SWAP3 SWAP2 SWAP1 PUSH2 0x781F JUMP JUMPDEST PUSH1 0x40 MLOAD PUSH1 0x20 DUP2 DUP4 SUB SUB DUP2 MSTORE SWAP1 PUSH1 0x40 MSTORE PUSH1 0x40 MLOAD DUP3 PUSH4 0xFFFFFFFF AND PUSH1 0xE0 SHL DUP2 MSTORE PUSH1 0x4 ADD PUSH2 0x5378 SWAP2 SWAP1 PUSH2 0x7AD1 JUMP JUMPDEST PUSH1 0x20 PUSH1 0x40 MLOAD DUP1 DUP4 SUB DUP2 DUP7 DUP1 EXTCODESIZE ISZERO DUP1 ISZERO PUSH2 0x5390 JUMPI PUSH1 0x0 DUP1 REVERT JUMPDEST POP GAS STATICCALL ISZERO DUP1 ISZERO PUSH2 0x53A4 JUMPI RETURNDATASIZE PUSH1 0x0 DUP1 RETURNDATACOPY RETURNDATASIZE PUSH1 0x0 REVERT JUMPDEST POP POP POP POP PUSH1 0x40 MLOAD RETURNDATASIZE PUSH1 0x1F NOT PUSH1 0x1F DUP3 ADD AND DUP3 ADD DUP1 PUSH1 0x40 MSTORE POP DUP2 ADD SWAP1 PUSH2 0x53C8 SWAP2 SWAP1 PUSH2 0x6F3C JUMP JUMPDEST SWAP2 POP POP PUSH2 0x53D6 JUMP JUMPDEST PUSH1 0x0 SWAP2 POP POP JUMPDEST SWAP2 SWAP1 POP JUMP JUMPDEST PUSH2 0x53E4 DUP10 PUSH2 0x5607 JUMP JUMPDEST PUSH2 0x5423 JUMPI PUSH1 0x40 MLOAD PUSH32 0x8C379A000000000000000000000000000000000000000000000000000000000 DUP2 MSTORE PUSH1 0x4 ADD PUSH2 0x541A SWAP1 PUSH2 0x7CC1 JUMP JUMPDEST PUSH1 0x40 MLOAD DUP1 SWAP2 SUB SWAP1 REVERT JUMPDEST PUSH2 0x542C DUP9 PUSH2 0x5607 JUMP JUMPDEST PUSH2 0x546B JUMPI PUSH1 0x40 MLOAD PUSH32 0x8C379A000000000000000000000000000000000000000000000000000000000 DUP2 MSTORE PUSH1 0x4 ADD PUSH2 0x5462 SWAP1 PUSH2 0x7CE1 JUMP JUMPDEST PUSH1 0x40 MLOAD DUP1 SWAP2 SUB SWAP1 REVERT JUMPDEST PUSH2 0x5474 DUP4 PUSH2 0x5607 JUMP JUMPDEST PUSH2 0x54B3 JUMPI PUSH1 0x40 MLOAD PUSH32 0x8C379A000000000000000000000000000000000000000000000000000000000 DUP2 MSTORE PUSH1 0x4 ADD PUSH2 0x54AA SWAP1 PUSH2 0x7CA1 JUMP JUMPDEST PUSH1 0x40 MLOAD DUP1 SWAP2 SUB SWAP1 REVERT JUMPDEST PUSH2 0x54BC DUP3 PUSH2 0x5607 JUMP JUMPDEST PUSH2 0x54FB JUMPI PUSH1 0x40 MLOAD PUSH32 0x8C379A000000000000000000000000000000000000000000000000000000000 DUP2 MSTORE PUSH1 0x4 ADD PUSH2 0x54F2 SWAP1 PUSH2 0x7DA1 JUMP JUMPDEST PUSH1 0x40 MLOAD DUP1 SWAP2 SUB SWAP1 REVERT JUMPDEST PUSH2 0x5507 DUP8 DUP11 DUP9 DUP8 PUSH2 0x5788 JUMP JUMPDEST PUSH2 0x5546 JUMPI PUSH1 0x40 MLOAD PUSH32 0x8C379A000000000000000000000000000000000000000000000000000000000 DUP2 MSTORE PUSH1 0x4 ADD PUSH2 0x553D SWAP1 PUSH2 0x7C61 JUMP JUMPDEST PUSH1 0x40 MLOAD DUP1 SWAP2 SUB SWAP1 REVERT JUMPDEST PUSH1 0x0 PUSH2 0x5552 DUP11 DUP8 PUSH2 0x59A6 JUMP JUMPDEST SWAP1 POP PUSH1 0x0 PUSH2 0x5565 DUP10 DUP12 DUP8 DUP12 DUP7 DUP10 DUP10 PUSH2 0x5A38 JUMP JUMPDEST SWAP1 POP PUSH1 0x0 PUSH2 0x5576 DUP4 DUP14 DUP14 DUP11 DUP7 PUSH2 0x5BBF JUMP JUMPDEST SWAP1 POP DUP1 DUP11 EQ PUSH2 0x55BA JUMPI PUSH1 0x40 MLOAD PUSH32 0x8C379A000000000000000000000000000000000000000000000000000000000 DUP2 MSTORE PUSH1 0x4 ADD PUSH2 0x55B1 SWAP1 PUSH2 0x7D01 JUMP JUMPDEST PUSH1 0x40 MLOAD DUP1 SWAP2 SUB SWAP1 REVERT JUMPDEST POP POP POP POP POP POP POP POP POP POP POP POP JUMP JUMPDEST PUSH1 0x0 PUSH1 0xA DUP3 EQ DUP1 PUSH2 0x55DA JUMPI POP PUSH2 0x1A4 DUP3 EQ JUMPDEST DUP1 PUSH2 0x55E7 JUMPI POP PUSH3 0xAA37DC DUP3 EQ JUMPDEST DUP1 PUSH2 0x55F3 JUMPI POP PUSH2 0x2105 DUP3 EQ JUMPDEST DUP1 PUSH2 0x5600 JUMPI POP PUSH3 0x14A33 DUP3 EQ JUMPDEST SWAP1 POP SWAP2 SWAP1 POP JUMP JUMPDEST PUSH1 0x0 PUSH32 0xFFFFFFFFFFFFFFFFFFFFFFFFFFFFFFFFFFFFFFFFFFFFFFFFFFFFFFFEFFFFFC2F DUP3 PUSH1 0x0 PUSH1 0x2 DUP2 LT PUSH2 0x563E JUMPI PUSH2 0x563D PUSH2 0x89F7 JUMP JUMPDEST JUMPDEST PUSH1 0x20 MUL ADD MLOAD LT PUSH2 0x5683 JUMPI PUSH1 0x40 MLOAD PUSH32 0x8C379A000000000000000000000000000000000000000000000000000000000 DUP2 MSTORE PUSH1 0x4 ADD PUSH2 0x567A SWAP1 PUSH2 0x7C21 JUMP JUMPDEST PUSH1 0x40 MLOAD DUP1 SWAP2 SUB SWAP1 REVERT JUMPDEST PUSH32 0xFFFFFFFFFFFFFFFFFFFFFFFFFFFFFFFFFFFFFFFFFFFFFFFFFFFFFFFEFFFFFC2F DUP3 PUSH1 0x1 PUSH1 0x2 DUP2 LT PUSH2 0x56B8 JUMPI PUSH2 0x56B7 PUSH2 0x89F7 JUMP JUMPDEST JUMPDEST PUSH1 0x20 MUL ADD MLOAD LT PUSH2 0x56FD JUMPI PUSH1 0x40 MLOAD PUSH32 0x8C379A000000000000000000000000000000000000000000000000000000000 DUP2 MSTORE PUSH1 0x4 ADD PUSH2 0x56F4 SWAP1 PUSH2 0x7D81 JUMP JUMPDEST PUSH1 0x40 MLOAD DUP1 SWAP2 SUB SWAP1 REVERT JUMPDEST PUSH32 0xFFFFFFFFFFFFFFFFFFFFFFFFFFFFFFFFFFFFFFFFFFFFFFFFFFFFFFFEFFFFFC2F DUP1 PUSH2 0x572C JUMPI PUSH2 0x572B PUSH2 0x8999 JUMP JUMPDEST JUMPDEST DUP3 PUSH1 0x1 PUSH1 0x2 DUP2 LT PUSH2 0x5740 JUMPI PUSH2 0x573F PUSH2 0x89F7 JUMP JUMPDEST JUMPDEST PUSH1 0x20 MUL ADD MLOAD DUP4 PUSH1 0x1 PUSH1 0x2 DUP2 LT PUSH2 0x5759 JUMPI PUSH2 0x5758 PUSH2 0x89F7 JUMP JUMPDEST JUMPDEST PUSH1 0x20 MUL ADD MLOAD MULMOD PUSH2 0x5780 DUP4 PUSH1 0x0 PUSH1 0x2 DUP2 LT PUSH2 0x5776 JUMPI PUSH2 0x5775 PUSH2 0x89F7 JUMP JUMPDEST JUMPDEST PUSH1 0x20 MUL ADD MLOAD PUSH2 0x5C01 JUMP JUMPDEST EQ SWAP1 POP SWAP2 SWAP1 POP JUMP JUMPDEST PUSH1 0x0 DUP1 PUSH20 0xFFFFFFFFFFFFFFFFFFFFFFFFFFFFFFFFFFFFFFFF AND DUP3 PUSH20 0xFFFFFFFFFFFFFFFFFFFFFFFFFFFFFFFFFFFFFFFF AND EQ ISZERO PUSH2 0x57F9 JUMPI PUSH1 0x40 MLOAD PUSH32 0x8C379A000000000000000000000000000000000000000000000000000000000 DUP2 MSTORE PUSH1 0x4 ADD PUSH2 0x57F0 SWAP1 PUSH2 0x7C41 JUMP JUMPDEST PUSH1 0x40 MLOAD DUP1 SWAP2 SUB SWAP1 REVERT JUMPDEST PUSH1 0x0 DUP1 PUSH1 0x2 DUP7 PUSH1 0x1 PUSH1 0x2 DUP2 LT PUSH2 0x5812 JUMPI PUSH2 0x5811 PUSH2 0x89F7 JUMP JUMPDEST JUMPDEST PUSH1 0x20 MUL ADD MLOAD DUP2 PUSH2 0x5825 JUMPI PUSH2 0x5824 PUSH2 0x8999 JUMP JUMPDEST JUMPDEST MOD EQ PUSH2 0x5832 JUMPI PUSH1 0x1C PUSH2 0x5835 JUMP JUMPDEST PUSH1 0x1B JUMPDEST SWAP1 POP PUSH1 0x0 PUSH32 0xFFFFFFFFFFFFFFFFFFFFFFFFFFFFFFFEBAAEDCE6AF48A03BBFD25E8CD0364141 DUP1 PUSH2 0x5868 JUMPI PUSH2 0x5867 PUSH2 0x8999 JUMP JUMPDEST JUMPDEST DUP6 DUP8 PUSH1 0x0 PUSH1 0x2 DUP2 LT PUSH2 0x587D JUMPI PUSH2 0x587C PUSH2 0x89F7 JUMP JUMPDEST JUMPDEST PUSH1 0x20 MUL ADD MLOAD MULMOD PUSH32 0xFFFFFFFFFFFFFFFFFFFFFFFFFFFFFFFEBAAEDCE6AF48A03BBFD25E8CD0364141 SUB PUSH1 0x0 SHL SWAP1 POP PUSH1 0x0 PUSH32 0xFFFFFFFFFFFFFFFFFFFFFFFFFFFFFFFEBAAEDCE6AF48A03BBFD25E8CD0364141 DUP1 PUSH2 0x58DB JUMPI PUSH2 0x58DA PUSH2 0x8999 JUMP JUMPDEST JUMPDEST DUP8 PUSH1 0x0 PUSH1 0x2 DUP2 LT PUSH2 0x58EF JUMPI PUSH2 0x58EE PUSH2 0x89F7 JUMP JUMPDEST JUMPDEST PUSH1 0x20 MUL ADD MLOAD DUP10 MULMOD PUSH1 0x0 SHL SWAP1 POP PUSH1 0x0 PUSH1 0x1 DUP4 DUP6 DUP11 PUSH1 0x0 PUSH1 0x2 DUP2 LT PUSH2 0x5915 JUMPI PUSH2 0x5914 PUSH2 0x89F7 JUMP JUMPDEST JUMPDEST PUSH1 0x20 MUL ADD MLOAD PUSH1 0x0 SHL DUP6 PUSH1 0x40 MLOAD PUSH1 0x0 DUP2 MSTORE PUSH1 0x20 ADD PUSH1 0x40 MSTORE PUSH1 0x40 MLOAD PUSH2 0x593B SWAP5 SWAP4 SWAP3 SWAP2 SWAP1 PUSH2 0x7A8C JUMP JUMPDEST PUSH1 0x20 PUSH1 0x40 MLOAD PUSH1 0x20 DUP2 SUB SWAP1 DUP1 DUP5 SUB SWAP1 DUP6 GAS STATICCALL ISZERO DUP1 ISZERO PUSH2 0x595D JUMPI RETURNDATASIZE PUSH1 0x0 DUP1 RETURNDATACOPY RETURNDATASIZE PUSH1 0x0 REVERT JUMPDEST POP POP POP PUSH1 0x20 PUSH1 0x40 MLOAD SUB MLOAD SWAP1 POP DUP6 PUSH20 0xFFFFFFFFFFFFFFFFFFFFFFFFFFFFFFFFFFFFFFFF AND DUP2 PUSH20 0xFFFFFFFFFFFFFFFFFFFFFFFFFFFFFFFFFFFFFFFF AND EQ SWAP5 POP POP POP POP POP SWAP5 SWAP4 POP POP POP POP JUMP JUMPDEST PUSH2 0x59AE PUSH2 0x66EE JUMP JUMPDEST PUSH2 0x59DB PUSH1 0x1 DUP5 DUP5 PUSH1 0x40 MLOAD PUSH1 0x20 ADD PUSH2 0x59C7 SWAP4 SWAP3 SWAP2 SWAP1 PUSH2 0x78CE JUMP JUMPDEST PUSH1 0x40 MLOAD PUSH1 0x20 DUP2 DUP4 SUB SUB DUP2 MSTORE SWAP1 PUSH1 0x40 MSTORE PUSH2 0x5CA4 JUMP JUMPDEST SWAP1 POP JUMPDEST PUSH2 0x59E7 DUP2 PUSH2 0x5607 JUMP JUMPDEST PUSH2 0x5A32 JUMPI PUSH2 0x5A2B DUP2 PUSH1 0x0 PUSH1 0x2 DUP2 LT PUSH2 0x5A02 JUMPI PUSH2 0x5A01 PUSH2 0x89F7 JUMP JUMPDEST JUMPDEST PUSH1 0x20 MUL ADD MLOAD PUSH1 0x40 MLOAD PUSH1 0x20 ADD PUSH2 0x5A17 SWAP2 SWAP1 PUSH2 0x7843 JUMP JUMPDEST PUSH1 0x40 MLOAD PUSH1 0x20 DUP2 DUP4 SUB SUB DUP2 MSTORE SWAP1 PUSH1 0x40 MSTORE PUSH2 0x5CA4 JUMP JUMPDEST SWAP1 POP PUSH2 0x59DE JUMP JUMPDEST SWAP3 SWAP2 POP POP JUMP JUMPDEST PUSH2 0x5A40 PUSH2 0x66EE JUMP JUMPDEST PUSH32 0xFFFFFFFFFFFFFFFFFFFFFFFFFFFFFFFFFFFFFFFFFFFFFFFFFFFFFFFEFFFFFC2F DUP4 PUSH1 0x0 PUSH1 0x2 DUP2 LT PUSH2 0x5A75 JUMPI PUSH2 0x5A74 PUSH2 0x89F7 JUMP JUMPDEST JUMPDEST PUSH1 0x20 MUL ADD MLOAD DUP2 PUSH2 0x5A88 JUMPI PUSH2 0x5A87 PUSH2 0x8999 JUMP JUMPDEST JUMPDEST MOD PUSH32 0xFFFFFFFFFFFFFFFFFFFFFFFFFFFFFFFFFFFFFFFFFFFFFFFFFFFFFFFEFFFFFC2F DUP8 PUSH1 0x0 PUSH1 0x2 DUP2 LT PUSH2 0x5ABE JUMPI PUSH2 0x5ABD PUSH2 0x89F7 JUMP JUMPDEST JUMPDEST PUSH1 0x20 MUL ADD MLOAD DUP2 PUSH2 0x5AD1 JUMPI PUSH2 0x5AD0 PUSH2 0x8999 JUMP JUMPDEST JUMPDEST MOD EQ ISZERO PUSH2 0x5B13 JUMPI PUSH1 0x40 MLOAD PUSH32 0x8C379A000000000000000000000000000000000000000000000000000000000 DUP2 MSTORE PUSH1 0x4 ADD PUSH2 0x5B0A SWAP1 PUSH2 0x7BC1 JUMP JUMPDEST PUSH1 0x40 MLOAD DUP1 SWAP2 SUB SWAP1 REVERT JUMPDEST PUSH2 0x5B1E DUP8 DUP10 DUP9 PUSH2 0x5DA8 JUMP JUMPDEST PUSH2 0x5B5D JUMPI PUSH1 0x40 MLOAD PUSH32 0x8C379A000000000000000000000000000000000000000000000000000000000 DUP2 MSTORE PUSH1 0x4 ADD PUSH2 0x5B54 SWAP1 PUSH2 0x7D41 JUMP JUMPDEST PUSH1 0x40 MLOAD DUP1 SWAP2 SUB SWAP1 REVERT JUMPDEST PUSH2 0x5B68 DUP5 DUP7 DUP6 PUSH2 0x5DA8 JUMP JUMPDEST PUSH2 0x5BA7 JUMPI PUSH1 0x40 MLOAD PUSH32 0x8C379A000000000000000000000000000000000000000000000000000000000 DUP2 MSTORE PUSH1 0x4 ADD PUSH2 0x5B9E SWAP1 PUSH2 0x7BA1 JUMP JUMPDEST PUSH1 0x40 MLOAD DUP1 SWAP2 SUB SWAP1 REVERT JUMPDEST PUSH2 0x5BB2 DUP7 DUP5 DUP5 PUSH2 0x5F40 JUMP JUMPDEST SWAP1 POP SWAP8 SWAP7 POP POP POP POP POP POP POP JUMP JUMPDEST PUSH1 0x0 PUSH1 0x2 DUP7 DUP7 DUP7 DUP6 DUP8 PUSH1 0x40 MLOAD PUSH1 0x20 ADD PUSH2 0x5BDD SWAP7 SWAP6 SWAP5 SWAP4 SWAP3 SWAP2 SWAP1 PUSH2 0x785E JUMP JUMPDEST PUSH1 0x40 MLOAD PUSH1 0x20 DUP2 DUP4 SUB SUB DUP2 MSTORE SWAP1 PUSH1 0x40 MSTORE DUP1 MLOAD SWAP1 PUSH1 0x20 ADD KECCAK256 PUSH1 0x0 SHR SWAP1 POP SWAP6 SWAP5 POP POP POP POP POP JUMP JUMPDEST PUSH1 0x0 DUP1 PUSH32 0xFFFFFFFFFFFFFFFFFFFFFFFFFFFFFFFFFFFFFFFFFFFFFFFFFFFFFFFEFFFFFC2F DUP1 PUSH2 0x5C33 JUMPI PUSH2 0x5C32 PUSH2 0x8999 JUMP JUMPDEST JUMPDEST PUSH32 0xFFFFFFFFFFFFFFFFFFFFFFFFFFFFFFFFFFFFFFFFFFFFFFFFFFFFFFFEFFFFFC2F DUP1 PUSH2 0x5C62 JUMPI PUSH2 0x5C61 PUSH2 0x8999 JUMP JUMPDEST JUMPDEST DUP5 DUP6 MULMOD DUP5 MULMOD SWAP1 POP PUSH32 0xFFFFFFFFFFFFFFFFFFFFFFFFFFFFFFFFFFFFFFFFFFFFFFFFFFFFFFFEFFFFFC2F DUP1 PUSH2 0x5C98 JUMPI PUSH2 0x5C97 PUSH2 0x8999 JUMP JUMPDEST JUMPDEST PUSH1 0x7 DUP3 ADDMOD SWAP2 POP POP SWAP2 SWAP1 POP JUMP JUMPDEST PUSH2 0x5CAC PUSH2 0x66EE JUMP JUMPDEST PUSH2 0x5CB5 DUP3 PUSH2 0x60BC JUMP JUMPDEST DUP2 PUSH1 0x0 PUSH1 0x2 DUP2 LT PUSH2 0x5CC9 JUMPI PUSH2 0x5CC8 PUSH2 0x89F7 JUMP JUMPDEST JUMPDEST PUSH1 0x20 MUL ADD DUP2 DUP2 MSTORE POP POP PUSH2 0x5CFB PUSH2 0x5CF6 DUP3 PUSH1 0x0 PUSH1 0x2 DUP2 LT PUSH2 0x5CEC JUMPI PUSH2 0x5CEB PUSH2 0x89F7 JUMP JUMPDEST JUMPDEST PUSH1 0x20 MUL ADD MLOAD PUSH2 0x5C01 JUMP JUMPDEST PUSH2 0x6129 JUMP JUMPDEST DUP2 PUSH1 0x1 PUSH1 0x2 DUP2 LT PUSH2 0x5D0F JUMPI PUSH2 0x5D0E PUSH2 0x89F7 JUMP JUMPDEST JUMPDEST PUSH1 0x20 MUL ADD DUP2 DUP2 MSTORE POP POP PUSH1 0x1 PUSH1 0x2 DUP3 PUSH1 0x1 PUSH1 0x2 DUP2 LT PUSH2 0x5D30 JUMPI PUSH2 0x5D2F PUSH2 0x89F7 JUMP JUMPDEST JUMPDEST PUSH1 0x20 MUL ADD MLOAD DUP2 PUSH2 0x5D43 JUMPI PUSH2 0x5D42 PUSH2 0x8999 JUMP JUMPDEST JUMPDEST MOD EQ ISZERO PUSH2 0x5DA3 JUMPI DUP1 PUSH1 0x1 PUSH1 0x2 DUP2 LT PUSH2 0x5D5E JUMPI PUSH2 0x5D5D PUSH2 0x89F7 JUMP JUMPDEST JUMPDEST PUSH1 0x20 MUL ADD MLOAD PUSH32 0xFFFFFFFFFFFFFFFFFFFFFFFFFFFFFFFFFFFFFFFFFFFFFFFFFFFFFFFEFFFFFC2F SUB DUP2 PUSH1 0x1 PUSH1 0x2 DUP2 LT PUSH2 0x5D99 JUMPI PUSH2 0x5D98 PUSH2 0x89F7 JUMP JUMPDEST JUMPDEST PUSH1 0x20 MUL ADD DUP2 DUP2 MSTORE POP POP JUMPDEST SWAP2 SWAP1 POP JUMP JUMPDEST PUSH1 0x0 DUP1 DUP4 EQ ISZERO PUSH2 0x5DED JUMPI PUSH1 0x40 MLOAD PUSH32 0x8C379A000000000000000000000000000000000000000000000000000000000 DUP2 MSTORE PUSH1 0x4 ADD PUSH2 0x5DE4 SWAP1 PUSH2 0x7D61 JUMP JUMPDEST PUSH1 0x40 MLOAD DUP1 SWAP2 SUB SWAP1 REVERT JUMPDEST PUSH1 0x0 DUP5 PUSH1 0x0 PUSH1 0x2 DUP2 LT PUSH2 0x5E03 JUMPI PUSH2 0x5E02 PUSH2 0x89F7 JUMP JUMPDEST JUMPDEST PUSH1 0x20 MUL ADD MLOAD SWAP1 POP PUSH1 0x0 DUP1 PUSH1 0x2 DUP8 PUSH1 0x1 PUSH1 0x2 DUP2 LT PUSH2 0x5E23 JUMPI PUSH2 0x5E22 PUSH2 0x89F7 JUMP JUMPDEST JUMPDEST PUSH1 0x20 MUL ADD MLOAD PUSH2 0x5E32 SWAP2 SWAP1 PUSH2 0x8939 JUMP JUMPDEST EQ PUSH2 0x5E3E JUMPI PUSH1 0x1C PUSH2 0x5E41 JUMP JUMPDEST PUSH1 0x1B JUMPDEST SWAP1 POP PUSH1 0x0 PUSH32 0xFFFFFFFFFFFFFFFFFFFFFFFFFFFFFFFEBAAEDCE6AF48A03BBFD25E8CD0364141 DUP1 PUSH2 0x5E74 JUMPI PUSH2 0x5E73 PUSH2 0x8999 JUMP JUMPDEST JUMPDEST DUP4 DUP8 MULMOD PUSH1 0x0 SHL SWAP1 POP PUSH1 0x0 PUSH1 0x1 PUSH1 0x0 DUP1 SHL DUP5 DUP7 PUSH1 0x0 SHL DUP6 PUSH1 0x40 MLOAD PUSH1 0x0 DUP2 MSTORE PUSH1 0x20 ADD PUSH1 0x40 MSTORE PUSH1 0x40 MLOAD PUSH2 0x5EA7 SWAP5 SWAP4 SWAP3 SWAP2 SWAP1 PUSH2 0x7A8C JUMP JUMPDEST PUSH1 0x20 PUSH1 0x40 MLOAD PUSH1 0x20 DUP2 SUB SWAP1 DUP1 DUP5 SUB SWAP1 DUP6 GAS STATICCALL ISZERO DUP1 ISZERO PUSH2 0x5EC9 JUMPI RETURNDATASIZE PUSH1 0x0 DUP1 RETURNDATACOPY RETURNDATASIZE PUSH1 0x0 REVERT JUMPDEST POP POP POP PUSH1 0x20 PUSH1 0x40 MLOAD SUB MLOAD SWAP1 POP PUSH1 0x0 DUP7 PUSH1 0x40 MLOAD PUSH1 0x20 ADD PUSH2 0x5EE8 SWAP2 SWAP1 PUSH2 0x7804 JUMP JUMPDEST PUSH1 0x40 MLOAD PUSH1 0x20 DUP2 DUP4 SUB SUB DUP2 MSTORE SWAP1 PUSH1 0x40 MSTORE DUP1 MLOAD SWAP1 PUSH1 0x20 ADD KECCAK256 PUSH1 0x0 SHR SWAP1 POP DUP1 PUSH20 0xFFFFFFFFFFFFFFFFFFFFFFFFFFFFFFFFFFFFFFFF AND DUP3 PUSH20 0xFFFFFFFFFFFFFFFFFFFFFFFFFFFFFFFFFFFFFFFF AND EQ SWAP6 POP POP POP POP POP POP SWAP4 SWAP3 POP POP POP JUMP JUMPDEST PUSH2 0x5F48 PUSH2 0x66EE JUMP JUMPDEST PUSH1 0x0 DUP1 PUSH1 0x0 PUSH2 0x5FB9 DUP8 PUSH1 0x0 PUSH1 0x2 DUP2 LT PUSH2 0x5F64 JUMPI PUSH2 0x5F63 PUSH2 0x89F7 JUMP JUMPDEST JUMPDEST PUSH1 0x20 MUL ADD MLOAD DUP9 PUSH1 0x1 PUSH1 0x2 DUP2 LT PUSH2 0x5F7D JUMPI PUSH2 0x5F7C PUSH2 0x89F7 JUMP JUMPDEST JUMPDEST PUSH1 0x20 MUL ADD MLOAD DUP9 PUSH1 0x0 PUSH1 0x2 DUP2 LT PUSH2 0x5F96 JUMPI PUSH2 0x5F95 PUSH2 0x89F7 JUMP JUMPDEST JUMPDEST PUSH1 0x20 MUL ADD MLOAD DUP10 PUSH1 0x1 PUSH1 0x2 DUP2 LT PUSH2 0x5FAF JUMPI PUSH2 0x5FAE PUSH2 0x89F7 JUMP JUMPDEST JUMPDEST PUSH1 0x20 MUL ADD MLOAD PUSH2 0x616C JUMP JUMPDEST DUP1 SWAP4 POP DUP2 SWAP5 POP DUP3 SWAP6 POP POP POP POP PUSH1 0x1 PUSH32 0xFFFFFFFFFFFFFFFFFFFFFFFFFFFFFFFFFFFFFFFFFFFFFFFFFFFFFFFEFFFFFC2F DUP1 PUSH2 0x5FF6 JUMPI PUSH2 0x5FF5 PUSH2 0x8999 JUMP JUMPDEST JUMPDEST DUP7 DUP4 MULMOD EQ PUSH2 0x6039 JUMPI PUSH1 0x40 MLOAD PUSH32 0x8C379A000000000000000000000000000000000000000000000000000000000 DUP2 MSTORE PUSH1 0x4 ADD PUSH2 0x6030 SWAP1 PUSH2 0x7C81 JUMP JUMPDEST PUSH1 0x40 MLOAD DUP1 SWAP2 SUB SWAP1 REVERT JUMPDEST PUSH1 0x40 MLOAD DUP1 PUSH1 0x40 ADD PUSH1 0x40 MSTORE DUP1 PUSH32 0xFFFFFFFFFFFFFFFFFFFFFFFFFFFFFFFFFFFFFFFFFFFFFFFFFFFFFFFEFFFFFC2F DUP1 PUSH2 0x6073 JUMPI PUSH2 0x6072 PUSH2 0x8999 JUMP JUMPDEST JUMPDEST DUP8 DUP7 MULMOD DUP2 MSTORE PUSH1 0x20 ADD PUSH32 0xFFFFFFFFFFFFFFFFFFFFFFFFFFFFFFFFFFFFFFFFFFFFFFFFFFFFFFFEFFFFFC2F DUP1 PUSH2 0x60AA JUMPI PUSH2 0x60A9 PUSH2 0x8999 JUMP JUMPDEST JUMPDEST DUP8 DUP6 MULMOD DUP2 MSTORE POP SWAP4 POP POP POP POP SWAP4 SWAP3 POP POP POP JUMP JUMPDEST PUSH1 0x0 DUP2 DUP1 MLOAD SWAP1 PUSH1 0x20 ADD KECCAK256 PUSH1 0x0 SHR SWAP1 POP JUMPDEST PUSH32 0xFFFFFFFFFFFFFFFFFFFFFFFFFFFFFFFFFFFFFFFFFFFFFFFFFFFFFFFEFFFFFC2F DUP2 LT PUSH2 0x6124 JUMPI DUP1 PUSH1 0x40 MLOAD PUSH1 0x20 ADD PUSH2 0x6104 SWAP2 SWAP1 PUSH2 0x7843 JUMP JUMPDEST PUSH1 0x40 MLOAD PUSH1 0x20 DUP2 DUP4 SUB SUB DUP2 MSTORE SWAP1 PUSH1 0x40 MSTORE DUP1 MLOAD SWAP1 PUSH1 0x20 ADD KECCAK256 PUSH1 0x0 SHR SWAP1 POP PUSH2 0x60CC JUMP JUMPDEST SWAP2 SWAP1 POP JUMP JUMPDEST PUSH1 0x0 PUSH2 0x6165 DUP3 PUSH1 0x2 PUSH1 0x1 PUSH32 0xFFFFFFFFFFFFFFFFFFFFFFFFFFFFFFFFFFFFFFFFFFFFFFFFFFFFFFFEFFFFFC2F PUSH2 0x615E SWAP2 SWAP1 PUSH2 0x83E9 JUMP JUMPDEST SWAP1 SHR PUSH2 0x6363 JUMP JUMPDEST SWAP1 POP SWAP2 SWAP1 POP JUMP JUMPDEST PUSH1 0x0 DUP1 PUSH1 0x0 DUP1 PUSH1 0x0 PUSH1 0x1 DUP1 SWAP2 POP SWAP2 POP PUSH1 0x0 PUSH32 0xFFFFFFFFFFFFFFFFFFFFFFFFFFFFFFFFFFFFFFFFFFFFFFFFFFFFFFFEFFFFFC2F DUP1 PUSH2 0x61AC JUMPI PUSH2 0x61AB PUSH2 0x8999 JUMP JUMPDEST JUMPDEST DUP10 PUSH32 0xFFFFFFFFFFFFFFFFFFFFFFFFFFFFFFFFFFFFFFFFFFFFFFFFFFFFFFFEFFFFFC2F SUB DUP9 ADDMOD SWAP1 POP PUSH1 0x0 PUSH32 0xFFFFFFFFFFFFFFFFFFFFFFFFFFFFFFFFFFFFFFFFFFFFFFFFFFFFFFFEFFFFFC2F DUP1 PUSH2 0x6204 JUMPI PUSH2 0x6203 PUSH2 0x8999 JUMP JUMPDEST JUMPDEST DUP12 PUSH32 0xFFFFFFFFFFFFFFFFFFFFFFFFFFFFFFFFFFFFFFFFFFFFFFFFFFFFFFFEFFFFFC2F SUB DUP11 ADDMOD SWAP1 POP PUSH1 0x0 PUSH2 0x6239 DUP4 DUP4 DUP6 DUP6 PUSH2 0x64C3 JUMP JUMPDEST DUP1 SWAP3 POP DUP2 SWAP10 POP POP POP PUSH2 0x624D DUP9 DUP3 DUP15 DUP9 PUSH2 0x653B JUMP JUMPDEST DUP1 SWAP3 POP DUP2 SWAP10 POP POP POP PUSH2 0x6261 DUP9 DUP3 DUP13 DUP8 PUSH2 0x653B JUMP JUMPDEST DUP1 SWAP3 POP DUP2 SWAP10 POP POP POP PUSH1 0x0 PUSH2 0x6277 DUP14 DUP8 DUP12 DUP6 PUSH2 0x653B JUMP JUMPDEST DUP1 SWAP3 POP DUP2 SWAP10 POP POP POP PUSH2 0x628B DUP9 DUP3 DUP7 DUP7 PUSH2 0x64C3 JUMP JUMPDEST DUP1 SWAP3 POP DUP2 SWAP10 POP POP POP PUSH2 0x629F DUP9 DUP3 DUP15 DUP10 PUSH2 0x653B JUMP JUMPDEST DUP1 SWAP3 POP DUP2 SWAP10 POP POP POP DUP1 DUP3 EQ PUSH2 0x634F JUMPI PUSH32 0xFFFFFFFFFFFFFFFFFFFFFFFFFFFFFFFFFFFFFFFFFFFFFFFFFFFFFFFEFFFFFC2F DUP1 PUSH2 0x62DD JUMPI PUSH2 0x62DC PUSH2 0x8999 JUMP JUMPDEST JUMPDEST DUP2 DUP11 MULMOD SWAP9 POP PUSH32 0xFFFFFFFFFFFFFFFFFFFFFFFFFFFFFFFFFFFFFFFFFFFFFFFFFFFFFFFEFFFFFC2F DUP1 PUSH2 0x6311 JUMPI PUSH2 0x6310 PUSH2 0x8999 JUMP JUMPDEST JUMPDEST DUP3 DUP10 MULMOD SWAP8 POP PUSH32 0xFFFFFFFFFFFFFFFFFFFFFFFFFFFFFFFFFFFFFFFFFFFFFFFFFFFFFFFEFFFFFC2F DUP1 PUSH2 0x6345 JUMPI PUSH2 0x6344 PUSH2 0x8999 JUMP JUMPDEST JUMPDEST DUP2 DUP4 MULMOD SWAP7 POP PUSH2 0x6353 JUMP JUMPDEST DUP2 SWAP7 POP JUMPDEST POP POP POP POP POP POP SWAP5 POP SWAP5 POP SWAP5 SWAP2 POP POP JUMP JUMPDEST PUSH1 0x0 DUP1 PUSH2 0x636E PUSH2 0x6710 JUMP JUMPDEST PUSH1 0x20 DUP2 PUSH1 0x0 PUSH1 0x6 DUP2 LT PUSH2 0x6384 JUMPI PUSH2 0x6383 PUSH2 0x89F7 JUMP JUMPDEST JUMPDEST PUSH1 0x20 MUL ADD DUP2 DUP2 MSTORE POP POP PUSH1 0x20 DUP2 PUSH1 0x1 PUSH1 0x6 DUP2 LT PUSH2 0x63A3 JUMPI PUSH2 0x63A2 PUSH2 0x89F7 JUMP JUMPDEST JUMPDEST PUSH1 0x20 MUL ADD DUP2 DUP2 MSTORE POP POP PUSH1 0x20 DUP2 PUSH1 0x2 PUSH1 0x6 DUP2 LT PUSH2 0x63C2 JUMPI PUSH2 0x63C1 PUSH2 0x89F7 JUMP JUMPDEST JUMPDEST PUSH1 0x20 MUL ADD DUP2 DUP2 MSTORE POP POP DUP5 DUP2 PUSH1 0x3 PUSH1 0x6 DUP2 LT PUSH2 0x63E0 JUMPI PUSH2 0x63DF PUSH2 0x89F7 JUMP JUMPDEST JUMPDEST PUSH1 0x20 MUL ADD DUP2 DUP2 MSTORE POP POP DUP4 DUP2 PUSH1 0x4 PUSH1 0x6 DUP2 LT PUSH2 0x63FE JUMPI PUSH2 0x63FD PUSH2 0x89F7 JUMP JUMPDEST JUMPDEST PUSH1 0x20 MUL ADD DUP2 DUP2 MSTORE POP POP PUSH32 0xFFFFFFFFFFFFFFFFFFFFFFFFFFFFFFFFFFFFFFFFFFFFFFFFFFFFFFFEFFFFFC2F DUP2 PUSH1 0x5 PUSH1 0x6 DUP2 LT PUSH2 0x643C JUMPI PUSH2 0x643B PUSH2 0x89F7 JUMP JUMPDEST JUMPDEST PUSH1 0x20 MUL ADD DUP2 DUP2 MSTORE POP POP PUSH2 0x644D PUSH2 0x6732 JUMP JUMPDEST PUSH1 0x20 DUP2 PUSH1 0xC0 DUP5 PUSH1 0x5 PUSH1 0x0 NOT STATICCALL SWAP3 POP PUSH1 0x0 DUP4 EQ ISZERO PUSH2 0x649F JUMPI PUSH1 0x40 MLOAD PUSH32 0x8C379A000000000000000000000000000000000000000000000000000000000 DUP2 MSTORE PUSH1 0x4 ADD PUSH2 0x6496 SWAP1 PUSH2 0x7C01 JUMP JUMPDEST PUSH1 0x40 MLOAD DUP1 SWAP2 SUB SWAP1 REVERT JUMPDEST DUP1 PUSH1 0x0 PUSH1 0x1 DUP2 LT PUSH2 0x64B3 JUMPI PUSH2 0x64B2 PUSH2 0x89F7 JUMP JUMPDEST JUMPDEST PUSH1 0x20 MUL ADD MLOAD SWAP4 POP POP POP POP SWAP3 SWAP2 POP POP JUMP JUMPDEST PUSH1 0x0 DUP1 PUSH32 0xFFFFFFFFFFFFFFFFFFFFFFFFFFFFFFFFFFFFFFFFFFFFFFFFFFFFFFFEFFFFFC2F DUP1 PUSH2 0x64F5 JUMPI PUSH2 0x64F4 PUSH2 0x8999 JUMP JUMPDEST JUMPDEST DUP5 DUP8 MULMOD PUSH32 0xFFFFFFFFFFFFFFFFFFFFFFFFFFFFFFFFFFFFFFFFFFFFFFFFFFFFFFFEFFFFFC2F DUP1 PUSH2 0x6527 JUMPI PUSH2 0x6526 PUSH2 0x8999 JUMP JUMPDEST JUMPDEST DUP5 DUP8 MULMOD DUP1 SWAP3 POP DUP2 SWAP4 POP POP POP SWAP5 POP SWAP5 SWAP3 POP POP POP JUMP JUMPDEST PUSH1 0x0 DUP1 PUSH1 0x0 PUSH32 0xFFFFFFFFFFFFFFFFFFFFFFFFFFFFFFFFFFFFFFFFFFFFFFFFFFFFFFFEFFFFFC2F DUP1 PUSH2 0x656F JUMPI PUSH2 0x656E PUSH2 0x8999 JUMP JUMPDEST JUMPDEST DUP8 DUP6 MULMOD SWAP1 POP PUSH1 0x0 PUSH32 0xFFFFFFFFFFFFFFFFFFFFFFFFFFFFFFFFFFFFFFFFFFFFFFFFFFFFFFFEFFFFFC2F DUP1 PUSH2 0x65A5 JUMPI PUSH2 0x65A4 PUSH2 0x8999 JUMP JUMPDEST JUMPDEST DUP8 DUP8 PUSH32 0xFFFFFFFFFFFFFFFFFFFFFFFFFFFFFFFFFFFFFFFFFFFFFFFFFFFFFFFEFFFFFC2F SUB MULMOD SWAP1 POP PUSH32 0xFFFFFFFFFFFFFFFFFFFFFFFFFFFFFFFFFFFFFFFFFFFFFFFFFFFFFFFEFFFFFC2F DUP1 PUSH2 0x65FB JUMPI PUSH2 0x65FA PUSH2 0x8999 JUMP JUMPDEST JUMPDEST DUP2 DUP4 ADDMOD PUSH32 0xFFFFFFFFFFFFFFFFFFFFFFFFFFFFFFFFFFFFFFFFFFFFFFFFFFFFFFFEFFFFFC2F DUP1 PUSH2 0x662D JUMPI PUSH2 0x662C PUSH2 0x8999 JUMP JUMPDEST JUMPDEST DUP7 DUP10 MULMOD DUP1 SWAP5 POP DUP2 SWAP6 POP POP POP POP POP SWAP5 POP SWAP5 SWAP3 POP POP POP JUMP JUMPDEST DUP3 DUP1 SLOAD DUP3 DUP3 SSTORE SWAP1 PUSH1 0x0 MSTORE PUSH1 0x20 PUSH1 0x0 KECCAK256 SWAP1 DUP2 ADD SWAP3 DUP3 ISZERO PUSH2 0x66BC JUMPI SWAP2 PUSH1 0x20 MUL DUP3 ADD JUMPDEST DUP3 DUP2 GT ISZERO PUSH2 0x66BB JUMPI DUP3 MLOAD DUP3 PUSH1 0x0 PUSH2 0x100 EXP DUP2 SLOAD DUP2 PUSH20 0xFFFFFFFFFFFFFFFFFFFFFFFFFFFFFFFFFFFFFFFF MUL NOT AND SWAP1 DUP4 PUSH20 0xFFFFFFFFFFFFFFFFFFFFFFFFFFFFFFFFFFFFFFFF AND MUL OR SWAP1 SSTORE POP SWAP2 PUSH1 0x20 ADD SWAP2 SWAP1 PUSH1 0x1 ADD SWAP1 PUSH2 0x6663 JUMP JUMPDEST JUMPDEST POP SWAP1 POP PUSH2 0x66C9 SWAP2 SWAP1 PUSH2 0x6754 JUMP JUMPDEST POP SWAP1 JUMP JUMPDEST POP DUP1 SLOAD PUSH1 0x0 DUP3 SSTORE SWAP1 PUSH1 0x0 MSTORE PUSH1 0x20 PUSH1 0x0 KECCAK256 SWAP1 DUP2 ADD SWAP1 PUSH2 0x66EB SWAP2 SWAP1 PUSH2 0x6754 JUMP JUMPDEST POP JUMP JUMPDEST PUSH1 0x40 MLOAD DUP1 PUSH1 0x40 ADD PUSH1 0x40 MSTORE DUP1 PUSH1 0x2 SWAP1 PUSH1 0x20 DUP3 MUL DUP1 CALLDATASIZE DUP4 CALLDATACOPY DUP1 DUP3 ADD SWAP2 POP POP SWAP1 POP POP SWAP1 JUMP JUMPDEST PUSH1 0x40 MLOAD DUP1 PUSH1 0xC0 ADD PUSH1 0x40 MSTORE DUP1 PUSH1 0x6 SWAP1 PUSH1 0x20 DUP3 MUL DUP1 CALLDATASIZE DUP4 CALLDATACOPY DUP1 DUP3 ADD SWAP2 POP POP SWAP1 POP POP SWAP1 JUMP JUMPDEST PUSH1 0x40 MLOAD DUP1 PUSH1 0x20 ADD PUSH1 0x40 MSTORE DUP1 PUSH1 0x1 SWAP1 PUSH1 0x20 DUP3 MUL DUP1 CALLDATASIZE DUP4 CALLDATACOPY DUP1 DUP3 ADD SWAP2 POP POP SWAP1 POP POP SWAP1 JUMP JUMPDEST JUMPDEST DUP1 DUP3 GT ISZERO PUSH2 0x676D JUMPI PUSH1 0x0 DUP2 PUSH1 0x0 SWAP1 SSTORE POP PUSH1 0x1 ADD PUSH2 0x6755 JUMP JUMPDEST POP SWAP1 JUMP JUMPDEST PUSH1 0x0 PUSH2 0x6784 PUSH2 0x677F DUP5 PUSH2 0x829D JUMP JUMPDEST PUSH2 0x8278 JUMP JUMPDEST SWAP1 POP DUP1 DUP3 DUP6 PUSH1 0x20 DUP7 MUL DUP3 ADD GT ISZERO PUSH2 0x679E JUMPI PUSH2 0x679D PUSH2 0x8A64 JUMP JUMPDEST JUMPDEST PUSH1 0x0 JUMPDEST DUP6 DUP2 LT ISZERO PUSH2 0x67CE JUMPI DUP2 PUSH2 0x67B4 DUP9 DUP3 PUSH2 0x6B71 JUMP JUMPDEST DUP5 MSTORE PUSH1 0x20 DUP5 ADD SWAP4 POP PUSH1 0x20 DUP4 ADD SWAP3 POP POP PUSH1 0x1 DUP2 ADD SWAP1 POP PUSH2 0x67A1 JUMP JUMPDEST POP POP POP SWAP4 SWAP3 POP POP POP JUMP JUMPDEST PUSH1 0x0 DUP2 CALLDATALOAD SWAP1 POP PUSH2 0x67E7 DUP2 PUSH2 0x8DE8 JUMP JUMPDEST SWAP3 SWAP2 POP POP JUMP JUMPDEST PUSH1 0x0 DUP2 SWAP1 POP DUP3 PUSH1 0x20 PUSH1 0x2 MUL DUP3 ADD GT ISZERO PUSH2 0x6809 JUMPI PUSH2 0x6808 PUSH2 0x8A64 JUMP JUMPDEST JUMPDEST SWAP3 SWAP2 POP POP JUMP JUMPDEST PUSH1 0x0 DUP3 PUSH1 0x1F DUP4 ADD SLT PUSH2 0x6824 JUMPI PUSH2 0x6823 PUSH2 0x8A5A JUMP JUMPDEST JUMPDEST PUSH1 0x2 PUSH2 0x6831 DUP5 DUP3 DUP6 PUSH2 0x6771 JUMP JUMPDEST SWAP2 POP POP SWAP3 SWAP2 POP POP JUMP JUMPDEST PUSH1 0x0 DUP2 MLOAD SWAP1 POP PUSH2 0x6849 DUP2 PUSH2 0x8DFF JUMP JUMPDEST SWAP3 SWAP2 POP POP JUMP JUMPDEST PUSH1 0x0 DUP2 CALLDATALOAD SWAP1 POP PUSH2 0x685E DUP2 PUSH2 0x8E16 JUMP JUMPDEST SWAP3 SWAP2 POP POP JUMP JUMPDEST PUSH1 0x0 DUP2 MLOAD SWAP1 POP PUSH2 0x6873 DUP2 PUSH2 0x8E16 JUMP JUMPDEST SWAP3 SWAP2 POP POP JUMP JUMPDEST PUSH1 0x0 DUP1 DUP4 PUSH1 0x1F DUP5 ADD SLT PUSH2 0x688F JUMPI PUSH2 0x688E PUSH2 0x8A5A JUMP JUMPDEST JUMPDEST DUP3 CALLDATALOAD SWAP1 POP PUSH8 0xFFFFFFFFFFFFFFFF DUP2 GT ISZERO PUSH2 0x68AC JUMPI PUSH2 0x68AB PUSH2 0x8A55 JUMP JUMPDEST JUMPDEST PUSH1 0x20 DUP4 ADD SWAP2 POP DUP4 PUSH1 0x1 DUP3 MUL DUP4 ADD GT ISZERO PUSH2 0x68C8 JUMPI PUSH2 0x68C7 PUSH2 0x8A64 JUMP JUMPDEST JUMPDEST SWAP3 POP SWAP3 SWAP1 POP JUMP JUMPDEST PUSH1 0x0 DUP2 CALLDATALOAD SWAP1 POP PUSH2 0x68DE DUP2 PUSH2 0x8E2D JUMP JUMPDEST SWAP3 SWAP2 POP POP JUMP JUMPDEST PUSH1 0x0 DUP2 MLOAD SWAP1 POP PUSH2 0x68F3 DUP2 PUSH2 0x8E2D JUMP JUMPDEST SWAP3 SWAP2 POP POP JUMP JUMPDEST PUSH1 0x0 PUSH2 0x120 DUP3 DUP5 SUB SLT ISZERO PUSH2 0x6910 JUMPI PUSH2 0x690F PUSH2 0x8A5F JUMP JUMPDEST JUMPDEST PUSH2 0x691B PUSH2 0x120 PUSH2 0x8278 JUMP JUMPDEST SWAP1 POP PUSH1 0x0 PUSH2 0x692B DUP5 DUP3 DUP6 ADD PUSH2 0x6B9B JUMP JUMPDEST PUSH1 0x0 DUP4 ADD MSTORE POP PUSH1 0x20 PUSH2 0x693F DUP5 DUP3 DUP6 ADD PUSH2 0x6B9B JUMP JUMPDEST PUSH1 0x20 DUP4 ADD MSTORE POP PUSH1 0x40 PUSH2 0x6953 DUP5 DUP3 DUP6 ADD PUSH2 0x6B9B JUMP JUMPDEST PUSH1 0x40 DUP4 ADD MSTORE POP PUSH1 0x60 PUSH2 0x6967 DUP5 DUP3 DUP6 ADD PUSH2 0x6B9B JUMP JUMPDEST PUSH1 0x60 DUP4 ADD MSTORE POP PUSH1 0x80 PUSH2 0x697B DUP5 DUP3 DUP6 ADD PUSH2 0x6B9B JUMP JUMPDEST PUSH1 0x80 DUP4 ADD MSTORE POP PUSH1 0xA0 PUSH2 0x698F DUP5 DUP3 DUP6 ADD PUSH2 0x6B5C JUMP JUMPDEST PUSH1 0xA0 DUP4 ADD MSTORE POP PUSH1 0xC0 PUSH2 0x69A3 DUP5 DUP3 DUP6 ADD PUSH2 0x6B5C JUMP JUMPDEST PUSH1 0xC0 DUP4 ADD MSTORE POP PUSH1 0xE0 PUSH2 0x69B7 DUP5 DUP3 DUP6 ADD PUSH2 0x6B5C JUMP JUMPDEST PUSH1 0xE0 DUP4 ADD MSTORE POP PUSH2 0x100 PUSH2 0x69CC DUP5 DUP3 DUP6 ADD PUSH2 0x6B5C JUMP JUMPDEST PUSH2 0x100 DUP4 ADD MSTORE POP SWAP3 SWAP2 POP POP JUMP JUMPDEST PUSH1 0x0 PUSH2 0x1A0 DUP3 DUP5 SUB SLT ISZERO PUSH2 0x69F0 JUMPI PUSH2 0x69EF PUSH2 0x8A5F JUMP JUMPDEST JUMPDEST PUSH2 0x69FB PUSH2 0x120 PUSH2 0x8278 JUMP JUMPDEST SWAP1 POP PUSH1 0x0 PUSH2 0x6A0B DUP5 DUP3 DUP6 ADD PUSH2 0x680F JUMP JUMPDEST PUSH1 0x0 DUP4 ADD MSTORE POP PUSH1 0x40 PUSH2 0x6A1F DUP5 DUP3 DUP6 ADD PUSH2 0x680F JUMP JUMPDEST PUSH1 0x20 DUP4 ADD MSTORE POP PUSH1 0x80 PUSH2 0x6A33 DUP5 DUP3 DUP6 ADD PUSH2 0x6B71 JUMP JUMPDEST PUSH1 0x40 DUP4 ADD MSTORE POP PUSH1 0xA0 PUSH2 0x6A47 DUP5 DUP3 DUP6 ADD PUSH2 0x6B71 JUMP JUMPDEST PUSH1 0x60 DUP4 ADD MSTORE POP PUSH1 0xC0 PUSH2 0x6A5B DUP5 DUP3 DUP6 ADD PUSH2 0x6B71 JUMP JUMPDEST PUSH1 0x80 DUP4 ADD MSTORE POP PUSH1 0xE0 PUSH2 0x6A6F DUP5 DUP3 DUP6 ADD PUSH2 0x67D8 JUMP JUMPDEST PUSH1 0xA0 DUP4 ADD MSTORE POP PUSH2 0x100 PUSH2 0x6A84 DUP5 DUP3 DUP6 ADD PUSH2 0x680F JUMP JUMPDEST PUSH1 0xC0 DUP4 ADD MSTORE POP PUSH2 0x140 PUSH2 0x6A99 DUP5 DUP3 DUP6 ADD PUSH2 0x680F JUMP JUMPDEST PUSH1 0xE0 DUP4 ADD MSTORE POP PUSH2 0x180 PUSH2 0x6AAE DUP5 DUP3 DUP6 ADD PUSH2 0x6B71 JUMP JUMPDEST PUSH2 0x100 DUP4 ADD MSTORE POP SWAP3 SWAP2 POP POP JUMP JUMPDEST PUSH1 0x0 PUSH1 0xA0 DUP3 DUP5 SUB SLT ISZERO PUSH2 0x6AD1 JUMPI PUSH2 0x6AD0 PUSH2 0x8A5F JUMP JUMPDEST JUMPDEST PUSH2 0x6ADB PUSH1 0xA0 PUSH2 0x8278 JUMP JUMPDEST SWAP1 POP PUSH1 0x0 PUSH2 0x6AEB DUP5 DUP3 DUP6 ADD PUSH2 0x6BB0 JUMP JUMPDEST PUSH1 0x0 DUP4 ADD MSTORE POP PUSH1 0x20 PUSH2 0x6AFF DUP5 DUP3 DUP6 ADD PUSH2 0x6BB0 JUMP JUMPDEST PUSH1 0x20 DUP4 ADD MSTORE POP PUSH1 0x40 PUSH2 0x6B13 DUP5 DUP3 DUP6 ADD PUSH2 0x6B9B JUMP JUMPDEST PUSH1 0x40 DUP4 ADD MSTORE POP PUSH1 0x60 PUSH2 0x6B27 DUP5 DUP3 DUP6 ADD PUSH2 0x6B9B JUMP JUMPDEST PUSH1 0x60 DUP4 ADD MSTORE POP PUSH1 0x80 PUSH2 0x6B3B DUP5 DUP3 DUP6 ADD PUSH2 0x67D8 JUMP JUMPDEST PUSH1 0x80 DUP4 ADD MSTORE POP SWAP3 SWAP2 POP POP JUMP JUMPDEST PUSH1 0x0 DUP2 CALLDATALOAD SWAP1 POP PUSH2 0x6B56 DUP2 PUSH2 0x8E44 JUMP JUMPDEST SWAP3 SWAP2 POP POP JUMP JUMPDEST PUSH1 0x0 DUP2 CALLDATALOAD SWAP1 POP PUSH2 0x6B6B DUP2 PUSH2 0x8E5B JUMP JUMPDEST SWAP3 SWAP2 POP POP JUMP JUMPDEST PUSH1 0x0 DUP2 CALLDATALOAD SWAP1 POP PUSH2 0x6B80 DUP2 PUSH2 0x8E72 JUMP JUMPDEST SWAP3 SWAP2 POP POP JUMP JUMPDEST PUSH1 0x0 DUP2 MLOAD SWAP1 POP PUSH2 0x6B95 DUP2 PUSH2 0x8E72 JUMP JUMPDEST SWAP3 SWAP2 POP POP JUMP JUMPDEST PUSH1 0x0 DUP2 CALLDATALOAD SWAP1 POP PUSH2 0x6BAA DUP2 PUSH2 0x8E89 JUMP JUMPDEST SWAP3 SWAP2 POP POP JUMP JUMPDEST PUSH1 0x0 DUP2 CALLDATALOAD SWAP1 POP PUSH2 0x6BBF DUP2 PUSH2 0x8EA0 JUMP JUMPDEST SWAP3 SWAP2 POP POP JUMP JUMPDEST PUSH1 0x0 DUP2 MLOAD SWAP1 POP PUSH2 0x6BD4 DUP2 PUSH2 0x8EB7 JUMP JUMPDEST SWAP3 SWAP2 POP POP JUMP JUMPDEST PUSH1 0x0 DUP2 CALLDATALOAD SWAP1 POP PUSH2 0x6BE9 DUP2 PUSH2 0x8ECE JUMP JUMPDEST SWAP3 SWAP2 POP POP JUMP JUMPDEST PUSH1 0x0 PUSH1 0x20 DUP3 DUP5 SUB SLT ISZERO PUSH2 0x6C05 JUMPI PUSH2 0x6C04 PUSH2 0x8A6E JUMP JUMPDEST JUMPDEST PUSH1 0x0 PUSH2 0x6C13 DUP5 DUP3 DUP6 ADD PUSH2 0x67D8 JUMP JUMPDEST SWAP2 POP POP SWAP3 SWAP2 POP POP JUMP JUMPDEST PUSH1 0x0 DUP1 PUSH1 0x60 DUP4 DUP6 SUB SLT ISZERO PUSH2 0x6C33 JUMPI PUSH2 0x6C32 PUSH2 0x8A6E JUMP JUMPDEST JUMPDEST PUSH1 0x0 PUSH2 0x6C41 DUP6 DUP3 DUP7 ADD PUSH2 0x67D8 JUMP JUMPDEST SWAP3 POP POP PUSH1 0x20 PUSH2 0x6C52 DUP6 DUP3 DUP7 ADD PUSH2 0x67ED JUMP JUMPDEST SWAP2 POP POP SWAP3 POP SWAP3 SWAP1 POP JUMP JUMPDEST PUSH1 0x0 DUP1 PUSH1 0x0 DUP1 PUSH1 0x60 DUP6 DUP8 SUB SLT ISZERO PUSH2 0x6C76 JUMPI PUSH2 0x6C75 PUSH2 0x8A6E JUMP JUMPDEST JUMPDEST PUSH1 0x0 PUSH2 0x6C84 DUP8 DUP3 DUP9 ADD PUSH2 0x67D8 JUMP JUMPDEST SWAP5 POP POP PUSH1 0x20 PUSH2 0x6C95 DUP8 DUP3 DUP9 ADD PUSH2 0x6B71 JUMP JUMPDEST SWAP4 POP POP PUSH1 0x40 DUP6 ADD CALLDATALOAD PUSH8 0xFFFFFFFFFFFFFFFF DUP2 GT ISZERO PUSH2 0x6CB6 JUMPI PUSH2 0x6CB5 PUSH2 0x8A69 JUMP JUMPDEST JUMPDEST PUSH2 0x6CC2 DUP8 DUP3 DUP9 ADD PUSH2 0x6879 JUMP JUMPDEST SWAP3 POP SWAP3 POP POP SWAP3 SWAP6 SWAP2 SWAP5 POP SWAP3 POP JUMP JUMPDEST PUSH1 0x0 DUP1 PUSH1 0x40 DUP4 DUP6 SUB SLT ISZERO PUSH2 0x6CE7 JUMPI PUSH2 0x6CE6 PUSH2 0x8A6E JUMP JUMPDEST JUMPDEST PUSH1 0x0 PUSH2 0x6CF5 DUP6 DUP3 DUP7 ADD PUSH2 0x67D8 JUMP JUMPDEST SWAP3 POP POP PUSH1 0x20 PUSH2 0x6D06 DUP6 DUP3 DUP7 ADD PUSH2 0x6BDA JUMP JUMPDEST SWAP2 POP POP SWAP3 POP SWAP3 SWAP1 POP JUMP JUMPDEST PUSH1 0x0 PUSH1 0x40 DUP3 DUP5 SUB SLT ISZERO PUSH2 0x6D26 JUMPI PUSH2 0x6D25 PUSH2 0x8A6E JUMP JUMPDEST JUMPDEST PUSH1 0x0 PUSH2 0x6D34 DUP5 DUP3 DUP6 ADD PUSH2 0x67ED JUMP JUMPDEST SWAP2 POP POP SWAP3 SWAP2 POP POP JUMP JUMPDEST PUSH1 0x0 PUSH1 0x40 DUP3 DUP5 SUB SLT ISZERO PUSH2 0x6D53 JUMPI PUSH2 0x6D52 PUSH2 0x8A6E JUMP JUMPDEST JUMPDEST PUSH1 0x0 PUSH2 0x6D61 DUP5 DUP3 DUP6 ADD PUSH2 0x680F JUMP JUMPDEST SWAP2 POP POP SWAP3 SWAP2 POP POP JUMP JUMPDEST PUSH1 0x0 PUSH1 0x20 DUP3 DUP5 SUB SLT ISZERO PUSH2 0x6D80 JUMPI PUSH2 0x6D7F PUSH2 0x8A6E JUMP JUMPDEST JUMPDEST PUSH1 0x0 PUSH2 0x6D8E DUP5 DUP3 DUP6 ADD PUSH2 0x683A JUMP JUMPDEST SWAP2 POP POP SWAP3 SWAP2 POP POP JUMP JUMPDEST PUSH1 0x0 PUSH1 0x20 DUP3 DUP5 SUB SLT ISZERO PUSH2 0x6DAD JUMPI PUSH2 0x6DAC PUSH2 0x8A6E JUMP JUMPDEST JUMPDEST PUSH1 0x0 PUSH2 0x6DBB DUP5 DUP3 DUP6 ADD PUSH2 0x6864 JUMP JUMPDEST SWAP2 POP POP SWAP3 SWAP2 POP POP JUMP JUMPDEST PUSH1 0x0 DUP1 PUSH1 0x0 DUP1 PUSH1 0x0 PUSH1 0xA0 DUP7 DUP9 SUB SLT ISZERO PUSH2 0x6DE0 JUMPI PUSH2 0x6DDF PUSH2 0x8A6E JUMP JUMPDEST JUMPDEST PUSH1 0x0 PUSH2 0x6DEE DUP9 DUP3 DUP10 ADD PUSH2 0x684F JUMP JUMPDEST SWAP6 POP POP PUSH1 0x20 PUSH2 0x6DFF DUP9 DUP3 DUP10 ADD PUSH2 0x6BB0 JUMP JUMPDEST SWAP5 POP POP PUSH1 0x40 PUSH2 0x6E10 DUP9 DUP3 DUP10 ADD PUSH2 0x6B47 JUMP JUMPDEST SWAP4 POP POP PUSH1 0x60 PUSH2 0x6E21 DUP9 DUP3 DUP10 ADD PUSH2 0x6B9B JUMP JUMPDEST SWAP3 POP POP PUSH1 0x80 PUSH2 0x6E32 DUP9 DUP3 DUP10 ADD PUSH2 0x6B9B JUMP JUMPDEST SWAP2 POP POP SWAP3 SWAP6 POP SWAP3 SWAP6 SWAP1 SWAP4 POP JUMP JUMPDEST PUSH1 0x0 DUP1 PUSH2 0x240 DUP4 DUP6 SUB SLT ISZERO PUSH2 0x6E57 JUMPI PUSH2 0x6E56 PUSH2 0x8A6E JUMP JUMPDEST JUMPDEST PUSH1 0x0 PUSH2 0x6E65 DUP6 DUP3 DUP7 ADD PUSH2 0x69D9 JUMP JUMPDEST SWAP3 POP POP PUSH2 0x1A0 PUSH2 0x6E77 DUP6 DUP3 DUP7 ADD PUSH2 0x6ABB JUMP JUMPDEST SWAP2 POP POP SWAP3 POP SWAP3 SWAP1 POP JUMP JUMPDEST PUSH1 0x0 DUP1 PUSH1 0x0 DUP1 PUSH1 0x0 DUP1 PUSH2 0x1C0 DUP8 DUP10 SUB SLT ISZERO PUSH2 0x6E9F JUMPI PUSH2 0x6E9E PUSH2 0x8A6E JUMP JUMPDEST JUMPDEST PUSH1 0x0 PUSH2 0x6EAD DUP10 DUP3 DUP11 ADD PUSH2 0x6B47 JUMP JUMPDEST SWAP7 POP POP PUSH1 0x20 PUSH2 0x6EBE DUP10 DUP3 DUP11 ADD PUSH2 0x6B9B JUMP JUMPDEST SWAP6 POP POP PUSH1 0x40 PUSH2 0x6ECF DUP10 DUP3 DUP11 ADD PUSH2 0x6B9B JUMP JUMPDEST SWAP5 POP POP PUSH1 0x60 PUSH2 0x6EE0 DUP10 DUP3 DUP11 ADD PUSH2 0x6B9B JUMP JUMPDEST SWAP4 POP POP PUSH1 0x80 PUSH2 0x6EF1 DUP10 DUP3 DUP11 ADD PUSH2 0x68CF JUMP JUMPDEST SWAP3 POP POP PUSH1 0xA0 PUSH2 0x6F02 DUP10 DUP3 DUP11 ADD PUSH2 0x68F9 JUMP JUMPDEST SWAP2 POP POP SWAP3 SWAP6 POP SWAP3 SWAP6 POP SWAP3 SWAP6 JUMP JUMPDEST PUSH1 0x0 PUSH1 0x20 DUP3 DUP5 SUB SLT ISZERO PUSH2 0x6F25 JUMPI PUSH2 0x6F24 PUSH2 0x8A6E JUMP JUMPDEST JUMPDEST PUSH1 0x0 PUSH2 0x6F33 DUP5 DUP3 DUP6 ADD PUSH2 0x6B71 JUMP JUMPDEST SWAP2 POP POP SWAP3 SWAP2 POP POP JUMP JUMPDEST PUSH1 0x0 PUSH1 0x20 DUP3 DUP5 SUB SLT ISZERO PUSH2 0x6F52 JUMPI PUSH2 0x6F51 PUSH2 0x8A6E JUMP JUMPDEST JUMPDEST PUSH1 0x0 PUSH2 0x6F60 DUP5 DUP3 DUP6 ADD PUSH2 0x6B86 JUMP JUMPDEST SWAP2 POP POP SWAP3 SWAP2 POP POP JUMP JUMPDEST PUSH1 0x0 PUSH1 0x20 DUP3 DUP5 SUB SLT ISZERO PUSH2 0x6F7F JUMPI PUSH2 0x6F7E PUSH2 0x8A6E JUMP JUMPDEST JUMPDEST PUSH1 0x0 PUSH2 0x6F8D DUP5 DUP3 DUP6 ADD PUSH2 0x6BB0 JUMP JUMPDEST SWAP2 POP POP SWAP3 SWAP2 POP POP JUMP JUMPDEST PUSH1 0x0 DUP1 PUSH1 0x40 DUP4 DUP6 SUB SLT ISZERO PUSH2 0x6FAD JUMPI PUSH2 0x6FAC PUSH2 0x8A6E JUMP JUMPDEST JUMPDEST PUSH1 0x0 PUSH2 0x6FBB DUP6 DUP3 DUP7 ADD PUSH2 0x6BB0 JUMP JUMPDEST SWAP3 POP POP PUSH1 0x20 PUSH2 0x6FCC DUP6 DUP3 DUP7 ADD PUSH2 0x67D8 JUMP JUMPDEST SWAP2 POP POP SWAP3 POP SWAP3 SWAP1 POP JUMP JUMPDEST PUSH1 0x0 DUP1 PUSH1 0x0 DUP1 PUSH1 0x0 PUSH1 0xA0 DUP7 DUP9 SUB SLT ISZERO PUSH2 0x6FF2 JUMPI PUSH2 0x6FF1 PUSH2 0x8A6E JUMP JUMPDEST JUMPDEST PUSH1 0x0 PUSH2 0x7000 DUP9 DUP3 DUP10 ADD PUSH2 0x6BC5 JUMP JUMPDEST SWAP6 POP POP PUSH1 0x20 PUSH2 0x7011 DUP9 DUP3 DUP10 ADD PUSH2 0x68E4 JUMP JUMPDEST SWAP5 POP POP PUSH1 0x40 PUSH2 0x7022 DUP9 DUP3 DUP10 ADD PUSH2 0x6B86 JUMP JUMPDEST SWAP4 POP POP PUSH1 0x60 PUSH2 0x7033 DUP9 DUP3 DUP10 ADD PUSH2 0x6B86 JUMP JUMPDEST SWAP3 POP POP PUSH1 0x80 PUSH2 0x7044 DUP9 DUP3 DUP10 ADD PUSH2 0x6BC5 JUMP JUMPDEST SWAP2 POP POP SWAP3 SWAP6 POP SWAP3 SWAP6 SWAP1 SWAP4 POP JUMP JUMPDEST PUSH1 0x0 PUSH2 0x705D DUP4 DUP4 PUSH2 0x70B1 JUMP JUMPDEST PUSH1 0x20 DUP4 ADD SWAP1 POP SWAP3 SWAP2 POP POP JUMP JUMPDEST PUSH1 0x0 PUSH2 0x7075 DUP4 DUP4 PUSH2 0x72BD JUMP JUMPDEST PUSH1 0x20 DUP4 ADD SWAP1 POP SWAP3 SWAP2 POP POP JUMP JUMPDEST PUSH1 0x0 PUSH2 0x708D DUP4 DUP4 PUSH2 0x7757 JUMP JUMPDEST PUSH1 0x20 DUP4 ADD SWAP1 POP SWAP3 SWAP2 POP POP JUMP JUMPDEST PUSH1 0x0 PUSH2 0x70A5 DUP4 DUP4 PUSH2 0x7775 JUMP JUMPDEST PUSH1 0x20 DUP4 ADD SWAP1 POP SWAP3 SWAP2 POP POP JUMP JUMPDEST PUSH2 0x70BA DUP2 PUSH2 0x85D1 JUMP JUMPDEST DUP3 MSTORE POP POP JUMP JUMPDEST PUSH2 0x70C9 DUP2 PUSH2 0x85D1 JUMP JUMPDEST DUP3 MSTORE POP POP JUMP JUMPDEST PUSH2 0x70E0 PUSH2 0x70DB DUP3 PUSH2 0x85D1 JUMP JUMPDEST PUSH2 0x8901 JUMP JUMPDEST DUP3 MSTORE POP POP JUMP JUMPDEST PUSH1 0x0 PUSH2 0x70F1 DUP3 PUSH2 0x82FD JUMP JUMPDEST PUSH2 0x70FB DUP2 DUP6 PUSH2 0x8373 JUMP JUMPDEST SWAP4 POP PUSH2 0x7106 DUP4 PUSH2 0x82C3 JUMP JUMPDEST DUP1 PUSH1 0x0 JUMPDEST DUP4 DUP2 LT ISZERO PUSH2 0x7137 JUMPI DUP2 MLOAD PUSH2 0x711E DUP9 DUP3 PUSH2 0x7051 JUMP JUMPDEST SWAP8 POP PUSH2 0x7129 DUP4 PUSH2 0x833F JUMP JUMPDEST SWAP3 POP POP PUSH1 0x1 DUP2 ADD SWAP1 POP PUSH2 0x710A JUMP JUMPDEST POP DUP6 SWAP4 POP POP POP POP SWAP3 SWAP2 POP POP JUMP JUMPDEST PUSH1 0x0 PUSH2 0x714F DUP3 PUSH2 0x8308 JUMP JUMPDEST PUSH2 0x7159 DUP2 DUP6 PUSH2 0x8384 JUMP JUMPDEST SWAP4 POP PUSH2 0x7164 DUP4 PUSH2 0x82D3 JUMP JUMPDEST DUP1 PUSH1 0x0 JUMPDEST DUP4 DUP2 LT ISZERO PUSH2 0x7195 JUMPI DUP2 MLOAD PUSH2 0x717C DUP9 DUP3 PUSH2 0x7069 JUMP JUMPDEST SWAP8 POP PUSH2 0x7187 DUP4 PUSH2 0x834C JUMP JUMPDEST SWAP3 POP POP PUSH1 0x1 DUP2 ADD SWAP1 POP PUSH2 0x7168 JUMP JUMPDEST POP DUP6 SWAP4 POP POP POP POP SWAP3 SWAP2 POP POP JUMP JUMPDEST PUSH2 0x71AB DUP2 PUSH2 0x8313 JUMP JUMPDEST PUSH2 0x71B5 DUP2 DUP5 PUSH2 0x8395 JUMP JUMPDEST SWAP3 POP PUSH2 0x71C0 DUP3 PUSH2 0x82E3 JUMP JUMPDEST DUP1 PUSH1 0x0 JUMPDEST DUP4 DUP2 LT ISZERO PUSH2 0x71F1 JUMPI DUP2 MLOAD PUSH2 0x71D8 DUP8 DUP3 PUSH2 0x7081 JUMP JUMPDEST SWAP7 POP PUSH2 0x71E3 DUP4 PUSH2 0x8359 JUMP JUMPDEST SWAP3 POP POP PUSH1 0x1 DUP2 ADD SWAP1 POP PUSH2 0x71C4 JUMP JUMPDEST POP POP POP POP POP POP JUMP JUMPDEST PUSH2 0x7202 DUP2 PUSH2 0x8313 JUMP JUMPDEST PUSH2 0x720C DUP2 DUP5 PUSH2 0x83A0 JUMP JUMPDEST SWAP3 POP PUSH2 0x7217 DUP3 PUSH2 0x82E3 JUMP JUMPDEST DUP1 PUSH1 0x0 JUMPDEST DUP4 DUP2 LT ISZERO PUSH2 0x7248 JUMPI DUP2 MLOAD PUSH2 0x722F DUP8 DUP3 PUSH2 0x7099 JUMP JUMPDEST SWAP7 POP PUSH2 0x723A DUP4 PUSH2 0x8359 JUMP JUMPDEST SWAP3 POP POP PUSH1 0x1 DUP2 ADD SWAP1 POP PUSH2 0x721B JUMP JUMPDEST POP POP POP POP POP POP JUMP JUMPDEST PUSH1 0x0 PUSH2 0x725B DUP3 PUSH2 0x831E JUMP JUMPDEST PUSH2 0x7265 DUP2 DUP6 PUSH2 0x83AB JUMP JUMPDEST SWAP4 POP PUSH2 0x7270 DUP4 PUSH2 0x82ED JUMP JUMPDEST DUP1 PUSH1 0x0 JUMPDEST DUP4 DUP2 LT ISZERO PUSH2 0x72A1 JUMPI DUP2 MLOAD PUSH2 0x7288 DUP9 DUP3 PUSH2 0x7081 JUMP JUMPDEST SWAP8 POP PUSH2 0x7293 DUP4 PUSH2 0x8366 JUMP JUMPDEST SWAP3 POP POP PUSH1 0x1 DUP2 ADD SWAP1 POP PUSH2 0x7274 JUMP JUMPDEST POP DUP6 SWAP4 POP POP POP POP SWAP3 SWAP2 POP POP JUMP JUMPDEST PUSH2 0x72B7 DUP2 PUSH2 0x85E3 JUMP JUMPDEST DUP3 MSTORE POP POP JUMP JUMPDEST PUSH2 0x72C6 DUP2 PUSH2 0x85EF JUMP JUMPDEST DUP3 MSTORE POP POP JUMP JUMPDEST PUSH2 0x72D5 DUP2 PUSH2 0x85EF JUMP JUMPDEST DUP3 MSTORE POP POP JUMP JUMPDEST PUSH2 0x72EC PUSH2 0x72E7 DUP3 PUSH2 0x85EF JUMP JUMPDEST PUSH2 0x8913 JUMP JUMPDEST DUP3 MSTORE POP POP JUMP JUMPDEST PUSH1 0x0 PUSH2 0x72FD DUP3 PUSH2 0x8329 JUMP JUMPDEST PUSH2 0x7307 DUP2 DUP6 PUSH2 0x83BC JUMP JUMPDEST SWAP4 POP PUSH2 0x7317 DUP2 DUP6 PUSH1 0x20 DUP7 ADD PUSH2 0x8739 JUMP JUMPDEST PUSH2 0x7320 DUP2 PUSH2 0x8A73 JUMP JUMPDEST DUP5 ADD SWAP2 POP POP SWAP3 SWAP2 POP POP JUMP JUMPDEST PUSH1 0x0 PUSH2 0x7336 DUP3 PUSH2 0x8329 JUMP JUMPDEST PUSH2 0x7340 DUP2 DUP6 PUSH2 0x83CD JUMP JUMPDEST SWAP4 POP PUSH2 0x7350 DUP2 DUP6 PUSH1 0x20 DUP7 ADD PUSH2 0x8739 JUMP JUMPDEST DUP1 DUP5 ADD SWAP2 POP POP SWAP3 SWAP2 POP POP JUMP JUMPDEST PUSH2 0x7365 DUP2 PUSH2 0x86A9 JUMP JUMPDEST DUP3 MSTORE POP POP JUMP JUMPDEST PUSH2 0x7374 DUP2 PUSH2 0x86CD JUMP JUMPDEST DUP3 MSTORE POP POP JUMP JUMPDEST PUSH2 0x7383 DUP2 PUSH2 0x86F1 JUMP JUMPDEST DUP3 MSTORE POP POP JUMP JUMPDEST PUSH2 0x7392 DUP2 PUSH2 0x85F9 JUMP JUMPDEST DUP3 MSTORE POP POP JUMP JUMPDEST PUSH1 0x0 PUSH2 0x73A3 DUP3 PUSH2 0x8334 JUMP JUMPDEST PUSH2 0x73AD DUP2 DUP6 PUSH2 0x83D8 JUMP JUMPDEST SWAP4 POP PUSH2 0x73BD DUP2 DUP6 PUSH1 0x20 DUP7 ADD PUSH2 0x8739 JUMP JUMPDEST PUSH2 0x73C6 DUP2 PUSH2 0x8A73 JUMP JUMPDEST DUP5 ADD SWAP2 POP POP SWAP3 SWAP2 POP POP JUMP JUMPDEST PUSH1 0x0 PUSH2 0x73DE PUSH1 0x16 DUP4 PUSH2 0x83D8 JUMP JUMPDEST SWAP2 POP PUSH2 0x73E9 DUP3 PUSH2 0x8B06 JUMP JUMPDEST PUSH1 0x20 DUP3 ADD SWAP1 POP SWAP2 SWAP1 POP JUMP JUMPDEST PUSH1 0x0 PUSH2 0x7401 PUSH1 0x17 DUP4 PUSH2 0x83D8 JUMP JUMPDEST SWAP2 POP PUSH2 0x740C DUP3 PUSH2 0x8B2F JUMP JUMPDEST PUSH1 0x20 DUP3 ADD SWAP1 POP SWAP2 SWAP1 POP JUMP JUMPDEST PUSH1 0x0 PUSH2 0x7424 PUSH1 0x1E DUP4 PUSH2 0x83D8 JUMP JUMPDEST SWAP2 POP PUSH2 0x742F DUP3 PUSH2 0x8B58 JUMP JUMPDEST PUSH1 0x20 DUP3 ADD SWAP1 POP SWAP2 SWAP1 POP JUMP JUMPDEST PUSH1 0x0 PUSH2 0x7447 PUSH1 0x16 DUP4 PUSH2 0x83D8 JUMP JUMPDEST SWAP2 POP PUSH2 0x7452 DUP3 PUSH2 0x8B81 JUMP JUMPDEST PUSH1 0x20 DUP3 ADD SWAP1 POP SWAP2 SWAP1 POP JUMP JUMPDEST PUSH1 0x0 PUSH2 0x746A PUSH1 0x12 DUP4 PUSH2 0x83D8 JUMP JUMPDEST SWAP2 POP PUSH2 0x7475 DUP3 PUSH2 0x8BAA JUMP JUMPDEST PUSH1 0x20 DUP3 ADD SWAP1 POP SWAP2 SWAP1 POP JUMP JUMPDEST PUSH1 0x0 PUSH2 0x748D PUSH1 0x12 DUP4 PUSH2 0x83D8 JUMP JUMPDEST SWAP2 POP PUSH2 0x7498 DUP3 PUSH2 0x8BD3 JUMP JUMPDEST PUSH1 0x20 DUP3 ADD SWAP1 POP SWAP2 SWAP1 POP JUMP JUMPDEST PUSH1 0x0 PUSH2 0x74B0 PUSH1 0xB DUP4 PUSH2 0x83D8 JUMP JUMPDEST SWAP2 POP PUSH2 0x74BB DUP3 PUSH2 0x8BFC JUMP JUMPDEST PUSH1 0x20 DUP3 ADD SWAP1 POP SWAP2 SWAP1 POP JUMP JUMPDEST PUSH1 0x0 PUSH2 0x74D3 PUSH1 0x19 DUP4 PUSH2 0x83D8 JUMP JUMPDEST SWAP2 POP PUSH2 0x74DE DUP3 PUSH2 0x8C25 JUMP JUMPDEST PUSH1 0x20 DUP3 ADD SWAP1 POP SWAP2 SWAP1 POP JUMP JUMPDEST PUSH1 0x0 PUSH2 0x74F6 PUSH1 0x19 DUP4 PUSH2 0x83D8 JUMP JUMPDEST SWAP2 POP PUSH2 0x7501 DUP3 PUSH2 0x8C4E JUMP JUMPDEST PUSH1 0x20 DUP3 ADD SWAP1 POP SWAP2 SWAP1 POP JUMP JUMPDEST PUSH1 0x0 PUSH2 0x7519 PUSH1 0x1D DUP4 PUSH2 0x83D8 JUMP JUMPDEST SWAP2 POP PUSH2 0x7524 DUP3 PUSH2 0x8C77 JUMP JUMPDEST PUSH1 0x20 DUP3 ADD SWAP1 POP SWAP2 SWAP1 POP JUMP JUMPDEST PUSH1 0x0 PUSH2 0x753C PUSH1 0x1A DUP4 PUSH2 0x83D8 JUMP JUMPDEST SWAP2 POP PUSH2 0x7547 DUP3 PUSH2 0x8CA0 JUMP JUMPDEST PUSH1 0x20 DUP3 ADD SWAP1 POP SWAP2 SWAP1 POP JUMP JUMPDEST PUSH1 0x0 PUSH2 0x755F PUSH1 0x15 DUP4 PUSH2 0x83D8 JUMP JUMPDEST SWAP2 POP PUSH2 0x756A DUP3 PUSH2 0x8CC9 JUMP JUMPDEST PUSH1 0x20 DUP3 ADD SWAP1 POP SWAP2 SWAP1 POP JUMP JUMPDEST PUSH1 0x0 PUSH2 0x7582 PUSH1 0xD DUP4 PUSH2 0x83D8 JUMP JUMPDEST SWAP2 POP PUSH2 0x758D DUP3 PUSH2 0x8CF2 JUMP JUMPDEST PUSH1 0x20 DUP3 ADD SWAP1 POP SWAP2 SWAP1 POP JUMP JUMPDEST PUSH1 0x0 PUSH2 0x75A5 PUSH1 0x17 DUP4 PUSH2 0x83D8 JUMP JUMPDEST SWAP2 POP PUSH2 0x75B0 DUP3 PUSH2 0x8D1B JUMP JUMPDEST PUSH1 0x20 DUP3 ADD SWAP1 POP SWAP2 SWAP1 POP JUMP JUMPDEST PUSH1 0x0 PUSH2 0x75C8 PUSH1 0x16 DUP4 PUSH2 0x83D8 JUMP JUMPDEST SWAP2 POP PUSH2 0x75D3 DUP3 PUSH2 0x8D44 JUMP JUMPDEST PUSH1 0x20 DUP3 ADD SWAP1 POP SWAP2 SWAP1 POP JUMP JUMPDEST PUSH1 0x0 PUSH2 0x75EB PUSH1 0xB DUP4 PUSH2 0x83D8 JUMP JUMPDEST SWAP2 POP PUSH2 0x75F6 DUP3 PUSH2 0x8D6D JUMP JUMPDEST PUSH1 0x20 DUP3 ADD SWAP1 POP SWAP2 SWAP1 POP JUMP JUMPDEST PUSH1 0x0 PUSH2 0x760E PUSH1 0x12 DUP4 PUSH2 0x83D8 JUMP JUMPDEST SWAP2 POP PUSH2 0x7619 DUP3 PUSH2 0x8D96 JUMP JUMPDEST PUSH1 0x20 DUP3 ADD SWAP1 POP SWAP2 SWAP1 POP JUMP JUMPDEST PUSH1 0x0 PUSH2 0x7631 PUSH1 0x1C DUP4 PUSH2 0x83D8 JUMP JUMPDEST SWAP2 POP PUSH2 0x763C DUP3 PUSH2 0x8DBF JUMP JUMPDEST PUSH1 0x20 DUP3 ADD SWAP1 POP SWAP2 SWAP1 POP JUMP JUMPDEST PUSH2 0x120 DUP3 ADD PUSH1 0x0 DUP1 DUP4 ADD SLOAD SWAP1 POP PUSH2 0x765D DUP2 PUSH2 0x876C JUMP JUMPDEST PUSH2 0x766A PUSH1 0x0 DUP7 ADD DUP3 PUSH2 0x779B JUMP JUMPDEST POP PUSH2 0x7674 DUP2 PUSH2 0x8822 JUMP JUMPDEST PUSH2 0x7681 PUSH1 0x20 DUP7 ADD DUP3 PUSH2 0x779B JUMP JUMPDEST POP PUSH2 0x768B DUP2 PUSH2 0x883C JUMP JUMPDEST PUSH2 0x7698 PUSH1 0x40 DUP7 ADD DUP3 PUSH2 0x779B JUMP JUMPDEST POP PUSH2 0x76A2 DUP2 PUSH2 0x8786 JUMP JUMPDEST PUSH2 0x76AF PUSH1 0x60 DUP7 ADD DUP3 PUSH2 0x779B JUMP JUMPDEST POP PUSH2 0x76B9 DUP2 PUSH2 0x87A0 JUMP JUMPDEST PUSH2 0x76C6 PUSH1 0x80 DUP7 ADD DUP3 PUSH2 0x779B JUMP JUMPDEST POP PUSH2 0x76D0 DUP2 PUSH2 0x87BA JUMP JUMPDEST PUSH2 0x76DD PUSH1 0xA0 DUP7 ADD DUP3 PUSH2 0x7739 JUMP JUMPDEST POP PUSH2 0x76E7 DUP2 PUSH2 0x87D4 JUMP JUMPDEST PUSH2 0x76F4 PUSH1 0xC0 DUP7 ADD DUP3 PUSH2 0x7739 JUMP JUMPDEST POP PUSH2 0x76FE DUP2 PUSH2 0x87EE JUMP JUMPDEST PUSH2 0x770B PUSH1 0xE0 DUP7 ADD DUP3 PUSH2 0x7739 JUMP JUMPDEST POP PUSH2 0x7715 DUP2 PUSH2 0x8808 JUMP JUMPDEST PUSH2 0x7723 PUSH2 0x100 DUP7 ADD DUP3 PUSH2 0x7739 JUMP JUMPDEST POP POP POP POP POP JUMP JUMPDEST PUSH2 0x7733 DUP2 PUSH2 0x8603 JUMP JUMPDEST DUP3 MSTORE POP POP JUMP JUMPDEST PUSH2 0x7742 DUP2 PUSH2 0x8631 JUMP JUMPDEST DUP3 MSTORE POP POP JUMP JUMPDEST PUSH2 0x7751 DUP2 PUSH2 0x8631 JUMP JUMPDEST DUP3 MSTORE POP POP JUMP JUMPDEST PUSH2 0x7760 DUP2 PUSH2 0x8640 JUMP JUMPDEST DUP3 MSTORE POP POP JUMP JUMPDEST PUSH2 0x776F DUP2 PUSH2 0x8640 JUMP JUMPDEST DUP3 MSTORE POP POP JUMP JUMPDEST PUSH2 0x777E DUP2 PUSH2 0x8640 JUMP JUMPDEST DUP3 MSTORE POP POP JUMP JUMPDEST PUSH2 0x7795 PUSH2 0x7790 DUP3 PUSH2 0x8640 JUMP JUMPDEST PUSH2 0x892F JUMP JUMPDEST DUP3 MSTORE POP POP JUMP JUMPDEST PUSH2 0x77A4 DUP2 PUSH2 0x864A JUMP JUMPDEST DUP3 MSTORE POP POP JUMP JUMPDEST PUSH2 0x77B3 DUP2 PUSH2 0x864A JUMP JUMPDEST DUP3 MSTORE POP POP JUMP JUMPDEST PUSH2 0x77C2 DUP2 PUSH2 0x8715 JUMP JUMPDEST DUP3 MSTORE POP POP JUMP JUMPDEST PUSH2 0x77D1 DUP2 PUSH2 0x865A JUMP JUMPDEST DUP3 MSTORE POP POP JUMP JUMPDEST PUSH2 0x77E0 DUP2 PUSH2 0x866E JUMP JUMPDEST DUP3 MSTORE POP POP JUMP JUMPDEST PUSH2 0x77EF DUP2 PUSH2 0x8727 JUMP JUMPDEST DUP3 MSTORE POP POP JUMP JUMPDEST PUSH2 0x77FE DUP2 PUSH2 0x8691 JUMP JUMPDEST DUP3 MSTORE POP POP JUMP JUMPDEST PUSH1 0x0 PUSH2 0x7810 DUP3 DUP5 PUSH2 0x71F9 JUMP JUMPDEST PUSH1 0x40 DUP3 ADD SWAP2 POP DUP2 SWAP1 POP SWAP3 SWAP2 POP POP JUMP JUMPDEST PUSH1 0x0 PUSH2 0x782B DUP3 DUP6 PUSH2 0x732B JUMP JUMPDEST SWAP2 POP PUSH2 0x7837 DUP3 DUP5 PUSH2 0x732B JUMP JUMPDEST SWAP2 POP DUP2 SWAP1 POP SWAP4 SWAP3 POP POP POP JUMP JUMPDEST PUSH1 0x0 PUSH2 0x784F DUP3 DUP5 PUSH2 0x7784 JUMP JUMPDEST PUSH1 0x20 DUP3 ADD SWAP2 POP DUP2 SWAP1 POP SWAP3 SWAP2 POP POP JUMP JUMPDEST PUSH1 0x0 PUSH2 0x786A DUP3 DUP10 PUSH2 0x7784 JUMP JUMPDEST PUSH1 0x20 DUP3 ADD SWAP2 POP PUSH2 0x787A DUP3 DUP9 PUSH2 0x71F9 JUMP JUMPDEST PUSH1 0x40 DUP3 ADD SWAP2 POP PUSH2 0x788A DUP3 DUP8 PUSH2 0x71F9 JUMP JUMPDEST PUSH1 0x40 DUP3 ADD SWAP2 POP PUSH2 0x789A DUP3 DUP7 PUSH2 0x71F9 JUMP JUMPDEST PUSH1 0x40 DUP3 ADD SWAP2 POP PUSH2 0x78AA DUP3 DUP6 PUSH2 0x71F9 JUMP JUMPDEST PUSH1 0x40 DUP3 ADD SWAP2 POP PUSH2 0x78BA DUP3 DUP5 PUSH2 0x70CF JUMP JUMPDEST PUSH1 0x14 DUP3 ADD SWAP2 POP DUP2 SWAP1 POP SWAP8 SWAP7 POP POP POP POP POP POP POP JUMP JUMPDEST PUSH1 0x0 PUSH2 0x78DA DUP3 DUP7 PUSH2 0x7784 JUMP JUMPDEST PUSH1 0x20 DUP3 ADD SWAP2 POP PUSH2 0x78EA DUP3 DUP6 PUSH2 0x71F9 JUMP JUMPDEST PUSH1 0x40 DUP3 ADD SWAP2 POP PUSH2 0x78FA DUP3 DUP5 PUSH2 0x7784 JUMP JUMPDEST PUSH1 0x20 DUP3 ADD SWAP2 POP DUP2 SWAP1 POP SWAP5 SWAP4 POP POP POP POP JUMP JUMPDEST PUSH1 0x0 PUSH2 0x7917 DUP3 DUP6 PUSH2 0x7784 JUMP JUMPDEST PUSH1 0x20 DUP3 ADD SWAP2 POP PUSH2 0x7927 DUP3 DUP5 PUSH2 0x72DB JUMP JUMPDEST PUSH1 0x20 DUP3 ADD SWAP2 POP DUP2 SWAP1 POP SWAP4 SWAP3 POP POP POP JUMP JUMPDEST PUSH1 0x0 PUSH1 0x20 DUP3 ADD SWAP1 POP PUSH2 0x794C PUSH1 0x0 DUP4 ADD DUP5 PUSH2 0x70C0 JUMP JUMPDEST SWAP3 SWAP2 POP POP JUMP JUMPDEST PUSH1 0x0 PUSH1 0x40 DUP3 ADD SWAP1 POP PUSH2 0x7967 PUSH1 0x0 DUP4 ADD DUP6 PUSH2 0x70C0 JUMP JUMPDEST PUSH2 0x7974 PUSH1 0x20 DUP4 ADD DUP5 PUSH2 0x70C0 JUMP JUMPDEST SWAP4 SWAP3 POP POP POP JUMP JUMPDEST PUSH1 0x0 PUSH1 0x40 DUP3 ADD SWAP1 POP PUSH2 0x7990 PUSH1 0x0 DUP4 ADD DUP6 PUSH2 0x70C0 JUMP JUMPDEST PUSH2 0x799D PUSH1 0x20 DUP4 ADD DUP5 PUSH2 0x7766 JUMP JUMPDEST SWAP4 SWAP3 POP POP POP JUMP JUMPDEST PUSH1 0x0 PUSH1 0x40 DUP3 ADD SWAP1 POP PUSH2 0x79B9 PUSH1 0x0 DUP4 ADD DUP6 PUSH2 0x70C0 JUMP JUMPDEST PUSH2 0x79C6 PUSH1 0x20 DUP4 ADD DUP5 PUSH2 0x77E6 JUMP JUMPDEST SWAP4 SWAP3 POP POP POP JUMP JUMPDEST PUSH1 0x0 PUSH1 0x40 DUP3 ADD SWAP1 POP PUSH2 0x79E2 PUSH1 0x0 DUP4 ADD DUP5 PUSH2 0x71A2 JUMP JUMPDEST SWAP3 SWAP2 POP POP JUMP JUMPDEST PUSH1 0x0 PUSH1 0x20 DUP3 ADD SWAP1 POP PUSH2 0x79FD PUSH1 0x0 DUP4 ADD DUP5 PUSH2 0x72AE JUMP JUMPDEST SWAP3 SWAP2 POP POP JUMP JUMPDEST PUSH1 0x0 PUSH1 0x20 DUP3 ADD SWAP1 POP PUSH2 0x7A18 PUSH1 0x0 DUP4 ADD DUP5 PUSH2 0x72CC JUMP JUMPDEST SWAP3 SWAP2 POP POP JUMP JUMPDEST PUSH1 0x0 PUSH1 0x80 DUP3 ADD SWAP1 POP PUSH2 0x7A33 PUSH1 0x0 DUP4 ADD DUP8 PUSH2 0x72CC JUMP JUMPDEST PUSH2 0x7A40 PUSH1 0x20 DUP4 ADD DUP7 PUSH2 0x70C0 JUMP JUMPDEST PUSH2 0x7A4D PUSH1 0x40 DUP4 ADD DUP6 PUSH2 0x77C8 JUMP JUMPDEST PUSH2 0x7A5A PUSH1 0x60 DUP4 ADD DUP5 PUSH2 0x77C8 JUMP JUMPDEST SWAP6 SWAP5 POP POP POP POP POP JUMP JUMPDEST PUSH1 0x0 PUSH1 0x40 DUP3 ADD SWAP1 POP PUSH2 0x7A78 PUSH1 0x0 DUP4 ADD DUP6 PUSH2 0x72CC JUMP JUMPDEST PUSH2 0x7A85 PUSH1 0x20 DUP4 ADD DUP5 PUSH2 0x7766 JUMP JUMPDEST SWAP4 SWAP3 POP POP POP JUMP JUMPDEST PUSH1 0x0 PUSH1 0x80 DUP3 ADD SWAP1 POP PUSH2 0x7AA1 PUSH1 0x0 DUP4 ADD DUP8 PUSH2 0x72CC JUMP JUMPDEST PUSH2 0x7AAE PUSH1 0x20 DUP4 ADD DUP7 PUSH2 0x77D7 JUMP JUMPDEST PUSH2 0x7ABB PUSH1 0x40 DUP4 ADD DUP6 PUSH2 0x72CC JUMP JUMPDEST PUSH2 0x7AC8 PUSH1 0x60 DUP4 ADD DUP5 PUSH2 0x72CC JUMP JUMPDEST SWAP6 SWAP5 POP POP POP POP POP JUMP JUMPDEST PUSH1 0x0 PUSH1 0x20 DUP3 ADD SWAP1 POP DUP2 DUP2 SUB PUSH1 0x0 DUP4 ADD MSTORE PUSH2 0x7AEB DUP2 DUP5 PUSH2 0x72F2 JUMP JUMPDEST SWAP1 POP SWAP3 SWAP2 POP POP JUMP JUMPDEST PUSH1 0x0 PUSH1 0x20 DUP3 ADD SWAP1 POP PUSH2 0x7B08 PUSH1 0x0 DUP4 ADD DUP5 PUSH2 0x735C JUMP JUMPDEST SWAP3 SWAP2 POP POP JUMP JUMPDEST PUSH1 0x0 PUSH1 0x20 DUP3 ADD SWAP1 POP PUSH2 0x7B23 PUSH1 0x0 DUP4 ADD DUP5 PUSH2 0x736B JUMP JUMPDEST SWAP3 SWAP2 POP POP JUMP JUMPDEST PUSH1 0x0 PUSH1 0x20 DUP3 ADD SWAP1 POP PUSH2 0x7B3E PUSH1 0x0 DUP4 ADD DUP5 PUSH2 0x737A JUMP JUMPDEST SWAP3 SWAP2 POP POP JUMP JUMPDEST PUSH1 0x0 PUSH1 0x20 DUP3 ADD SWAP1 POP PUSH2 0x7B59 PUSH1 0x0 DUP4 ADD DUP5 PUSH2 0x7389 JUMP JUMPDEST SWAP3 SWAP2 POP POP JUMP JUMPDEST PUSH1 0x0 PUSH1 0x20 DUP3 ADD SWAP1 POP DUP2 DUP2 SUB PUSH1 0x0 DUP4 ADD MSTORE PUSH2 0x7B79 DUP2 DUP5 PUSH2 0x7398 JUMP JUMPDEST SWAP1 POP SWAP3 SWAP2 POP POP JUMP JUMPDEST PUSH1 0x0 PUSH1 0x20 DUP3 ADD SWAP1 POP DUP2 DUP2 SUB PUSH1 0x0 DUP4 ADD MSTORE PUSH2 0x7B9A DUP2 PUSH2 0x73D1 JUMP JUMPDEST SWAP1 POP SWAP2 SWAP1 POP JUMP JUMPDEST PUSH1 0x0 PUSH1 0x20 DUP3 ADD SWAP1 POP DUP2 DUP2 SUB PUSH1 0x0 DUP4 ADD MSTORE PUSH2 0x7BBA DUP2 PUSH2 0x73F4 JUMP JUMPDEST SWAP1 POP SWAP2 SWAP1 POP JUMP JUMPDEST PUSH1 0x0 PUSH1 0x20 DUP3 ADD SWAP1 POP DUP2 DUP2 SUB PUSH1 0x0 DUP4 ADD MSTORE PUSH2 0x7BDA DUP2 PUSH2 0x7417 JUMP JUMPDEST SWAP1 POP SWAP2 SWAP1 POP JUMP JUMPDEST PUSH1 0x0 PUSH1 0x20 DUP3 ADD SWAP1 POP DUP2 DUP2 SUB PUSH1 0x0 DUP4 ADD MSTORE PUSH2 0x7BFA DUP2 PUSH2 0x743A JUMP JUMPDEST SWAP1 POP SWAP2 SWAP1 POP JUMP JUMPDEST PUSH1 0x0 PUSH1 0x20 DUP3 ADD SWAP1 POP DUP2 DUP2 SUB PUSH1 0x0 DUP4 ADD MSTORE PUSH2 0x7C1A DUP2 PUSH2 0x745D JUMP JUMPDEST SWAP1 POP SWAP2 SWAP1 POP JUMP JUMPDEST PUSH1 0x0 PUSH1 0x20 DUP3 ADD SWAP1 POP DUP2 DUP2 SUB PUSH1 0x0 DUP4 ADD MSTORE PUSH2 0x7C3A DUP2 PUSH2 0x7480 JUMP JUMPDEST SWAP1 POP SWAP2 SWAP1 POP JUMP JUMPDEST PUSH1 0x0 PUSH1 0x20 DUP3 ADD SWAP1 POP DUP2 DUP2 SUB PUSH1 0x0 DUP4 ADD MSTORE PUSH2 0x7C5A DUP2 PUSH2 0x74A3 JUMP JUMPDEST SWAP1 POP SWAP2 SWAP1 POP JUMP JUMPDEST PUSH1 0x0 PUSH1 0x20 DUP3 ADD SWAP1 POP DUP2 DUP2 SUB PUSH1 0x0 DUP4 ADD MSTORE PUSH2 0x7C7A DUP2 PUSH2 0x74C6 JUMP JUMPDEST SWAP1 POP SWAP2 SWAP1 POP JUMP JUMPDEST PUSH1 0x0 PUSH1 0x20 DUP3 ADD SWAP1 POP DUP2 DUP2 SUB PUSH1 0x0 DUP4 ADD MSTORE PUSH2 0x7C9A DUP2 PUSH2 0x74E9 JUMP JUMPDEST SWAP1 POP SWAP2 SWAP1 POP JUMP JUMPDEST PUSH1 0x0 PUSH1 0x20 DUP3 ADD SWAP1 POP DUP2 DUP2 SUB PUSH1 0x0 DUP4 ADD MSTORE PUSH2 0x7CBA DUP2 PUSH2 0x750C JUMP JUMPDEST SWAP1 POP SWAP2 SWAP1 POP JUMP JUMPDEST PUSH1 0x0 PUSH1 0x20 DUP3 ADD SWAP1 POP DUP2 DUP2 SUB PUSH1 0x0 DUP4 ADD MSTORE PUSH2 0x7CDA DUP2 PUSH2 0x752F JUMP JUMPDEST SWAP1 POP SWAP2 SWAP1 POP JUMP JUMPDEST PUSH1 0x0 PUSH1 0x20 DUP3 ADD SWAP1 POP DUP2 DUP2 SUB PUSH1 0x0 DUP4 ADD MSTORE PUSH2 0x7CFA DUP2 PUSH2 0x7552 JUMP JUMPDEST SWAP1 POP SWAP2 SWAP1 POP JUMP JUMPDEST PUSH1 0x0 PUSH1 0x20 DUP3 ADD SWAP1 POP DUP2 DUP2 SUB PUSH1 0x0 DUP4 ADD MSTORE PUSH2 0x7D1A DUP2 PUSH2 0x7575 JUMP JUMPDEST SWAP1 POP SWAP2 SWAP1 POP JUMP JUMPDEST PUSH1 0x0 PUSH1 0x20 DUP3 ADD SWAP1 POP DUP2 DUP2 SUB PUSH1 0x0 DUP4 ADD MSTORE PUSH2 0x7D3A DUP2 PUSH2 0x7598 JUMP JUMPDEST SWAP1 POP SWAP2 SWAP1 POP JUMP JUMPDEST PUSH1 0x0 PUSH1 0x20 DUP3 ADD SWAP1 POP DUP2 DUP2 SUB PUSH1 0x0 DUP4 ADD MSTORE PUSH2 0x7D5A DUP2 PUSH2 0x75BB JUMP JUMPDEST SWAP1 POP SWAP2 SWAP1 POP JUMP JUMPDEST PUSH1 0x0 PUSH1 0x20 DUP3 ADD SWAP1 POP DUP2 DUP2 SUB PUSH1 0x0 DUP4 ADD MSTORE PUSH2 0x7D7A DUP2 PUSH2 0x75DE JUMP JUMPDEST SWAP1 POP SWAP2 SWAP1 POP JUMP JUMPDEST PUSH1 0x0 PUSH1 0x20 DUP3 ADD SWAP1 POP DUP2 DUP2 SUB PUSH1 0x0 DUP4 ADD MSTORE PUSH2 0x7D9A DUP2 PUSH2 0x7601 JUMP JUMPDEST SWAP1 POP SWAP2 SWAP1 POP JUMP JUMPDEST PUSH1 0x0 PUSH1 0x20 DUP3 ADD SWAP1 POP DUP2 DUP2 SUB PUSH1 0x0 DUP4 ADD MSTORE PUSH2 0x7DBA DUP2 PUSH2 0x7624 JUMP JUMPDEST SWAP1 POP SWAP2 SWAP1 POP JUMP JUMPDEST PUSH1 0x0 PUSH1 0x20 DUP3 ADD SWAP1 POP PUSH2 0x7DD6 PUSH1 0x0 DUP4 ADD DUP5 PUSH2 0x772A JUMP JUMPDEST SWAP3 SWAP2 POP POP JUMP JUMPDEST PUSH1 0x0 PUSH1 0x60 DUP3 ADD SWAP1 POP PUSH2 0x7DF1 PUSH1 0x0 DUP4 ADD DUP7 PUSH2 0x772A JUMP JUMPDEST PUSH2 0x7DFE PUSH1 0x20 DUP4 ADD DUP6 PUSH2 0x772A JUMP JUMPDEST PUSH2 0x7E0B PUSH1 0x40 DUP4 ADD DUP5 PUSH2 0x772A JUMP JUMPDEST SWAP5 SWAP4 POP POP POP POP JUMP JUMPDEST PUSH1 0x0 PUSH1 0x60 DUP3 ADD SWAP1 POP PUSH2 0x7E28 PUSH1 0x0 DUP4 ADD DUP7 PUSH2 0x772A JUMP JUMPDEST PUSH2 0x7E35 PUSH1 0x20 DUP4 ADD DUP6 PUSH2 0x77AA JUMP JUMPDEST DUP2 DUP2 SUB PUSH1 0x40 DUP4 ADD MSTORE PUSH2 0x7E47 DUP2 DUP5 PUSH2 0x7144 JUMP JUMPDEST SWAP1 POP SWAP5 SWAP4 POP POP POP POP JUMP JUMPDEST PUSH1 0x0 PUSH1 0x80 DUP3 ADD SWAP1 POP PUSH2 0x7E66 PUSH1 0x0 DUP4 ADD DUP8 PUSH2 0x772A JUMP JUMPDEST PUSH2 0x7E73 PUSH1 0x20 DUP4 ADD DUP7 PUSH2 0x77AA JUMP JUMPDEST PUSH2 0x7E80 PUSH1 0x40 DUP4 ADD DUP6 PUSH2 0x77AA JUMP JUMPDEST PUSH2 0x7E8D PUSH1 0x60 DUP4 ADD DUP5 PUSH2 0x77AA JUMP JUMPDEST SWAP6 SWAP5 POP POP POP POP POP JUMP JUMPDEST PUSH1 0x0 PUSH2 0x1C0 DUP3 ADD SWAP1 POP PUSH2 0x7EAC PUSH1 0x0 DUP4 ADD DUP10 PUSH2 0x772A JUMP JUMPDEST PUSH2 0x7EB9 PUSH1 0x20 DUP4 ADD DUP9 PUSH2 0x77AA JUMP JUMPDEST PUSH2 0x7EC6 PUSH1 0x40 DUP4 ADD DUP8 PUSH2 0x77AA JUMP JUMPDEST PUSH2 0x7ED3 PUSH1 0x60 DUP4 ADD DUP7 PUSH2 0x77AA JUMP JUMPDEST PUSH2 0x7EE0 PUSH1 0x80 DUP4 ADD DUP6 PUSH2 0x7389 JUMP JUMPDEST PUSH2 0x7EED PUSH1 0xA0 DUP4 ADD DUP5 PUSH2 0x7647 JUMP JUMPDEST SWAP8 SWAP7 POP POP POP POP POP POP POP JUMP JUMPDEST PUSH1 0x0 PUSH1 0x20 DUP3 ADD SWAP1 POP PUSH2 0x7F0D PUSH1 0x0 DUP4 ADD DUP5 PUSH2 0x7766 JUMP JUMPDEST SWAP3 SWAP2 POP POP JUMP JUMPDEST PUSH1 0x0 PUSH1 0x60 DUP3 ADD SWAP1 POP PUSH2 0x7F28 PUSH1 0x0 DUP4 ADD DUP6 PUSH2 0x7766 JUMP JUMPDEST PUSH2 0x7F35 PUSH1 0x20 DUP4 ADD DUP5 PUSH2 0x71A2 JUMP JUMPDEST SWAP4 SWAP3 POP POP POP JUMP JUMPDEST PUSH1 0x0 PUSH1 0x40 DUP3 ADD SWAP1 POP PUSH2 0x7F51 PUSH1 0x0 DUP4 ADD DUP6 PUSH2 0x7766 JUMP JUMPDEST DUP2 DUP2 SUB PUSH1 0x20 DUP4 ADD MSTORE PUSH2 0x7F63 DUP2 DUP5 PUSH2 0x7250 JUMP JUMPDEST SWAP1 POP SWAP4 SWAP3 POP POP POP JUMP JUMPDEST PUSH1 0x0 PUSH1 0x40 DUP3 ADD SWAP1 POP PUSH2 0x7F81 PUSH1 0x0 DUP4 ADD DUP6 PUSH2 0x7766 JUMP JUMPDEST PUSH2 0x7F8E PUSH1 0x20 DUP4 ADD DUP5 PUSH2 0x7766 JUMP JUMPDEST SWAP4 SWAP3 POP POP POP JUMP JUMPDEST PUSH1 0x0 PUSH1 0xA0 DUP3 ADD SWAP1 POP PUSH2 0x7FAA PUSH1 0x0 DUP4 ADD DUP9 PUSH2 0x7766 JUMP JUMPDEST PUSH2 0x7FB7 PUSH1 0x20 DUP4 ADD DUP8 PUSH2 0x7766 JUMP JUMPDEST PUSH2 0x7FC4 PUSH1 0x40 DUP4 ADD DUP7 PUSH2 0x772A JUMP JUMPDEST PUSH2 0x7FD1 PUSH1 0x60 DUP4 ADD DUP6 PUSH2 0x77AA JUMP JUMPDEST PUSH2 0x7FDE PUSH1 0x80 DUP4 ADD DUP5 PUSH2 0x77AA JUMP JUMPDEST SWAP7 SWAP6 POP POP POP POP POP POP JUMP JUMPDEST PUSH1 0x0 PUSH1 0xC0 DUP3 ADD SWAP1 POP PUSH2 0x7FFD PUSH1 0x0 DUP4 ADD DUP10 PUSH2 0x7766 JUMP JUMPDEST PUSH2 0x800A PUSH1 0x20 DUP4 ADD DUP9 PUSH2 0x7766 JUMP JUMPDEST PUSH2 0x8017 PUSH1 0x40 DUP4 ADD DUP8 PUSH2 0x77C8 JUMP JUMPDEST PUSH2 0x8024 PUSH1 0x60 DUP4 ADD DUP7 PUSH2 0x77AA JUMP JUMPDEST PUSH2 0x8031 PUSH1 0x80 DUP4 ADD DUP6 PUSH2 0x77AA JUMP JUMPDEST PUSH2 0x803E PUSH1 0xA0 DUP4 ADD DUP5 PUSH2 0x70C0 JUMP JUMPDEST SWAP8 SWAP7 POP POP POP POP POP POP POP JUMP JUMPDEST PUSH1 0x0 PUSH1 0xC0 DUP3 ADD SWAP1 POP PUSH2 0x805E PUSH1 0x0 DUP4 ADD DUP10 PUSH2 0x7766 JUMP JUMPDEST PUSH2 0x806B PUSH1 0x20 DUP4 ADD DUP9 PUSH2 0x77C8 JUMP JUMPDEST PUSH2 0x8078 PUSH1 0x40 DUP4 ADD DUP8 PUSH2 0x77C8 JUMP JUMPDEST PUSH2 0x8085 PUSH1 0x60 DUP4 ADD DUP7 PUSH2 0x77AA JUMP JUMPDEST PUSH2 0x8092 PUSH1 0x80 DUP4 ADD DUP6 PUSH2 0x77AA JUMP JUMPDEST PUSH2 0x809F PUSH1 0xA0 DUP4 ADD DUP5 PUSH2 0x70C0 JUMP JUMPDEST SWAP8 SWAP7 POP POP POP POP POP POP POP JUMP JUMPDEST PUSH1 0x0 PUSH1 0x60 DUP3 ADD SWAP1 POP PUSH2 0x80BF PUSH1 0x0 DUP4 ADD DUP7 PUSH2 0x7766 JUMP JUMPDEST PUSH2 0x80CC PUSH1 0x20 DUP4 ADD DUP6 PUSH2 0x77F5 JUMP JUMPDEST PUSH2 0x80D9 PUSH1 0x40 DUP4 ADD DUP5 PUSH2 0x72AE JUMP JUMPDEST SWAP5 SWAP4 POP POP POP POP JUMP JUMPDEST PUSH1 0x0 PUSH1 0x20 DUP3 ADD SWAP1 POP PUSH2 0x80F6 PUSH1 0x0 DUP4 ADD DUP5 PUSH2 0x77AA JUMP JUMPDEST SWAP3 SWAP2 POP POP JUMP JUMPDEST PUSH1 0x0 PUSH1 0x40 DUP3 ADD SWAP1 POP PUSH2 0x8111 PUSH1 0x0 DUP4 ADD DUP6 PUSH2 0x77AA JUMP JUMPDEST PUSH2 0x811E PUSH1 0x20 DUP4 ADD DUP5 PUSH2 0x77AA JUMP JUMPDEST SWAP4 SWAP3 POP POP POP JUMP JUMPDEST PUSH1 0x0 PUSH2 0x120 DUP3 ADD SWAP1 POP PUSH2 0x813B PUSH1 0x0 DUP4 ADD DUP13 PUSH2 0x77AA JUMP JUMPDEST PUSH2 0x8148 PUSH1 0x20 DUP4 ADD DUP12 PUSH2 0x77AA JUMP JUMPDEST PUSH2 0x8155 PUSH1 0x40 DUP4 ADD DUP11 PUSH2 0x77AA JUMP JUMPDEST PUSH2 0x8162 PUSH1 0x60 DUP4 ADD DUP10 PUSH2 0x77AA JUMP JUMPDEST PUSH2 0x816F PUSH1 0x80 DUP4 ADD DUP9 PUSH2 0x77AA JUMP JUMPDEST PUSH2 0x817C PUSH1 0xA0 DUP4 ADD DUP8 PUSH2 0x7748 JUMP JUMPDEST PUSH2 0x8189 PUSH1 0xC0 DUP4 ADD DUP7 PUSH2 0x7748 JUMP JUMPDEST PUSH2 0x8196 PUSH1 0xE0 DUP4 ADD DUP6 PUSH2 0x7748 JUMP JUMPDEST PUSH2 0x81A4 PUSH2 0x100 DUP4 ADD DUP5 PUSH2 0x7748 JUMP JUMPDEST SWAP11 SWAP10 POP POP POP POP POP POP POP POP POP POP JUMP JUMPDEST PUSH1 0x0 PUSH1 0x20 DUP3 ADD SWAP1 POP PUSH2 0x81C7 PUSH1 0x0 DUP4 ADD DUP5 PUSH2 0x77B9 JUMP JUMPDEST SWAP3 SWAP2 POP POP JUMP JUMPDEST PUSH1 0x0 PUSH1 0x20 DUP3 ADD SWAP1 POP PUSH2 0x81E2 PUSH1 0x0 DUP4 ADD DUP5 PUSH2 0x77C8 JUMP JUMPDEST SWAP3 SWAP2 POP POP JUMP JUMPDEST PUSH1 0x0 PUSH1 0x40 DUP3 ADD SWAP1 POP PUSH2 0x81FD PUSH1 0x0 DUP4 ADD DUP6 PUSH2 0x77C8 JUMP JUMPDEST PUSH2 0x820A PUSH1 0x20 DUP4 ADD DUP5 PUSH2 0x70C0 JUMP JUMPDEST SWAP4 SWAP3 POP POP POP JUMP JUMPDEST PUSH1 0x0 PUSH1 0x20 DUP3 ADD SWAP1 POP PUSH2 0x8226 PUSH1 0x0 DUP4 ADD DUP5 PUSH2 0x77F5 JUMP JUMPDEST SWAP3 SWAP2 POP POP JUMP JUMPDEST PUSH1 0x0 PUSH1 0x80 DUP3 ADD SWAP1 POP PUSH2 0x8241 PUSH1 0x0 DUP4 ADD DUP8 PUSH2 0x77F5 JUMP JUMPDEST PUSH2 0x824E PUSH1 0x20 DUP4 ADD DUP7 PUSH2 0x77C8 JUMP JUMPDEST PUSH2 0x825B PUSH1 0x40 DUP4 ADD DUP6 PUSH2 0x70C0 JUMP JUMPDEST DUP2 DUP2 SUB PUSH1 0x60 DUP4 ADD MSTORE PUSH2 0x826D DUP2 DUP5 PUSH2 0x70E6 JUMP JUMPDEST SWAP1 POP SWAP6 SWAP5 POP POP POP POP POP JUMP JUMPDEST PUSH1 0x0 PUSH2 0x8282 PUSH2 0x8293 JUMP JUMPDEST SWAP1 POP PUSH2 0x828E DUP3 DUP3 PUSH2 0x8856 JUMP JUMPDEST SWAP2 SWAP1 POP JUMP JUMPDEST PUSH1 0x0 PUSH1 0x40 MLOAD SWAP1 POP SWAP1 JUMP JUMPDEST PUSH1 0x0 PUSH8 0xFFFFFFFFFFFFFFFF DUP3 GT ISZERO PUSH2 0x82B8 JUMPI PUSH2 0x82B7 PUSH2 0x8A26 JUMP JUMPDEST JUMPDEST PUSH1 0x20 DUP3 MUL SWAP1 POP SWAP2 SWAP1 POP JUMP JUMPDEST PUSH1 0x0 DUP2 SWAP1 POP PUSH1 0x20 DUP3 ADD SWAP1 POP SWAP2 SWAP1 POP JUMP JUMPDEST PUSH1 0x0 DUP2 SWAP1 POP PUSH1 0x20 DUP3 ADD SWAP1 POP SWAP2 SWAP1 POP JUMP JUMPDEST PUSH1 0x0 DUP2 SWAP1 POP SWAP2 SWAP1 POP JUMP JUMPDEST PUSH1 0x0 DUP2 SWAP1 POP PUSH1 0x20 DUP3 ADD SWAP1 POP SWAP2 SWAP1 POP JUMP JUMPDEST PUSH1 0x0 DUP2 MLOAD SWAP1 POP SWAP2 SWAP1 POP JUMP JUMPDEST PUSH1 0x0 DUP2 MLOAD SWAP1 POP SWAP2 SWAP1 POP JUMP JUMPDEST PUSH1 0x0 PUSH1 0x2 SWAP1 POP SWAP2 SWAP1 POP JUMP JUMPDEST PUSH1 0x0 DUP2 MLOAD SWAP1 POP SWAP2 SWAP1 POP JUMP JUMPDEST PUSH1 0x0 DUP2 MLOAD SWAP1 POP SWAP2 SWAP1 POP JUMP JUMPDEST PUSH1 0x0 DUP2 MLOAD SWAP1 POP SWAP2 SWAP1 POP JUMP JUMPDEST PUSH1 0x0 PUSH1 0x20 DUP3 ADD SWAP1 POP SWAP2 SWAP1 POP JUMP JUMPDEST PUSH1 0x0 PUSH1 0x20 DUP3 ADD SWAP1 POP SWAP2 SWAP1 POP JUMP JUMPDEST PUSH1 0x0 PUSH1 0x20 DUP3 ADD SWAP1 POP SWAP2 SWAP1 POP JUMP JUMPDEST PUSH1 0x0 PUSH1 0x20 DUP3 ADD SWAP1 POP SWAP2 SWAP1 POP JUMP JUMPDEST PUSH1 0x0 DUP3 DUP3 MSTORE PUSH1 0x20 DUP3 ADD SWAP1 POP SWAP3 SWAP2 POP POP JUMP JUMPDEST PUSH1 0x0 DUP3 DUP3 MSTORE PUSH1 0x20 DUP3 ADD SWAP1 POP SWAP3 SWAP2 POP POP JUMP JUMPDEST PUSH1 0x0 DUP2 SWAP1 POP SWAP3 SWAP2 POP POP JUMP JUMPDEST PUSH1 0x0 DUP2 SWAP1 POP SWAP3 SWAP2 POP POP JUMP JUMPDEST PUSH1 0x0 DUP3 DUP3 MSTORE PUSH1 0x20 DUP3 ADD SWAP1 POP SWAP3 SWAP2 POP POP JUMP JUMPDEST PUSH1 0x0 DUP3 DUP3 MSTORE PUSH1 0x20 DUP3 ADD SWAP1 POP SWAP3 SWAP2 POP POP JUMP JUMPDEST PUSH1 0x0 DUP2 SWAP1 POP SWAP3 SWAP2 POP POP JUMP JUMPDEST PUSH1 0x0 DUP3 DUP3 MSTORE PUSH1 0x20 DUP3 ADD SWAP1 POP SWAP3 SWAP2 POP POP JUMP JUMPDEST PUSH1 0x0 PUSH2 0x83F4 DUP3 PUSH2 0x8640 JUMP JUMPDEST SWAP2 POP PUSH2 0x83FF DUP4 PUSH2 0x8640 JUMP JUMPDEST SWAP3 POP DUP3 PUSH32 0xFFFFFFFFFFFFFFFFFFFFFFFFFFFFFFFFFFFFFFFFFFFFFFFFFFFFFFFFFFFFFFFF SUB DUP3 GT ISZERO PUSH2 0x8434 JUMPI PUSH2 0x8433 PUSH2 0x896A JUMP JUMPDEST JUMPDEST DUP3 DUP3 ADD SWAP1 POP SWAP3 SWAP2 POP POP JUMP JUMPDEST PUSH1 0x0 PUSH2 0x844A DUP3 PUSH2 0x865A JUMP JUMPDEST SWAP2 POP PUSH2 0x8455 DUP4 PUSH2 0x865A JUMP JUMPDEST SWAP3 POP DUP3 PUSH8 0xFFFFFFFFFFFFFFFF SUB DUP3 GT ISZERO PUSH2 0x8472 JUMPI PUSH2 0x8471 PUSH2 0x896A JUMP JUMPDEST JUMPDEST DUP3 DUP3 ADD SWAP1 POP SWAP3 SWAP2 POP POP JUMP JUMPDEST PUSH1 0x0 PUSH2 0x8488 DUP3 PUSH2 0x8691 JUMP JUMPDEST SWAP2 POP PUSH2 0x8493 DUP4 PUSH2 0x8691 JUMP JUMPDEST SWAP3 POP DUP3 PUSH12 0xFFFFFFFFFFFFFFFFFFFFFFFF SUB DUP3 GT ISZERO PUSH2 0x84B4 JUMPI PUSH2 0x84B3 PUSH2 0x896A JUMP JUMPDEST JUMPDEST DUP3 DUP3 ADD SWAP1 POP SWAP3 SWAP2 POP POP JUMP JUMPDEST PUSH1 0x0 PUSH2 0x84CA DUP3 PUSH2 0x8640 JUMP JUMPDEST SWAP2 POP PUSH2 0x84D5 DUP4 PUSH2 0x8640 JUMP JUMPDEST SWAP3 POP DUP3 PUSH2 0x84E5 JUMPI PUSH2 0x84E4 PUSH2 0x8999 JUMP JUMPDEST JUMPDEST DUP3 DUP3 DIV SWAP1 POP SWAP3 SWAP2 POP POP JUMP JUMPDEST PUSH1 0x0 PUSH2 0x84FB DUP3 PUSH2 0x8640 JUMP JUMPDEST SWAP2 POP PUSH2 0x8506 DUP4 PUSH2 0x8640 JUMP JUMPDEST SWAP3 POP DUP2 PUSH32 0xFFFFFFFFFFFFFFFFFFFFFFFFFFFFFFFFFFFFFFFFFFFFFFFFFFFFFFFFFFFFFFFF DIV DUP4 GT DUP3 ISZERO ISZERO AND ISZERO PUSH2 0x853F JUMPI PUSH2 0x853E PUSH2 0x896A JUMP JUMPDEST JUMPDEST DUP3 DUP3 MUL SWAP1 POP SWAP3 SWAP2 POP POP JUMP JUMPDEST PUSH1 0x0 PUSH2 0x8555 DUP3 PUSH2 0x8640 JUMP JUMPDEST SWAP2 POP PUSH2 0x8560 DUP4 PUSH2 0x8640 JUMP JUMPDEST SWAP3 POP DUP3 DUP3 LT ISZERO PUSH2 0x8573 JUMPI PUSH2 0x8572 PUSH2 0x896A JUMP JUMPDEST JUMPDEST DUP3 DUP3 SUB SWAP1 POP SWAP3 SWAP2 POP POP JUMP JUMPDEST PUSH1 0x0 PUSH2 0x8589 DUP3 PUSH2 0x8691 JUMP JUMPDEST SWAP2 POP PUSH2 0x8594 DUP4 PUSH2 0x8691 JUMP JUMPDEST SWAP3 POP DUP3 DUP3 LT ISZERO PUSH2 0x85A7 JUMPI PUSH2 0x85A6 PUSH2 0x896A JUMP JUMPDEST JUMPDEST DUP3 DUP3 SUB SWAP1 POP SWAP3 SWAP2 POP POP JUMP JUMPDEST PUSH1 0x0 PUSH3 0xFFFFFF DUP3 AND SWAP1 POP SWAP2 SWAP1 POP JUMP JUMPDEST PUSH1 0x0 PUSH4 0xFFFFFFFF DUP3 AND SWAP1 POP SWAP2 SWAP1 POP JUMP JUMPDEST PUSH1 0x0 PUSH2 0x85DC DUP3 PUSH2 0x8611 JUMP JUMPDEST SWAP1 POP SWAP2 SWAP1 POP JUMP JUMPDEST PUSH1 0x0 DUP2 ISZERO ISZERO SWAP1 POP SWAP2 SWAP1 POP JUMP JUMPDEST PUSH1 0x0 DUP2 SWAP1 POP SWAP2 SWAP1 POP JUMP JUMPDEST PUSH1 0x0 DUP2 SWAP1 POP SWAP2 SWAP1 POP JUMP JUMPDEST PUSH1 0x0 PUSH2 0xFFFF DUP3 AND SWAP1 POP SWAP2 SWAP1 POP JUMP JUMPDEST PUSH1 0x0 PUSH20 0xFFFFFFFFFFFFFFFFFFFFFFFFFFFFFFFFFFFFFFFF DUP3 AND SWAP1 POP SWAP2 SWAP1 POP JUMP JUMPDEST PUSH1 0x0 PUSH3 0xFFFFFF DUP3 AND SWAP1 POP SWAP2 SWAP1 POP JUMP JUMPDEST PUSH1 0x0 DUP2 SWAP1 POP SWAP2 SWAP1 POP JUMP JUMPDEST PUSH1 0x0 PUSH4 0xFFFFFFFF DUP3 AND SWAP1 POP SWAP2 SWAP1 POP JUMP JUMPDEST PUSH1 0x0 PUSH8 0xFFFFFFFFFFFFFFFF DUP3 AND SWAP1 POP SWAP2 SWAP1 POP JUMP JUMPDEST PUSH1 0x0 PUSH1 0xFF DUP3 AND SWAP1 POP SWAP2 SWAP1 POP JUMP JUMPDEST PUSH1 0x0 PUSH10 0xFFFFFFFFFFFFFFFFFFFF DUP3 AND SWAP1 POP SWAP2 SWAP1 POP JUMP JUMPDEST PUSH1 0x0 PUSH12 0xFFFFFFFFFFFFFFFFFFFFFFFF DUP3 AND SWAP1 POP SWAP2 SWAP1 POP JUMP JUMPDEST PUSH1 0x0 PUSH2 0x86B4 DUP3 PUSH2 0x86BB JUMP JUMPDEST SWAP1 POP SWAP2 SWAP1 POP JUMP JUMPDEST PUSH1 0x0 PUSH2 0x86C6 DUP3 PUSH2 0x8611 JUMP JUMPDEST SWAP1 POP SWAP2 SWAP1 POP JUMP JUMPDEST PUSH1 0x0 PUSH2 0x86D8 DUP3 PUSH2 0x86DF JUMP JUMPDEST SWAP1 POP SWAP2 SWAP1 POP JUMP JUMPDEST PUSH1 0x0 PUSH2 0x86EA DUP3 PUSH2 0x8611 JUMP JUMPDEST SWAP1 POP SWAP2 SWAP1 POP JUMP JUMPDEST PUSH1 0x0 PUSH2 0x86FC DUP3 PUSH2 0x8703 JUMP JUMPDEST SWAP1 POP SWAP2 SWAP1 POP JUMP JUMPDEST PUSH1 0x0 PUSH2 0x870E DUP3 PUSH2 0x8611 JUMP JUMPDEST SWAP1 POP SWAP2 SWAP1 POP JUMP JUMPDEST PUSH1 0x0 PUSH2 0x8720 DUP3 PUSH2 0x865A JUMP JUMPDEST SWAP1 POP SWAP2 SWAP1 POP JUMP JUMPDEST PUSH1 0x0 PUSH2 0x8732 DUP3 PUSH2 0x8691 JUMP JUMPDEST SWAP1 POP SWAP2 SWAP1 POP JUMP JUMPDEST PUSH1 0x0 JUMPDEST DUP4 DUP2 LT ISZERO PUSH2 0x8757 JUMPI DUP1 DUP3 ADD MLOAD DUP2 DUP5 ADD MSTORE PUSH1 0x20 DUP2 ADD SWAP1 POP PUSH2 0x873C JUMP JUMPDEST DUP4 DUP2 GT ISZERO PUSH2 0x8766 JUMPI PUSH1 0x0 DUP5 DUP5 ADD MSTORE JUMPDEST POP POP POP POP JUMP JUMPDEST PUSH1 0x0 PUSH2 0x877F PUSH2 0x877A DUP4 PUSH2 0x8A91 JUMP JUMPDEST PUSH2 0x85C1 JUMP JUMPDEST SWAP1 POP SWAP2 SWAP1 POP JUMP JUMPDEST PUSH1 0x0 PUSH2 0x8799 PUSH2 0x8794 DUP4 PUSH2 0x8AF9 JUMP JUMPDEST PUSH2 0x85C1 JUMP JUMPDEST SWAP1 POP SWAP2 SWAP1 POP JUMP JUMPDEST PUSH1 0x0 PUSH2 0x87B3 PUSH2 0x87AE DUP4 PUSH2 0x8A9E JUMP JUMPDEST PUSH2 0x85C1 JUMP JUMPDEST SWAP1 POP SWAP2 SWAP1 POP JUMP JUMPDEST PUSH1 0x0 PUSH2 0x87CD PUSH2 0x87C8 DUP4 PUSH2 0x8AAB JUMP JUMPDEST PUSH2 0x85B2 JUMP JUMPDEST SWAP1 POP SWAP2 SWAP1 POP JUMP JUMPDEST PUSH1 0x0 PUSH2 0x87E7 PUSH2 0x87E2 DUP4 PUSH2 0x8AB8 JUMP JUMPDEST PUSH2 0x85B2 JUMP JUMPDEST SWAP1 POP SWAP2 SWAP1 POP JUMP JUMPDEST PUSH1 0x0 PUSH2 0x8801 PUSH2 0x87FC DUP4 PUSH2 0x8AC5 JUMP JUMPDEST PUSH2 0x85B2 JUMP JUMPDEST SWAP1 POP SWAP2 SWAP1 POP JUMP JUMPDEST PUSH1 0x0 PUSH2 0x881B PUSH2 0x8816 DUP4 PUSH2 0x8AD2 JUMP JUMPDEST PUSH2 0x85B2 JUMP JUMPDEST SWAP1 POP SWAP2 SWAP1 POP JUMP JUMPDEST PUSH1 0x0 PUSH2 0x8835 PUSH2 0x8830 DUP4 PUSH2 0x8ADF JUMP JUMPDEST PUSH2 0x85C1 JUMP JUMPDEST SWAP1 POP SWAP2 SWAP1 POP JUMP JUMPDEST PUSH1 0x0 PUSH2 0x884F PUSH2 0x884A DUP4 PUSH2 0x8AEC JUMP JUMPDEST PUSH2 0x85C1 JUMP JUMPDEST SWAP1 POP SWAP2 SWAP1 POP JUMP JUMPDEST PUSH2 0x885F DUP3 PUSH2 0x8A73 JUMP JUMPDEST DUP2 ADD DUP2 DUP2 LT PUSH8 0xFFFFFFFFFFFFFFFF DUP3 GT OR ISZERO PUSH2 0x887E JUMPI PUSH2 0x887D PUSH2 0x8A26 JUMP JUMPDEST JUMPDEST DUP1 PUSH1 0x40 MSTORE POP POP POP JUMP JUMPDEST PUSH1 0x0 PUSH2 0x8892 DUP3 PUSH2 0x8640 JUMP JUMPDEST SWAP2 POP PUSH32 0xFFFFFFFFFFFFFFFFFFFFFFFFFFFFFFFFFFFFFFFFFFFFFFFFFFFFFFFFFFFFFFFF DUP3 EQ ISZERO PUSH2 0x88C5 JUMPI PUSH2 0x88C4 PUSH2 0x896A JUMP JUMPDEST JUMPDEST PUSH1 0x1 DUP3 ADD SWAP1 POP SWAP2 SWAP1 POP JUMP JUMPDEST PUSH1 0x0 PUSH2 0x88DB DUP3 PUSH2 0x865A JUMP JUMPDEST SWAP2 POP PUSH8 0xFFFFFFFFFFFFFFFF DUP3 EQ ISZERO PUSH2 0x88F6 JUMPI PUSH2 0x88F5 PUSH2 0x896A JUMP JUMPDEST JUMPDEST PUSH1 0x1 DUP3 ADD SWAP1 POP SWAP2 SWAP1 POP JUMP JUMPDEST PUSH1 0x0 PUSH2 0x890C DUP3 PUSH2 0x891D JUMP JUMPDEST SWAP1 POP SWAP2 SWAP1 POP JUMP JUMPDEST PUSH1 0x0 DUP2 SWAP1 POP SWAP2 SWAP1 POP JUMP JUMPDEST PUSH1 0x0 PUSH2 0x8928 DUP3 PUSH2 0x8A84 JUMP JUMPDEST SWAP1 POP SWAP2 SWAP1 POP JUMP JUMPDEST PUSH1 0x0 DUP2 SWAP1 POP SWAP2 SWAP1 POP JUMP JUMPDEST PUSH1 0x0 PUSH2 0x8944 DUP3 PUSH2 0x8640 JUMP JUMPDEST SWAP2 POP PUSH2 0x894F DUP4 PUSH2 0x8640 JUMP JUMPDEST SWAP3 POP DUP3 PUSH2 0x895F JUMPI PUSH2 0x895E PUSH2 0x8999 JUMP JUMPDEST JUMPDEST DUP3 DUP3 MOD SWAP1 POP SWAP3 SWAP2 POP POP JUMP JUMPDEST PUSH32 0x4E487B7100000000000000000000000000000000000000000000000000000000 PUSH1 0x0 MSTORE PUSH1 0x11 PUSH1 0x4 MSTORE PUSH1 0x24 PUSH1 0x0 REVERT JUMPDEST PUSH32 0x4E487B7100000000000000000000000000000000000000000000000000000000 PUSH1 0x0 MSTORE PUSH1 0x12 PUSH1 0x4 MSTORE PUSH1 0x24 PUSH1 0x0 REVERT JUMPDEST PUSH32 0x4E487B7100000000000000000000000000000000000000000000000000000000 PUSH1 0x0 MSTORE PUSH1 0x31 PUSH1 0x4 MSTORE PUSH1 0x24 PUSH1 0x0 REVERT JUMPDEST PUSH32 0x4E487B7100000000000000000000000000000000000000000000000000000000 PUSH1 0x0 MSTORE PUSH1 0x32 PUSH1 0x4 MSTORE PUSH1 0x24 PUSH1 0x0 REVERT JUMPDEST PUSH32 0x4E487B7100000000000000000000000000000000000000000000000000000000 PUSH1 0x0 MSTORE PUSH1 0x41 PUSH1 0x4 MSTORE PUSH1 0x24 PUSH1 0x0 REVERT JUMPDEST PUSH1 0x0 DUP1 REVERT JUMPDEST PUSH1 0x0 DUP1 REVERT JUMPDEST PUSH1 0x0 DUP1 REVERT JUMPDEST PUSH1 0x0 DUP1 REVERT JUMPDEST PUSH1 0x0 DUP1 REVERT JUMPDEST PUSH1 0x0 DUP1 REVERT JUMPDEST PUSH1 0x0 PUSH1 0x1F NOT PUSH1 0x1F DUP4 ADD AND SWAP1 POP SWAP2 SWAP1 POP JUMP JUMPDEST PUSH1 0x0 DUP2 PUSH1 0x60 SHL SWAP1 POP SWAP2 SWAP1 POP JUMP JUMPDEST PUSH1 0x0 DUP2 PUSH1 0x0 SHR SWAP1 POP SWAP2 SWAP1 POP JUMP JUMPDEST PUSH1 0x0 DUP2 PUSH1 0x80 SHR SWAP1 POP SWAP2 SWAP1 POP JUMP JUMPDEST PUSH1 0x0 DUP2 PUSH1 0xA0 SHR SWAP1 POP SWAP2 SWAP1 POP JUMP JUMPDEST PUSH1 0x0 DUP2 PUSH1 0xB8 SHR SWAP1 POP SWAP2 SWAP1 POP JUMP JUMPDEST PUSH1 0x0 DUP2 PUSH1 0xD0 SHR SWAP1 POP SWAP2 SWAP1 POP JUMP JUMPDEST PUSH1 0x0 DUP2 PUSH1 0xE8 SHR SWAP1 POP SWAP2 SWAP1 POP JUMP JUMPDEST PUSH1 0x0 DUP2 PUSH1 0x20 SHR SWAP1 POP SWAP2 SWAP1 POP JUMP JUMPDEST PUSH1 0x0 DUP2 PUSH1 0x40 SHR SWAP1 POP SWAP2 SWAP1 POP JUMP JUMPDEST PUSH1 0x0 DUP2 PUSH1 0x60 SHR SWAP1 POP SWAP2 SWAP1 POP JUMP JUMPDEST PUSH32 0x4D7573742062652070726F706F736564206F776E657200000000000000000000 PUSH1 0x0 DUP3 ADD MSTORE POP JUMP JUMPDEST PUSH32 0x5365636F6E64206D756C20636865636B206661696C6564000000000000000000 PUSH1 0x0 DUP3 ADD MSTORE POP JUMP JUMPDEST PUSH32 0x706F696E747320696E2073756D206D7573742062652064697374696E63740000 PUSH1 0x0 DUP3 ADD MSTORE POP JUMP JUMPDEST PUSH32 0x4F6E6C792063616C6C61626C65206279206F776E657200000000000000000000 PUSH1 0x0 DUP3 ADD MSTORE POP JUMP JUMPDEST PUSH32 0x6269674D6F64457870206661696C757265210000000000000000000000000000 PUSH1 0x0 DUP3 ADD MSTORE POP JUMP JUMPDEST PUSH32 0x696E76616C696420782D6F7264696E6174650000000000000000000000000000 PUSH1 0x0 DUP3 ADD MSTORE POP JUMP JUMPDEST PUSH32 0x626164207769746E657373000000000000000000000000000000000000000000 PUSH1 0x0 DUP3 ADD MSTORE POP JUMP JUMPDEST PUSH32 0x6164647228632A706B2B732A6729213D5F755769746E65737300000000000000 PUSH1 0x0 DUP3 ADD MSTORE POP JUMP JUMPDEST PUSH32 0x696E765A206D75737420626520696E7665727365206F66207A00000000000000 PUSH1 0x0 DUP3 ADD MSTORE POP JUMP JUMPDEST PUSH32 0x6347616D6D615769746E657373206973206E6F74206F6E206375727665000000 PUSH1 0x0 DUP3 ADD MSTORE POP JUMP JUMPDEST PUSH32 0x7075626C6963206B6579206973206E6F74206F6E206375727665000000000000 PUSH1 0x0 DUP3 ADD MSTORE POP JUMP JUMPDEST PUSH32 0x67616D6D61206973206E6F74206F6E2063757276650000000000000000000000 PUSH1 0x0 DUP3 ADD MSTORE POP JUMP JUMPDEST PUSH32 0x696E76616C69642070726F6F6600000000000000000000000000000000000000 PUSH1 0x0 DUP3 ADD MSTORE POP JUMP JUMPDEST PUSH32 0x43616E6E6F74207472616E7366657220746F2073656C66000000000000000000 PUSH1 0x0 DUP3 ADD MSTORE POP JUMP JUMPDEST PUSH32 0x4669727374206D756C20636865636B206661696C656400000000000000000000 PUSH1 0x0 DUP3 ADD MSTORE POP JUMP JUMPDEST PUSH32 0x7A65726F207363616C6172000000000000000000000000000000000000000000 PUSH1 0x0 DUP3 ADD MSTORE POP JUMP JUMPDEST PUSH32 0x696E76616C696420792D6F7264696E6174650000000000000000000000000000 PUSH1 0x0 DUP3 ADD MSTORE POP JUMP JUMPDEST PUSH32 0x73486173685769746E657373206973206E6F74206F6E20637572766500000000 PUSH1 0x0 DUP3 ADD MSTORE POP JUMP JUMPDEST PUSH2 0x8DF1 DUP2 PUSH2 0x85D1 JUMP JUMPDEST DUP2 EQ PUSH2 0x8DFC JUMPI PUSH1 0x0 DUP1 REVERT JUMPDEST POP JUMP JUMPDEST PUSH2 0x8E08 DUP2 PUSH2 0x85E3 JUMP JUMPDEST DUP2 EQ PUSH2 0x8E13 JUMPI PUSH1 0x0 DUP1 REVERT JUMPDEST POP JUMP JUMPDEST PUSH2 0x8E1F DUP2 PUSH2 0x85EF JUMP JUMPDEST DUP2 EQ PUSH2 0x8E2A JUMPI PUSH1 0x0 DUP1 REVERT JUMPDEST POP JUMP JUMPDEST PUSH2 0x8E36 DUP2 PUSH2 0x85F9 JUMP JUMPDEST DUP2 EQ PUSH2 0x8E41 JUMPI PUSH1 0x0 DUP1 REVERT JUMPDEST POP JUMP JUMPDEST PUSH2 0x8E4D DUP2 PUSH2 0x8603 JUMP JUMPDEST DUP2 EQ PUSH2 0x8E58 JUMPI PUSH1 0x0 DUP1 REVERT JUMPDEST POP JUMP JUMPDEST PUSH2 0x8E64 DUP2 PUSH2 0x8631 JUMP JUMPDEST DUP2 EQ PUSH2 0x8E6F JUMPI PUSH1 0x0 DUP1 REVERT JUMPDEST POP JUMP JUMPDEST PUSH2 0x8E7B DUP2 PUSH2 0x8640 JUMP JUMPDEST DUP2 EQ PUSH2 0x8E86 JUMPI PUSH1 0x0 DUP1 REVERT JUMPDEST POP JUMP JUMPDEST PUSH2 0x8E92 DUP2 PUSH2 0x864A JUMP JUMPDEST DUP2 EQ PUSH2 0x8E9D JUMPI PUSH1 0x0 DUP1 REVERT JUMPDEST POP JUMP JUMPDEST PUSH2 0x8EA9 DUP2 PUSH2 0x865A JUMP JUMPDEST DUP2 EQ PUSH2 0x8EB4 JUMPI PUSH1 0x0 DUP1 REVERT JUMPDEST POP JUMP JUMPDEST PUSH2 0x8EC0 DUP2 PUSH2 0x867B JUMP JUMPDEST DUP2 EQ PUSH2 0x8ECB JUMPI PUSH1 0x0 DUP1 REVERT JUMPDEST POP JUMP JUMPDEST PUSH2 0x8ED7 DUP2 PUSH2 0x8691 JUMP JUMPDEST DUP2 EQ PUSH2 0x8EE2 JUMPI PUSH1 0x0 DUP1 REVERT JUMPDEST POP JUMP INVALID ADDRESS PUSH25 0x66666666666666666666666666666666666666666666666666 PUSH7 0x66666666666666 PUSH7 0x66666666666666 PUSH7 0x66666666666666 PUSH7 0x66666666666666 PUSH7 0x66666666666666 PUSH7 0x66666666A26469 PUSH17 0x66735822122077553FCC39877EFC5A81C6 0xCD PUSH5 0xCF2056ECEA 0x49 0xC6 0xE2 0xD2 LOG0 PUSH6 0x70E09B5FFC2D 0xED 0xCD PUSH5 0x736F6C6343 STOP ADDMOD MOD STOP CALLER "},"gasEstimates":{"creation":{"codeDepositCost":"7341400","executionCost":"infinite","totalCost":"infinite"},"external":{"BLOCKHASH_STORE()":"infinite","LINK()":"infinite","LINK_ETH_FEED()":"infinite","MAX_CONSUMERS()":"402","MAX_NUM_WORDS()":"403","MAX_REQUEST_CONFIRMATIONS()":"425","acceptOwnership()":"54630","acceptSubscriptionOwnerTransfer(uint64)":"infinite","addConsumer(uint64,address)":"infinite","cancelSubscription(uint64,address)":"infinite","createSubscription()":"infinite","deregisterProvingKey(uint256[2])":"infinite","fulfillRandomWords((uint256[2],uint256[2],uint256,uint256,uint256,address,uint256[2],uint256[2],uint256),(uint64,uint64,uint32,uint32,address))":"infinite","getCommitment(uint256)":"2913","getConfig()":"infinite","getCurrentSubId()":"2592","getFallbackWeiPerUnitLink()":"2483","getFeeConfig()":"infinite","getFeeTier(uint64)":"21060","getRequestConfig()":"infinite","getSubscription(uint64)":"infinite","getTotalBalance()":"2597","hashOfKey(uint256[2])":"infinite","onTokenTransfer(address,uint256,bytes)":"infinite","oracleWithdraw(address,uint96)":"infinite","owner()":"2567","ownerCancelSubscription(uint64)":"infinite","pendingRequestExists(uint64)":"infinite","recoverFunds(address)":"infinite","registerProvingKey(address,uint256[2])":"infinite","removeConsumer(uint64,address)":"infinite","requestRandomWords(bytes32,uint64,uint16,uint32,uint32)":"infinite","requestSubscriptionOwnerTransfer(uint64,address)":"infinite","setConfig(uint16,uint32,uint32,uint32,int256,(uint32,uint32,uint32,uint32,uint32,uint24,uint24,uint24,uint24))":"infinite","transferOwnership(address)":"30789","typeAndVersion()":"infinite"},"internal":{"_calculatePaymentAmount(uint256,uint256,uint32,uint256)":"infinite","_callWithExactGas(uint256,address,bytes memory)":"infinite","_cancelSubscriptionHelper(uint64,address)":"infinite","_computeRequestId(bytes32,address,uint64,uint64)":"infinite","_getFeedData()":"infinite","_getRandomnessFromProof(struct VRF.Proof memory,struct VRFCoordinatorV2.RequestCommitment memory)":"infinite"}},"methodIdentifiers":{"BLOCKHASH_STORE()":"689c4517","LINK()":"1b6b6d23","LINK_ETH_FEED()":"ad178361","MAX_CONSUMERS()":"64d51a2a","MAX_NUM_WORDS()":"40d6bb82","MAX_REQUEST_CONFIRMATIONS()":"15c48b84","acceptOwnership()":"79ba5097","acceptSubscriptionOwnerTransfer(uint64)":"82359740","addConsumer(uint64,address)":"7341c10c","cancelSubscription(uint64,address)":"d7ae1d30","createSubscription()":"a21a23e4","deregisterProvingKey(uint256[2])":"08821d58","fulfillRandomWords((uint256[2],uint256[2],uint256,uint256,uint256,address,uint256[2],uint256[2],uint256),(uint64,uint64,uint32,uint32,address))":"af198b97","getCommitment(uint256)":"69bcdb7d","getConfig()":"c3f909d4","getCurrentSubId()":"06bfa637","getFallbackWeiPerUnitLink()":"356dac71","getFeeConfig()":"5fbbc0d2","getFeeTier(uint64)":"d2f9f9a7","getRequestConfig()":"00012291","getSubscription(uint64)":"a47c7696","getTotalBalance()":"12b58349","hashOfKey(uint256[2])":"caf70c4a","onTokenTransfer(address,uint256,bytes)":"a4c0ed36","oracleWithdraw(address,uint96)":"66316d8d","owner()":"8da5cb5b","ownerCancelSubscription(uint64)":"02bcc5b6","pendingRequestExists(uint64)":"e82ad7d4","recoverFunds(address)":"e72f6e30","registerProvingKey(address,uint256[2])":"6f64f03f","removeConsumer(uint64,address)":"9f87fad7","requestRandomWords(bytes32,uint64,uint16,uint32,uint32)":"5d3b1d30","requestSubscriptionOwnerTransfer(uint64,address)":"04c357cb","setConfig(uint16,uint32,uint32,uint32,int256,(uint32,uint32,uint32,uint32,uint32,uint24,uint24,uint24,uint24))":"4cb48a54","transferOwnership(address)":"f2fde38b","typeAndVersion()":"181f5a77"}},"storageLayout":{"storage":[{"astId":390,"contract":"@chainlink/contracts/src/v0.8/vrf/VRFCoordinatorV2.sol:VRFCoordinatorV2","label":"s_owner","offset":0,"slot":"0","type":"t_address"},{"astId":392,"contract":"@chainlink/contracts/src/v0.8/vrf/VRFCoordinatorV2.sol:VRFCoordinatorV2","label":"s_pendingOwner","offset":0,"slot":"1","type":"t_address"},{"astId":2553,"contract":"@chainlink/contracts/src/v0.8/vrf/VRFCoordinatorV2.sol:VRFCoordinatorV2","label":"s_consumers","offset":0,"slot":"2","type":"t_mapping(t_address,t_mapping(t_uint64,t_uint64))"},{"astId":2558,"contract":"@chainlink/contracts/src/v0.8/vrf/VRFCoordinatorV2.sol:VRFCoordinatorV2","label":"s_subscriptionConfigs","offset":0,"slot":"3","type":"t_mapping(t_uint64,t_struct(SubscriptionConfig)2547_storage)"},{"astId":2563,"contract":"@chainlink/contracts/src/v0.8/vrf/VRFCoordinatorV2.sol:VRFCoordinatorV2","label":"s_subscriptions","offset":0,"slot":"4","type":"t_mapping(t_uint64,t_struct(Subscription)2539_storage)"},{"astId":2565,"contract":"@chainlink/contracts/src/v0.8/vrf/VRFCoordinatorV2.sol:VRFCoordinatorV2","label":"s_currentSubId","offset":0,"slot":"5","type":"t_uint64"},{"astId":2567,"contract":"@chainlink/contracts/src/v0.8/vrf/VRFCoordinatorV2.sol:VRFCoordinatorV2","label":"s_totalBalance","offset":8,"slot":"5","type":"t_uint96"},{"astId":2691,"contract":"@chainlink/contracts/src/v0.8/vrf/VRFCoordinatorV2.sol:VRFCoordinatorV2","label":"s_provingKeys","offset":0,"slot":"6","type":"t_mapping(t_bytes32,t_address)"},{"astId":2694,"contract":"@chainlink/contracts/src/v0.8/vrf/VRFCoordinatorV2.sol:VRFCoordinatorV2","label":"s_provingKeyHashes","offset":0,"slot":"7","type":"t_array(t_bytes32)dyn_storage"},{"astId":2698,"contract":"@chainlink/contracts/src/v0.8/vrf/VRFCoordinatorV2.sol:VRFCoordinatorV2","label":"s_withdrawableTokens","offset":0,"slot":"8","type":"t_mapping(t_address,t_uint96)"},{"astId":2702,"contract":"@chainlink/contracts/src/v0.8/vrf/VRFCoordinatorV2.sol:VRFCoordinatorV2","label":"s_requestCommitments","offset":0,"slot":"9","type":"t_mapping(t_uint256,t_bytes32)"},{"astId":2755,"contract":"@chainlink/contracts/src/v0.8/vrf/VRFCoordinatorV2.sol:VRFCoordinatorV2","label":"s_fallbackWeiPerUnitLink","offset":0,"slot":"10","type":"t_int256"},{"astId":2758,"contract":"@chainlink/contracts/src/v0.8/vrf/VRFCoordinatorV2.sol:VRFCoordinatorV2","label":"s_config","offset":0,"slot":"11","type":"t_struct(Config)2753_storage"},{"astId":2761,"contract":"@chainlink/contracts/src/v0.8/vrf/VRFCoordinatorV2.sol:VRFCoordinatorV2","label":"s_feeConfig","offset":0,"slot":"12","type":"t_struct(FeeConfig)2780_storage"}],"types":{"t_address":{"encoding":"inplace","label":"address","numberOfBytes":"20"},"t_array(t_address)dyn_storage":{"base":"t_address","encoding":"dynamic_array","label":"address[]","numberOfBytes":"32"},"t_array(t_bytes32)dyn_storage":{"base":"t_bytes32","encoding":"dynamic_array","label":"bytes32[]","numberOfBytes":"32"},"t_bool":{"encoding":"inplace","label":"bool","numberOfBytes":"1"},"t_bytes32":{"encoding":"inplace","label":"bytes32","numberOfBytes":"32"},"t_int256":{"encoding":"inplace","label":"int256","numberOfBytes":"32"},"t_mapping(t_address,t_mapping(t_uint64,t_uint64))":{"encoding":"mapping","key":"t_address","label":"mapping(address => mapping(uint64 => uint64))","numberOfBytes":"32","value":"t_mapping(t_uint64,t_uint64)"},"t_mapping(t_address,t_uint96)":{"encoding":"mapping","key":"t_address","label":"mapping(address => uint96)","numberOfBytes":"32","value":"t_uint96"},"t_mapping(t_bytes32,t_address)":{"encoding":"mapping","key":"t_bytes32","label":"mapping(bytes32 => address)","numberOfBytes":"32","value":"t_address"},"t_mapping(t_uint256,t_bytes32)":{"encoding":"mapping","key":"t_uint256","label":"mapping(uint256 => bytes32)","numberOfBytes":"32","value":"t_bytes32"},"t_mapping(t_uint64,t_struct(Subscription)2539_storage)":{"encoding":"mapping","key":"t_uint64","label":"mapping(uint64 => struct VRFCoordinatorV2.Subscription)","numberOfBytes":"32","value":"t_struct(Subscription)2539_storage"},"t_mapping(t_uint64,t_struct(SubscriptionConfig)2547_storage)":{"encoding":"mapping","key":"t_uint64","label":"mapping(uint64 => struct VRFCoordinatorV2.SubscriptionConfig)","numberOfBytes":"32","value":"t_struct(SubscriptionConfig)2547_storage"},"t_mapping(t_uint64,t_uint64)":{"encoding":"mapping","key":"t_uint64","label":"mapping(uint64 => uint64)","numberOfBytes":"32","value":"t_uint64"},"t_struct(Config)2753_storage":{"encoding":"inplace","label":"struct VRFCoordinatorV2.Config","members":[{"astId":2744,"contract":"@chainlink/contracts/src/v0.8/vrf/VRFCoordinatorV2.sol:VRFCoordinatorV2","label":"minimumRequestConfirmations","offset":0,"slot":"0","type":"t_uint16"},{"astId":2746,"contract":"@chainlink/contracts/src/v0.8/vrf/VRFCoordinatorV2.sol:VRFCoordinatorV2","label":"maxGasLimit","offset":2,"slot":"0","type":"t_uint32"},{"astId":2748,"contract":"@chainlink/contracts/src/v0.8/vrf/VRFCoordinatorV2.sol:VRFCoordinatorV2","label":"reentrancyLock","offset":6,"slot":"0","type":"t_bool"},{"astId":2750,"contract":"@chainlink/contracts/src/v0.8/vrf/VRFCoordinatorV2.sol:VRFCoordinatorV2","label":"stalenessSeconds","offset":7,"slot":"0","type":"t_uint32"},{"astId":2752,"contract":"@chainlink/contracts/src/v0.8/vrf/VRFCoordinatorV2.sol:VRFCoordinatorV2","label":"gasAfterPaymentCalculation","offset":11,"slot":"0","type":"t_uint32"}],"numberOfBytes":"32"},"t_struct(FeeConfig)2780_storage":{"encoding":"inplace","label":"struct VRFCoordinatorV2.FeeConfig","members":[{"astId":2763,"contract":"@chainlink/contracts/src/v0.8/vrf/VRFCoordinatorV2.sol:VRFCoordinatorV2","label":"fulfillmentFlatFeeLinkPPMTier1","offset":0,"slot":"0","type":"t_uint32"},{"astId":2765,"contract":"@chainlink/contracts/src/v0.8/vrf/VRFCoordinatorV2.sol:VRFCoordinatorV2","label":"fulfillmentFlatFeeLinkPPMTier2","offset":4,"slot":"0","type":"t_uint32"},{"astId":2767,"contract":"@chainlink/contracts/src/v0.8/vrf/VRFCoordinatorV2.sol:VRFCoordinatorV2","label":"fulfillmentFlatFeeLinkPPMTier3","offset":8,"slot":"0","type":"t_uint32"},{"astId":2769,"contract":"@chainlink/contracts/src/v0.8/vrf/VRFCoordinatorV2.sol:VRFCoordinatorV2","label":"fulfillmentFlatFeeLinkPPMTier4","offset":12,"slot":"0","type":"t_uint32"},{"astId":2771,"contract":"@chainlink/contracts/src/v0.8/vrf/VRFCoordinatorV2.sol:VRFCoordinatorV2","label":"fulfillmentFlatFeeLinkPPMTier5","offset":16,"slot":"0","type":"t_uint32"},{"astId":2773,"contract":"@chainlink/contracts/src/v0.8/vrf/VRFCoordinatorV2.sol:VRFCoordinatorV2","label":"reqsForTier2","offset":20,"slot":"0","type":"t_uint24"},{"astId":2775,"contract":"@chainlink/contracts/src/v0.8/vrf/VRFCoordinatorV2.sol:VRFCoordinatorV2","label":"reqsForTier3","offset":23,"slot":"0","type":"t_uint24"},{"astId":2777,"contract":"@chainlink/contracts/src/v0.8/vrf/VRFCoordinatorV2.sol:VRFCoordinatorV2","label":"reqsForTier4","offset":26,"slot":"0","type":"t_uint24"},{"astId":2779,"contract":"@chainlink/contracts/src/v0.8/vrf/VRFCoordinatorV2.sol:VRFCoordinatorV2","label":"reqsForTier5","offset":29,"slot":"0","type":"t_uint24"}],"numberOfBytes":"32"},"t_struct(Subscription)2539_storage":{"encoding":"inplace","label":"struct VRFCoordinatorV2.Subscription","members":[{"astId":2536,"contract":"@chainlink/contracts/src/v0.8/vrf/VRFCoordinatorV2.sol:VRFCoordinatorV2","label":"balance","offset":0,"slot":"0","type":"t_uint96"},{"astId":2538,"contract":"@chainlink/contracts/src/v0.8/vrf/VRFCoordinatorV2.sol:VRFCoordinatorV2","label":"reqCount","offset":12,"slot":"0","type":"t_uint64"}],"numberOfBytes":"32"},"t_struct(SubscriptionConfig)2547_storage":{"encoding":"inplace","label":"struct VRFCoordinatorV2.SubscriptionConfig","members":[{"astId":2541,"contract":"@chainlink/contracts/src/v0.8/vrf/VRFCoordinatorV2.sol:VRFCoordinatorV2","label":"owner","offset":0,"slot":"0","type":"t_address"},{"astId":2543,"contract":"@chainlink/contracts/src/v0.8/vrf/VRFCoordinatorV2.sol:VRFCoordinatorV2","label":"requestedOwner","offset":0,"slot":"1","type":"t_address"},{"astId":2546,"contract":"@chainlink/contracts/src/v0.8/vrf/VRFCoordinatorV2.sol:VRFCoordinatorV2","label":"consumers","offset":0,"slot":"2","type":"t_array(t_address)dyn_storage"}],"numberOfBytes":"96"},"t_uint16":{"encoding":"inplace","label":"uint16","numberOfBytes":"2"},"t_uint24":{"encoding":"inplace","label":"uint24","numberOfBytes":"3"},"t_uint256":{"encoding":"inplace","label":"uint256","numberOfBytes":"32"},"t_uint32":{"encoding":"inplace","label":"uint32","numberOfBytes":"4"},"t_uint64":{"encoding":"inplace","label":"uint64","numberOfBytes":"8"},"t_uint96":{"encoding":"inplace","label":"uint96","numberOfBytes":"12"}}},"userdoc":{"kind":"user","methods":{"acceptOwnership()":{"notice":"Allows an ownership transfer to be completed by the recipient."},"acceptSubscriptionOwnerTransfer(uint64)":{"notice":"Request subscription owner transfer."},"addConsumer(uint64,address)":{"notice":"Add a consumer to a VRF subscription."},"cancelSubscription(uint64,address)":{"notice":"Cancel a subscription"},"createSubscription()":{"notice":"Create a VRF subscription."},"deregisterProvingKey(uint256[2])":{"notice":"Deregisters a proving key to an oracle."},"getCommitment(uint256)":{"notice":"Get request commitment"},"getRequestConfig()":{"notice":"Get configuration relevant for making requests"},"getSubscription(uint64)":{"notice":"Get a VRF subscription."},"hashOfKey(uint256[2])":{"notice":"Returns the proving key hash key associated with this public key"},"owner()":{"notice":"Get the current owner"},"ownerCancelSubscription(uint64)":{"notice":"Owner cancel subscription, sends remaining link directly to the subscription owner."},"recoverFunds(address)":{"notice":"Recover link sent with transfer instead of transferAndCall."},"registerProvingKey(address,uint256[2])":{"notice":"Registers a proving key to an oracle."},"removeConsumer(uint64,address)":{"notice":"Remove a consumer from a VRF subscription."},"requestRandomWords(bytes32,uint64,uint16,uint32,uint32)":{"notice":"Request a set of random words."},"requestSubscriptionOwnerTransfer(uint64,address)":{"notice":"Request subscription owner transfer."},"setConfig(uint16,uint32,uint32,uint32,int256,(uint32,uint32,uint32,uint32,uint32,uint24,uint24,uint24,uint24))":{"notice":"Sets the configuration of the vrfv2 coordinator"},"transferOwnership(address)":{"notice":"Allows an owner to begin transferring ownership to a new address."},"typeAndVersion()":{"notice":"The type and version of this contract"}},"version":1}}}}